{
	"Constructor.sol": {
		"B": {
			"abi": [
				{
					"inputs": [
						{
							"internalType": "int256",
							"name": "_I",
							"type": "int256"
						},
						{
							"internalType": "uint256",
							"name": "_U",
							"type": "uint256"
						},
						{
							"internalType": "string",
							"name": "_S",
							"type": "string"
						}
					],
					"stateMutability": "nonpayable",
					"type": "constructor"
				},
				{
					"inputs": [],
					"name": "I",
					"outputs": [
						{
							"internalType": "int256",
							"name": "",
							"type": "int256"
						}
					],
					"stateMutability": "view",
					"type": "function"
				},
				{
					"inputs": [],
					"name": "S",
					"outputs": [
						{
							"internalType": "string",
							"name": "",
							"type": "string"
						}
					],
					"stateMutability": "view",
					"type": "function"
				},
				{
					"inputs": [],
					"name": "U",
					"outputs": [
						{
							"internalType": "uint256",
							"name": "",
							"type": "uint256"
						}
					],
					"stateMutability": "view",
					"type": "function"
				}
			],
			"devdoc": {
				"kind": "dev",
				"methods": {},
				"version": 1
			},
			"evm": {
				"assembly": "    /* \"Constructor.sol\":165:352  contract B {... */\n  mstore(0x40, 0x80)\n    /* \"Constructor.sol\":244:349  constructor(int _I, uint _U, string memory _S){... */\n  callvalue\n  dup1\n  iszero\n  tag_1\n  jumpi\n  0x00\n  dup1\n  revert\ntag_1:\n  pop\n  mload(0x40)\n  sub(codesize, bytecodeSize)\n  dup1\n  bytecodeSize\n  dup4\n  codecopy\n  dup2\n  dup2\n  add\n  0x40\n  mstore\n  dup2\n  add\n  swap1\n  tag_2\n  swap2\n  swap1\n  tag_3\n  jump\t// in\ntag_2:\n    /* \"Constructor.sol\":305:307  _I */\n  dup3\n    /* \"Constructor.sol\":301:302  I */\n  0x00\n    /* \"Constructor.sol\":301:307  I = _I */\n  dup2\n  swap1\n  sstore\n  pop\n    /* \"Constructor.sol\":322:324  _U */\n  dup2\n    /* \"Constructor.sol\":318:319  U */\n  0x01\n    /* \"Constructor.sol\":318:324  U = _U */\n  dup2\n  swap1\n  sstore\n  pop\n    /* \"Constructor.sol\":339:341  _S */\n  dup1\n    /* \"Constructor.sol\":335:336  S */\n  0x02\n    /* \"Constructor.sol\":335:341  S = _S */\n  swap1\n  dup2\n  tag_6\n  swap2\n  swap1\n  tag_7\n  jump\t// in\ntag_6:\n  pop\n    /* \"Constructor.sol\":244:349  constructor(int _I, uint _U, string memory _S){... */\n  pop\n  pop\n  pop\n    /* \"Constructor.sol\":165:352  contract B {... */\n  jump(tag_8)\n    /* \"#utility.yul\":7:82   */\ntag_9:\n    /* \"#utility.yul\":40:46   */\n  0x00\n    /* \"#utility.yul\":73:75   */\n  0x40\n    /* \"#utility.yul\":67:76   */\n  mload\n    /* \"#utility.yul\":57:76   */\n  swap1\n  pop\n    /* \"#utility.yul\":7:82   */\n  swap1\n  jump\t// out\n    /* \"#utility.yul\":88:205   */\ntag_10:\n    /* \"#utility.yul\":197:198   */\n  0x00\n    /* \"#utility.yul\":194:195   */\n  dup1\n    /* \"#utility.yul\":187:199   */\n  revert\n    /* \"#utility.yul\":211:328   */\ntag_11:\n    /* \"#utility.yul\":320:321   */\n  0x00\n    /* \"#utility.yul\":317:318   */\n  dup1\n    /* \"#utility.yul\":310:322   */\n  revert\n    /* \"#utility.yul\":334:410   */\ntag_12:\n    /* \"#utility.yul\":370:377   */\n  0x00\n    /* \"#utility.yul\":399:404   */\n  dup2\n    /* \"#utility.yul\":388:404   */\n  swap1\n  pop\n    /* \"#utility.yul\":334:410   */\n  swap2\n  swap1\n  pop\n  jump\t// out\n    /* \"#utility.yul\":416:536   */\ntag_13:\n    /* \"#utility.yul\":488:511   */\n  tag_52\n    /* \"#utility.yul\":505:510   */\n  dup2\n    /* \"#utility.yul\":488:511   */\n  tag_12\n  jump\t// in\ntag_52:\n    /* \"#utility.yul\":481:486   */\n  dup2\n    /* \"#utility.yul\":478:512   */\n  eq\n    /* \"#utility.yul\":468:530   */\n  tag_53\n  jumpi\n    /* \"#utility.yul\":526:527   */\n  0x00\n    /* \"#utility.yul\":523:524   */\n  dup1\n    /* \"#utility.yul\":516:528   */\n  revert\n    /* \"#utility.yul\":468:530   */\ntag_53:\n    /* \"#utility.yul\":416:536   */\n  pop\n  jump\t// out\n    /* \"#utility.yul\":542:683   */\ntag_14:\n    /* \"#utility.yul\":598:603   */\n  0x00\n    /* \"#utility.yul\":629:635   */\n  dup2\n    /* \"#utility.yul\":623:636   */\n  mload\n    /* \"#utility.yul\":614:636   */\n  swap1\n  pop\n    /* \"#utility.yul\":645:677   */\n  tag_55\n    /* \"#utility.yul\":671:676   */\n  dup2\n    /* \"#utility.yul\":645:677   */\n  tag_13\n  jump\t// in\ntag_55:\n    /* \"#utility.yul\":542:683   */\n  swap3\n  swap2\n  pop\n  pop\n  jump\t// out\n    /* \"#utility.yul\":689:766   */\ntag_15:\n    /* \"#utility.yul\":726:733   */\n  0x00\n    /* \"#utility.yul\":755:760   */\n  dup2\n    /* \"#utility.yul\":744:760   */\n  swap1\n  pop\n    /* \"#utility.yul\":689:766   */\n  swap2\n  swap1\n  pop\n  jump\t// out\n    /* \"#utility.yul\":772:894   */\ntag_16:\n    /* \"#utility.yul\":845:869   */\n  tag_58\n    /* \"#utility.yul\":863:868   */\n  dup2\n    /* \"#utility.yul\":845:869   */\n  tag_15\n  jump\t// in\ntag_58:\n    /* \"#utility.yul\":838:843   */\n  dup2\n    /* \"#utility.yul\":835:870   */\n  eq\n    /* \"#utility.yul\":825:888   */\n  tag_59\n  jumpi\n    /* \"#utility.yul\":884:885   */\n  0x00\n    /* \"#utility.yul\":881:882   */\n  dup1\n    /* \"#utility.yul\":874:886   */\n  revert\n    /* \"#utility.yul\":825:888   */\ntag_59:\n    /* \"#utility.yul\":772:894   */\n  pop\n  jump\t// out\n    /* \"#utility.yul\":900:1043   */\ntag_17:\n    /* \"#utility.yul\":957:962   */\n  0x00\n    /* \"#utility.yul\":988:994   */\n  dup2\n    /* \"#utility.yul\":982:995   */\n  mload\n    /* \"#utility.yul\":973:995   */\n  swap1\n  pop\n    /* \"#utility.yul\":1004:1037   */\n  tag_61\n    /* \"#utility.yul\":1031:1036   */\n  dup2\n    /* \"#utility.yul\":1004:1037   */\n  tag_16\n  jump\t// in\ntag_61:\n    /* \"#utility.yul\":900:1043   */\n  swap3\n  swap2\n  pop\n  pop\n  jump\t// out\n    /* \"#utility.yul\":1049:1166   */\ntag_18:\n    /* \"#utility.yul\":1158:1159   */\n  0x00\n    /* \"#utility.yul\":1155:1156   */\n  dup1\n    /* \"#utility.yul\":1148:1160   */\n  revert\n    /* \"#utility.yul\":1172:1289   */\ntag_19:\n    /* \"#utility.yul\":1281:1282   */\n  0x00\n    /* \"#utility.yul\":1278:1279   */\n  dup1\n    /* \"#utility.yul\":1271:1283   */\n  revert\n    /* \"#utility.yul\":1295:1397   */\ntag_20:\n    /* \"#utility.yul\":1336:1342   */\n  0x00\n    /* \"#utility.yul\":1387:1389   */\n  0x1f\n    /* \"#utility.yul\":1383:1390   */\n  not\n    /* \"#utility.yul\":1378:1380   */\n  0x1f\n    /* \"#utility.yul\":1371:1376   */\n  dup4\n    /* \"#utility.yul\":1367:1381   */\n  add\n    /* \"#utility.yul\":1363:1391   */\n  and\n    /* \"#utility.yul\":1353:1391   */\n  swap1\n  pop\n    /* \"#utility.yul\":1295:1397   */\n  swap2\n  swap1\n  pop\n  jump\t// out\n    /* \"#utility.yul\":1403:1583   */\ntag_21:\n    /* \"#utility.yul\":1451:1528   */\n  0x4e487b7100000000000000000000000000000000000000000000000000000000\n    /* \"#utility.yul\":1448:1449   */\n  0x00\n    /* \"#utility.yul\":1441:1529   */\n  mstore\n    /* \"#utility.yul\":1548:1552   */\n  0x41\n    /* \"#utility.yul\":1545:1546   */\n  0x04\n    /* \"#utility.yul\":1538:1553   */\n  mstore\n    /* \"#utility.yul\":1572:1576   */\n  0x24\n    /* \"#utility.yul\":1569:1570   */\n  0x00\n    /* \"#utility.yul\":1562:1577   */\n  revert\n    /* \"#utility.yul\":1589:1870   */\ntag_22:\n    /* \"#utility.yul\":1672:1699   */\n  tag_67\n    /* \"#utility.yul\":1694:1698   */\n  dup3\n    /* \"#utility.yul\":1672:1699   */\n  tag_20\n  jump\t// in\ntag_67:\n    /* \"#utility.yul\":1664:1670   */\n  dup2\n    /* \"#utility.yul\":1660:1700   */\n  add\n    /* \"#utility.yul\":1802:1808   */\n  dup2\n    /* \"#utility.yul\":1790:1800   */\n  dup2\n    /* \"#utility.yul\":1787:1809   */\n  lt\n    /* \"#utility.yul\":1766:1784   */\n  0xffffffffffffffff\n    /* \"#utility.yul\":1754:1764   */\n  dup3\n    /* \"#utility.yul\":1751:1785   */\n  gt\n    /* \"#utility.yul\":1748:1810   */\n  or\n    /* \"#utility.yul\":1745:1833   */\n  iszero\n  tag_68\n  jumpi\n    /* \"#utility.yul\":1813:1831   */\n  tag_69\n  tag_21\n  jump\t// in\ntag_69:\n    /* \"#utility.yul\":1745:1833   */\ntag_68:\n    /* \"#utility.yul\":1853:1863   */\n  dup1\n    /* \"#utility.yul\":1849:1851   */\n  0x40\n    /* \"#utility.yul\":1842:1864   */\n  mstore\n    /* \"#utility.yul\":1632:1870   */\n  pop\n    /* \"#utility.yul\":1589:1870   */\n  pop\n  pop\n  jump\t// out\n    /* \"#utility.yul\":1876:2005   */\ntag_23:\n    /* \"#utility.yul\":1910:1916   */\n  0x00\n    /* \"#utility.yul\":1937:1957   */\n  tag_71\n  tag_9\n  jump\t// in\ntag_71:\n    /* \"#utility.yul\":1927:1957   */\n  swap1\n  pop\n    /* \"#utility.yul\":1966:1999   */\n  tag_72\n    /* \"#utility.yul\":1994:1998   */\n  dup3\n    /* \"#utility.yul\":1986:1992   */\n  dup3\n    /* \"#utility.yul\":1966:1999   */\n  tag_22\n  jump\t// in\ntag_72:\n    /* \"#utility.yul\":1876:2005   */\n  swap2\n  swap1\n  pop\n  jump\t// out\n    /* \"#utility.yul\":2011:2319   */\ntag_24:\n    /* \"#utility.yul\":2073:2077   */\n  0x00\n    /* \"#utility.yul\":2163:2181   */\n  0xffffffffffffffff\n    /* \"#utility.yul\":2155:2161   */\n  dup3\n    /* \"#utility.yul\":2152:2182   */\n  gt\n    /* \"#utility.yul\":2149:2205   */\n  iszero\n  tag_74\n  jumpi\n    /* \"#utility.yul\":2185:2203   */\n  tag_75\n  tag_21\n  jump\t// in\ntag_75:\n    /* \"#utility.yul\":2149:2205   */\ntag_74:\n    /* \"#utility.yul\":2223:2252   */\n  tag_76\n    /* \"#utility.yul\":2245:2251   */\n  dup3\n    /* \"#utility.yul\":2223:2252   */\n  tag_20\n  jump\t// in\ntag_76:\n    /* \"#utility.yul\":2215:2252   */\n  swap1\n  pop\n    /* \"#utility.yul\":2307:2311   */\n  0x20\n    /* \"#utility.yul\":2301:2305   */\n  dup2\n    /* \"#utility.yul\":2297:2312   */\n  add\n    /* \"#utility.yul\":2289:2312   */\n  swap1\n  pop\n    /* \"#utility.yul\":2011:2319   */\n  swap2\n  swap1\n  pop\n  jump\t// out\n    /* \"#utility.yul\":2325:2571   */\ntag_25:\n    /* \"#utility.yul\":2406:2407   */\n  0x00\n    /* \"#utility.yul\":2416:2529   */\ntag_78:\n    /* \"#utility.yul\":2430:2436   */\n  dup4\n    /* \"#utility.yul\":2427:2428   */\n  dup2\n    /* \"#utility.yul\":2424:2437   */\n  lt\n    /* \"#utility.yul\":2416:2529   */\n  iszero\n  tag_80\n  jumpi\n    /* \"#utility.yul\":2515:2516   */\n  dup1\n    /* \"#utility.yul\":2510:2513   */\n  dup3\n    /* \"#utility.yul\":2506:2517   */\n  add\n    /* \"#utility.yul\":2500:2518   */\n  mload\n    /* \"#utility.yul\":2496:2497   */\n  dup2\n    /* \"#utility.yul\":2491:2494   */\n  dup5\n    /* \"#utility.yul\":2487:2498   */\n  add\n    /* \"#utility.yul\":2480:2519   */\n  mstore\n    /* \"#utility.yul\":2452:2454   */\n  0x20\n    /* \"#utility.yul\":2449:2450   */\n  dup2\n    /* \"#utility.yul\":2445:2455   */\n  add\n    /* \"#utility.yul\":2440:2455   */\n  swap1\n  pop\n    /* \"#utility.yul\":2416:2529   */\n  jump(tag_78)\ntag_80:\n    /* \"#utility.yul\":2563:2564   */\n  0x00\n    /* \"#utility.yul\":2554:2560   */\n  dup5\n    /* \"#utility.yul\":2549:2552   */\n  dup5\n    /* \"#utility.yul\":2545:2561   */\n  add\n    /* \"#utility.yul\":2538:2565   */\n  mstore\n    /* \"#utility.yul\":2387:2571   */\n  pop\n    /* \"#utility.yul\":2325:2571   */\n  pop\n  pop\n  pop\n  jump\t// out\n    /* \"#utility.yul\":2577:3011   */\ntag_26:\n    /* \"#utility.yul\":2666:2671   */\n  0x00\n    /* \"#utility.yul\":2691:2757   */\n  tag_82\n    /* \"#utility.yul\":2707:2756   */\n  tag_83\n    /* \"#utility.yul\":2749:2755   */\n  dup5\n    /* \"#utility.yul\":2707:2756   */\n  tag_24\n  jump\t// in\ntag_83:\n    /* \"#utility.yul\":2691:2757   */\n  tag_23\n  jump\t// in\ntag_82:\n    /* \"#utility.yul\":2682:2757   */\n  swap1\n  pop\n    /* \"#utility.yul\":2780:2786   */\n  dup3\n    /* \"#utility.yul\":2773:2778   */\n  dup2\n    /* \"#utility.yul\":2766:2787   */\n  mstore\n    /* \"#utility.yul\":2818:2822   */\n  0x20\n    /* \"#utility.yul\":2811:2816   */\n  dup2\n    /* \"#utility.yul\":2807:2823   */\n  add\n    /* \"#utility.yul\":2856:2859   */\n  dup5\n    /* \"#utility.yul\":2847:2853   */\n  dup5\n    /* \"#utility.yul\":2842:2845   */\n  dup5\n    /* \"#utility.yul\":2838:2854   */\n  add\n    /* \"#utility.yul\":2835:2860   */\n  gt\n    /* \"#utility.yul\":2832:2944   */\n  iszero\n  tag_84\n  jumpi\n    /* \"#utility.yul\":2863:2942   */\n  tag_85\n  tag_19\n  jump\t// in\ntag_85:\n    /* \"#utility.yul\":2832:2944   */\ntag_84:\n    /* \"#utility.yul\":2953:3005   */\n  tag_86\n    /* \"#utility.yul\":2998:3004   */\n  dup5\n    /* \"#utility.yul\":2993:2996   */\n  dup3\n    /* \"#utility.yul\":2988:2991   */\n  dup6\n    /* \"#utility.yul\":2953:3005   */\n  tag_25\n  jump\t// in\ntag_86:\n    /* \"#utility.yul\":2672:3011   */\n  pop\n    /* \"#utility.yul\":2577:3011   */\n  swap4\n  swap3\n  pop\n  pop\n  pop\n  jump\t// out\n    /* \"#utility.yul\":3031:3386   */\ntag_27:\n    /* \"#utility.yul\":3098:3103   */\n  0x00\n    /* \"#utility.yul\":3147:3150   */\n  dup3\n    /* \"#utility.yul\":3140:3144   */\n  0x1f\n    /* \"#utility.yul\":3132:3138   */\n  dup4\n    /* \"#utility.yul\":3128:3145   */\n  add\n    /* \"#utility.yul\":3124:3151   */\n  slt\n    /* \"#utility.yul\":3114:3236   */\n  tag_88\n  jumpi\n    /* \"#utility.yul\":3155:3234   */\n  tag_89\n  tag_18\n  jump\t// in\ntag_89:\n    /* \"#utility.yul\":3114:3236   */\ntag_88:\n    /* \"#utility.yul\":3265:3271   */\n  dup2\n    /* \"#utility.yul\":3259:3272   */\n  mload\n    /* \"#utility.yul\":3290:3380   */\n  tag_90\n    /* \"#utility.yul\":3376:3379   */\n  dup5\n    /* \"#utility.yul\":3368:3374   */\n  dup3\n    /* \"#utility.yul\":3361:3365   */\n  0x20\n    /* \"#utility.yul\":3353:3359   */\n  dup7\n    /* \"#utility.yul\":3349:3366   */\n  add\n    /* \"#utility.yul\":3290:3380   */\n  tag_26\n  jump\t// in\ntag_90:\n    /* \"#utility.yul\":3281:3380   */\n  swap2\n  pop\n    /* \"#utility.yul\":3104:3386   */\n  pop\n    /* \"#utility.yul\":3031:3386   */\n  swap3\n  swap2\n  pop\n  pop\n  jump\t// out\n    /* \"#utility.yul\":3392:4226   */\ntag_3:\n    /* \"#utility.yul\":3489:3495   */\n  0x00\n    /* \"#utility.yul\":3497:3503   */\n  dup1\n    /* \"#utility.yul\":3505:3511   */\n  0x00\n    /* \"#utility.yul\":3554:3556   */\n  0x60\n    /* \"#utility.yul\":3542:3551   */\n  dup5\n    /* \"#utility.yul\":3533:3540   */\n  dup7\n    /* \"#utility.yul\":3529:3552   */\n  sub\n    /* \"#utility.yul\":3525:3557   */\n  slt\n    /* \"#utility.yul\":3522:3641   */\n  iszero\n  tag_92\n  jumpi\n    /* \"#utility.yul\":3560:3639   */\n  tag_93\n  tag_10\n  jump\t// in\ntag_93:\n    /* \"#utility.yul\":3522:3641   */\ntag_92:\n    /* \"#utility.yul\":3680:3681   */\n  0x00\n    /* \"#utility.yul\":3705:3768   */\n  tag_94\n    /* \"#utility.yul\":3760:3767   */\n  dup7\n    /* \"#utility.yul\":3751:3757   */\n  dup3\n    /* \"#utility.yul\":3740:3749   */\n  dup8\n    /* \"#utility.yul\":3736:3758   */\n  add\n    /* \"#utility.yul\":3705:3768   */\n  tag_14\n  jump\t// in\ntag_94:\n    /* \"#utility.yul\":3695:3768   */\n  swap4\n  pop\n    /* \"#utility.yul\":3651:3778   */\n  pop\n    /* \"#utility.yul\":3817:3819   */\n  0x20\n    /* \"#utility.yul\":3843:3907   */\n  tag_95\n    /* \"#utility.yul\":3899:3906   */\n  dup7\n    /* \"#utility.yul\":3890:3896   */\n  dup3\n    /* \"#utility.yul\":3879:3888   */\n  dup8\n    /* \"#utility.yul\":3875:3897   */\n  add\n    /* \"#utility.yul\":3843:3907   */\n  tag_17\n  jump\t// in\ntag_95:\n    /* \"#utility.yul\":3833:3907   */\n  swap3\n  pop\n    /* \"#utility.yul\":3788:3917   */\n  pop\n    /* \"#utility.yul\":3977:3979   */\n  0x40\n    /* \"#utility.yul\":3966:3975   */\n  dup5\n    /* \"#utility.yul\":3962:3980   */\n  add\n    /* \"#utility.yul\":3956:3981   */\n  mload\n    /* \"#utility.yul\":4008:4026   */\n  0xffffffffffffffff\n    /* \"#utility.yul\":4000:4006   */\n  dup2\n    /* \"#utility.yul\":3997:4027   */\n  gt\n    /* \"#utility.yul\":3994:4111   */\n  iszero\n  tag_96\n  jumpi\n    /* \"#utility.yul\":4030:4109   */\n  tag_97\n  tag_11\n  jump\t// in\ntag_97:\n    /* \"#utility.yul\":3994:4111   */\ntag_96:\n    /* \"#utility.yul\":4135:4209   */\n  tag_98\n    /* \"#utility.yul\":4201:4208   */\n  dup7\n    /* \"#utility.yul\":4192:4198   */\n  dup3\n    /* \"#utility.yul\":4181:4190   */\n  dup8\n    /* \"#utility.yul\":4177:4199   */\n  add\n    /* \"#utility.yul\":4135:4209   */\n  tag_27\n  jump\t// in\ntag_98:\n    /* \"#utility.yul\":4125:4209   */\n  swap2\n  pop\n    /* \"#utility.yul\":3927:4219   */\n  pop\n    /* \"#utility.yul\":3392:4226   */\n  swap3\n  pop\n  swap3\n  pop\n  swap3\n  jump\t// out\n    /* \"#utility.yul\":4232:4331   */\ntag_28:\n    /* \"#utility.yul\":4284:4290   */\n  0x00\n    /* \"#utility.yul\":4318:4323   */\n  dup2\n    /* \"#utility.yul\":4312:4324   */\n  mload\n    /* \"#utility.yul\":4302:4324   */\n  swap1\n  pop\n    /* \"#utility.yul\":4232:4331   */\n  swap2\n  swap1\n  pop\n  jump\t// out\n    /* \"#utility.yul\":4337:4517   */\ntag_29:\n    /* \"#utility.yul\":4385:4462   */\n  0x4e487b7100000000000000000000000000000000000000000000000000000000\n    /* \"#utility.yul\":4382:4383   */\n  0x00\n    /* \"#utility.yul\":4375:4463   */\n  mstore\n    /* \"#utility.yul\":4482:4486   */\n  0x22\n    /* \"#utility.yul\":4479:4480   */\n  0x04\n    /* \"#utility.yul\":4472:4487   */\n  mstore\n    /* \"#utility.yul\":4506:4510   */\n  0x24\n    /* \"#utility.yul\":4503:4504   */\n  0x00\n    /* \"#utility.yul\":4496:4511   */\n  revert\n    /* \"#utility.yul\":4523:4843   */\ntag_30:\n    /* \"#utility.yul\":4567:4573   */\n  0x00\n    /* \"#utility.yul\":4604:4605   */\n  0x02\n    /* \"#utility.yul\":4598:4602   */\n  dup3\n    /* \"#utility.yul\":4594:4606   */\n  div\n    /* \"#utility.yul\":4584:4606   */\n  swap1\n  pop\n    /* \"#utility.yul\":4651:4652   */\n  0x01\n    /* \"#utility.yul\":4645:4649   */\n  dup3\n    /* \"#utility.yul\":4641:4653   */\n  and\n    /* \"#utility.yul\":4672:4690   */\n  dup1\n    /* \"#utility.yul\":4662:4743   */\n  tag_102\n  jumpi\n    /* \"#utility.yul\":4728:4732   */\n  0x7f\n    /* \"#utility.yul\":4720:4726   */\n  dup3\n    /* \"#utility.yul\":4716:4733   */\n  and\n    /* \"#utility.yul\":4706:4733   */\n  swap2\n  pop\n    /* \"#utility.yul\":4662:4743   */\ntag_102:\n    /* \"#utility.yul\":4790:4792   */\n  0x20\n    /* \"#utility.yul\":4782:4788   */\n  dup3\n    /* \"#utility.yul\":4779:4793   */\n  lt\n    /* \"#utility.yul\":4759:4777   */\n  dup2\n    /* \"#utility.yul\":4756:4794   */\n  sub\n    /* \"#utility.yul\":4753:4837   */\n  tag_103\n  jumpi\n    /* \"#utility.yul\":4809:4827   */\n  tag_104\n  tag_29\n  jump\t// in\ntag_104:\n    /* \"#utility.yul\":4753:4837   */\ntag_103:\n    /* \"#utility.yul\":4574:4843   */\n  pop\n    /* \"#utility.yul\":4523:4843   */\n  swap2\n  swap1\n  pop\n  jump\t// out\n    /* \"#utility.yul\":4849:4990   */\ntag_31:\n    /* \"#utility.yul\":4898:4902   */\n  0x00\n    /* \"#utility.yul\":4921:4924   */\n  dup2\n    /* \"#utility.yul\":4913:4924   */\n  swap1\n  pop\n    /* \"#utility.yul\":4944:4947   */\n  dup2\n    /* \"#utility.yul\":4941:4942   */\n  0x00\n    /* \"#utility.yul\":4934:4948   */\n  mstore\n    /* \"#utility.yul\":4978:4982   */\n  0x20\n    /* \"#utility.yul\":4975:4976   */\n  0x00\n    /* \"#utility.yul\":4965:4983   */\n  keccak256\n    /* \"#utility.yul\":4957:4983   */\n  swap1\n  pop\n    /* \"#utility.yul\":4849:4990   */\n  swap2\n  swap1\n  pop\n  jump\t// out\n    /* \"#utility.yul\":4996:5089   */\ntag_32:\n    /* \"#utility.yul\":5033:5039   */\n  0x00\n    /* \"#utility.yul\":5080:5082   */\n  0x20\n    /* \"#utility.yul\":5075:5077   */\n  0x1f\n    /* \"#utility.yul\":5068:5073   */\n  dup4\n    /* \"#utility.yul\":5064:5078   */\n  add\n    /* \"#utility.yul\":5060:5083   */\n  div\n    /* \"#utility.yul\":5050:5083   */\n  swap1\n  pop\n    /* \"#utility.yul\":4996:5089   */\n  swap2\n  swap1\n  pop\n  jump\t// out\n    /* \"#utility.yul\":5095:5202   */\ntag_33:\n    /* \"#utility.yul\":5139:5147   */\n  0x00\n    /* \"#utility.yul\":5189:5194   */\n  dup3\n    /* \"#utility.yul\":5183:5187   */\n  dup3\n    /* \"#utility.yul\":5179:5195   */\n  shl\n    /* \"#utility.yul\":5158:5195   */\n  swap1\n  pop\n    /* \"#utility.yul\":5095:5202   */\n  swap3\n  swap2\n  pop\n  pop\n  jump\t// out\n    /* \"#utility.yul\":5208:5601   */\ntag_34:\n    /* \"#utility.yul\":5277:5283   */\n  0x00\n    /* \"#utility.yul\":5327:5328   */\n  0x08\n    /* \"#utility.yul\":5315:5325   */\n  dup4\n    /* \"#utility.yul\":5311:5329   */\n  mul\n    /* \"#utility.yul\":5350:5447   */\n  tag_109\n    /* \"#utility.yul\":5380:5446   */\n  0xffffffffffffffffffffffffffffffffffffffffffffffffffffffffffffffff\n    /* \"#utility.yul\":5369:5378   */\n  dup3\n    /* \"#utility.yul\":5350:5447   */\n  tag_33\n  jump\t// in\ntag_109:\n    /* \"#utility.yul\":5468:5507   */\n  tag_110\n    /* \"#utility.yul\":5498:5506   */\n  dup7\n    /* \"#utility.yul\":5487:5496   */\n  dup4\n    /* \"#utility.yul\":5468:5507   */\n  tag_33\n  jump\t// in\ntag_110:\n    /* \"#utility.yul\":5456:5507   */\n  swap6\n  pop\n    /* \"#utility.yul\":5540:5544   */\n  dup1\n    /* \"#utility.yul\":5536:5545   */\n  not\n    /* \"#utility.yul\":5529:5534   */\n  dup5\n    /* \"#utility.yul\":5525:5546   */\n  and\n    /* \"#utility.yul\":5516:5546   */\n  swap4\n  pop\n    /* \"#utility.yul\":5589:5593   */\n  dup1\n    /* \"#utility.yul\":5579:5587   */\n  dup7\n    /* \"#utility.yul\":5575:5594   */\n  and\n    /* \"#utility.yul\":5568:5573   */\n  dup5\n    /* \"#utility.yul\":5565:5595   */\n  or\n    /* \"#utility.yul\":5555:5595   */\n  swap3\n  pop\n    /* \"#utility.yul\":5284:5601   */\n  pop\n  pop\n    /* \"#utility.yul\":5208:5601   */\n  swap4\n  swap3\n  pop\n  pop\n  pop\n  jump\t// out\n    /* \"#utility.yul\":5607:5667   */\ntag_35:\n    /* \"#utility.yul\":5635:5638   */\n  0x00\n    /* \"#utility.yul\":5656:5661   */\n  dup2\n    /* \"#utility.yul\":5649:5661   */\n  swap1\n  pop\n    /* \"#utility.yul\":5607:5667   */\n  swap2\n  swap1\n  pop\n  jump\t// out\n    /* \"#utility.yul\":5673:5815   */\ntag_36:\n    /* \"#utility.yul\":5723:5732   */\n  0x00\n    /* \"#utility.yul\":5756:5809   */\n  tag_113\n    /* \"#utility.yul\":5774:5808   */\n  tag_114\n    /* \"#utility.yul\":5783:5807   */\n  tag_115\n    /* \"#utility.yul\":5801:5806   */\n  dup5\n    /* \"#utility.yul\":5783:5807   */\n  tag_15\n  jump\t// in\ntag_115:\n    /* \"#utility.yul\":5774:5808   */\n  tag_35\n  jump\t// in\ntag_114:\n    /* \"#utility.yul\":5756:5809   */\n  tag_15\n  jump\t// in\ntag_113:\n    /* \"#utility.yul\":5743:5809   */\n  swap1\n  pop\n    /* \"#utility.yul\":5673:5815   */\n  swap2\n  swap1\n  pop\n  jump\t// out\n    /* \"#utility.yul\":5821:5896   */\ntag_37:\n    /* \"#utility.yul\":5864:5867   */\n  0x00\n    /* \"#utility.yul\":5885:5890   */\n  dup2\n    /* \"#utility.yul\":5878:5890   */\n  swap1\n  pop\n    /* \"#utility.yul\":5821:5896   */\n  swap2\n  swap1\n  pop\n  jump\t// out\n    /* \"#utility.yul\":5902:6171   */\ntag_38:\n    /* \"#utility.yul\":6012:6051   */\n  tag_118\n    /* \"#utility.yul\":6043:6050   */\n  dup4\n    /* \"#utility.yul\":6012:6051   */\n  tag_36\n  jump\t// in\ntag_118:\n    /* \"#utility.yul\":6073:6164   */\n  tag_119\n    /* \"#utility.yul\":6122:6163   */\n  tag_120\n    /* \"#utility.yul\":6146:6162   */\n  dup3\n    /* \"#utility.yul\":6122:6163   */\n  tag_37\n  jump\t// in\ntag_120:\n    /* \"#utility.yul\":6114:6120   */\n  dup5\n    /* \"#utility.yul\":6107:6111   */\n  dup5\n    /* \"#utility.yul\":6101:6112   */\n  sload\n    /* \"#utility.yul\":6073:6164   */\n  tag_34\n  jump\t// in\ntag_119:\n    /* \"#utility.yul\":6067:6071   */\n  dup3\n    /* \"#utility.yul\":6060:6165   */\n  sstore\n    /* \"#utility.yul\":5978:6171   */\n  pop\n    /* \"#utility.yul\":5902:6171   */\n  pop\n  pop\n  pop\n  jump\t// out\n    /* \"#utility.yul\":6177:6250   */\ntag_39:\n    /* \"#utility.yul\":6222:6225   */\n  0x00\n    /* \"#utility.yul\":6177:6250   */\n  swap1\n  jump\t// out\n    /* \"#utility.yul\":6256:6445   */\ntag_40:\n    /* \"#utility.yul\":6333:6365   */\n  tag_123\n  tag_39\n  jump\t// in\ntag_123:\n    /* \"#utility.yul\":6374:6439   */\n  tag_124\n    /* \"#utility.yul\":6432:6438   */\n  dup2\n    /* \"#utility.yul\":6424:6430   */\n  dup5\n    /* \"#utility.yul\":6418:6422   */\n  dup5\n    /* \"#utility.yul\":6374:6439   */\n  tag_38\n  jump\t// in\ntag_124:\n    /* \"#utility.yul\":6309:6445   */\n  pop\n    /* \"#utility.yul\":6256:6445   */\n  pop\n  pop\n  jump\t// out\n    /* \"#utility.yul\":6451:6637   */\ntag_41:\n    /* \"#utility.yul\":6511:6631   */\ntag_126:\n    /* \"#utility.yul\":6528:6531   */\n  dup2\n    /* \"#utility.yul\":6521:6526   */\n  dup2\n    /* \"#utility.yul\":6518:6532   */\n  lt\n    /* \"#utility.yul\":6511:6631   */\n  iszero\n  tag_128\n  jumpi\n    /* \"#utility.yul\":6582:6621   */\n  tag_129\n    /* \"#utility.yul\":6619:6620   */\n  0x00\n    /* \"#utility.yul\":6612:6617   */\n  dup3\n    /* \"#utility.yul\":6582:6621   */\n  tag_40\n  jump\t// in\ntag_129:\n    /* \"#utility.yul\":6555:6556   */\n  0x01\n    /* \"#utility.yul\":6548:6553   */\n  dup2\n    /* \"#utility.yul\":6544:6557   */\n  add\n    /* \"#utility.yul\":6535:6557   */\n  swap1\n  pop\n    /* \"#utility.yul\":6511:6631   */\n  jump(tag_126)\ntag_128:\n    /* \"#utility.yul\":6451:6637   */\n  pop\n  pop\n  jump\t// out\n    /* \"#utility.yul\":6643:7186   */\ntag_42:\n    /* \"#utility.yul\":6744:6746   */\n  0x1f\n    /* \"#utility.yul\":6739:6742   */\n  dup3\n    /* \"#utility.yul\":6736:6747   */\n  gt\n    /* \"#utility.yul\":6733:7179   */\n  iszero\n  tag_131\n  jumpi\n    /* \"#utility.yul\":6778:6816   */\n  tag_132\n    /* \"#utility.yul\":6810:6815   */\n  dup2\n    /* \"#utility.yul\":6778:6816   */\n  tag_31\n  jump\t// in\ntag_132:\n    /* \"#utility.yul\":6862:6891   */\n  tag_133\n    /* \"#utility.yul\":6880:6890   */\n  dup5\n    /* \"#utility.yul\":6862:6891   */\n  tag_32\n  jump\t// in\ntag_133:\n    /* \"#utility.yul\":6852:6860   */\n  dup2\n    /* \"#utility.yul\":6848:6892   */\n  add\n    /* \"#utility.yul\":7045:7047   */\n  0x20\n    /* \"#utility.yul\":7033:7043   */\n  dup6\n    /* \"#utility.yul\":7030:7048   */\n  lt\n    /* \"#utility.yul\":7027:7076   */\n  iszero\n  tag_134\n  jumpi\n    /* \"#utility.yul\":7066:7074   */\n  dup2\n    /* \"#utility.yul\":7051:7074   */\n  swap1\n  pop\n    /* \"#utility.yul\":7027:7076   */\ntag_134:\n    /* \"#utility.yul\":7089:7169   */\n  tag_135\n    /* \"#utility.yul\":7145:7167   */\n  tag_136\n    /* \"#utility.yul\":7163:7166   */\n  dup6\n    /* \"#utility.yul\":7145:7167   */\n  tag_32\n  jump\t// in\ntag_136:\n    /* \"#utility.yul\":7135:7143   */\n  dup4\n    /* \"#utility.yul\":7131:7168   */\n  add\n    /* \"#utility.yul\":7118:7129   */\n  dup3\n    /* \"#utility.yul\":7089:7169   */\n  tag_41\n  jump\t// in\ntag_135:\n    /* \"#utility.yul\":6748:7179   */\n  pop\n  pop\n    /* \"#utility.yul\":6733:7179   */\ntag_131:\n    /* \"#utility.yul\":6643:7186   */\n  pop\n  pop\n  pop\n  jump\t// out\n    /* \"#utility.yul\":7192:7309   */\ntag_43:\n    /* \"#utility.yul\":7246:7254   */\n  0x00\n    /* \"#utility.yul\":7296:7301   */\n  dup3\n    /* \"#utility.yul\":7290:7294   */\n  dup3\n    /* \"#utility.yul\":7286:7302   */\n  shr\n    /* \"#utility.yul\":7265:7302   */\n  swap1\n  pop\n    /* \"#utility.yul\":7192:7309   */\n  swap3\n  swap2\n  pop\n  pop\n  jump\t// out\n    /* \"#utility.yul\":7315:7484   */\ntag_44:\n    /* \"#utility.yul\":7359:7365   */\n  0x00\n    /* \"#utility.yul\":7392:7443   */\n  tag_139\n    /* \"#utility.yul\":7440:7441   */\n  0x00\n    /* \"#utility.yul\":7436:7442   */\n  not\n    /* \"#utility.yul\":7428:7433   */\n  dup5\n    /* \"#utility.yul\":7425:7426   */\n  0x08\n    /* \"#utility.yul\":7421:7434   */\n  mul\n    /* \"#utility.yul\":7392:7443   */\n  tag_43\n  jump\t// in\ntag_139:\n    /* \"#utility.yul\":7388:7444   */\n  not\n    /* \"#utility.yul\":7473:7477   */\n  dup1\n    /* \"#utility.yul\":7467:7471   */\n  dup4\n    /* \"#utility.yul\":7463:7478   */\n  and\n    /* \"#utility.yul\":7453:7478   */\n  swap2\n  pop\n    /* \"#utility.yul\":7366:7484   */\n  pop\n    /* \"#utility.yul\":7315:7484   */\n  swap3\n  swap2\n  pop\n  pop\n  jump\t// out\n    /* \"#utility.yul\":7489:7784   */\ntag_45:\n    /* \"#utility.yul\":7565:7569   */\n  0x00\n    /* \"#utility.yul\":7711:7740   */\n  tag_141\n    /* \"#utility.yul\":7736:7739   */\n  dup4\n    /* \"#utility.yul\":7730:7734   */\n  dup4\n    /* \"#utility.yul\":7711:7740   */\n  tag_44\n  jump\t// in\ntag_141:\n    /* \"#utility.yul\":7703:7740   */\n  swap2\n  pop\n    /* \"#utility.yul\":7773:7776   */\n  dup3\n    /* \"#utility.yul\":7770:7771   */\n  0x02\n    /* \"#utility.yul\":7766:7777   */\n  mul\n    /* \"#utility.yul\":7760:7764   */\n  dup3\n    /* \"#utility.yul\":7757:7778   */\n  or\n    /* \"#utility.yul\":7749:7778   */\n  swap1\n  pop\n    /* \"#utility.yul\":7489:7784   */\n  swap3\n  swap2\n  pop\n  pop\n  jump\t// out\n    /* \"#utility.yul\":7789:9184   */\ntag_7:\n    /* \"#utility.yul\":7906:7943   */\n  tag_143\n    /* \"#utility.yul\":7939:7942   */\n  dup3\n    /* \"#utility.yul\":7906:7943   */\n  tag_28\n  jump\t// in\ntag_143:\n    /* \"#utility.yul\":8008:8026   */\n  0xffffffffffffffff\n    /* \"#utility.yul\":8000:8006   */\n  dup2\n    /* \"#utility.yul\":7997:8027   */\n  gt\n    /* \"#utility.yul\":7994:8050   */\n  iszero\n  tag_144\n  jumpi\n    /* \"#utility.yul\":8030:8048   */\n  tag_145\n  tag_21\n  jump\t// in\ntag_145:\n    /* \"#utility.yul\":7994:8050   */\ntag_144:\n    /* \"#utility.yul\":8074:8112   */\n  tag_146\n    /* \"#utility.yul\":8106:8110   */\n  dup3\n    /* \"#utility.yul\":8100:8111   */\n  sload\n    /* \"#utility.yul\":8074:8112   */\n  tag_30\n  jump\t// in\ntag_146:\n    /* \"#utility.yul\":8159:8226   */\n  tag_147\n    /* \"#utility.yul\":8219:8225   */\n  dup3\n    /* \"#utility.yul\":8211:8217   */\n  dup3\n    /* \"#utility.yul\":8205:8209   */\n  dup6\n    /* \"#utility.yul\":8159:8226   */\n  tag_42\n  jump\t// in\ntag_147:\n    /* \"#utility.yul\":8253:8254   */\n  0x00\n    /* \"#utility.yul\":8277:8281   */\n  0x20\n    /* \"#utility.yul\":8264:8281   */\n  swap1\n  pop\n    /* \"#utility.yul\":8309:8311   */\n  0x1f\n    /* \"#utility.yul\":8301:8307   */\n  dup4\n    /* \"#utility.yul\":8298:8312   */\n  gt\n    /* \"#utility.yul\":8326:8327   */\n  0x01\n    /* \"#utility.yul\":8321:8939   */\n  dup2\n  eq\n  tag_149\n  jumpi\n    /* \"#utility.yul\":8983:8984   */\n  0x00\n    /* \"#utility.yul\":9000:9006   */\n  dup5\n    /* \"#utility.yul\":8997:9074   */\n  iszero\n  tag_150\n  jumpi\n    /* \"#utility.yul\":9049:9058   */\n  dup3\n    /* \"#utility.yul\":9044:9047   */\n  dup8\n    /* \"#utility.yul\":9040:9059   */\n  add\n    /* \"#utility.yul\":9034:9060   */\n  mload\n    /* \"#utility.yul\":9025:9060   */\n  swap1\n  pop\n    /* \"#utility.yul\":8997:9074   */\ntag_150:\n    /* \"#utility.yul\":9100:9167   */\n  tag_151\n    /* \"#utility.yul\":9160:9166   */\n  dup6\n    /* \"#utility.yul\":9153:9158   */\n  dup3\n    /* \"#utility.yul\":9100:9167   */\n  tag_45\n  jump\t// in\ntag_151:\n    /* \"#utility.yul\":9094:9098   */\n  dup7\n    /* \"#utility.yul\":9087:9168   */\n  sstore\n    /* \"#utility.yul\":8956:9178   */\n  pop\n    /* \"#utility.yul\":8291:9178   */\n  jump(tag_148)\n    /* \"#utility.yul\":8321:8939   */\ntag_149:\n    /* \"#utility.yul\":8373:8377   */\n  0x1f\n    /* \"#utility.yul\":8369:8378   */\n  not\n    /* \"#utility.yul\":8361:8367   */\n  dup5\n    /* \"#utility.yul\":8357:8379   */\n  and\n    /* \"#utility.yul\":8407:8444   */\n  tag_152\n    /* \"#utility.yul\":8439:8443   */\n  dup7\n    /* \"#utility.yul\":8407:8444   */\n  tag_31\n  jump\t// in\ntag_152:\n    /* \"#utility.yul\":8466:8467   */\n  0x00\n    /* \"#utility.yul\":8480:8688   */\ntag_153:\n    /* \"#utility.yul\":8494:8501   */\n  dup3\n    /* \"#utility.yul\":8491:8492   */\n  dup2\n    /* \"#utility.yul\":8488:8502   */\n  lt\n    /* \"#utility.yul\":8480:8688   */\n  iszero\n  tag_155\n  jumpi\n    /* \"#utility.yul\":8573:8582   */\n  dup5\n    /* \"#utility.yul\":8568:8571   */\n  dup10\n    /* \"#utility.yul\":8564:8583   */\n  add\n    /* \"#utility.yul\":8558:8584   */\n  mload\n    /* \"#utility.yul\":8550:8556   */\n  dup3\n    /* \"#utility.yul\":8543:8585   */\n  sstore\n    /* \"#utility.yul\":8624:8625   */\n  0x01\n    /* \"#utility.yul\":8616:8622   */\n  dup3\n    /* \"#utility.yul\":8612:8626   */\n  add\n    /* \"#utility.yul\":8602:8626   */\n  swap2\n  pop\n    /* \"#utility.yul\":8671:8673   */\n  0x20\n    /* \"#utility.yul\":8660:8669   */\n  dup6\n    /* \"#utility.yul\":8656:8674   */\n  add\n    /* \"#utility.yul\":8643:8674   */\n  swap5\n  pop\n    /* \"#utility.yul\":8517:8521   */\n  0x20\n    /* \"#utility.yul\":8514:8515   */\n  dup2\n    /* \"#utility.yul\":8510:8522   */\n  add\n    /* \"#utility.yul\":8505:8522   */\n  swap1\n  pop\n    /* \"#utility.yul\":8480:8688   */\n  jump(tag_153)\ntag_155:\n    /* \"#utility.yul\":8716:8722   */\n  dup7\n    /* \"#utility.yul\":8707:8714   */\n  dup4\n    /* \"#utility.yul\":8704:8723   */\n  lt\n    /* \"#utility.yul\":8701:8880   */\n  iszero\n  tag_156\n  jumpi\n    /* \"#utility.yul\":8774:8783   */\n  dup5\n    /* \"#utility.yul\":8769:8772   */\n  dup10\n    /* \"#utility.yul\":8765:8784   */\n  add\n    /* \"#utility.yul\":8759:8785   */\n  mload\n    /* \"#utility.yul\":8817:8865   */\n  tag_157\n    /* \"#utility.yul\":8859:8863   */\n  0x1f\n    /* \"#utility.yul\":8851:8857   */\n  dup10\n    /* \"#utility.yul\":8847:8864   */\n  and\n    /* \"#utility.yul\":8836:8845   */\n  dup3\n    /* \"#utility.yul\":8817:8865   */\n  tag_44\n  jump\t// in\ntag_157:\n    /* \"#utility.yul\":8809:8815   */\n  dup4\n    /* \"#utility.yul\":8802:8866   */\n  sstore\n    /* \"#utility.yul\":8724:8880   */\n  pop\n    /* \"#utility.yul\":8701:8880   */\ntag_156:\n    /* \"#utility.yul\":8926:8927   */\n  0x01\n    /* \"#utility.yul\":8922:8923   */\n  0x02\n    /* \"#utility.yul\":8914:8920   */\n  dup9\n    /* \"#utility.yul\":8910:8924   */\n  mul\n    /* \"#utility.yul\":8906:8928   */\n  add\n    /* \"#utility.yul\":8900:8904   */\n  dup9\n    /* \"#utility.yul\":8893:8929   */\n  sstore\n    /* \"#utility.yul\":8328:8939   */\n  pop\n  pop\n  pop\n    /* \"#utility.yul\":8291:9178   */\ntag_148:\n  pop\n    /* \"#utility.yul\":7881:9184   */\n  pop\n  pop\n  pop\n    /* \"#utility.yul\":7789:9184   */\n  pop\n  pop\n  jump\t// out\n    /* \"Constructor.sol\":165:352  contract B {... */\ntag_8:\n  dataSize(sub_0)\n  dup1\n  dataOffset(sub_0)\n  0x00\n  codecopy\n  0x00\n  return\nstop\n\nsub_0: assembly {\n        /* \"Constructor.sol\":165:352  contract B {... */\n      mstore(0x40, 0x80)\n      callvalue\n      dup1\n      iszero\n      tag_1\n      jumpi\n      0x00\n      dup1\n      revert\n    tag_1:\n      pop\n      jumpi(tag_2, lt(calldatasize, 0x04))\n      shr(0xe0, calldataload(0x00))\n      dup1\n      0x2688454a\n      eq\n      tag_3\n      jumpi\n      dup1\n      0x4be1c796\n      eq\n      tag_4\n      jumpi\n      dup1\n      0xd7260006\n      eq\n      tag_5\n      jumpi\n    tag_2:\n      0x00\n      dup1\n      revert\n        /* \"Constructor.sol\":202:215  uint public U */\n    tag_3:\n      tag_6\n      tag_7\n      jump\t// in\n    tag_6:\n      mload(0x40)\n      tag_8\n      swap2\n      swap1\n      tag_9\n      jump\t// in\n    tag_8:\n      mload(0x40)\n      dup1\n      swap2\n      sub\n      swap1\n      return\n        /* \"Constructor.sol\":222:237  string public S */\n    tag_4:\n      tag_10\n      tag_11\n      jump\t// in\n    tag_10:\n      mload(0x40)\n      tag_12\n      swap2\n      swap1\n      tag_13\n      jump\t// in\n    tag_12:\n      mload(0x40)\n      dup1\n      swap2\n      sub\n      swap1\n      return\n        /* \"Constructor.sol\":183:195  int public I */\n    tag_5:\n      tag_14\n      tag_15\n      jump\t// in\n    tag_14:\n      mload(0x40)\n      tag_16\n      swap2\n      swap1\n      tag_17\n      jump\t// in\n    tag_16:\n      mload(0x40)\n      dup1\n      swap2\n      sub\n      swap1\n      return\n        /* \"Constructor.sol\":202:215  uint public U */\n    tag_7:\n      sload(0x01)\n      dup2\n      jump\t// out\n        /* \"Constructor.sol\":222:237  string public S */\n    tag_11:\n      0x02\n      dup1\n      sload\n      tag_18\n      swap1\n      tag_19\n      jump\t// in\n    tag_18:\n      dup1\n      0x1f\n      add\n      0x20\n      dup1\n      swap2\n      div\n      mul\n      0x20\n      add\n      mload(0x40)\n      swap1\n      dup2\n      add\n      0x40\n      mstore\n      dup1\n      swap3\n      swap2\n      swap1\n      dup2\n      dup2\n      mstore\n      0x20\n      add\n      dup3\n      dup1\n      sload\n      tag_20\n      swap1\n      tag_19\n      jump\t// in\n    tag_20:\n      dup1\n      iszero\n      tag_21\n      jumpi\n      dup1\n      0x1f\n      lt\n      tag_22\n      jumpi\n      0x0100\n      dup1\n      dup4\n      sload\n      div\n      mul\n      dup4\n      mstore\n      swap2\n      0x20\n      add\n      swap2\n      jump(tag_21)\n    tag_22:\n      dup3\n      add\n      swap2\n      swap1\n      0x00\n      mstore\n      keccak256(0x00, 0x20)\n      swap1\n    tag_23:\n      dup2\n      sload\n      dup2\n      mstore\n      swap1\n      0x01\n      add\n      swap1\n      0x20\n      add\n      dup1\n      dup4\n      gt\n      tag_23\n      jumpi\n      dup3\n      swap1\n      sub\n      0x1f\n      and\n      dup3\n      add\n      swap2\n    tag_21:\n      pop\n      pop\n      pop\n      pop\n      pop\n      dup2\n      jump\t// out\n        /* \"Constructor.sol\":183:195  int public I */\n    tag_15:\n      sload(0x00)\n      dup2\n      jump\t// out\n        /* \"#utility.yul\":7:84   */\n    tag_24:\n        /* \"#utility.yul\":44:51   */\n      0x00\n        /* \"#utility.yul\":73:78   */\n      dup2\n        /* \"#utility.yul\":62:78   */\n      swap1\n      pop\n        /* \"#utility.yul\":7:84   */\n      swap2\n      swap1\n      pop\n      jump\t// out\n        /* \"#utility.yul\":90:208   */\n    tag_25:\n        /* \"#utility.yul\":177:201   */\n      tag_37\n        /* \"#utility.yul\":195:200   */\n      dup2\n        /* \"#utility.yul\":177:201   */\n      tag_24\n      jump\t// in\n    tag_37:\n        /* \"#utility.yul\":172:175   */\n      dup3\n        /* \"#utility.yul\":165:202   */\n      mstore\n        /* \"#utility.yul\":90:208   */\n      pop\n      pop\n      jump\t// out\n        /* \"#utility.yul\":214:436   */\n    tag_9:\n        /* \"#utility.yul\":307:311   */\n      0x00\n        /* \"#utility.yul\":345:347   */\n      0x20\n        /* \"#utility.yul\":334:343   */\n      dup3\n        /* \"#utility.yul\":330:348   */\n      add\n        /* \"#utility.yul\":322:348   */\n      swap1\n      pop\n        /* \"#utility.yul\":358:429   */\n      tag_39\n        /* \"#utility.yul\":426:427   */\n      0x00\n        /* \"#utility.yul\":415:424   */\n      dup4\n        /* \"#utility.yul\":411:428   */\n      add\n        /* \"#utility.yul\":402:408   */\n      dup5\n        /* \"#utility.yul\":358:429   */\n      tag_25\n      jump\t// in\n    tag_39:\n        /* \"#utility.yul\":214:436   */\n      swap3\n      swap2\n      pop\n      pop\n      jump\t// out\n        /* \"#utility.yul\":442:541   */\n    tag_26:\n        /* \"#utility.yul\":494:500   */\n      0x00\n        /* \"#utility.yul\":528:533   */\n      dup2\n        /* \"#utility.yul\":522:534   */\n      mload\n        /* \"#utility.yul\":512:534   */\n      swap1\n      pop\n        /* \"#utility.yul\":442:541   */\n      swap2\n      swap1\n      pop\n      jump\t// out\n        /* \"#utility.yul\":547:716   */\n    tag_27:\n        /* \"#utility.yul\":631:642   */\n      0x00\n        /* \"#utility.yul\":665:671   */\n      dup3\n        /* \"#utility.yul\":660:663   */\n      dup3\n        /* \"#utility.yul\":653:672   */\n      mstore\n        /* \"#utility.yul\":705:709   */\n      0x20\n        /* \"#utility.yul\":700:703   */\n      dup3\n        /* \"#utility.yul\":696:710   */\n      add\n        /* \"#utility.yul\":681:710   */\n      swap1\n      pop\n        /* \"#utility.yul\":547:716   */\n      swap3\n      swap2\n      pop\n      pop\n      jump\t// out\n        /* \"#utility.yul\":722:968   */\n    tag_28:\n        /* \"#utility.yul\":803:804   */\n      0x00\n        /* \"#utility.yul\":813:926   */\n    tag_43:\n        /* \"#utility.yul\":827:833   */\n      dup4\n        /* \"#utility.yul\":824:825   */\n      dup2\n        /* \"#utility.yul\":821:834   */\n      lt\n        /* \"#utility.yul\":813:926   */\n      iszero\n      tag_45\n      jumpi\n        /* \"#utility.yul\":912:913   */\n      dup1\n        /* \"#utility.yul\":907:910   */\n      dup3\n        /* \"#utility.yul\":903:914   */\n      add\n        /* \"#utility.yul\":897:915   */\n      mload\n        /* \"#utility.yul\":893:894   */\n      dup2\n        /* \"#utility.yul\":888:891   */\n      dup5\n        /* \"#utility.yul\":884:895   */\n      add\n        /* \"#utility.yul\":877:916   */\n      mstore\n        /* \"#utility.yul\":849:851   */\n      0x20\n        /* \"#utility.yul\":846:847   */\n      dup2\n        /* \"#utility.yul\":842:852   */\n      add\n        /* \"#utility.yul\":837:852   */\n      swap1\n      pop\n        /* \"#utility.yul\":813:926   */\n      jump(tag_43)\n    tag_45:\n        /* \"#utility.yul\":960:961   */\n      0x00\n        /* \"#utility.yul\":951:957   */\n      dup5\n        /* \"#utility.yul\":946:949   */\n      dup5\n        /* \"#utility.yul\":942:958   */\n      add\n        /* \"#utility.yul\":935:962   */\n      mstore\n        /* \"#utility.yul\":784:968   */\n      pop\n        /* \"#utility.yul\":722:968   */\n      pop\n      pop\n      pop\n      jump\t// out\n        /* \"#utility.yul\":974:1076   */\n    tag_29:\n        /* \"#utility.yul\":1015:1021   */\n      0x00\n        /* \"#utility.yul\":1066:1068   */\n      0x1f\n        /* \"#utility.yul\":1062:1069   */\n      not\n        /* \"#utility.yul\":1057:1059   */\n      0x1f\n        /* \"#utility.yul\":1050:1055   */\n      dup4\n        /* \"#utility.yul\":1046:1060   */\n      add\n        /* \"#utility.yul\":1042:1070   */\n      and\n        /* \"#utility.yul\":1032:1070   */\n      swap1\n      pop\n        /* \"#utility.yul\":974:1076   */\n      swap2\n      swap1\n      pop\n      jump\t// out\n        /* \"#utility.yul\":1082:1459   */\n    tag_30:\n        /* \"#utility.yul\":1170:1173   */\n      0x00\n        /* \"#utility.yul\":1198:1237   */\n      tag_48\n        /* \"#utility.yul\":1231:1236   */\n      dup3\n        /* \"#utility.yul\":1198:1237   */\n      tag_26\n      jump\t// in\n    tag_48:\n        /* \"#utility.yul\":1253:1324   */\n      tag_49\n        /* \"#utility.yul\":1317:1323   */\n      dup2\n        /* \"#utility.yul\":1312:1315   */\n      dup6\n        /* \"#utility.yul\":1253:1324   */\n      tag_27\n      jump\t// in\n    tag_49:\n        /* \"#utility.yul\":1246:1324   */\n      swap4\n      pop\n        /* \"#utility.yul\":1333:1398   */\n      tag_50\n        /* \"#utility.yul\":1391:1397   */\n      dup2\n        /* \"#utility.yul\":1386:1389   */\n      dup6\n        /* \"#utility.yul\":1379:1383   */\n      0x20\n        /* \"#utility.yul\":1372:1377   */\n      dup7\n        /* \"#utility.yul\":1368:1384   */\n      add\n        /* \"#utility.yul\":1333:1398   */\n      tag_28\n      jump\t// in\n    tag_50:\n        /* \"#utility.yul\":1423:1452   */\n      tag_51\n        /* \"#utility.yul\":1445:1451   */\n      dup2\n        /* \"#utility.yul\":1423:1452   */\n      tag_29\n      jump\t// in\n    tag_51:\n        /* \"#utility.yul\":1418:1421   */\n      dup5\n        /* \"#utility.yul\":1414:1453   */\n      add\n        /* \"#utility.yul\":1407:1453   */\n      swap2\n      pop\n        /* \"#utility.yul\":1174:1459   */\n      pop\n        /* \"#utility.yul\":1082:1459   */\n      swap3\n      swap2\n      pop\n      pop\n      jump\t// out\n        /* \"#utility.yul\":1465:1778   */\n    tag_13:\n        /* \"#utility.yul\":1578:1582   */\n      0x00\n        /* \"#utility.yul\":1616:1618   */\n      0x20\n        /* \"#utility.yul\":1605:1614   */\n      dup3\n        /* \"#utility.yul\":1601:1619   */\n      add\n        /* \"#utility.yul\":1593:1619   */\n      swap1\n      pop\n        /* \"#utility.yul\":1665:1674   */\n      dup2\n        /* \"#utility.yul\":1659:1663   */\n      dup2\n        /* \"#utility.yul\":1655:1675   */\n      sub\n        /* \"#utility.yul\":1651:1652   */\n      0x00\n        /* \"#utility.yul\":1640:1649   */\n      dup4\n        /* \"#utility.yul\":1636:1653   */\n      add\n        /* \"#utility.yul\":1629:1676   */\n      mstore\n        /* \"#utility.yul\":1693:1771   */\n      tag_53\n        /* \"#utility.yul\":1766:1770   */\n      dup2\n        /* \"#utility.yul\":1757:1763   */\n      dup5\n        /* \"#utility.yul\":1693:1771   */\n      tag_30\n      jump\t// in\n    tag_53:\n        /* \"#utility.yul\":1685:1771   */\n      swap1\n      pop\n        /* \"#utility.yul\":1465:1778   */\n      swap3\n      swap2\n      pop\n      pop\n      jump\t// out\n        /* \"#utility.yul\":1784:1860   */\n    tag_31:\n        /* \"#utility.yul\":1820:1827   */\n      0x00\n        /* \"#utility.yul\":1849:1854   */\n      dup2\n        /* \"#utility.yul\":1838:1854   */\n      swap1\n      pop\n        /* \"#utility.yul\":1784:1860   */\n      swap2\n      swap1\n      pop\n      jump\t// out\n        /* \"#utility.yul\":1866:1981   */\n    tag_32:\n        /* \"#utility.yul\":1951:1974   */\n      tag_56\n        /* \"#utility.yul\":1968:1973   */\n      dup2\n        /* \"#utility.yul\":1951:1974   */\n      tag_31\n      jump\t// in\n    tag_56:\n        /* \"#utility.yul\":1946:1949   */\n      dup3\n        /* \"#utility.yul\":1939:1975   */\n      mstore\n        /* \"#utility.yul\":1866:1981   */\n      pop\n      pop\n      jump\t// out\n        /* \"#utility.yul\":1987:2205   */\n    tag_17:\n        /* \"#utility.yul\":2078:2082   */\n      0x00\n        /* \"#utility.yul\":2116:2118   */\n      0x20\n        /* \"#utility.yul\":2105:2114   */\n      dup3\n        /* \"#utility.yul\":2101:2119   */\n      add\n        /* \"#utility.yul\":2093:2119   */\n      swap1\n      pop\n        /* \"#utility.yul\":2129:2198   */\n      tag_58\n        /* \"#utility.yul\":2195:2196   */\n      0x00\n        /* \"#utility.yul\":2184:2193   */\n      dup4\n        /* \"#utility.yul\":2180:2197   */\n      add\n        /* \"#utility.yul\":2171:2177   */\n      dup5\n        /* \"#utility.yul\":2129:2198   */\n      tag_32\n      jump\t// in\n    tag_58:\n        /* \"#utility.yul\":1987:2205   */\n      swap3\n      swap2\n      pop\n      pop\n      jump\t// out\n        /* \"#utility.yul\":2211:2391   */\n    tag_33:\n        /* \"#utility.yul\":2259:2336   */\n      0x4e487b7100000000000000000000000000000000000000000000000000000000\n        /* \"#utility.yul\":2256:2257   */\n      0x00\n        /* \"#utility.yul\":2249:2337   */\n      mstore\n        /* \"#utility.yul\":2356:2360   */\n      0x22\n        /* \"#utility.yul\":2353:2354   */\n      0x04\n        /* \"#utility.yul\":2346:2361   */\n      mstore\n        /* \"#utility.yul\":2380:2384   */\n      0x24\n        /* \"#utility.yul\":2377:2378   */\n      0x00\n        /* \"#utility.yul\":2370:2385   */\n      revert\n        /* \"#utility.yul\":2397:2717   */\n    tag_19:\n        /* \"#utility.yul\":2441:2447   */\n      0x00\n        /* \"#utility.yul\":2478:2479   */\n      0x02\n        /* \"#utility.yul\":2472:2476   */\n      dup3\n        /* \"#utility.yul\":2468:2480   */\n      div\n        /* \"#utility.yul\":2458:2480   */\n      swap1\n      pop\n        /* \"#utility.yul\":2525:2526   */\n      0x01\n        /* \"#utility.yul\":2519:2523   */\n      dup3\n        /* \"#utility.yul\":2515:2527   */\n      and\n        /* \"#utility.yul\":2546:2564   */\n      dup1\n        /* \"#utility.yul\":2536:2617   */\n      tag_61\n      jumpi\n        /* \"#utility.yul\":2602:2606   */\n      0x7f\n        /* \"#utility.yul\":2594:2600   */\n      dup3\n        /* \"#utility.yul\":2590:2607   */\n      and\n        /* \"#utility.yul\":2580:2607   */\n      swap2\n      pop\n        /* \"#utility.yul\":2536:2617   */\n    tag_61:\n        /* \"#utility.yul\":2664:2666   */\n      0x20\n        /* \"#utility.yul\":2656:2662   */\n      dup3\n        /* \"#utility.yul\":2653:2667   */\n      lt\n        /* \"#utility.yul\":2633:2651   */\n      dup2\n        /* \"#utility.yul\":2630:2668   */\n      sub\n        /* \"#utility.yul\":2627:2711   */\n      tag_62\n      jumpi\n        /* \"#utility.yul\":2683:2701   */\n      tag_63\n      tag_33\n      jump\t// in\n    tag_63:\n        /* \"#utility.yul\":2627:2711   */\n    tag_62:\n        /* \"#utility.yul\":2448:2717   */\n      pop\n        /* \"#utility.yul\":2397:2717   */\n      swap2\n      swap1\n      pop\n      jump\t// out\n\n    auxdata: 0xa264697066735822122069b664729b34c046305a85f6689b9882b7e7ad913892271d1ea9233a91c4ddc164736f6c63430008110033\n}\n",
				"bytecode": {
					"linkReferences": {},
					"object": "60806040523480156200001157600080fd5b506040516200090638038062000906833981810160405281019062000037919062000269565b8260008190555081600181905550806002908162000056919062000525565b505050506200060c565b6000604051905090565b600080fd5b600080fd5b6000819050919050565b620000898162000074565b81146200009557600080fd5b50565b600081519050620000a9816200007e565b92915050565b6000819050919050565b620000c481620000af565b8114620000d057600080fd5b50565b600081519050620000e481620000b9565b92915050565b600080fd5b600080fd5b6000601f19601f8301169050919050565b7f4e487b7100000000000000000000000000000000000000000000000000000000600052604160045260246000fd5b6200013f82620000f4565b810181811067ffffffffffffffff8211171562000161576200016062000105565b5b80604052505050565b60006200017662000060565b905062000184828262000134565b919050565b600067ffffffffffffffff821115620001a757620001a662000105565b5b620001b282620000f4565b9050602081019050919050565b60005b83811015620001df578082015181840152602081019050620001c2565b60008484015250505050565b600062000202620001fc8462000189565b6200016a565b905082815260208101848484011115620002215762000220620000ef565b5b6200022e848285620001bf565b509392505050565b600082601f8301126200024e576200024d620000ea565b5b815162000260848260208601620001eb565b91505092915050565b6000806000606084860312156200028557620002846200006a565b5b6000620002958682870162000098565b9350506020620002a886828701620000d3565b925050604084015167ffffffffffffffff811115620002cc57620002cb6200006f565b5b620002da8682870162000236565b9150509250925092565b600081519050919050565b7f4e487b7100000000000000000000000000000000000000000000000000000000600052602260045260246000fd5b600060028204905060018216806200033757607f821691505b6020821081036200034d576200034c620002ef565b5b50919050565b60008190508160005260206000209050919050565b60006020601f8301049050919050565b600082821b905092915050565b600060088302620003b77fffffffffffffffffffffffffffffffffffffffffffffffffffffffffffffffff8262000378565b620003c3868362000378565b95508019841693508086168417925050509392505050565b6000819050919050565b60006200040662000400620003fa84620000af565b620003db565b620000af565b9050919050565b6000819050919050565b6200042283620003e5565b6200043a62000431826200040d565b84845462000385565b825550505050565b600090565b6200045162000442565b6200045e81848462000417565b505050565b5b8181101562000486576200047a60008262000447565b60018101905062000464565b5050565b601f821115620004d5576200049f8162000353565b620004aa8462000368565b81016020851015620004ba578190505b620004d2620004c98562000368565b83018262000463565b50505b505050565b600082821c905092915050565b6000620004fa60001984600802620004da565b1980831691505092915050565b6000620005158383620004e7565b9150826002028217905092915050565b6200053082620002e4565b67ffffffffffffffff8111156200054c576200054b62000105565b5b6200055882546200031e565b620005658282856200048a565b600060209050601f8311600181146200059d576000841562000588578287015190505b62000594858262000507565b86555062000604565b601f198416620005ad8662000353565b60005b82811015620005d757848901518255600182019150602085019450602081019050620005b0565b86831015620005f75784890151620005f3601f891682620004e7565b8355505b6001600288020188555050505b505050505050565b6102ea806200061c6000396000f3fe608060405234801561001057600080fd5b50600436106100415760003560e01c80632688454a146100465780634be1c79614610064578063d726000614610082575b600080fd5b61004e6100a0565b60405161005b9190610153565b60405180910390f35b61006c6100a6565b60405161007991906101fe565b60405180910390f35b61008a610134565b6040516100979190610239565b60405180910390f35b60015481565b600280546100b390610283565b80601f01602080910402602001604051908101604052809291908181526020018280546100df90610283565b801561012c5780601f106101015761010080835404028352916020019161012c565b820191906000526020600020905b81548152906001019060200180831161010f57829003601f168201915b505050505081565b60005481565b6000819050919050565b61014d8161013a565b82525050565b60006020820190506101686000830184610144565b92915050565b600081519050919050565b600082825260208201905092915050565b60005b838110156101a857808201518184015260208101905061018d565b60008484015250505050565b6000601f19601f8301169050919050565b60006101d08261016e565b6101da8185610179565b93506101ea81856020860161018a565b6101f3816101b4565b840191505092915050565b6000602082019050818103600083015261021881846101c5565b905092915050565b6000819050919050565b61023381610220565b82525050565b600060208201905061024e600083018461022a565b92915050565b7f4e487b7100000000000000000000000000000000000000000000000000000000600052602260045260246000fd5b6000600282049050600182168061029b57607f821691505b6020821081036102ae576102ad610254565b5b5091905056fea264697066735822122069b664729b34c046305a85f6689b9882b7e7ad913892271d1ea9233a91c4ddc164736f6c63430008110033",
					"opcodes": "PUSH1 0x80 PUSH1 0x40 MSTORE CALLVALUE DUP1 ISZERO PUSH3 0x11 JUMPI PUSH1 0x0 DUP1 REVERT JUMPDEST POP PUSH1 0x40 MLOAD PUSH3 0x906 CODESIZE SUB DUP1 PUSH3 0x906 DUP4 CODECOPY DUP2 DUP2 ADD PUSH1 0x40 MSTORE DUP2 ADD SWAP1 PUSH3 0x37 SWAP2 SWAP1 PUSH3 0x269 JUMP JUMPDEST DUP3 PUSH1 0x0 DUP2 SWAP1 SSTORE POP DUP2 PUSH1 0x1 DUP2 SWAP1 SSTORE POP DUP1 PUSH1 0x2 SWAP1 DUP2 PUSH3 0x56 SWAP2 SWAP1 PUSH3 0x525 JUMP JUMPDEST POP POP POP POP PUSH3 0x60C JUMP JUMPDEST PUSH1 0x0 PUSH1 0x40 MLOAD SWAP1 POP SWAP1 JUMP JUMPDEST PUSH1 0x0 DUP1 REVERT JUMPDEST PUSH1 0x0 DUP1 REVERT JUMPDEST PUSH1 0x0 DUP2 SWAP1 POP SWAP2 SWAP1 POP JUMP JUMPDEST PUSH3 0x89 DUP2 PUSH3 0x74 JUMP JUMPDEST DUP2 EQ PUSH3 0x95 JUMPI PUSH1 0x0 DUP1 REVERT JUMPDEST POP JUMP JUMPDEST PUSH1 0x0 DUP2 MLOAD SWAP1 POP PUSH3 0xA9 DUP2 PUSH3 0x7E JUMP JUMPDEST SWAP3 SWAP2 POP POP JUMP JUMPDEST PUSH1 0x0 DUP2 SWAP1 POP SWAP2 SWAP1 POP JUMP JUMPDEST PUSH3 0xC4 DUP2 PUSH3 0xAF JUMP JUMPDEST DUP2 EQ PUSH3 0xD0 JUMPI PUSH1 0x0 DUP1 REVERT JUMPDEST POP JUMP JUMPDEST PUSH1 0x0 DUP2 MLOAD SWAP1 POP PUSH3 0xE4 DUP2 PUSH3 0xB9 JUMP JUMPDEST SWAP3 SWAP2 POP POP JUMP JUMPDEST PUSH1 0x0 DUP1 REVERT JUMPDEST PUSH1 0x0 DUP1 REVERT JUMPDEST PUSH1 0x0 PUSH1 0x1F NOT PUSH1 0x1F DUP4 ADD AND SWAP1 POP SWAP2 SWAP1 POP JUMP JUMPDEST PUSH32 0x4E487B7100000000000000000000000000000000000000000000000000000000 PUSH1 0x0 MSTORE PUSH1 0x41 PUSH1 0x4 MSTORE PUSH1 0x24 PUSH1 0x0 REVERT JUMPDEST PUSH3 0x13F DUP3 PUSH3 0xF4 JUMP JUMPDEST DUP2 ADD DUP2 DUP2 LT PUSH8 0xFFFFFFFFFFFFFFFF DUP3 GT OR ISZERO PUSH3 0x161 JUMPI PUSH3 0x160 PUSH3 0x105 JUMP JUMPDEST JUMPDEST DUP1 PUSH1 0x40 MSTORE POP POP POP JUMP JUMPDEST PUSH1 0x0 PUSH3 0x176 PUSH3 0x60 JUMP JUMPDEST SWAP1 POP PUSH3 0x184 DUP3 DUP3 PUSH3 0x134 JUMP JUMPDEST SWAP2 SWAP1 POP JUMP JUMPDEST PUSH1 0x0 PUSH8 0xFFFFFFFFFFFFFFFF DUP3 GT ISZERO PUSH3 0x1A7 JUMPI PUSH3 0x1A6 PUSH3 0x105 JUMP JUMPDEST JUMPDEST PUSH3 0x1B2 DUP3 PUSH3 0xF4 JUMP JUMPDEST SWAP1 POP PUSH1 0x20 DUP2 ADD SWAP1 POP SWAP2 SWAP1 POP JUMP JUMPDEST PUSH1 0x0 JUMPDEST DUP4 DUP2 LT ISZERO PUSH3 0x1DF JUMPI DUP1 DUP3 ADD MLOAD DUP2 DUP5 ADD MSTORE PUSH1 0x20 DUP2 ADD SWAP1 POP PUSH3 0x1C2 JUMP JUMPDEST PUSH1 0x0 DUP5 DUP5 ADD MSTORE POP POP POP POP JUMP JUMPDEST PUSH1 0x0 PUSH3 0x202 PUSH3 0x1FC DUP5 PUSH3 0x189 JUMP JUMPDEST PUSH3 0x16A JUMP JUMPDEST SWAP1 POP DUP3 DUP2 MSTORE PUSH1 0x20 DUP2 ADD DUP5 DUP5 DUP5 ADD GT ISZERO PUSH3 0x221 JUMPI PUSH3 0x220 PUSH3 0xEF JUMP JUMPDEST JUMPDEST PUSH3 0x22E DUP5 DUP3 DUP6 PUSH3 0x1BF JUMP JUMPDEST POP SWAP4 SWAP3 POP POP POP JUMP JUMPDEST PUSH1 0x0 DUP3 PUSH1 0x1F DUP4 ADD SLT PUSH3 0x24E JUMPI PUSH3 0x24D PUSH3 0xEA JUMP JUMPDEST JUMPDEST DUP2 MLOAD PUSH3 0x260 DUP5 DUP3 PUSH1 0x20 DUP7 ADD PUSH3 0x1EB JUMP JUMPDEST SWAP2 POP POP SWAP3 SWAP2 POP POP JUMP JUMPDEST PUSH1 0x0 DUP1 PUSH1 0x0 PUSH1 0x60 DUP5 DUP7 SUB SLT ISZERO PUSH3 0x285 JUMPI PUSH3 0x284 PUSH3 0x6A JUMP JUMPDEST JUMPDEST PUSH1 0x0 PUSH3 0x295 DUP7 DUP3 DUP8 ADD PUSH3 0x98 JUMP JUMPDEST SWAP4 POP POP PUSH1 0x20 PUSH3 0x2A8 DUP7 DUP3 DUP8 ADD PUSH3 0xD3 JUMP JUMPDEST SWAP3 POP POP PUSH1 0x40 DUP5 ADD MLOAD PUSH8 0xFFFFFFFFFFFFFFFF DUP2 GT ISZERO PUSH3 0x2CC JUMPI PUSH3 0x2CB PUSH3 0x6F JUMP JUMPDEST JUMPDEST PUSH3 0x2DA DUP7 DUP3 DUP8 ADD PUSH3 0x236 JUMP JUMPDEST SWAP2 POP POP SWAP3 POP SWAP3 POP SWAP3 JUMP JUMPDEST PUSH1 0x0 DUP2 MLOAD SWAP1 POP SWAP2 SWAP1 POP JUMP JUMPDEST PUSH32 0x4E487B7100000000000000000000000000000000000000000000000000000000 PUSH1 0x0 MSTORE PUSH1 0x22 PUSH1 0x4 MSTORE PUSH1 0x24 PUSH1 0x0 REVERT JUMPDEST PUSH1 0x0 PUSH1 0x2 DUP3 DIV SWAP1 POP PUSH1 0x1 DUP3 AND DUP1 PUSH3 0x337 JUMPI PUSH1 0x7F DUP3 AND SWAP2 POP JUMPDEST PUSH1 0x20 DUP3 LT DUP2 SUB PUSH3 0x34D JUMPI PUSH3 0x34C PUSH3 0x2EF JUMP JUMPDEST JUMPDEST POP SWAP2 SWAP1 POP JUMP JUMPDEST PUSH1 0x0 DUP2 SWAP1 POP DUP2 PUSH1 0x0 MSTORE PUSH1 0x20 PUSH1 0x0 KECCAK256 SWAP1 POP SWAP2 SWAP1 POP JUMP JUMPDEST PUSH1 0x0 PUSH1 0x20 PUSH1 0x1F DUP4 ADD DIV SWAP1 POP SWAP2 SWAP1 POP JUMP JUMPDEST PUSH1 0x0 DUP3 DUP3 SHL SWAP1 POP SWAP3 SWAP2 POP POP JUMP JUMPDEST PUSH1 0x0 PUSH1 0x8 DUP4 MUL PUSH3 0x3B7 PUSH32 0xFFFFFFFFFFFFFFFFFFFFFFFFFFFFFFFFFFFFFFFFFFFFFFFFFFFFFFFFFFFFFFFF DUP3 PUSH3 0x378 JUMP JUMPDEST PUSH3 0x3C3 DUP7 DUP4 PUSH3 0x378 JUMP JUMPDEST SWAP6 POP DUP1 NOT DUP5 AND SWAP4 POP DUP1 DUP7 AND DUP5 OR SWAP3 POP POP POP SWAP4 SWAP3 POP POP POP JUMP JUMPDEST PUSH1 0x0 DUP2 SWAP1 POP SWAP2 SWAP1 POP JUMP JUMPDEST PUSH1 0x0 PUSH3 0x406 PUSH3 0x400 PUSH3 0x3FA DUP5 PUSH3 0xAF JUMP JUMPDEST PUSH3 0x3DB JUMP JUMPDEST PUSH3 0xAF JUMP JUMPDEST SWAP1 POP SWAP2 SWAP1 POP JUMP JUMPDEST PUSH1 0x0 DUP2 SWAP1 POP SWAP2 SWAP1 POP JUMP JUMPDEST PUSH3 0x422 DUP4 PUSH3 0x3E5 JUMP JUMPDEST PUSH3 0x43A PUSH3 0x431 DUP3 PUSH3 0x40D JUMP JUMPDEST DUP5 DUP5 SLOAD PUSH3 0x385 JUMP JUMPDEST DUP3 SSTORE POP POP POP POP JUMP JUMPDEST PUSH1 0x0 SWAP1 JUMP JUMPDEST PUSH3 0x451 PUSH3 0x442 JUMP JUMPDEST PUSH3 0x45E DUP2 DUP5 DUP5 PUSH3 0x417 JUMP JUMPDEST POP POP POP JUMP JUMPDEST JUMPDEST DUP2 DUP2 LT ISZERO PUSH3 0x486 JUMPI PUSH3 0x47A PUSH1 0x0 DUP3 PUSH3 0x447 JUMP JUMPDEST PUSH1 0x1 DUP2 ADD SWAP1 POP PUSH3 0x464 JUMP JUMPDEST POP POP JUMP JUMPDEST PUSH1 0x1F DUP3 GT ISZERO PUSH3 0x4D5 JUMPI PUSH3 0x49F DUP2 PUSH3 0x353 JUMP JUMPDEST PUSH3 0x4AA DUP5 PUSH3 0x368 JUMP JUMPDEST DUP2 ADD PUSH1 0x20 DUP6 LT ISZERO PUSH3 0x4BA JUMPI DUP2 SWAP1 POP JUMPDEST PUSH3 0x4D2 PUSH3 0x4C9 DUP6 PUSH3 0x368 JUMP JUMPDEST DUP4 ADD DUP3 PUSH3 0x463 JUMP JUMPDEST POP POP JUMPDEST POP POP POP JUMP JUMPDEST PUSH1 0x0 DUP3 DUP3 SHR SWAP1 POP SWAP3 SWAP2 POP POP JUMP JUMPDEST PUSH1 0x0 PUSH3 0x4FA PUSH1 0x0 NOT DUP5 PUSH1 0x8 MUL PUSH3 0x4DA JUMP JUMPDEST NOT DUP1 DUP4 AND SWAP2 POP POP SWAP3 SWAP2 POP POP JUMP JUMPDEST PUSH1 0x0 PUSH3 0x515 DUP4 DUP4 PUSH3 0x4E7 JUMP JUMPDEST SWAP2 POP DUP3 PUSH1 0x2 MUL DUP3 OR SWAP1 POP SWAP3 SWAP2 POP POP JUMP JUMPDEST PUSH3 0x530 DUP3 PUSH3 0x2E4 JUMP JUMPDEST PUSH8 0xFFFFFFFFFFFFFFFF DUP2 GT ISZERO PUSH3 0x54C JUMPI PUSH3 0x54B PUSH3 0x105 JUMP JUMPDEST JUMPDEST PUSH3 0x558 DUP3 SLOAD PUSH3 0x31E JUMP JUMPDEST PUSH3 0x565 DUP3 DUP3 DUP6 PUSH3 0x48A JUMP JUMPDEST PUSH1 0x0 PUSH1 0x20 SWAP1 POP PUSH1 0x1F DUP4 GT PUSH1 0x1 DUP2 EQ PUSH3 0x59D JUMPI PUSH1 0x0 DUP5 ISZERO PUSH3 0x588 JUMPI DUP3 DUP8 ADD MLOAD SWAP1 POP JUMPDEST PUSH3 0x594 DUP6 DUP3 PUSH3 0x507 JUMP JUMPDEST DUP7 SSTORE POP PUSH3 0x604 JUMP JUMPDEST PUSH1 0x1F NOT DUP5 AND PUSH3 0x5AD DUP7 PUSH3 0x353 JUMP JUMPDEST PUSH1 0x0 JUMPDEST DUP3 DUP2 LT ISZERO PUSH3 0x5D7 JUMPI DUP5 DUP10 ADD MLOAD DUP3 SSTORE PUSH1 0x1 DUP3 ADD SWAP2 POP PUSH1 0x20 DUP6 ADD SWAP5 POP PUSH1 0x20 DUP2 ADD SWAP1 POP PUSH3 0x5B0 JUMP JUMPDEST DUP7 DUP4 LT ISZERO PUSH3 0x5F7 JUMPI DUP5 DUP10 ADD MLOAD PUSH3 0x5F3 PUSH1 0x1F DUP10 AND DUP3 PUSH3 0x4E7 JUMP JUMPDEST DUP4 SSTORE POP JUMPDEST PUSH1 0x1 PUSH1 0x2 DUP9 MUL ADD DUP9 SSTORE POP POP POP JUMPDEST POP POP POP POP POP POP JUMP JUMPDEST PUSH2 0x2EA DUP1 PUSH3 0x61C PUSH1 0x0 CODECOPY PUSH1 0x0 RETURN INVALID PUSH1 0x80 PUSH1 0x40 MSTORE CALLVALUE DUP1 ISZERO PUSH2 0x10 JUMPI PUSH1 0x0 DUP1 REVERT JUMPDEST POP PUSH1 0x4 CALLDATASIZE LT PUSH2 0x41 JUMPI PUSH1 0x0 CALLDATALOAD PUSH1 0xE0 SHR DUP1 PUSH4 0x2688454A EQ PUSH2 0x46 JUMPI DUP1 PUSH4 0x4BE1C796 EQ PUSH2 0x64 JUMPI DUP1 PUSH4 0xD7260006 EQ PUSH2 0x82 JUMPI JUMPDEST PUSH1 0x0 DUP1 REVERT JUMPDEST PUSH2 0x4E PUSH2 0xA0 JUMP JUMPDEST PUSH1 0x40 MLOAD PUSH2 0x5B SWAP2 SWAP1 PUSH2 0x153 JUMP JUMPDEST PUSH1 0x40 MLOAD DUP1 SWAP2 SUB SWAP1 RETURN JUMPDEST PUSH2 0x6C PUSH2 0xA6 JUMP JUMPDEST PUSH1 0x40 MLOAD PUSH2 0x79 SWAP2 SWAP1 PUSH2 0x1FE JUMP JUMPDEST PUSH1 0x40 MLOAD DUP1 SWAP2 SUB SWAP1 RETURN JUMPDEST PUSH2 0x8A PUSH2 0x134 JUMP JUMPDEST PUSH1 0x40 MLOAD PUSH2 0x97 SWAP2 SWAP1 PUSH2 0x239 JUMP JUMPDEST PUSH1 0x40 MLOAD DUP1 SWAP2 SUB SWAP1 RETURN JUMPDEST PUSH1 0x1 SLOAD DUP2 JUMP JUMPDEST PUSH1 0x2 DUP1 SLOAD PUSH2 0xB3 SWAP1 PUSH2 0x283 JUMP JUMPDEST DUP1 PUSH1 0x1F ADD PUSH1 0x20 DUP1 SWAP2 DIV MUL PUSH1 0x20 ADD PUSH1 0x40 MLOAD SWAP1 DUP2 ADD PUSH1 0x40 MSTORE DUP1 SWAP3 SWAP2 SWAP1 DUP2 DUP2 MSTORE PUSH1 0x20 ADD DUP3 DUP1 SLOAD PUSH2 0xDF SWAP1 PUSH2 0x283 JUMP JUMPDEST DUP1 ISZERO PUSH2 0x12C JUMPI DUP1 PUSH1 0x1F LT PUSH2 0x101 JUMPI PUSH2 0x100 DUP1 DUP4 SLOAD DIV MUL DUP4 MSTORE SWAP2 PUSH1 0x20 ADD SWAP2 PUSH2 0x12C JUMP JUMPDEST DUP3 ADD SWAP2 SWAP1 PUSH1 0x0 MSTORE PUSH1 0x20 PUSH1 0x0 KECCAK256 SWAP1 JUMPDEST DUP2 SLOAD DUP2 MSTORE SWAP1 PUSH1 0x1 ADD SWAP1 PUSH1 0x20 ADD DUP1 DUP4 GT PUSH2 0x10F JUMPI DUP3 SWAP1 SUB PUSH1 0x1F AND DUP3 ADD SWAP2 JUMPDEST POP POP POP POP POP DUP2 JUMP JUMPDEST PUSH1 0x0 SLOAD DUP2 JUMP JUMPDEST PUSH1 0x0 DUP2 SWAP1 POP SWAP2 SWAP1 POP JUMP JUMPDEST PUSH2 0x14D DUP2 PUSH2 0x13A JUMP JUMPDEST DUP3 MSTORE POP POP JUMP JUMPDEST PUSH1 0x0 PUSH1 0x20 DUP3 ADD SWAP1 POP PUSH2 0x168 PUSH1 0x0 DUP4 ADD DUP5 PUSH2 0x144 JUMP JUMPDEST SWAP3 SWAP2 POP POP JUMP JUMPDEST PUSH1 0x0 DUP2 MLOAD SWAP1 POP SWAP2 SWAP1 POP JUMP JUMPDEST PUSH1 0x0 DUP3 DUP3 MSTORE PUSH1 0x20 DUP3 ADD SWAP1 POP SWAP3 SWAP2 POP POP JUMP JUMPDEST PUSH1 0x0 JUMPDEST DUP4 DUP2 LT ISZERO PUSH2 0x1A8 JUMPI DUP1 DUP3 ADD MLOAD DUP2 DUP5 ADD MSTORE PUSH1 0x20 DUP2 ADD SWAP1 POP PUSH2 0x18D JUMP JUMPDEST PUSH1 0x0 DUP5 DUP5 ADD MSTORE POP POP POP POP JUMP JUMPDEST PUSH1 0x0 PUSH1 0x1F NOT PUSH1 0x1F DUP4 ADD AND SWAP1 POP SWAP2 SWAP1 POP JUMP JUMPDEST PUSH1 0x0 PUSH2 0x1D0 DUP3 PUSH2 0x16E JUMP JUMPDEST PUSH2 0x1DA DUP2 DUP6 PUSH2 0x179 JUMP JUMPDEST SWAP4 POP PUSH2 0x1EA DUP2 DUP6 PUSH1 0x20 DUP7 ADD PUSH2 0x18A JUMP JUMPDEST PUSH2 0x1F3 DUP2 PUSH2 0x1B4 JUMP JUMPDEST DUP5 ADD SWAP2 POP POP SWAP3 SWAP2 POP POP JUMP JUMPDEST PUSH1 0x0 PUSH1 0x20 DUP3 ADD SWAP1 POP DUP2 DUP2 SUB PUSH1 0x0 DUP4 ADD MSTORE PUSH2 0x218 DUP2 DUP5 PUSH2 0x1C5 JUMP JUMPDEST SWAP1 POP SWAP3 SWAP2 POP POP JUMP JUMPDEST PUSH1 0x0 DUP2 SWAP1 POP SWAP2 SWAP1 POP JUMP JUMPDEST PUSH2 0x233 DUP2 PUSH2 0x220 JUMP JUMPDEST DUP3 MSTORE POP POP JUMP JUMPDEST PUSH1 0x0 PUSH1 0x20 DUP3 ADD SWAP1 POP PUSH2 0x24E PUSH1 0x0 DUP4 ADD DUP5 PUSH2 0x22A JUMP JUMPDEST SWAP3 SWAP2 POP POP JUMP JUMPDEST PUSH32 0x4E487B7100000000000000000000000000000000000000000000000000000000 PUSH1 0x0 MSTORE PUSH1 0x22 PUSH1 0x4 MSTORE PUSH1 0x24 PUSH1 0x0 REVERT JUMPDEST PUSH1 0x0 PUSH1 0x2 DUP3 DIV SWAP1 POP PUSH1 0x1 DUP3 AND DUP1 PUSH2 0x29B JUMPI PUSH1 0x7F DUP3 AND SWAP2 POP JUMPDEST PUSH1 0x20 DUP3 LT DUP2 SUB PUSH2 0x2AE JUMPI PUSH2 0x2AD PUSH2 0x254 JUMP JUMPDEST JUMPDEST POP SWAP2 SWAP1 POP JUMP INVALID LOG2 PUSH5 0x6970667358 0x22 SLT KECCAK256 PUSH10 0xB664729B34C046305A85 0xF6 PUSH9 0x9B9882B7E7AD913892 0x27 SAR 0x1E 0xA9 0x23 GASPRICE SWAP2 0xC4 0xDD 0xC1 PUSH5 0x736F6C6343 STOP ADDMOD GT STOP CALLER "
				},
				"gasEstimates": {
					"creation": {
						"codeDepositCost": "149200",
						"executionCost": "infinite",
						"totalCost": "infinite"
					},
					"external": {
						"I()": "2451",
						"S()": "infinite",
						"U()": "2407"
					}
				},
				"methodIdentifiers": {
					"I()": "d7260006",
					"S()": "4be1c796",
					"U()": "2688454a"
				}
			},
			"storageLayout": {
				"storage": [
					{
						"astId": 12,
						"contract": "Constructor.sol:B",
						"label": "I",
						"offset": 0,
						"slot": "0",
						"type": "t_int256"
					},
					{
						"astId": 14,
						"contract": "Constructor.sol:B",
						"label": "U",
						"offset": 0,
						"slot": "1",
						"type": "t_uint256"
					},
					{
						"astId": 16,
						"contract": "Constructor.sol:B",
						"label": "S",
						"offset": 0,
						"slot": "2",
						"type": "t_string_storage"
					}
				],
				"types": {
					"t_int256": {
						"encoding": "inplace",
						"label": "int256",
						"numberOfBytes": "32"
					},
					"t_string_storage": {
						"encoding": "bytes",
						"label": "string",
						"numberOfBytes": "32"
					},
					"t_uint256": {
						"encoding": "inplace",
						"label": "uint256",
						"numberOfBytes": "32"
					}
				}
			},
			"userdoc": {
				"kind": "user",
				"methods": {},
				"version": 1
			}
		}
	}
}