{
	".workspaces/default_workspace/modifier.sol": {
		"PiggyBank": {
			"abi": [
				{
					"inputs": [],
					"stateMutability": "payable",
					"type": "constructor"
				},
				{
					"inputs": [],
					"name": "owner",
					"outputs": [
						{
							"internalType": "address",
							"name": "",
							"type": "address"
						}
					],
					"stateMutability": "view",
					"type": "function"
				},
				{
					"inputs": [],
					"name": "withdraw",
					"outputs": [],
					"stateMutability": "nonpayable",
					"type": "function"
				},
				{
					"stateMutability": "payable",
					"type": "receive"
				}
			],
			"devdoc": {
				"kind": "dev",
				"methods": {},
				"version": 1
			},
			"evm": {
				"assembly": "    /* \".workspaces/default_workspace/modifier.sol\":61:715  contract PiggyBank {... */\n  mstore(0x40, 0x80)\n    /* \".workspaces/default_workspace/modifier.sol\":412:422  msg.sender */\n  caller\n    /* \".workspaces/default_workspace/modifier.sol\":404:409  owner */\n  0x00\n  dup1\n    /* \".workspaces/default_workspace/modifier.sol\":404:422  owner = msg.sender */\n  0x0100\n  exp\n  dup2\n  sload\n  dup2\n  0xffffffffffffffffffffffffffffffffffffffff\n  mul\n  not\n  and\n  swap1\n  dup4\n  0xffffffffffffffffffffffffffffffffffffffff\n  and\n  mul\n  or\n  swap1\n  sstore\n  pop\n    /* \".workspaces/default_workspace/modifier.sol\":61:715  contract PiggyBank {... */\n  dataSize(sub_0)\n  dup1\n  dataOffset(sub_0)\n  0x00\n  codecopy\n  0x00\n  return\nstop\n\nsub_0: assembly {\n        /* \".workspaces/default_workspace/modifier.sol\":61:715  contract PiggyBank {... */\n      mstore(0x40, 0x80)\n      jumpi(tag_1, lt(calldatasize, 0x04))\n      shr(0xe0, calldataload(0x00))\n      dup1\n      0x3ccfd60b\n      eq\n      tag_3\n      jumpi\n      dup1\n      0x8da5cb5b\n      eq\n      tag_4\n      jumpi\n      jump(tag_2)\n    tag_1:\n      jumpi(tag_2, calldatasize)\n        /* \".workspaces/default_workspace/modifier.sol\":210:220  msg.sender */\n      caller\n        /* \".workspaces/default_workspace/modifier.sol\":201:220  owner == msg.sender */\n      0xffffffffffffffffffffffffffffffffffffffff\n      and\n        /* \".workspaces/default_workspace/modifier.sol\":201:206  owner */\n      0x00\n      dup1\n      sload\n      swap1\n      0x0100\n      exp\n      swap1\n      div\n      0xffffffffffffffffffffffffffffffffffffffff\n      and\n        /* \".workspaces/default_workspace/modifier.sol\":201:220  owner == msg.sender */\n      0xffffffffffffffffffffffffffffffffffffffff\n      and\n      eq\n        /* \".workspaces/default_workspace/modifier.sol\":193:259  require(owner == msg.sender, \"Only owner can call this function.\") */\n      tag_7\n      jumpi\n      mload(0x40)\n      0x08c379a000000000000000000000000000000000000000000000000000000000\n      dup2\n      mstore\n      0x04\n      add\n      tag_8\n      swap1\n      tag_9\n      jump\t// in\n    tag_8:\n      mload(0x40)\n      dup1\n      swap2\n      sub\n      swap1\n      revert\n    tag_7:\n        /* \".workspaces/default_workspace/modifier.sol\":61:715  contract PiggyBank {... */\n      stop\n    tag_2:\n      0x00\n      dup1\n      revert\n        /* \".workspaces/default_workspace/modifier.sol\":556:712  function withdraw () OnlyOwner external {... */\n    tag_3:\n      callvalue\n      dup1\n      iszero\n      tag_11\n      jumpi\n      0x00\n      dup1\n      revert\n    tag_11:\n      pop\n      tag_12\n      tag_13\n      jump\t// in\n    tag_12:\n      stop\n        /* \".workspaces/default_workspace/modifier.sol\":87:107  address public owner */\n    tag_4:\n      callvalue\n      dup1\n      iszero\n      tag_14\n      jumpi\n      0x00\n      dup1\n      revert\n    tag_14:\n      pop\n      tag_15\n      tag_16\n      jump\t// in\n    tag_15:\n      mload(0x40)\n      tag_17\n      swap2\n      swap1\n      tag_18\n      jump\t// in\n    tag_17:\n      mload(0x40)\n      dup1\n      swap2\n      sub\n      swap1\n      return\n        /* \".workspaces/default_workspace/modifier.sol\":556:712  function withdraw () OnlyOwner external {... */\n    tag_13:\n        /* \".workspaces/default_workspace/modifier.sol\":210:220  msg.sender */\n      caller\n        /* \".workspaces/default_workspace/modifier.sol\":201:220  owner == msg.sender */\n      0xffffffffffffffffffffffffffffffffffffffff\n      and\n        /* \".workspaces/default_workspace/modifier.sol\":201:206  owner */\n      0x00\n      dup1\n      sload\n      swap1\n      0x0100\n      exp\n      swap1\n      div\n      0xffffffffffffffffffffffffffffffffffffffff\n      and\n        /* \".workspaces/default_workspace/modifier.sol\":201:220  owner == msg.sender */\n      0xffffffffffffffffffffffffffffffffffffffff\n      and\n      eq\n        /* \".workspaces/default_workspace/modifier.sol\":193:259  require(owner == msg.sender, \"Only owner can call this function.\") */\n      tag_20\n      jumpi\n      mload(0x40)\n      0x08c379a000000000000000000000000000000000000000000000000000000000\n      dup2\n      mstore\n      0x04\n      add\n      tag_21\n      swap1\n      tag_9\n      jump\t// in\n    tag_21:\n      mload(0x40)\n      dup1\n      swap2\n      sub\n      swap1\n      revert\n    tag_20:\n        /* \".workspaces/default_workspace/modifier.sol\":607:631  address payable Receiver */\n      0x00\n        /* \".workspaces/default_workspace/modifier.sol\":642:652  msg.sender */\n      caller\n        /* \".workspaces/default_workspace/modifier.sol\":607:653  address payable Receiver = payable(msg.sender) */\n      swap1\n      pop\n        /* \".workspaces/default_workspace/modifier.sol\":664:672  Receiver */\n      dup1\n        /* \".workspaces/default_workspace/modifier.sol\":664:681  Receiver.transfer */\n      0xffffffffffffffffffffffffffffffffffffffff\n      and\n        /* \".workspaces/default_workspace/modifier.sol\":664:704  Receiver.transfer(address(this).balance) */\n      0x08fc\n        /* \".workspaces/default_workspace/modifier.sol\":682:703  address(this).balance */\n      selfbalance\n        /* \".workspaces/default_workspace/modifier.sol\":664:704  Receiver.transfer(address(this).balance) */\n      swap1\n      dup2\n      iszero\n      mul\n      swap1\n      mload(0x40)\n      0x00\n      mload(0x40)\n      dup1\n      dup4\n      sub\n      dup2\n      dup6\n      dup9\n      dup9\n      call\n      swap4\n      pop\n      pop\n      pop\n      pop\n      iszero\n      dup1\n      iszero\n      tag_24\n      jumpi\n      returndatasize\n      0x00\n      dup1\n      returndatacopy\n      revert(0x00, returndatasize)\n    tag_24:\n      pop\n        /* \".workspaces/default_workspace/modifier.sol\":596:712  {... */\n      pop\n        /* \".workspaces/default_workspace/modifier.sol\":556:712  function withdraw () OnlyOwner external {... */\n      jump\t// out\n        /* \".workspaces/default_workspace/modifier.sol\":87:107  address public owner */\n    tag_16:\n      0x00\n      dup1\n      sload\n      swap1\n      0x0100\n      exp\n      swap1\n      div\n      0xffffffffffffffffffffffffffffffffffffffff\n      and\n      dup2\n      jump\t// out\n        /* \"#utility.yul\":7:176   */\n    tag_25:\n        /* \"#utility.yul\":91:102   */\n      0x00\n        /* \"#utility.yul\":125:131   */\n      dup3\n        /* \"#utility.yul\":120:123   */\n      dup3\n        /* \"#utility.yul\":113:132   */\n      mstore\n        /* \"#utility.yul\":165:169   */\n      0x20\n        /* \"#utility.yul\":160:163   */\n      dup3\n        /* \"#utility.yul\":156:170   */\n      add\n        /* \"#utility.yul\":141:170   */\n      swap1\n      pop\n        /* \"#utility.yul\":7:176   */\n      swap3\n      swap2\n      pop\n      pop\n      jump\t// out\n        /* \"#utility.yul\":182:403   */\n    tag_26:\n        /* \"#utility.yul\":322:356   */\n      0x4f6e6c79206f776e65722063616e2063616c6c20746869732066756e6374696f\n        /* \"#utility.yul\":318:319   */\n      0x00\n        /* \"#utility.yul\":310:316   */\n      dup3\n        /* \"#utility.yul\":306:320   */\n      add\n        /* \"#utility.yul\":299:357   */\n      mstore\n        /* \"#utility.yul\":391:395   */\n      0x6e2e000000000000000000000000000000000000000000000000000000000000\n        /* \"#utility.yul\":386:388   */\n      0x20\n        /* \"#utility.yul\":378:384   */\n      dup3\n        /* \"#utility.yul\":374:389   */\n      add\n        /* \"#utility.yul\":367:396   */\n      mstore\n        /* \"#utility.yul\":182:403   */\n      pop\n      jump\t// out\n        /* \"#utility.yul\":409:775   */\n    tag_27:\n        /* \"#utility.yul\":551:554   */\n      0x00\n        /* \"#utility.yul\":572:639   */\n      tag_35\n        /* \"#utility.yul\":636:638   */\n      0x22\n        /* \"#utility.yul\":631:634   */\n      dup4\n        /* \"#utility.yul\":572:639   */\n      tag_25\n      jump\t// in\n    tag_35:\n        /* \"#utility.yul\":565:639   */\n      swap2\n      pop\n        /* \"#utility.yul\":648:741   */\n      tag_36\n        /* \"#utility.yul\":737:740   */\n      dup3\n        /* \"#utility.yul\":648:741   */\n      tag_26\n      jump\t// in\n    tag_36:\n        /* \"#utility.yul\":766:768   */\n      0x40\n        /* \"#utility.yul\":761:764   */\n      dup3\n        /* \"#utility.yul\":757:769   */\n      add\n        /* \"#utility.yul\":750:769   */\n      swap1\n      pop\n        /* \"#utility.yul\":409:775   */\n      swap2\n      swap1\n      pop\n      jump\t// out\n        /* \"#utility.yul\":781:1200   */\n    tag_9:\n        /* \"#utility.yul\":947:951   */\n      0x00\n        /* \"#utility.yul\":985:987   */\n      0x20\n        /* \"#utility.yul\":974:983   */\n      dup3\n        /* \"#utility.yul\":970:988   */\n      add\n        /* \"#utility.yul\":962:988   */\n      swap1\n      pop\n        /* \"#utility.yul\":1034:1043   */\n      dup2\n        /* \"#utility.yul\":1028:1032   */\n      dup2\n        /* \"#utility.yul\":1024:1044   */\n      sub\n        /* \"#utility.yul\":1020:1021   */\n      0x00\n        /* \"#utility.yul\":1009:1018   */\n      dup4\n        /* \"#utility.yul\":1005:1022   */\n      add\n        /* \"#utility.yul\":998:1045   */\n      mstore\n        /* \"#utility.yul\":1062:1193   */\n      tag_38\n        /* \"#utility.yul\":1188:1192   */\n      dup2\n        /* \"#utility.yul\":1062:1193   */\n      tag_27\n      jump\t// in\n    tag_38:\n        /* \"#utility.yul\":1054:1193   */\n      swap1\n      pop\n        /* \"#utility.yul\":781:1200   */\n      swap2\n      swap1\n      pop\n      jump\t// out\n        /* \"#utility.yul\":1206:1332   */\n    tag_28:\n        /* \"#utility.yul\":1243:1250   */\n      0x00\n        /* \"#utility.yul\":1283:1325   */\n      0xffffffffffffffffffffffffffffffffffffffff\n        /* \"#utility.yul\":1276:1281   */\n      dup3\n        /* \"#utility.yul\":1272:1326   */\n      and\n        /* \"#utility.yul\":1261:1326   */\n      swap1\n      pop\n        /* \"#utility.yul\":1206:1332   */\n      swap2\n      swap1\n      pop\n      jump\t// out\n        /* \"#utility.yul\":1338:1434   */\n    tag_29:\n        /* \"#utility.yul\":1375:1382   */\n      0x00\n        /* \"#utility.yul\":1404:1428   */\n      tag_41\n        /* \"#utility.yul\":1422:1427   */\n      dup3\n        /* \"#utility.yul\":1404:1428   */\n      tag_28\n      jump\t// in\n    tag_41:\n        /* \"#utility.yul\":1393:1428   */\n      swap1\n      pop\n        /* \"#utility.yul\":1338:1434   */\n      swap2\n      swap1\n      pop\n      jump\t// out\n        /* \"#utility.yul\":1440:1558   */\n    tag_30:\n        /* \"#utility.yul\":1527:1551   */\n      tag_43\n        /* \"#utility.yul\":1545:1550   */\n      dup2\n        /* \"#utility.yul\":1527:1551   */\n      tag_29\n      jump\t// in\n    tag_43:\n        /* \"#utility.yul\":1522:1525   */\n      dup3\n        /* \"#utility.yul\":1515:1552   */\n      mstore\n        /* \"#utility.yul\":1440:1558   */\n      pop\n      pop\n      jump\t// out\n        /* \"#utility.yul\":1564:1786   */\n    tag_18:\n        /* \"#utility.yul\":1657:1661   */\n      0x00\n        /* \"#utility.yul\":1695:1697   */\n      0x20\n        /* \"#utility.yul\":1684:1693   */\n      dup3\n        /* \"#utility.yul\":1680:1698   */\n      add\n        /* \"#utility.yul\":1672:1698   */\n      swap1\n      pop\n        /* \"#utility.yul\":1708:1779   */\n      tag_45\n        /* \"#utility.yul\":1776:1777   */\n      0x00\n        /* \"#utility.yul\":1765:1774   */\n      dup4\n        /* \"#utility.yul\":1761:1778   */\n      add\n        /* \"#utility.yul\":1752:1758   */\n      dup5\n        /* \"#utility.yul\":1708:1779   */\n      tag_30\n      jump\t// in\n    tag_45:\n        /* \"#utility.yul\":1564:1786   */\n      swap3\n      swap2\n      pop\n      pop\n      jump\t// out\n\n    auxdata: 0xa26469706673582212206856e1d1d7d1e90978f3d54a3105667d6b6a349bc39ad4c0e4b9ff46cf04cd1f64736f6c63430008110033\n}\n",
				"bytecode": {
					"linkReferences": {},
					"object": "6080604052336000806101000a81548173ffffffffffffffffffffffffffffffffffffffff021916908373ffffffffffffffffffffffffffffffffffffffff16021790555061033f806100536000396000f3fe60806040526004361061002d5760003560e01c80633ccfd60b146100c75780638da5cb5b146100de576100c2565b366100c2573373ffffffffffffffffffffffffffffffffffffffff1660008054906101000a900473ffffffffffffffffffffffffffffffffffffffff1673ffffffffffffffffffffffffffffffffffffffff16146100c0576040517f08c379a00000000000000000000000000000000000000000000000000000000081526004016100b79061028d565b60405180910390fd5b005b600080fd5b3480156100d357600080fd5b506100dc610109565b005b3480156100ea57600080fd5b506100f36101e6565b60405161010091906102ee565b60405180910390f35b3373ffffffffffffffffffffffffffffffffffffffff1660008054906101000a900473ffffffffffffffffffffffffffffffffffffffff1673ffffffffffffffffffffffffffffffffffffffff1614610197576040517f08c379a000000000000000000000000000000000000000000000000000000000815260040161018e9061028d565b60405180910390fd5b60003390508073ffffffffffffffffffffffffffffffffffffffff166108fc479081150290604051600060405180830381858888f193505050501580156101e2573d6000803e3d6000fd5b5050565b60008054906101000a900473ffffffffffffffffffffffffffffffffffffffff1681565b600082825260208201905092915050565b7f4f6e6c79206f776e65722063616e2063616c6c20746869732066756e6374696f60008201527f6e2e000000000000000000000000000000000000000000000000000000000000602082015250565b600061027760228361020a565b91506102828261021b565b604082019050919050565b600060208201905081810360008301526102a68161026a565b9050919050565b600073ffffffffffffffffffffffffffffffffffffffff82169050919050565b60006102d8826102ad565b9050919050565b6102e8816102cd565b82525050565b600060208201905061030360008301846102df565b9291505056fea26469706673582212206856e1d1d7d1e90978f3d54a3105667d6b6a349bc39ad4c0e4b9ff46cf04cd1f64736f6c63430008110033",
					"opcodes": "PUSH1 0x80 PUSH1 0x40 MSTORE CALLER PUSH1 0x0 DUP1 PUSH2 0x100 EXP DUP2 SLOAD DUP2 PUSH20 0xFFFFFFFFFFFFFFFFFFFFFFFFFFFFFFFFFFFFFFFF MUL NOT AND SWAP1 DUP4 PUSH20 0xFFFFFFFFFFFFFFFFFFFFFFFFFFFFFFFFFFFFFFFF AND MUL OR SWAP1 SSTORE POP PUSH2 0x33F DUP1 PUSH2 0x53 PUSH1 0x0 CODECOPY PUSH1 0x0 RETURN INVALID PUSH1 0x80 PUSH1 0x40 MSTORE PUSH1 0x4 CALLDATASIZE LT PUSH2 0x2D JUMPI PUSH1 0x0 CALLDATALOAD PUSH1 0xE0 SHR DUP1 PUSH4 0x3CCFD60B EQ PUSH2 0xC7 JUMPI DUP1 PUSH4 0x8DA5CB5B EQ PUSH2 0xDE JUMPI PUSH2 0xC2 JUMP JUMPDEST CALLDATASIZE PUSH2 0xC2 JUMPI CALLER PUSH20 0xFFFFFFFFFFFFFFFFFFFFFFFFFFFFFFFFFFFFFFFF AND PUSH1 0x0 DUP1 SLOAD SWAP1 PUSH2 0x100 EXP SWAP1 DIV PUSH20 0xFFFFFFFFFFFFFFFFFFFFFFFFFFFFFFFFFFFFFFFF AND PUSH20 0xFFFFFFFFFFFFFFFFFFFFFFFFFFFFFFFFFFFFFFFF AND EQ PUSH2 0xC0 JUMPI PUSH1 0x40 MLOAD PUSH32 0x8C379A000000000000000000000000000000000000000000000000000000000 DUP2 MSTORE PUSH1 0x4 ADD PUSH2 0xB7 SWAP1 PUSH2 0x28D JUMP JUMPDEST PUSH1 0x40 MLOAD DUP1 SWAP2 SUB SWAP1 REVERT JUMPDEST STOP JUMPDEST PUSH1 0x0 DUP1 REVERT JUMPDEST CALLVALUE DUP1 ISZERO PUSH2 0xD3 JUMPI PUSH1 0x0 DUP1 REVERT JUMPDEST POP PUSH2 0xDC PUSH2 0x109 JUMP JUMPDEST STOP JUMPDEST CALLVALUE DUP1 ISZERO PUSH2 0xEA JUMPI PUSH1 0x0 DUP1 REVERT JUMPDEST POP PUSH2 0xF3 PUSH2 0x1E6 JUMP JUMPDEST PUSH1 0x40 MLOAD PUSH2 0x100 SWAP2 SWAP1 PUSH2 0x2EE JUMP JUMPDEST PUSH1 0x40 MLOAD DUP1 SWAP2 SUB SWAP1 RETURN JUMPDEST CALLER PUSH20 0xFFFFFFFFFFFFFFFFFFFFFFFFFFFFFFFFFFFFFFFF AND PUSH1 0x0 DUP1 SLOAD SWAP1 PUSH2 0x100 EXP SWAP1 DIV PUSH20 0xFFFFFFFFFFFFFFFFFFFFFFFFFFFFFFFFFFFFFFFF AND PUSH20 0xFFFFFFFFFFFFFFFFFFFFFFFFFFFFFFFFFFFFFFFF AND EQ PUSH2 0x197 JUMPI PUSH1 0x40 MLOAD PUSH32 0x8C379A000000000000000000000000000000000000000000000000000000000 DUP2 MSTORE PUSH1 0x4 ADD PUSH2 0x18E SWAP1 PUSH2 0x28D JUMP JUMPDEST PUSH1 0x40 MLOAD DUP1 SWAP2 SUB SWAP1 REVERT JUMPDEST PUSH1 0x0 CALLER SWAP1 POP DUP1 PUSH20 0xFFFFFFFFFFFFFFFFFFFFFFFFFFFFFFFFFFFFFFFF AND PUSH2 0x8FC SELFBALANCE SWAP1 DUP2 ISZERO MUL SWAP1 PUSH1 0x40 MLOAD PUSH1 0x0 PUSH1 0x40 MLOAD DUP1 DUP4 SUB DUP2 DUP6 DUP9 DUP9 CALL SWAP4 POP POP POP POP ISZERO DUP1 ISZERO PUSH2 0x1E2 JUMPI RETURNDATASIZE PUSH1 0x0 DUP1 RETURNDATACOPY RETURNDATASIZE PUSH1 0x0 REVERT JUMPDEST POP POP JUMP JUMPDEST PUSH1 0x0 DUP1 SLOAD SWAP1 PUSH2 0x100 EXP SWAP1 DIV PUSH20 0xFFFFFFFFFFFFFFFFFFFFFFFFFFFFFFFFFFFFFFFF AND DUP2 JUMP JUMPDEST PUSH1 0x0 DUP3 DUP3 MSTORE PUSH1 0x20 DUP3 ADD SWAP1 POP SWAP3 SWAP2 POP POP JUMP JUMPDEST PUSH32 0x4F6E6C79206F776E65722063616E2063616C6C20746869732066756E6374696F PUSH1 0x0 DUP3 ADD MSTORE PUSH32 0x6E2E000000000000000000000000000000000000000000000000000000000000 PUSH1 0x20 DUP3 ADD MSTORE POP JUMP JUMPDEST PUSH1 0x0 PUSH2 0x277 PUSH1 0x22 DUP4 PUSH2 0x20A JUMP JUMPDEST SWAP2 POP PUSH2 0x282 DUP3 PUSH2 0x21B JUMP JUMPDEST PUSH1 0x40 DUP3 ADD SWAP1 POP SWAP2 SWAP1 POP JUMP JUMPDEST PUSH1 0x0 PUSH1 0x20 DUP3 ADD SWAP1 POP DUP2 DUP2 SUB PUSH1 0x0 DUP4 ADD MSTORE PUSH2 0x2A6 DUP2 PUSH2 0x26A JUMP JUMPDEST SWAP1 POP SWAP2 SWAP1 POP JUMP JUMPDEST PUSH1 0x0 PUSH20 0xFFFFFFFFFFFFFFFFFFFFFFFFFFFFFFFFFFFFFFFF DUP3 AND SWAP1 POP SWAP2 SWAP1 POP JUMP JUMPDEST PUSH1 0x0 PUSH2 0x2D8 DUP3 PUSH2 0x2AD JUMP JUMPDEST SWAP1 POP SWAP2 SWAP1 POP JUMP JUMPDEST PUSH2 0x2E8 DUP2 PUSH2 0x2CD JUMP JUMPDEST DUP3 MSTORE POP POP JUMP JUMPDEST PUSH1 0x0 PUSH1 0x20 DUP3 ADD SWAP1 POP PUSH2 0x303 PUSH1 0x0 DUP4 ADD DUP5 PUSH2 0x2DF JUMP JUMPDEST SWAP3 SWAP2 POP POP JUMP INVALID LOG2 PUSH5 0x6970667358 0x22 SLT KECCAK256 PUSH9 0x56E1D1D7D1E90978F3 0xD5 0x4A BALANCE SDIV PUSH7 0x7D6B6A349BC39A 0xD4 0xC0 0xE4 0xB9 SELFDESTRUCT CHAINID 0xCF DIV 0xCD 0x1F PUSH5 0x736F6C6343 STOP ADDMOD GT STOP CALLER "
				},
				"gasEstimates": {
					"creation": {
						"codeDepositCost": "166200",
						"executionCost": "24450",
						"totalCost": "190650"
					},
					"external": {
						"owner()": "2511",
						"withdraw()": "infinite"
					}
				},
				"methodIdentifiers": {
					"owner()": "8da5cb5b",
					"withdraw()": "3ccfd60b"
				}
			},
			"storageLayout": {
				"storage": [
					{
						"astId": 3,
						"contract": ".workspaces/default_workspace/modifier.sol:PiggyBank",
						"label": "owner",
						"offset": 0,
						"slot": "0",
						"type": "t_address"
					}
				],
				"types": {
					"t_address": {
						"encoding": "inplace",
						"label": "address",
						"numberOfBytes": "20"
					}
				}
			},
			"userdoc": {
				"kind": "user",
				"methods": {},
				"version": 1
			}
		}
	}
}