{
	".workspaces/default_workspace/ValueType.sol": {
		"First": {
			"abi": [
				{
					"inputs": [],
					"name": "C",
					"outputs": [
						{
							"internalType": "enum First.Color",
							"name": "",
							"type": "uint8"
						}
					],
					"stateMutability": "view",
					"type": "function"
				},
				{
					"inputs": [],
					"name": "Hydaiaddr",
					"outputs": [
						{
							"internalType": "address",
							"name": "",
							"type": "address"
						}
					],
					"stateMutability": "view",
					"type": "function"
				},
				{
					"inputs": [],
					"name": "I",
					"outputs": [
						{
							"internalType": "int256",
							"name": "",
							"type": "int256"
						}
					],
					"stateMutability": "view",
					"type": "function"
				},
				{
					"inputs": [],
					"name": "I8",
					"outputs": [
						{
							"internalType": "int8",
							"name": "",
							"type": "int8"
						}
					],
					"stateMutability": "view",
					"type": "function"
				},
				{
					"inputs": [],
					"name": "U",
					"outputs": [
						{
							"internalType": "uint256",
							"name": "",
							"type": "uint256"
						}
					],
					"stateMutability": "view",
					"type": "function"
				},
				{
					"inputs": [],
					"name": "U256",
					"outputs": [
						{
							"internalType": "uint256",
							"name": "",
							"type": "uint256"
						}
					],
					"stateMutability": "view",
					"type": "function"
				},
				{
					"inputs": [],
					"name": "isMerge",
					"outputs": [
						{
							"internalType": "bool",
							"name": "",
							"type": "bool"
						}
					],
					"stateMutability": "view",
					"type": "function"
				},
				{
					"inputs": [],
					"name": "payHydaiaddr",
					"outputs": [
						{
							"internalType": "address payable",
							"name": "",
							"type": "address"
						}
					],
					"stateMutability": "view",
					"type": "function"
				}
			],
			"devdoc": {
				"kind": "dev",
				"methods": {},
				"version": 1
			},
			"evm": {
				"assembly": "    /* \".workspaces/default_workspace/ValueType.sol\":60:503  contract First {... */\n  mstore(0x40, 0x80)\n    /* \".workspaces/default_workspace/ValueType.sol\":120:124  true */\n  0x01\n    /* \".workspaces/default_workspace/ValueType.sol\":98:124  bool public isMerge = true */\n  0x00\n  dup1\n  0x0100\n  exp\n  dup2\n  sload\n  dup2\n  0xff\n  mul\n  not\n  and\n  swap1\n  dup4\n  iszero\n  iszero\n  mul\n  or\n  swap1\n  sstore\n  pop\n    /* \".workspaces/default_workspace/ValueType.sol\":168:172  -123 */\n  0xffffffffffffffffffffffffffffffffffffffffffffffffffffffffffffff85\n    /* \".workspaces/default_workspace/ValueType.sol\":153:172  int public I = -123 */\n  0x01\n  sstore\n    /* \".workspaces/default_workspace/ValueType.sol\":195:201  999999 */\n  0x0f423f\n    /* \".workspaces/default_workspace/ValueType.sol\":179:201  uint public U = 999999 */\n  0x02\n  sstore\n    /* \".workspaces/default_workspace/ValueType.sol\":225:227  -4 */\n  0xfffffffffffffffffffffffffffffffffffffffffffffffffffffffffffffffc\n    /* \".workspaces/default_workspace/ValueType.sol\":208:227  int8 public I8 = -4 */\n  0x03\n  exp(0x0100, 0x00)\n  dup2\n  sload\n  dup2\n  0xff\n  mul\n  not\n  and\n  swap1\n  dup4\n  0x00\n  signextend\n  0xff\n  and\n  mul\n  or\n  swap1\n  sstore\n  pop\n    /* \".workspaces/default_workspace/ValueType.sol\":256:265  453434343 */\n  0x1b06dbe7\n    /* \".workspaces/default_workspace/ValueType.sol\":234:265  uint256 public U256 = 453434343 */\n  0x04\n  sstore\n    /* \".workspaces/default_workspace/ValueType.sol\":317:359  0x9A76D78F203Ec6f7289bB0178cb6C25f18A9911E */\n  0x9a76d78f203ec6f7289bb0178cb6c25f18a9911e\n    /* \".workspaces/default_workspace/ValueType.sol\":290:359  address public Hydaiaddr = 0x9A76D78F203Ec6f7289bB0178cb6C25f18A9911E */\n  0x05\n  exp(0x0100, 0x00)\n  dup2\n  sload\n  dup2\n  0xffffffffffffffffffffffffffffffffffffffff\n  mul\n  not\n  and\n  swap1\n  dup4\n  0xffffffffffffffffffffffffffffffffffffffff\n  and\n  mul\n  or\n  swap1\n  sstore\n  pop\n    /* \".workspaces/default_workspace/ValueType.sol\":413:422  Hydaiaddr */\n  0x05\n  0x00\n  swap1\n  sload\n  swap1\n  0x0100\n  exp\n  swap1\n  div\n  0xffffffffffffffffffffffffffffffffffffffff\n  and\n    /* \".workspaces/default_workspace/ValueType.sol\":366:423  address payable public payHydaiaddr =  payable(Hydaiaddr) */\n  0x06\n  exp(0x0100, 0x00)\n  dup2\n  sload\n  dup2\n  0xffffffffffffffffffffffffffffffffffffffff\n  mul\n  not\n  and\n  swap1\n  dup4\n  0xffffffffffffffffffffffffffffffffffffffff\n  and\n  mul\n  or\n  swap1\n  sstore\n  pop\n    /* \".workspaces/default_workspace/ValueType.sol\":489:499  Color.Blue */\n  0x00\n    /* \".workspaces/default_workspace/ValueType.sol\":472:499  Color public C = Color.Blue */\n  0x06\n  exp(0x0100, 0x14)\n  dup2\n  sload\n  dup2\n  0xff\n  mul\n  not\n  and\n  swap1\n  dup4\n  0x01\n  dup2\n  gt\n  iszero\n  tag_1\n  jumpi\n  tag_2\n  tag_3\n  jump\t// in\ntag_2:\ntag_1:\n  mul\n  or\n  swap1\n  sstore\n  pop\n    /* \".workspaces/default_workspace/ValueType.sol\":60:503  contract First {... */\n  callvalue\n  dup1\n  iszero\n  tag_4\n  jumpi\n  0x00\n  dup1\n  revert\ntag_4:\n  pop\n  jump(tag_5)\n    /* \"#utility.yul\":7:187   */\ntag_3:\n    /* \"#utility.yul\":55:132   */\n  0x4e487b7100000000000000000000000000000000000000000000000000000000\n    /* \"#utility.yul\":52:53   */\n  0x00\n    /* \"#utility.yul\":45:133   */\n  mstore\n    /* \"#utility.yul\":152:156   */\n  0x21\n    /* \"#utility.yul\":149:150   */\n  0x04\n    /* \"#utility.yul\":142:157   */\n  mstore\n    /* \"#utility.yul\":176:180   */\n  0x24\n    /* \"#utility.yul\":173:174   */\n  0x00\n    /* \"#utility.yul\":166:181   */\n  revert\n    /* \".workspaces/default_workspace/ValueType.sol\":60:503  contract First {... */\ntag_5:\n  dataSize(sub_0)\n  dup1\n  dataOffset(sub_0)\n  0x00\n  codecopy\n  0x00\n  return\nstop\n\nsub_0: assembly {\n        /* \".workspaces/default_workspace/ValueType.sol\":60:503  contract First {... */\n      mstore(0x40, 0x80)\n      callvalue\n      dup1\n      iszero\n      tag_1\n      jumpi\n      0x00\n      dup1\n      revert\n    tag_1:\n      pop\n      jumpi(tag_2, lt(calldatasize, 0x04))\n      shr(0xe0, calldataload(0x00))\n      dup1\n      0xbbcb5f4d\n      gt\n      tag_11\n      jumpi\n      dup1\n      0xbbcb5f4d\n      eq\n      tag_7\n      jumpi\n      dup1\n      0xc3b61453\n      eq\n      tag_8\n      jumpi\n      dup1\n      0xcfa250da\n      eq\n      tag_9\n      jumpi\n      dup1\n      0xd7260006\n      eq\n      tag_10\n      jumpi\n      jump(tag_2)\n    tag_11:\n      dup1\n      0x2688454a\n      eq\n      tag_3\n      jumpi\n      dup1\n      0x8221d9cd\n      eq\n      tag_4\n      jumpi\n      dup1\n      0x83dfe5fd\n      eq\n      tag_5\n      jumpi\n      dup1\n      0x95798db6\n      eq\n      tag_6\n      jumpi\n    tag_2:\n      0x00\n      dup1\n      revert\n        /* \".workspaces/default_workspace/ValueType.sol\":179:201  uint public U = 999999 */\n    tag_3:\n      tag_12\n      tag_13\n      jump\t// in\n    tag_12:\n      mload(0x40)\n      tag_14\n      swap2\n      swap1\n      tag_15\n      jump\t// in\n    tag_14:\n      mload(0x40)\n      dup1\n      swap2\n      sub\n      swap1\n      return\n        /* \".workspaces/default_workspace/ValueType.sol\":98:124  bool public isMerge = true */\n    tag_4:\n      tag_16\n      tag_17\n      jump\t// in\n    tag_16:\n      mload(0x40)\n      tag_18\n      swap2\n      swap1\n      tag_19\n      jump\t// in\n    tag_18:\n      mload(0x40)\n      dup1\n      swap2\n      sub\n      swap1\n      return\n        /* \".workspaces/default_workspace/ValueType.sol\":472:499  Color public C = Color.Blue */\n    tag_5:\n      tag_20\n      tag_21\n      jump\t// in\n    tag_20:\n      mload(0x40)\n      tag_22\n      swap2\n      swap1\n      tag_23\n      jump\t// in\n    tag_22:\n      mload(0x40)\n      dup1\n      swap2\n      sub\n      swap1\n      return\n        /* \".workspaces/default_workspace/ValueType.sol\":208:227  int8 public I8 = -4 */\n    tag_6:\n      tag_24\n      tag_25\n      jump\t// in\n    tag_24:\n      mload(0x40)\n      tag_26\n      swap2\n      swap1\n      tag_27\n      jump\t// in\n    tag_26:\n      mload(0x40)\n      dup1\n      swap2\n      sub\n      swap1\n      return\n        /* \".workspaces/default_workspace/ValueType.sol\":290:359  address public Hydaiaddr = 0x9A76D78F203Ec6f7289bB0178cb6C25f18A9911E */\n    tag_7:\n      tag_28\n      tag_29\n      jump\t// in\n    tag_28:\n      mload(0x40)\n      tag_30\n      swap2\n      swap1\n      tag_31\n      jump\t// in\n    tag_30:\n      mload(0x40)\n      dup1\n      swap2\n      sub\n      swap1\n      return\n        /* \".workspaces/default_workspace/ValueType.sol\":366:423  address payable public payHydaiaddr =  payable(Hydaiaddr) */\n    tag_8:\n      tag_32\n      tag_33\n      jump\t// in\n    tag_32:\n      mload(0x40)\n      tag_34\n      swap2\n      swap1\n      tag_35\n      jump\t// in\n    tag_34:\n      mload(0x40)\n      dup1\n      swap2\n      sub\n      swap1\n      return\n        /* \".workspaces/default_workspace/ValueType.sol\":234:265  uint256 public U256 = 453434343 */\n    tag_9:\n      tag_36\n      tag_37\n      jump\t// in\n    tag_36:\n      mload(0x40)\n      tag_38\n      swap2\n      swap1\n      tag_15\n      jump\t// in\n    tag_38:\n      mload(0x40)\n      dup1\n      swap2\n      sub\n      swap1\n      return\n        /* \".workspaces/default_workspace/ValueType.sol\":153:172  int public I = -123 */\n    tag_10:\n      tag_39\n      tag_40\n      jump\t// in\n    tag_39:\n      mload(0x40)\n      tag_41\n      swap2\n      swap1\n      tag_42\n      jump\t// in\n    tag_41:\n      mload(0x40)\n      dup1\n      swap2\n      sub\n      swap1\n      return\n        /* \".workspaces/default_workspace/ValueType.sol\":179:201  uint public U = 999999 */\n    tag_13:\n      sload(0x02)\n      dup2\n      jump\t// out\n        /* \".workspaces/default_workspace/ValueType.sol\":98:124  bool public isMerge = true */\n    tag_17:\n      0x00\n      dup1\n      sload\n      swap1\n      0x0100\n      exp\n      swap1\n      div\n      0xff\n      and\n      dup2\n      jump\t// out\n        /* \".workspaces/default_workspace/ValueType.sol\":472:499  Color public C = Color.Blue */\n    tag_21:\n      0x06\n      0x14\n      swap1\n      sload\n      swap1\n      0x0100\n      exp\n      swap1\n      div\n      0xff\n      and\n      dup2\n      jump\t// out\n        /* \".workspaces/default_workspace/ValueType.sol\":208:227  int8 public I8 = -4 */\n    tag_25:\n      0x03\n      0x00\n      swap1\n      sload\n      swap1\n      0x0100\n      exp\n      swap1\n      div\n      0x00\n      signextend\n      dup2\n      jump\t// out\n        /* \".workspaces/default_workspace/ValueType.sol\":290:359  address public Hydaiaddr = 0x9A76D78F203Ec6f7289bB0178cb6C25f18A9911E */\n    tag_29:\n      0x05\n      0x00\n      swap1\n      sload\n      swap1\n      0x0100\n      exp\n      swap1\n      div\n      0xffffffffffffffffffffffffffffffffffffffff\n      and\n      dup2\n      jump\t// out\n        /* \".workspaces/default_workspace/ValueType.sol\":366:423  address payable public payHydaiaddr =  payable(Hydaiaddr) */\n    tag_33:\n      0x06\n      0x00\n      swap1\n      sload\n      swap1\n      0x0100\n      exp\n      swap1\n      div\n      0xffffffffffffffffffffffffffffffffffffffff\n      and\n      dup2\n      jump\t// out\n        /* \".workspaces/default_workspace/ValueType.sol\":234:265  uint256 public U256 = 453434343 */\n    tag_37:\n      sload(0x04)\n      dup2\n      jump\t// out\n        /* \".workspaces/default_workspace/ValueType.sol\":153:172  int public I = -123 */\n    tag_40:\n      sload(0x01)\n      dup2\n      jump\t// out\n        /* \"#utility.yul\":7:84   */\n    tag_43:\n        /* \"#utility.yul\":44:51   */\n      0x00\n        /* \"#utility.yul\":73:78   */\n      dup2\n        /* \"#utility.yul\":62:78   */\n      swap1\n      pop\n        /* \"#utility.yul\":7:84   */\n      swap2\n      swap1\n      pop\n      jump\t// out\n        /* \"#utility.yul\":90:208   */\n    tag_44:\n        /* \"#utility.yul\":177:201   */\n      tag_64\n        /* \"#utility.yul\":195:200   */\n      dup2\n        /* \"#utility.yul\":177:201   */\n      tag_43\n      jump\t// in\n    tag_64:\n        /* \"#utility.yul\":172:175   */\n      dup3\n        /* \"#utility.yul\":165:202   */\n      mstore\n        /* \"#utility.yul\":90:208   */\n      pop\n      pop\n      jump\t// out\n        /* \"#utility.yul\":214:436   */\n    tag_15:\n        /* \"#utility.yul\":307:311   */\n      0x00\n        /* \"#utility.yul\":345:347   */\n      0x20\n        /* \"#utility.yul\":334:343   */\n      dup3\n        /* \"#utility.yul\":330:348   */\n      add\n        /* \"#utility.yul\":322:348   */\n      swap1\n      pop\n        /* \"#utility.yul\":358:429   */\n      tag_66\n        /* \"#utility.yul\":426:427   */\n      0x00\n        /* \"#utility.yul\":415:424   */\n      dup4\n        /* \"#utility.yul\":411:428   */\n      add\n        /* \"#utility.yul\":402:408   */\n      dup5\n        /* \"#utility.yul\":358:429   */\n      tag_44\n      jump\t// in\n    tag_66:\n        /* \"#utility.yul\":214:436   */\n      swap3\n      swap2\n      pop\n      pop\n      jump\t// out\n        /* \"#utility.yul\":442:532   */\n    tag_45:\n        /* \"#utility.yul\":476:483   */\n      0x00\n        /* \"#utility.yul\":519:524   */\n      dup2\n        /* \"#utility.yul\":512:525   */\n      iszero\n        /* \"#utility.yul\":505:526   */\n      iszero\n        /* \"#utility.yul\":494:526   */\n      swap1\n      pop\n        /* \"#utility.yul\":442:532   */\n      swap2\n      swap1\n      pop\n      jump\t// out\n        /* \"#utility.yul\":538:647   */\n    tag_46:\n        /* \"#utility.yul\":619:640   */\n      tag_69\n        /* \"#utility.yul\":634:639   */\n      dup2\n        /* \"#utility.yul\":619:640   */\n      tag_45\n      jump\t// in\n    tag_69:\n        /* \"#utility.yul\":614:617   */\n      dup3\n        /* \"#utility.yul\":607:641   */\n      mstore\n        /* \"#utility.yul\":538:647   */\n      pop\n      pop\n      jump\t// out\n        /* \"#utility.yul\":653:863   */\n    tag_19:\n        /* \"#utility.yul\":740:744   */\n      0x00\n        /* \"#utility.yul\":778:780   */\n      0x20\n        /* \"#utility.yul\":767:776   */\n      dup3\n        /* \"#utility.yul\":763:781   */\n      add\n        /* \"#utility.yul\":755:781   */\n      swap1\n      pop\n        /* \"#utility.yul\":791:856   */\n      tag_71\n        /* \"#utility.yul\":853:854   */\n      0x00\n        /* \"#utility.yul\":842:851   */\n      dup4\n        /* \"#utility.yul\":838:855   */\n      add\n        /* \"#utility.yul\":829:835   */\n      dup5\n        /* \"#utility.yul\":791:856   */\n      tag_46\n      jump\t// in\n    tag_71:\n        /* \"#utility.yul\":653:863   */\n      swap3\n      swap2\n      pop\n      pop\n      jump\t// out\n        /* \"#utility.yul\":869:1049   */\n    tag_47:\n        /* \"#utility.yul\":917:994   */\n      0x4e487b7100000000000000000000000000000000000000000000000000000000\n        /* \"#utility.yul\":914:915   */\n      0x00\n        /* \"#utility.yul\":907:995   */\n      mstore\n        /* \"#utility.yul\":1014:1018   */\n      0x21\n        /* \"#utility.yul\":1011:1012   */\n      0x04\n        /* \"#utility.yul\":1004:1019   */\n      mstore\n        /* \"#utility.yul\":1038:1042   */\n      0x24\n        /* \"#utility.yul\":1035:1036   */\n      0x00\n        /* \"#utility.yul\":1028:1043   */\n      revert\n        /* \"#utility.yul\":1055:1168   */\n    tag_48:\n        /* \"#utility.yul\":1136:1137   */\n      0x02\n        /* \"#utility.yul\":1129:1134   */\n      dup2\n        /* \"#utility.yul\":1126:1138   */\n      lt\n        /* \"#utility.yul\":1116:1162   */\n      tag_74\n      jumpi\n        /* \"#utility.yul\":1142:1160   */\n      tag_75\n      tag_47\n      jump\t// in\n    tag_75:\n        /* \"#utility.yul\":1116:1162   */\n    tag_74:\n        /* \"#utility.yul\":1055:1168   */\n      pop\n      jump\t// out\n        /* \"#utility.yul\":1174:1301   */\n    tag_49:\n        /* \"#utility.yul\":1219:1226   */\n      0x00\n        /* \"#utility.yul\":1248:1253   */\n      dup2\n        /* \"#utility.yul\":1237:1253   */\n      swap1\n      pop\n        /* \"#utility.yul\":1254:1295   */\n      tag_77\n        /* \"#utility.yul\":1289:1294   */\n      dup3\n        /* \"#utility.yul\":1254:1295   */\n      tag_48\n      jump\t// in\n    tag_77:\n        /* \"#utility.yul\":1174:1301   */\n      swap2\n      swap1\n      pop\n      jump\t// out\n        /* \"#utility.yul\":1307:1434   */\n    tag_50:\n        /* \"#utility.yul\":1363:1372   */\n      0x00\n        /* \"#utility.yul\":1396:1428   */\n      tag_79\n        /* \"#utility.yul\":1422:1427   */\n      dup3\n        /* \"#utility.yul\":1396:1428   */\n      tag_49\n      jump\t// in\n    tag_79:\n        /* \"#utility.yul\":1383:1428   */\n      swap1\n      pop\n        /* \"#utility.yul\":1307:1434   */\n      swap2\n      swap1\n      pop\n      jump\t// out\n        /* \"#utility.yul\":1440:1583   */\n    tag_51:\n        /* \"#utility.yul\":1533:1576   */\n      tag_81\n        /* \"#utility.yul\":1570:1575   */\n      dup2\n        /* \"#utility.yul\":1533:1576   */\n      tag_50\n      jump\t// in\n    tag_81:\n        /* \"#utility.yul\":1528:1531   */\n      dup3\n        /* \"#utility.yul\":1521:1577   */\n      mstore\n        /* \"#utility.yul\":1440:1583   */\n      pop\n      pop\n      jump\t// out\n        /* \"#utility.yul\":1589:1823   */\n    tag_23:\n        /* \"#utility.yul\":1688:1692   */\n      0x00\n        /* \"#utility.yul\":1726:1728   */\n      0x20\n        /* \"#utility.yul\":1715:1724   */\n      dup3\n        /* \"#utility.yul\":1711:1729   */\n      add\n        /* \"#utility.yul\":1703:1729   */\n      swap1\n      pop\n        /* \"#utility.yul\":1739:1816   */\n      tag_83\n        /* \"#utility.yul\":1813:1814   */\n      0x00\n        /* \"#utility.yul\":1802:1811   */\n      dup4\n        /* \"#utility.yul\":1798:1815   */\n      add\n        /* \"#utility.yul\":1789:1795   */\n      dup5\n        /* \"#utility.yul\":1739:1816   */\n      tag_51\n      jump\t// in\n    tag_83:\n        /* \"#utility.yul\":1589:1823   */\n      swap3\n      swap2\n      pop\n      pop\n      jump\t// out\n        /* \"#utility.yul\":1829:1918   */\n    tag_52:\n        /* \"#utility.yul\":1863:1870   */\n      0x00\n        /* \"#utility.yul\":1906:1911   */\n      dup2\n        /* \"#utility.yul\":1903:1904   */\n      0x00\n        /* \"#utility.yul\":1892:1912   */\n      signextend\n        /* \"#utility.yul\":1881:1912   */\n      swap1\n      pop\n        /* \"#utility.yul\":1829:1918   */\n      swap2\n      swap1\n      pop\n      jump\t// out\n        /* \"#utility.yul\":1924:2033   */\n    tag_53:\n        /* \"#utility.yul\":2005:2026   */\n      tag_86\n        /* \"#utility.yul\":2020:2025   */\n      dup2\n        /* \"#utility.yul\":2005:2026   */\n      tag_52\n      jump\t// in\n    tag_86:\n        /* \"#utility.yul\":2000:2003   */\n      dup3\n        /* \"#utility.yul\":1993:2027   */\n      mstore\n        /* \"#utility.yul\":1924:2033   */\n      pop\n      pop\n      jump\t// out\n        /* \"#utility.yul\":2039:2249   */\n    tag_27:\n        /* \"#utility.yul\":2126:2130   */\n      0x00\n        /* \"#utility.yul\":2164:2166   */\n      0x20\n        /* \"#utility.yul\":2153:2162   */\n      dup3\n        /* \"#utility.yul\":2149:2167   */\n      add\n        /* \"#utility.yul\":2141:2167   */\n      swap1\n      pop\n        /* \"#utility.yul\":2177:2242   */\n      tag_88\n        /* \"#utility.yul\":2239:2240   */\n      0x00\n        /* \"#utility.yul\":2228:2237   */\n      dup4\n        /* \"#utility.yul\":2224:2241   */\n      add\n        /* \"#utility.yul\":2215:2221   */\n      dup5\n        /* \"#utility.yul\":2177:2242   */\n      tag_53\n      jump\t// in\n    tag_88:\n        /* \"#utility.yul\":2039:2249   */\n      swap3\n      swap2\n      pop\n      pop\n      jump\t// out\n        /* \"#utility.yul\":2255:2381   */\n    tag_54:\n        /* \"#utility.yul\":2292:2299   */\n      0x00\n        /* \"#utility.yul\":2332:2374   */\n      0xffffffffffffffffffffffffffffffffffffffff\n        /* \"#utility.yul\":2325:2330   */\n      dup3\n        /* \"#utility.yul\":2321:2375   */\n      and\n        /* \"#utility.yul\":2310:2375   */\n      swap1\n      pop\n        /* \"#utility.yul\":2255:2381   */\n      swap2\n      swap1\n      pop\n      jump\t// out\n        /* \"#utility.yul\":2387:2483   */\n    tag_55:\n        /* \"#utility.yul\":2424:2431   */\n      0x00\n        /* \"#utility.yul\":2453:2477   */\n      tag_91\n        /* \"#utility.yul\":2471:2476   */\n      dup3\n        /* \"#utility.yul\":2453:2477   */\n      tag_54\n      jump\t// in\n    tag_91:\n        /* \"#utility.yul\":2442:2477   */\n      swap1\n      pop\n        /* \"#utility.yul\":2387:2483   */\n      swap2\n      swap1\n      pop\n      jump\t// out\n        /* \"#utility.yul\":2489:2607   */\n    tag_56:\n        /* \"#utility.yul\":2576:2600   */\n      tag_93\n        /* \"#utility.yul\":2594:2599   */\n      dup2\n        /* \"#utility.yul\":2576:2600   */\n      tag_55\n      jump\t// in\n    tag_93:\n        /* \"#utility.yul\":2571:2574   */\n      dup3\n        /* \"#utility.yul\":2564:2601   */\n      mstore\n        /* \"#utility.yul\":2489:2607   */\n      pop\n      pop\n      jump\t// out\n        /* \"#utility.yul\":2613:2835   */\n    tag_31:\n        /* \"#utility.yul\":2706:2710   */\n      0x00\n        /* \"#utility.yul\":2744:2746   */\n      0x20\n        /* \"#utility.yul\":2733:2742   */\n      dup3\n        /* \"#utility.yul\":2729:2747   */\n      add\n        /* \"#utility.yul\":2721:2747   */\n      swap1\n      pop\n        /* \"#utility.yul\":2757:2828   */\n      tag_95\n        /* \"#utility.yul\":2825:2826   */\n      0x00\n        /* \"#utility.yul\":2814:2823   */\n      dup4\n        /* \"#utility.yul\":2810:2827   */\n      add\n        /* \"#utility.yul\":2801:2807   */\n      dup5\n        /* \"#utility.yul\":2757:2828   */\n      tag_56\n      jump\t// in\n    tag_95:\n        /* \"#utility.yul\":2613:2835   */\n      swap3\n      swap2\n      pop\n      pop\n      jump\t// out\n        /* \"#utility.yul\":2841:2945   */\n    tag_57:\n        /* \"#utility.yul\":2886:2893   */\n      0x00\n        /* \"#utility.yul\":2915:2939   */\n      tag_97\n        /* \"#utility.yul\":2933:2938   */\n      dup3\n        /* \"#utility.yul\":2915:2939   */\n      tag_54\n      jump\t// in\n    tag_97:\n        /* \"#utility.yul\":2904:2939   */\n      swap1\n      pop\n        /* \"#utility.yul\":2841:2945   */\n      swap2\n      swap1\n      pop\n      jump\t// out\n        /* \"#utility.yul\":2951:3093   */\n    tag_58:\n        /* \"#utility.yul\":3054:3086   */\n      tag_99\n        /* \"#utility.yul\":3080:3085   */\n      dup2\n        /* \"#utility.yul\":3054:3086   */\n      tag_57\n      jump\t// in\n    tag_99:\n        /* \"#utility.yul\":3049:3052   */\n      dup3\n        /* \"#utility.yul\":3042:3087   */\n      mstore\n        /* \"#utility.yul\":2951:3093   */\n      pop\n      pop\n      jump\t// out\n        /* \"#utility.yul\":3099:3353   */\n    tag_35:\n        /* \"#utility.yul\":3208:3212   */\n      0x00\n        /* \"#utility.yul\":3246:3248   */\n      0x20\n        /* \"#utility.yul\":3235:3244   */\n      dup3\n        /* \"#utility.yul\":3231:3249   */\n      add\n        /* \"#utility.yul\":3223:3249   */\n      swap1\n      pop\n        /* \"#utility.yul\":3259:3346   */\n      tag_101\n        /* \"#utility.yul\":3343:3344   */\n      0x00\n        /* \"#utility.yul\":3332:3341   */\n      dup4\n        /* \"#utility.yul\":3328:3345   */\n      add\n        /* \"#utility.yul\":3319:3325   */\n      dup5\n        /* \"#utility.yul\":3259:3346   */\n      tag_58\n      jump\t// in\n    tag_101:\n        /* \"#utility.yul\":3099:3353   */\n      swap3\n      swap2\n      pop\n      pop\n      jump\t// out\n        /* \"#utility.yul\":3359:3435   */\n    tag_59:\n        /* \"#utility.yul\":3395:3402   */\n      0x00\n        /* \"#utility.yul\":3424:3429   */\n      dup2\n        /* \"#utility.yul\":3413:3429   */\n      swap1\n      pop\n        /* \"#utility.yul\":3359:3435   */\n      swap2\n      swap1\n      pop\n      jump\t// out\n        /* \"#utility.yul\":3441:3556   */\n    tag_60:\n        /* \"#utility.yul\":3526:3549   */\n      tag_104\n        /* \"#utility.yul\":3543:3548   */\n      dup2\n        /* \"#utility.yul\":3526:3549   */\n      tag_59\n      jump\t// in\n    tag_104:\n        /* \"#utility.yul\":3521:3524   */\n      dup3\n        /* \"#utility.yul\":3514:3550   */\n      mstore\n        /* \"#utility.yul\":3441:3556   */\n      pop\n      pop\n      jump\t// out\n        /* \"#utility.yul\":3562:3780   */\n    tag_42:\n        /* \"#utility.yul\":3653:3657   */\n      0x00\n        /* \"#utility.yul\":3691:3693   */\n      0x20\n        /* \"#utility.yul\":3680:3689   */\n      dup3\n        /* \"#utility.yul\":3676:3694   */\n      add\n        /* \"#utility.yul\":3668:3694   */\n      swap1\n      pop\n        /* \"#utility.yul\":3704:3773   */\n      tag_106\n        /* \"#utility.yul\":3770:3771   */\n      0x00\n        /* \"#utility.yul\":3759:3768   */\n      dup4\n        /* \"#utility.yul\":3755:3772   */\n      add\n        /* \"#utility.yul\":3746:3752   */\n      dup5\n        /* \"#utility.yul\":3704:3773   */\n      tag_60\n      jump\t// in\n    tag_106:\n        /* \"#utility.yul\":3562:3780   */\n      swap3\n      swap2\n      pop\n      pop\n      jump\t// out\n\n    auxdata: 0xa26469706673582212203039c6824680a8e7ca2573a1b93f68ba8f3dda521cca02381a17ffdfe83af5b264736f6c63430008110033\n}\n",
				"bytecode": {
					"linkReferences": {},
					"object": "608060405260016000806101000a81548160ff0219169083151502179055507fffffffffffffffffffffffffffffffffffffffffffffffffffffffffffffff85600155620f423f6002557ffffffffffffffffffffffffffffffffffffffffffffffffffffffffffffffffc600360006101000a81548160ff021916908360000b60ff160217905550631b06dbe7600455739a76d78f203ec6f7289bb0178cb6c25f18a9911e600560006101000a81548173ffffffffffffffffffffffffffffffffffffffff021916908373ffffffffffffffffffffffffffffffffffffffff160217905550600560009054906101000a900473ffffffffffffffffffffffffffffffffffffffff16600660006101000a81548173ffffffffffffffffffffffffffffffffffffffff021916908373ffffffffffffffffffffffffffffffffffffffff1602179055506000600660146101000a81548160ff0219169083600181111561016d5761016c610184565b5b021790555034801561017e57600080fd5b506101b3565b7f4e487b7100000000000000000000000000000000000000000000000000000000600052602160045260246000fd5b610447806101c26000396000f3fe608060405234801561001057600080fd5b50600436106100885760003560e01c8063bbcb5f4d1161005b578063bbcb5f4d14610105578063c3b6145314610123578063cfa250da14610141578063d72600061461015f57610088565b80632688454a1461008d5780638221d9cd146100ab57806383dfe5fd146100c957806395798db6146100e7575b600080fd5b61009561017d565b6040516100a2919061022b565b60405180910390f35b6100b3610183565b6040516100c09190610261565b60405180910390f35b6100d1610194565b6040516100de91906102f3565b60405180910390f35b6100ef6101a7565b6040516100fc919061032a565b60405180910390f35b61010d6101ba565b60405161011a9190610386565b60405180910390f35b61012b6101e0565b60405161013891906103c2565b60405180910390f35b610149610206565b604051610156919061022b565b60405180910390f35b61016761020c565b60405161017491906103f6565b60405180910390f35b60025481565b60008054906101000a900460ff1681565b600660149054906101000a900460ff1681565b600360009054906101000a900460000b81565b600560009054906101000a900473ffffffffffffffffffffffffffffffffffffffff1681565b600660009054906101000a900473ffffffffffffffffffffffffffffffffffffffff1681565b60045481565b60015481565b6000819050919050565b61022581610212565b82525050565b6000602082019050610240600083018461021c565b92915050565b60008115159050919050565b61025b81610246565b82525050565b60006020820190506102766000830184610252565b92915050565b7f4e487b7100000000000000000000000000000000000000000000000000000000600052602160045260246000fd5b600281106102bc576102bb61027c565b5b50565b60008190506102cd826102ab565b919050565b60006102dd826102bf565b9050919050565b6102ed816102d2565b82525050565b600060208201905061030860008301846102e4565b92915050565b60008160000b9050919050565b6103248161030e565b82525050565b600060208201905061033f600083018461031b565b92915050565b600073ffffffffffffffffffffffffffffffffffffffff82169050919050565b600061037082610345565b9050919050565b61038081610365565b82525050565b600060208201905061039b6000830184610377565b92915050565b60006103ac82610345565b9050919050565b6103bc816103a1565b82525050565b60006020820190506103d760008301846103b3565b92915050565b6000819050919050565b6103f0816103dd565b82525050565b600060208201905061040b60008301846103e7565b9291505056fea26469706673582212203039c6824680a8e7ca2573a1b93f68ba8f3dda521cca02381a17ffdfe83af5b264736f6c63430008110033",
					"opcodes": "PUSH1 0x80 PUSH1 0x40 MSTORE PUSH1 0x1 PUSH1 0x0 DUP1 PUSH2 0x100 EXP DUP2 SLOAD DUP2 PUSH1 0xFF MUL NOT AND SWAP1 DUP4 ISZERO ISZERO MUL OR SWAP1 SSTORE POP PUSH32 0xFFFFFFFFFFFFFFFFFFFFFFFFFFFFFFFFFFFFFFFFFFFFFFFFFFFFFFFFFFFFFF85 PUSH1 0x1 SSTORE PUSH3 0xF423F PUSH1 0x2 SSTORE PUSH32 0xFFFFFFFFFFFFFFFFFFFFFFFFFFFFFFFFFFFFFFFFFFFFFFFFFFFFFFFFFFFFFFFC PUSH1 0x3 PUSH1 0x0 PUSH2 0x100 EXP DUP2 SLOAD DUP2 PUSH1 0xFF MUL NOT AND SWAP1 DUP4 PUSH1 0x0 SIGNEXTEND PUSH1 0xFF AND MUL OR SWAP1 SSTORE POP PUSH4 0x1B06DBE7 PUSH1 0x4 SSTORE PUSH20 0x9A76D78F203EC6F7289BB0178CB6C25F18A9911E PUSH1 0x5 PUSH1 0x0 PUSH2 0x100 EXP DUP2 SLOAD DUP2 PUSH20 0xFFFFFFFFFFFFFFFFFFFFFFFFFFFFFFFFFFFFFFFF MUL NOT AND SWAP1 DUP4 PUSH20 0xFFFFFFFFFFFFFFFFFFFFFFFFFFFFFFFFFFFFFFFF AND MUL OR SWAP1 SSTORE POP PUSH1 0x5 PUSH1 0x0 SWAP1 SLOAD SWAP1 PUSH2 0x100 EXP SWAP1 DIV PUSH20 0xFFFFFFFFFFFFFFFFFFFFFFFFFFFFFFFFFFFFFFFF AND PUSH1 0x6 PUSH1 0x0 PUSH2 0x100 EXP DUP2 SLOAD DUP2 PUSH20 0xFFFFFFFFFFFFFFFFFFFFFFFFFFFFFFFFFFFFFFFF MUL NOT AND SWAP1 DUP4 PUSH20 0xFFFFFFFFFFFFFFFFFFFFFFFFFFFFFFFFFFFFFFFF AND MUL OR SWAP1 SSTORE POP PUSH1 0x0 PUSH1 0x6 PUSH1 0x14 PUSH2 0x100 EXP DUP2 SLOAD DUP2 PUSH1 0xFF MUL NOT AND SWAP1 DUP4 PUSH1 0x1 DUP2 GT ISZERO PUSH2 0x16D JUMPI PUSH2 0x16C PUSH2 0x184 JUMP JUMPDEST JUMPDEST MUL OR SWAP1 SSTORE POP CALLVALUE DUP1 ISZERO PUSH2 0x17E JUMPI PUSH1 0x0 DUP1 REVERT JUMPDEST POP PUSH2 0x1B3 JUMP JUMPDEST PUSH32 0x4E487B7100000000000000000000000000000000000000000000000000000000 PUSH1 0x0 MSTORE PUSH1 0x21 PUSH1 0x4 MSTORE PUSH1 0x24 PUSH1 0x0 REVERT JUMPDEST PUSH2 0x447 DUP1 PUSH2 0x1C2 PUSH1 0x0 CODECOPY PUSH1 0x0 RETURN INVALID PUSH1 0x80 PUSH1 0x40 MSTORE CALLVALUE DUP1 ISZERO PUSH2 0x10 JUMPI PUSH1 0x0 DUP1 REVERT JUMPDEST POP PUSH1 0x4 CALLDATASIZE LT PUSH2 0x88 JUMPI PUSH1 0x0 CALLDATALOAD PUSH1 0xE0 SHR DUP1 PUSH4 0xBBCB5F4D GT PUSH2 0x5B JUMPI DUP1 PUSH4 0xBBCB5F4D EQ PUSH2 0x105 JUMPI DUP1 PUSH4 0xC3B61453 EQ PUSH2 0x123 JUMPI DUP1 PUSH4 0xCFA250DA EQ PUSH2 0x141 JUMPI DUP1 PUSH4 0xD7260006 EQ PUSH2 0x15F JUMPI PUSH2 0x88 JUMP JUMPDEST DUP1 PUSH4 0x2688454A EQ PUSH2 0x8D JUMPI DUP1 PUSH4 0x8221D9CD EQ PUSH2 0xAB JUMPI DUP1 PUSH4 0x83DFE5FD EQ PUSH2 0xC9 JUMPI DUP1 PUSH4 0x95798DB6 EQ PUSH2 0xE7 JUMPI JUMPDEST PUSH1 0x0 DUP1 REVERT JUMPDEST PUSH2 0x95 PUSH2 0x17D JUMP JUMPDEST PUSH1 0x40 MLOAD PUSH2 0xA2 SWAP2 SWAP1 PUSH2 0x22B JUMP JUMPDEST PUSH1 0x40 MLOAD DUP1 SWAP2 SUB SWAP1 RETURN JUMPDEST PUSH2 0xB3 PUSH2 0x183 JUMP JUMPDEST PUSH1 0x40 MLOAD PUSH2 0xC0 SWAP2 SWAP1 PUSH2 0x261 JUMP JUMPDEST PUSH1 0x40 MLOAD DUP1 SWAP2 SUB SWAP1 RETURN JUMPDEST PUSH2 0xD1 PUSH2 0x194 JUMP JUMPDEST PUSH1 0x40 MLOAD PUSH2 0xDE SWAP2 SWAP1 PUSH2 0x2F3 JUMP JUMPDEST PUSH1 0x40 MLOAD DUP1 SWAP2 SUB SWAP1 RETURN JUMPDEST PUSH2 0xEF PUSH2 0x1A7 JUMP JUMPDEST PUSH1 0x40 MLOAD PUSH2 0xFC SWAP2 SWAP1 PUSH2 0x32A JUMP JUMPDEST PUSH1 0x40 MLOAD DUP1 SWAP2 SUB SWAP1 RETURN JUMPDEST PUSH2 0x10D PUSH2 0x1BA JUMP JUMPDEST PUSH1 0x40 MLOAD PUSH2 0x11A SWAP2 SWAP1 PUSH2 0x386 JUMP JUMPDEST PUSH1 0x40 MLOAD DUP1 SWAP2 SUB SWAP1 RETURN JUMPDEST PUSH2 0x12B PUSH2 0x1E0 JUMP JUMPDEST PUSH1 0x40 MLOAD PUSH2 0x138 SWAP2 SWAP1 PUSH2 0x3C2 JUMP JUMPDEST PUSH1 0x40 MLOAD DUP1 SWAP2 SUB SWAP1 RETURN JUMPDEST PUSH2 0x149 PUSH2 0x206 JUMP JUMPDEST PUSH1 0x40 MLOAD PUSH2 0x156 SWAP2 SWAP1 PUSH2 0x22B JUMP JUMPDEST PUSH1 0x40 MLOAD DUP1 SWAP2 SUB SWAP1 RETURN JUMPDEST PUSH2 0x167 PUSH2 0x20C JUMP JUMPDEST PUSH1 0x40 MLOAD PUSH2 0x174 SWAP2 SWAP1 PUSH2 0x3F6 JUMP JUMPDEST PUSH1 0x40 MLOAD DUP1 SWAP2 SUB SWAP1 RETURN JUMPDEST PUSH1 0x2 SLOAD DUP2 JUMP JUMPDEST PUSH1 0x0 DUP1 SLOAD SWAP1 PUSH2 0x100 EXP SWAP1 DIV PUSH1 0xFF AND DUP2 JUMP JUMPDEST PUSH1 0x6 PUSH1 0x14 SWAP1 SLOAD SWAP1 PUSH2 0x100 EXP SWAP1 DIV PUSH1 0xFF AND DUP2 JUMP JUMPDEST PUSH1 0x3 PUSH1 0x0 SWAP1 SLOAD SWAP1 PUSH2 0x100 EXP SWAP1 DIV PUSH1 0x0 SIGNEXTEND DUP2 JUMP JUMPDEST PUSH1 0x5 PUSH1 0x0 SWAP1 SLOAD SWAP1 PUSH2 0x100 EXP SWAP1 DIV PUSH20 0xFFFFFFFFFFFFFFFFFFFFFFFFFFFFFFFFFFFFFFFF AND DUP2 JUMP JUMPDEST PUSH1 0x6 PUSH1 0x0 SWAP1 SLOAD SWAP1 PUSH2 0x100 EXP SWAP1 DIV PUSH20 0xFFFFFFFFFFFFFFFFFFFFFFFFFFFFFFFFFFFFFFFF AND DUP2 JUMP JUMPDEST PUSH1 0x4 SLOAD DUP2 JUMP JUMPDEST PUSH1 0x1 SLOAD DUP2 JUMP JUMPDEST PUSH1 0x0 DUP2 SWAP1 POP SWAP2 SWAP1 POP JUMP JUMPDEST PUSH2 0x225 DUP2 PUSH2 0x212 JUMP JUMPDEST DUP3 MSTORE POP POP JUMP JUMPDEST PUSH1 0x0 PUSH1 0x20 DUP3 ADD SWAP1 POP PUSH2 0x240 PUSH1 0x0 DUP4 ADD DUP5 PUSH2 0x21C JUMP JUMPDEST SWAP3 SWAP2 POP POP JUMP JUMPDEST PUSH1 0x0 DUP2 ISZERO ISZERO SWAP1 POP SWAP2 SWAP1 POP JUMP JUMPDEST PUSH2 0x25B DUP2 PUSH2 0x246 JUMP JUMPDEST DUP3 MSTORE POP POP JUMP JUMPDEST PUSH1 0x0 PUSH1 0x20 DUP3 ADD SWAP1 POP PUSH2 0x276 PUSH1 0x0 DUP4 ADD DUP5 PUSH2 0x252 JUMP JUMPDEST SWAP3 SWAP2 POP POP JUMP JUMPDEST PUSH32 0x4E487B7100000000000000000000000000000000000000000000000000000000 PUSH1 0x0 MSTORE PUSH1 0x21 PUSH1 0x4 MSTORE PUSH1 0x24 PUSH1 0x0 REVERT JUMPDEST PUSH1 0x2 DUP2 LT PUSH2 0x2BC JUMPI PUSH2 0x2BB PUSH2 0x27C JUMP JUMPDEST JUMPDEST POP JUMP JUMPDEST PUSH1 0x0 DUP2 SWAP1 POP PUSH2 0x2CD DUP3 PUSH2 0x2AB JUMP JUMPDEST SWAP2 SWAP1 POP JUMP JUMPDEST PUSH1 0x0 PUSH2 0x2DD DUP3 PUSH2 0x2BF JUMP JUMPDEST SWAP1 POP SWAP2 SWAP1 POP JUMP JUMPDEST PUSH2 0x2ED DUP2 PUSH2 0x2D2 JUMP JUMPDEST DUP3 MSTORE POP POP JUMP JUMPDEST PUSH1 0x0 PUSH1 0x20 DUP3 ADD SWAP1 POP PUSH2 0x308 PUSH1 0x0 DUP4 ADD DUP5 PUSH2 0x2E4 JUMP JUMPDEST SWAP3 SWAP2 POP POP JUMP JUMPDEST PUSH1 0x0 DUP2 PUSH1 0x0 SIGNEXTEND SWAP1 POP SWAP2 SWAP1 POP JUMP JUMPDEST PUSH2 0x324 DUP2 PUSH2 0x30E JUMP JUMPDEST DUP3 MSTORE POP POP JUMP JUMPDEST PUSH1 0x0 PUSH1 0x20 DUP3 ADD SWAP1 POP PUSH2 0x33F PUSH1 0x0 DUP4 ADD DUP5 PUSH2 0x31B JUMP JUMPDEST SWAP3 SWAP2 POP POP JUMP JUMPDEST PUSH1 0x0 PUSH20 0xFFFFFFFFFFFFFFFFFFFFFFFFFFFFFFFFFFFFFFFF DUP3 AND SWAP1 POP SWAP2 SWAP1 POP JUMP JUMPDEST PUSH1 0x0 PUSH2 0x370 DUP3 PUSH2 0x345 JUMP JUMPDEST SWAP1 POP SWAP2 SWAP1 POP JUMP JUMPDEST PUSH2 0x380 DUP2 PUSH2 0x365 JUMP JUMPDEST DUP3 MSTORE POP POP JUMP JUMPDEST PUSH1 0x0 PUSH1 0x20 DUP3 ADD SWAP1 POP PUSH2 0x39B PUSH1 0x0 DUP4 ADD DUP5 PUSH2 0x377 JUMP JUMPDEST SWAP3 SWAP2 POP POP JUMP JUMPDEST PUSH1 0x0 PUSH2 0x3AC DUP3 PUSH2 0x345 JUMP JUMPDEST SWAP1 POP SWAP2 SWAP1 POP JUMP JUMPDEST PUSH2 0x3BC DUP2 PUSH2 0x3A1 JUMP JUMPDEST DUP3 MSTORE POP POP JUMP JUMPDEST PUSH1 0x0 PUSH1 0x20 DUP3 ADD SWAP1 POP PUSH2 0x3D7 PUSH1 0x0 DUP4 ADD DUP5 PUSH2 0x3B3 JUMP JUMPDEST SWAP3 SWAP2 POP POP JUMP JUMPDEST PUSH1 0x0 DUP2 SWAP1 POP SWAP2 SWAP1 POP JUMP JUMPDEST PUSH2 0x3F0 DUP2 PUSH2 0x3DD JUMP JUMPDEST DUP3 MSTORE POP POP JUMP JUMPDEST PUSH1 0x0 PUSH1 0x20 DUP3 ADD SWAP1 POP PUSH2 0x40B PUSH1 0x0 DUP4 ADD DUP5 PUSH2 0x3E7 JUMP JUMPDEST SWAP3 SWAP2 POP POP JUMP INVALID LOG2 PUSH5 0x6970667358 0x22 SLT KECCAK256 ADDRESS CODECOPY 0xC6 DUP3 CHAINID DUP1 0xA8 0xE7 0xCA 0x25 PUSH20 0xA1B93F68BA8F3DDA521CCA02381A17FFDFE83AF5 0xB2 PUSH5 0x736F6C6343 STOP ADDMOD GT STOP CALLER "
				},
				"gasEstimates": {
					"creation": {
						"codeDepositCost": "219000",
						"executionCost": "190142",
						"totalCost": "409142"
					},
					"external": {
						"C()": "2655",
						"Hydaiaddr()": "2514",
						"I()": "2495",
						"I8()": "2542",
						"U()": "2430",
						"U256()": "2473",
						"isMerge()": "2491",
						"payHydaiaddr()": "2536"
					}
				},
				"methodIdentifiers": {
					"C()": "83dfe5fd",
					"Hydaiaddr()": "bbcb5f4d",
					"I()": "d7260006",
					"I8()": "95798db6",
					"U()": "2688454a",
					"U256()": "cfa250da",
					"isMerge()": "8221d9cd",
					"payHydaiaddr()": "c3b61453"
				}
			},
			"storageLayout": {
				"storage": [
					{
						"astId": 4,
						"contract": ".workspaces/default_workspace/ValueType.sol:First",
						"label": "isMerge",
						"offset": 0,
						"slot": "0",
						"type": "t_bool"
					},
					{
						"astId": 8,
						"contract": ".workspaces/default_workspace/ValueType.sol:First",
						"label": "I",
						"offset": 0,
						"slot": "1",
						"type": "t_int256"
					},
					{
						"astId": 11,
						"contract": ".workspaces/default_workspace/ValueType.sol:First",
						"label": "U",
						"offset": 0,
						"slot": "2",
						"type": "t_uint256"
					},
					{
						"astId": 15,
						"contract": ".workspaces/default_workspace/ValueType.sol:First",
						"label": "I8",
						"offset": 0,
						"slot": "3",
						"type": "t_int8"
					},
					{
						"astId": 18,
						"contract": ".workspaces/default_workspace/ValueType.sol:First",
						"label": "U256",
						"offset": 0,
						"slot": "4",
						"type": "t_uint256"
					},
					{
						"astId": 21,
						"contract": ".workspaces/default_workspace/ValueType.sol:First",
						"label": "Hydaiaddr",
						"offset": 0,
						"slot": "5",
						"type": "t_address"
					},
					{
						"astId": 27,
						"contract": ".workspaces/default_workspace/ValueType.sol:First",
						"label": "payHydaiaddr",
						"offset": 0,
						"slot": "6",
						"type": "t_address_payable"
					},
					{
						"astId": 35,
						"contract": ".workspaces/default_workspace/ValueType.sol:First",
						"label": "C",
						"offset": 20,
						"slot": "6",
						"type": "t_enum(Color)30"
					}
				],
				"types": {
					"t_address": {
						"encoding": "inplace",
						"label": "address",
						"numberOfBytes": "20"
					},
					"t_address_payable": {
						"encoding": "inplace",
						"label": "address payable",
						"numberOfBytes": "20"
					},
					"t_bool": {
						"encoding": "inplace",
						"label": "bool",
						"numberOfBytes": "1"
					},
					"t_enum(Color)30": {
						"encoding": "inplace",
						"label": "enum First.Color",
						"numberOfBytes": "1"
					},
					"t_int256": {
						"encoding": "inplace",
						"label": "int256",
						"numberOfBytes": "32"
					},
					"t_int8": {
						"encoding": "inplace",
						"label": "int8",
						"numberOfBytes": "1"
					},
					"t_uint256": {
						"encoding": "inplace",
						"label": "uint256",
						"numberOfBytes": "32"
					}
				}
			},
			"userdoc": {
				"kind": "user",
				"methods": {},
				"version": 1
			}
		}
	}
}