{
	"ERC721(NFT+ERC165).sol": {
		"ERC721": {
			"abi": [
				{
					"inputs": [
						{
							"internalType": "string",
							"name": "name_",
							"type": "string"
						},
						{
							"internalType": "string",
							"name": "symbol_",
							"type": "string"
						}
					],
					"stateMutability": "nonpayable",
					"type": "constructor"
				},
				{
					"anonymous": false,
					"inputs": [
						{
							"indexed": true,
							"internalType": "address",
							"name": "owner",
							"type": "address"
						},
						{
							"indexed": true,
							"internalType": "address",
							"name": "approved",
							"type": "address"
						},
						{
							"indexed": false,
							"internalType": "uint256",
							"name": "tokenId",
							"type": "uint256"
						}
					],
					"name": "Approval",
					"type": "event"
				},
				{
					"anonymous": false,
					"inputs": [
						{
							"indexed": true,
							"internalType": "address",
							"name": "owner",
							"type": "address"
						},
						{
							"indexed": true,
							"internalType": "address",
							"name": "operator",
							"type": "address"
						},
						{
							"indexed": false,
							"internalType": "bool",
							"name": "approved",
							"type": "bool"
						}
					],
					"name": "ApprovalForAll",
					"type": "event"
				},
				{
					"anonymous": false,
					"inputs": [
						{
							"indexed": true,
							"internalType": "address",
							"name": "from",
							"type": "address"
						},
						{
							"indexed": true,
							"internalType": "address",
							"name": "to",
							"type": "address"
						},
						{
							"indexed": false,
							"internalType": "uint256",
							"name": "tokenId",
							"type": "uint256"
						}
					],
					"name": "Transfer",
					"type": "event"
				},
				{
					"inputs": [
						{
							"internalType": "address",
							"name": "to",
							"type": "address"
						},
						{
							"internalType": "uint256",
							"name": "tokenId",
							"type": "uint256"
						}
					],
					"name": "approve",
					"outputs": [],
					"stateMutability": "nonpayable",
					"type": "function"
				},
				{
					"inputs": [
						{
							"internalType": "address",
							"name": "owner",
							"type": "address"
						}
					],
					"name": "balanceOf",
					"outputs": [
						{
							"internalType": "uint256",
							"name": "",
							"type": "uint256"
						}
					],
					"stateMutability": "view",
					"type": "function"
				},
				{
					"inputs": [
						{
							"internalType": "uint256",
							"name": "tokenId",
							"type": "uint256"
						}
					],
					"name": "burn",
					"outputs": [],
					"stateMutability": "nonpayable",
					"type": "function"
				},
				{
					"inputs": [
						{
							"internalType": "uint256",
							"name": "tokenId",
							"type": "uint256"
						}
					],
					"name": "getApproved",
					"outputs": [
						{
							"internalType": "address",
							"name": "",
							"type": "address"
						}
					],
					"stateMutability": "view",
					"type": "function"
				},
				{
					"inputs": [
						{
							"internalType": "address",
							"name": "owner",
							"type": "address"
						},
						{
							"internalType": "address",
							"name": "operator",
							"type": "address"
						}
					],
					"name": "isApprovedForAll",
					"outputs": [
						{
							"internalType": "bool",
							"name": "",
							"type": "bool"
						}
					],
					"stateMutability": "view",
					"type": "function"
				},
				{
					"inputs": [
						{
							"internalType": "address",
							"name": "to",
							"type": "address"
						},
						{
							"internalType": "uint256",
							"name": "tokenId",
							"type": "uint256"
						}
					],
					"name": "mint",
					"outputs": [],
					"stateMutability": "nonpayable",
					"type": "function"
				},
				{
					"inputs": [],
					"name": "name",
					"outputs": [
						{
							"internalType": "string",
							"name": "",
							"type": "string"
						}
					],
					"stateMutability": "view",
					"type": "function"
				},
				{
					"inputs": [
						{
							"internalType": "uint256",
							"name": "tokenId",
							"type": "uint256"
						}
					],
					"name": "ownerOf",
					"outputs": [
						{
							"internalType": "address",
							"name": "",
							"type": "address"
						}
					],
					"stateMutability": "view",
					"type": "function"
				},
				{
					"inputs": [
						{
							"internalType": "address",
							"name": "to",
							"type": "address"
						},
						{
							"internalType": "uint256",
							"name": "tokenId",
							"type": "uint256"
						},
						{
							"internalType": "bytes",
							"name": "data",
							"type": "bytes"
						}
					],
					"name": "safeMint",
					"outputs": [],
					"stateMutability": "nonpayable",
					"type": "function"
				},
				{
					"inputs": [
						{
							"internalType": "address",
							"name": "to",
							"type": "address"
						},
						{
							"internalType": "uint256",
							"name": "tokenId",
							"type": "uint256"
						}
					],
					"name": "safeMint",
					"outputs": [],
					"stateMutability": "nonpayable",
					"type": "function"
				},
				{
					"inputs": [
						{
							"internalType": "address",
							"name": "from",
							"type": "address"
						},
						{
							"internalType": "address",
							"name": "to",
							"type": "address"
						},
						{
							"internalType": "uint256",
							"name": "tokenId",
							"type": "uint256"
						}
					],
					"name": "safeTransferFrom",
					"outputs": [],
					"stateMutability": "nonpayable",
					"type": "function"
				},
				{
					"inputs": [
						{
							"internalType": "address",
							"name": "from",
							"type": "address"
						},
						{
							"internalType": "address",
							"name": "to",
							"type": "address"
						},
						{
							"internalType": "uint256",
							"name": "tokenId",
							"type": "uint256"
						},
						{
							"internalType": "bytes",
							"name": "data",
							"type": "bytes"
						}
					],
					"name": "safeTransferFrom",
					"outputs": [],
					"stateMutability": "nonpayable",
					"type": "function"
				},
				{
					"inputs": [
						{
							"internalType": "address",
							"name": "operator",
							"type": "address"
						},
						{
							"internalType": "bool",
							"name": "_approved",
							"type": "bool"
						}
					],
					"name": "setApprovalForAll",
					"outputs": [],
					"stateMutability": "nonpayable",
					"type": "function"
				},
				{
					"inputs": [
						{
							"internalType": "uint256",
							"name": "tokenId",
							"type": "uint256"
						},
						{
							"internalType": "string",
							"name": "URI",
							"type": "string"
						}
					],
					"name": "setTokenURI",
					"outputs": [],
					"stateMutability": "nonpayable",
					"type": "function"
				},
				{
					"inputs": [
						{
							"internalType": "bytes4",
							"name": "interfaceId",
							"type": "bytes4"
						}
					],
					"name": "supportInterface",
					"outputs": [
						{
							"internalType": "bool",
							"name": "",
							"type": "bool"
						}
					],
					"stateMutability": "pure",
					"type": "function"
				},
				{
					"inputs": [],
					"name": "symbol",
					"outputs": [
						{
							"internalType": "string",
							"name": "",
							"type": "string"
						}
					],
					"stateMutability": "view",
					"type": "function"
				},
				{
					"inputs": [
						{
							"internalType": "uint256",
							"name": "tokenId",
							"type": "uint256"
						}
					],
					"name": "tokenURI",
					"outputs": [
						{
							"internalType": "string",
							"name": "",
							"type": "string"
						}
					],
					"stateMutability": "view",
					"type": "function"
				},
				{
					"inputs": [
						{
							"internalType": "address",
							"name": "from",
							"type": "address"
						},
						{
							"internalType": "address",
							"name": "to",
							"type": "address"
						},
						{
							"internalType": "uint256",
							"name": "tokenId",
							"type": "uint256"
						}
					],
					"name": "transferFrom",
					"outputs": [],
					"stateMutability": "nonpayable",
					"type": "function"
				}
			],
			"devdoc": {
				"kind": "dev",
				"methods": {},
				"version": 1
			},
			"evm": {
				"assembly": "    /* \"ERC721(NFT+ERC165).sol\":4853:13279  contract ERC721 is IERC721, IERC721Metadata, IERC165 {... */\n  mstore(0x40, 0x80)\n    /* \"ERC721(NFT+ERC165).sol\":5483:5601  constructor(string memory name_, string memory symbol_) {... */\n  callvalue\n  dup1\n  iszero\n  tag_1\n  jumpi\n  0x00\n  dup1\n  revert\ntag_1:\n  pop\n  mload(0x40)\n  sub(codesize, bytecodeSize)\n  dup1\n  bytecodeSize\n  dup4\n  codecopy\n  dup2\n  dup2\n  add\n  0x40\n  mstore\n  dup2\n  add\n  swap1\n  tag_2\n  swap2\n  swap1\n  tag_3\n  jump\t// in\ntag_2:\n    /* \"ERC721(NFT+ERC165).sol\":5558:5563  name_ */\n  dup2\n    /* \"ERC721(NFT+ERC165).sol\":5550:5555  _name */\n  0x04\n    /* \"ERC721(NFT+ERC165).sol\":5550:5563  _name = name_ */\n  swap1\n  dup2\n  tag_6\n  swap2\n  swap1\n  tag_7\n  jump\t// in\ntag_6:\n  pop\n    /* \"ERC721(NFT+ERC165).sol\":5584:5591  symbol_ */\n  dup1\n    /* \"ERC721(NFT+ERC165).sol\":5574:5581  _symbol */\n  0x05\n    /* \"ERC721(NFT+ERC165).sol\":5574:5591  _symbol = symbol_ */\n  swap1\n  dup2\n  tag_8\n  swap2\n  swap1\n  tag_7\n  jump\t// in\ntag_8:\n  pop\n    /* \"ERC721(NFT+ERC165).sol\":5483:5601  constructor(string memory name_, string memory symbol_) {... */\n  pop\n  pop\n    /* \"ERC721(NFT+ERC165).sol\":4853:13279  contract ERC721 is IERC721, IERC721Metadata, IERC165 {... */\n  jump(tag_9)\n    /* \"#utility.yul\":7:82   */\ntag_10:\n    /* \"#utility.yul\":40:46   */\n  0x00\n    /* \"#utility.yul\":73:75   */\n  0x40\n    /* \"#utility.yul\":67:76   */\n  mload\n    /* \"#utility.yul\":57:76   */\n  swap1\n  pop\n    /* \"#utility.yul\":7:82   */\n  swap1\n  jump\t// out\n    /* \"#utility.yul\":88:205   */\ntag_11:\n    /* \"#utility.yul\":197:198   */\n  0x00\n    /* \"#utility.yul\":194:195   */\n  dup1\n    /* \"#utility.yul\":187:199   */\n  revert\n    /* \"#utility.yul\":211:328   */\ntag_12:\n    /* \"#utility.yul\":320:321   */\n  0x00\n    /* \"#utility.yul\":317:318   */\n  dup1\n    /* \"#utility.yul\":310:322   */\n  revert\n    /* \"#utility.yul\":334:451   */\ntag_13:\n    /* \"#utility.yul\":443:444   */\n  0x00\n    /* \"#utility.yul\":440:441   */\n  dup1\n    /* \"#utility.yul\":433:445   */\n  revert\n    /* \"#utility.yul\":457:574   */\ntag_14:\n    /* \"#utility.yul\":566:567   */\n  0x00\n    /* \"#utility.yul\":563:564   */\n  dup1\n    /* \"#utility.yul\":556:568   */\n  revert\n    /* \"#utility.yul\":580:682   */\ntag_15:\n    /* \"#utility.yul\":621:627   */\n  0x00\n    /* \"#utility.yul\":672:674   */\n  0x1f\n    /* \"#utility.yul\":668:675   */\n  not\n    /* \"#utility.yul\":663:665   */\n  0x1f\n    /* \"#utility.yul\":656:661   */\n  dup4\n    /* \"#utility.yul\":652:666   */\n  add\n    /* \"#utility.yul\":648:676   */\n  and\n    /* \"#utility.yul\":638:676   */\n  swap1\n  pop\n    /* \"#utility.yul\":580:682   */\n  swap2\n  swap1\n  pop\n  jump\t// out\n    /* \"#utility.yul\":688:868   */\ntag_16:\n    /* \"#utility.yul\":736:813   */\n  0x4e487b7100000000000000000000000000000000000000000000000000000000\n    /* \"#utility.yul\":733:734   */\n  0x00\n    /* \"#utility.yul\":726:814   */\n  mstore\n    /* \"#utility.yul\":833:837   */\n  0x41\n    /* \"#utility.yul\":830:831   */\n  0x04\n    /* \"#utility.yul\":823:838   */\n  mstore\n    /* \"#utility.yul\":857:861   */\n  0x24\n    /* \"#utility.yul\":854:855   */\n  0x00\n    /* \"#utility.yul\":847:862   */\n  revert\n    /* \"#utility.yul\":874:1155   */\ntag_17:\n    /* \"#utility.yul\":957:984   */\n  tag_51\n    /* \"#utility.yul\":979:983   */\n  dup3\n    /* \"#utility.yul\":957:984   */\n  tag_15\n  jump\t// in\ntag_51:\n    /* \"#utility.yul\":949:955   */\n  dup2\n    /* \"#utility.yul\":945:985   */\n  add\n    /* \"#utility.yul\":1087:1093   */\n  dup2\n    /* \"#utility.yul\":1075:1085   */\n  dup2\n    /* \"#utility.yul\":1072:1094   */\n  lt\n    /* \"#utility.yul\":1051:1069   */\n  0xffffffffffffffff\n    /* \"#utility.yul\":1039:1049   */\n  dup3\n    /* \"#utility.yul\":1036:1070   */\n  gt\n    /* \"#utility.yul\":1033:1095   */\n  or\n    /* \"#utility.yul\":1030:1118   */\n  iszero\n  tag_52\n  jumpi\n    /* \"#utility.yul\":1098:1116   */\n  tag_53\n  tag_16\n  jump\t// in\ntag_53:\n    /* \"#utility.yul\":1030:1118   */\ntag_52:\n    /* \"#utility.yul\":1138:1148   */\n  dup1\n    /* \"#utility.yul\":1134:1136   */\n  0x40\n    /* \"#utility.yul\":1127:1149   */\n  mstore\n    /* \"#utility.yul\":917:1155   */\n  pop\n    /* \"#utility.yul\":874:1155   */\n  pop\n  pop\n  jump\t// out\n    /* \"#utility.yul\":1161:1290   */\ntag_18:\n    /* \"#utility.yul\":1195:1201   */\n  0x00\n    /* \"#utility.yul\":1222:1242   */\n  tag_55\n  tag_10\n  jump\t// in\ntag_55:\n    /* \"#utility.yul\":1212:1242   */\n  swap1\n  pop\n    /* \"#utility.yul\":1251:1284   */\n  tag_56\n    /* \"#utility.yul\":1279:1283   */\n  dup3\n    /* \"#utility.yul\":1271:1277   */\n  dup3\n    /* \"#utility.yul\":1251:1284   */\n  tag_17\n  jump\t// in\ntag_56:\n    /* \"#utility.yul\":1161:1290   */\n  swap2\n  swap1\n  pop\n  jump\t// out\n    /* \"#utility.yul\":1296:1604   */\ntag_19:\n    /* \"#utility.yul\":1358:1362   */\n  0x00\n    /* \"#utility.yul\":1448:1466   */\n  0xffffffffffffffff\n    /* \"#utility.yul\":1440:1446   */\n  dup3\n    /* \"#utility.yul\":1437:1467   */\n  gt\n    /* \"#utility.yul\":1434:1490   */\n  iszero\n  tag_58\n  jumpi\n    /* \"#utility.yul\":1470:1488   */\n  tag_59\n  tag_16\n  jump\t// in\ntag_59:\n    /* \"#utility.yul\":1434:1490   */\ntag_58:\n    /* \"#utility.yul\":1508:1537   */\n  tag_60\n    /* \"#utility.yul\":1530:1536   */\n  dup3\n    /* \"#utility.yul\":1508:1537   */\n  tag_15\n  jump\t// in\ntag_60:\n    /* \"#utility.yul\":1500:1537   */\n  swap1\n  pop\n    /* \"#utility.yul\":1592:1596   */\n  0x20\n    /* \"#utility.yul\":1586:1590   */\n  dup2\n    /* \"#utility.yul\":1582:1597   */\n  add\n    /* \"#utility.yul\":1574:1597   */\n  swap1\n  pop\n    /* \"#utility.yul\":1296:1604   */\n  swap2\n  swap1\n  pop\n  jump\t// out\n    /* \"#utility.yul\":1610:1856   */\ntag_20:\n    /* \"#utility.yul\":1691:1692   */\n  0x00\n    /* \"#utility.yul\":1701:1814   */\ntag_62:\n    /* \"#utility.yul\":1715:1721   */\n  dup4\n    /* \"#utility.yul\":1712:1713   */\n  dup2\n    /* \"#utility.yul\":1709:1722   */\n  lt\n    /* \"#utility.yul\":1701:1814   */\n  iszero\n  tag_64\n  jumpi\n    /* \"#utility.yul\":1800:1801   */\n  dup1\n    /* \"#utility.yul\":1795:1798   */\n  dup3\n    /* \"#utility.yul\":1791:1802   */\n  add\n    /* \"#utility.yul\":1785:1803   */\n  mload\n    /* \"#utility.yul\":1781:1782   */\n  dup2\n    /* \"#utility.yul\":1776:1779   */\n  dup5\n    /* \"#utility.yul\":1772:1783   */\n  add\n    /* \"#utility.yul\":1765:1804   */\n  mstore\n    /* \"#utility.yul\":1737:1739   */\n  0x20\n    /* \"#utility.yul\":1734:1735   */\n  dup2\n    /* \"#utility.yul\":1730:1740   */\n  add\n    /* \"#utility.yul\":1725:1740   */\n  swap1\n  pop\n    /* \"#utility.yul\":1701:1814   */\n  jump(tag_62)\ntag_64:\n    /* \"#utility.yul\":1848:1849   */\n  0x00\n    /* \"#utility.yul\":1839:1845   */\n  dup5\n    /* \"#utility.yul\":1834:1837   */\n  dup5\n    /* \"#utility.yul\":1830:1846   */\n  add\n    /* \"#utility.yul\":1823:1850   */\n  mstore\n    /* \"#utility.yul\":1672:1856   */\n  pop\n    /* \"#utility.yul\":1610:1856   */\n  pop\n  pop\n  pop\n  jump\t// out\n    /* \"#utility.yul\":1862:2296   */\ntag_21:\n    /* \"#utility.yul\":1951:1956   */\n  0x00\n    /* \"#utility.yul\":1976:2042   */\n  tag_66\n    /* \"#utility.yul\":1992:2041   */\n  tag_67\n    /* \"#utility.yul\":2034:2040   */\n  dup5\n    /* \"#utility.yul\":1992:2041   */\n  tag_19\n  jump\t// in\ntag_67:\n    /* \"#utility.yul\":1976:2042   */\n  tag_18\n  jump\t// in\ntag_66:\n    /* \"#utility.yul\":1967:2042   */\n  swap1\n  pop\n    /* \"#utility.yul\":2065:2071   */\n  dup3\n    /* \"#utility.yul\":2058:2063   */\n  dup2\n    /* \"#utility.yul\":2051:2072   */\n  mstore\n    /* \"#utility.yul\":2103:2107   */\n  0x20\n    /* \"#utility.yul\":2096:2101   */\n  dup2\n    /* \"#utility.yul\":2092:2108   */\n  add\n    /* \"#utility.yul\":2141:2144   */\n  dup5\n    /* \"#utility.yul\":2132:2138   */\n  dup5\n    /* \"#utility.yul\":2127:2130   */\n  dup5\n    /* \"#utility.yul\":2123:2139   */\n  add\n    /* \"#utility.yul\":2120:2145   */\n  gt\n    /* \"#utility.yul\":2117:2229   */\n  iszero\n  tag_68\n  jumpi\n    /* \"#utility.yul\":2148:2227   */\n  tag_69\n  tag_14\n  jump\t// in\ntag_69:\n    /* \"#utility.yul\":2117:2229   */\ntag_68:\n    /* \"#utility.yul\":2238:2290   */\n  tag_70\n    /* \"#utility.yul\":2283:2289   */\n  dup5\n    /* \"#utility.yul\":2278:2281   */\n  dup3\n    /* \"#utility.yul\":2273:2276   */\n  dup6\n    /* \"#utility.yul\":2238:2290   */\n  tag_20\n  jump\t// in\ntag_70:\n    /* \"#utility.yul\":1957:2296   */\n  pop\n    /* \"#utility.yul\":1862:2296   */\n  swap4\n  swap3\n  pop\n  pop\n  pop\n  jump\t// out\n    /* \"#utility.yul\":2316:2671   */\ntag_22:\n    /* \"#utility.yul\":2383:2388   */\n  0x00\n    /* \"#utility.yul\":2432:2435   */\n  dup3\n    /* \"#utility.yul\":2425:2429   */\n  0x1f\n    /* \"#utility.yul\":2417:2423   */\n  dup4\n    /* \"#utility.yul\":2413:2430   */\n  add\n    /* \"#utility.yul\":2409:2436   */\n  slt\n    /* \"#utility.yul\":2399:2521   */\n  tag_72\n  jumpi\n    /* \"#utility.yul\":2440:2519   */\n  tag_73\n  tag_13\n  jump\t// in\ntag_73:\n    /* \"#utility.yul\":2399:2521   */\ntag_72:\n    /* \"#utility.yul\":2550:2556   */\n  dup2\n    /* \"#utility.yul\":2544:2557   */\n  mload\n    /* \"#utility.yul\":2575:2665   */\n  tag_74\n    /* \"#utility.yul\":2661:2664   */\n  dup5\n    /* \"#utility.yul\":2653:2659   */\n  dup3\n    /* \"#utility.yul\":2646:2650   */\n  0x20\n    /* \"#utility.yul\":2638:2644   */\n  dup7\n    /* \"#utility.yul\":2634:2651   */\n  add\n    /* \"#utility.yul\":2575:2665   */\n  tag_21\n  jump\t// in\ntag_74:\n    /* \"#utility.yul\":2566:2665   */\n  swap2\n  pop\n    /* \"#utility.yul\":2389:2671   */\n  pop\n    /* \"#utility.yul\":2316:2671   */\n  swap3\n  swap2\n  pop\n  pop\n  jump\t// out\n    /* \"#utility.yul\":2677:3530   */\ntag_3:\n    /* \"#utility.yul\":2776:2782   */\n  0x00\n    /* \"#utility.yul\":2784:2790   */\n  dup1\n    /* \"#utility.yul\":2833:2835   */\n  0x40\n    /* \"#utility.yul\":2821:2830   */\n  dup4\n    /* \"#utility.yul\":2812:2819   */\n  dup6\n    /* \"#utility.yul\":2808:2831   */\n  sub\n    /* \"#utility.yul\":2804:2836   */\n  slt\n    /* \"#utility.yul\":2801:2920   */\n  iszero\n  tag_76\n  jumpi\n    /* \"#utility.yul\":2839:2918   */\n  tag_77\n  tag_11\n  jump\t// in\ntag_77:\n    /* \"#utility.yul\":2801:2920   */\ntag_76:\n    /* \"#utility.yul\":2980:2981   */\n  0x00\n    /* \"#utility.yul\":2969:2978   */\n  dup4\n    /* \"#utility.yul\":2965:2982   */\n  add\n    /* \"#utility.yul\":2959:2983   */\n  mload\n    /* \"#utility.yul\":3010:3028   */\n  0xffffffffffffffff\n    /* \"#utility.yul\":3002:3008   */\n  dup2\n    /* \"#utility.yul\":2999:3029   */\n  gt\n    /* \"#utility.yul\":2996:3113   */\n  iszero\n  tag_78\n  jumpi\n    /* \"#utility.yul\":3032:3111   */\n  tag_79\n  tag_12\n  jump\t// in\ntag_79:\n    /* \"#utility.yul\":2996:3113   */\ntag_78:\n    /* \"#utility.yul\":3137:3211   */\n  tag_80\n    /* \"#utility.yul\":3203:3210   */\n  dup6\n    /* \"#utility.yul\":3194:3200   */\n  dup3\n    /* \"#utility.yul\":3183:3192   */\n  dup7\n    /* \"#utility.yul\":3179:3201   */\n  add\n    /* \"#utility.yul\":3137:3211   */\n  tag_22\n  jump\t// in\ntag_80:\n    /* \"#utility.yul\":3127:3211   */\n  swap3\n  pop\n    /* \"#utility.yul\":2930:3221   */\n  pop\n    /* \"#utility.yul\":3281:3283   */\n  0x20\n    /* \"#utility.yul\":3270:3279   */\n  dup4\n    /* \"#utility.yul\":3266:3284   */\n  add\n    /* \"#utility.yul\":3260:3285   */\n  mload\n    /* \"#utility.yul\":3312:3330   */\n  0xffffffffffffffff\n    /* \"#utility.yul\":3304:3310   */\n  dup2\n    /* \"#utility.yul\":3301:3331   */\n  gt\n    /* \"#utility.yul\":3298:3415   */\n  iszero\n  tag_81\n  jumpi\n    /* \"#utility.yul\":3334:3413   */\n  tag_82\n  tag_12\n  jump\t// in\ntag_82:\n    /* \"#utility.yul\":3298:3415   */\ntag_81:\n    /* \"#utility.yul\":3439:3513   */\n  tag_83\n    /* \"#utility.yul\":3505:3512   */\n  dup6\n    /* \"#utility.yul\":3496:3502   */\n  dup3\n    /* \"#utility.yul\":3485:3494   */\n  dup7\n    /* \"#utility.yul\":3481:3503   */\n  add\n    /* \"#utility.yul\":3439:3513   */\n  tag_22\n  jump\t// in\ntag_83:\n    /* \"#utility.yul\":3429:3513   */\n  swap2\n  pop\n    /* \"#utility.yul\":3231:3523   */\n  pop\n    /* \"#utility.yul\":2677:3530   */\n  swap3\n  pop\n  swap3\n  swap1\n  pop\n  jump\t// out\n    /* \"#utility.yul\":3536:3635   */\ntag_23:\n    /* \"#utility.yul\":3588:3594   */\n  0x00\n    /* \"#utility.yul\":3622:3627   */\n  dup2\n    /* \"#utility.yul\":3616:3628   */\n  mload\n    /* \"#utility.yul\":3606:3628   */\n  swap1\n  pop\n    /* \"#utility.yul\":3536:3635   */\n  swap2\n  swap1\n  pop\n  jump\t// out\n    /* \"#utility.yul\":3641:3821   */\ntag_24:\n    /* \"#utility.yul\":3689:3766   */\n  0x4e487b7100000000000000000000000000000000000000000000000000000000\n    /* \"#utility.yul\":3686:3687   */\n  0x00\n    /* \"#utility.yul\":3679:3767   */\n  mstore\n    /* \"#utility.yul\":3786:3790   */\n  0x22\n    /* \"#utility.yul\":3783:3784   */\n  0x04\n    /* \"#utility.yul\":3776:3791   */\n  mstore\n    /* \"#utility.yul\":3810:3814   */\n  0x24\n    /* \"#utility.yul\":3807:3808   */\n  0x00\n    /* \"#utility.yul\":3800:3815   */\n  revert\n    /* \"#utility.yul\":3827:4147   */\ntag_25:\n    /* \"#utility.yul\":3871:3877   */\n  0x00\n    /* \"#utility.yul\":3908:3909   */\n  0x02\n    /* \"#utility.yul\":3902:3906   */\n  dup3\n    /* \"#utility.yul\":3898:3910   */\n  div\n    /* \"#utility.yul\":3888:3910   */\n  swap1\n  pop\n    /* \"#utility.yul\":3955:3956   */\n  0x01\n    /* \"#utility.yul\":3949:3953   */\n  dup3\n    /* \"#utility.yul\":3945:3957   */\n  and\n    /* \"#utility.yul\":3976:3994   */\n  dup1\n    /* \"#utility.yul\":3966:4047   */\n  tag_87\n  jumpi\n    /* \"#utility.yul\":4032:4036   */\n  0x7f\n    /* \"#utility.yul\":4024:4030   */\n  dup3\n    /* \"#utility.yul\":4020:4037   */\n  and\n    /* \"#utility.yul\":4010:4037   */\n  swap2\n  pop\n    /* \"#utility.yul\":3966:4047   */\ntag_87:\n    /* \"#utility.yul\":4094:4096   */\n  0x20\n    /* \"#utility.yul\":4086:4092   */\n  dup3\n    /* \"#utility.yul\":4083:4097   */\n  lt\n    /* \"#utility.yul\":4063:4081   */\n  dup2\n    /* \"#utility.yul\":4060:4098   */\n  sub\n    /* \"#utility.yul\":4057:4141   */\n  tag_88\n  jumpi\n    /* \"#utility.yul\":4113:4131   */\n  tag_89\n  tag_24\n  jump\t// in\ntag_89:\n    /* \"#utility.yul\":4057:4141   */\ntag_88:\n    /* \"#utility.yul\":3878:4147   */\n  pop\n    /* \"#utility.yul\":3827:4147   */\n  swap2\n  swap1\n  pop\n  jump\t// out\n    /* \"#utility.yul\":4153:4294   */\ntag_26:\n    /* \"#utility.yul\":4202:4206   */\n  0x00\n    /* \"#utility.yul\":4225:4228   */\n  dup2\n    /* \"#utility.yul\":4217:4228   */\n  swap1\n  pop\n    /* \"#utility.yul\":4248:4251   */\n  dup2\n    /* \"#utility.yul\":4245:4246   */\n  0x00\n    /* \"#utility.yul\":4238:4252   */\n  mstore\n    /* \"#utility.yul\":4282:4286   */\n  0x20\n    /* \"#utility.yul\":4279:4280   */\n  0x00\n    /* \"#utility.yul\":4269:4287   */\n  keccak256\n    /* \"#utility.yul\":4261:4287   */\n  swap1\n  pop\n    /* \"#utility.yul\":4153:4294   */\n  swap2\n  swap1\n  pop\n  jump\t// out\n    /* \"#utility.yul\":4300:4393   */\ntag_27:\n    /* \"#utility.yul\":4337:4343   */\n  0x00\n    /* \"#utility.yul\":4384:4386   */\n  0x20\n    /* \"#utility.yul\":4379:4381   */\n  0x1f\n    /* \"#utility.yul\":4372:4377   */\n  dup4\n    /* \"#utility.yul\":4368:4382   */\n  add\n    /* \"#utility.yul\":4364:4387   */\n  div\n    /* \"#utility.yul\":4354:4387   */\n  swap1\n  pop\n    /* \"#utility.yul\":4300:4393   */\n  swap2\n  swap1\n  pop\n  jump\t// out\n    /* \"#utility.yul\":4399:4506   */\ntag_28:\n    /* \"#utility.yul\":4443:4451   */\n  0x00\n    /* \"#utility.yul\":4493:4498   */\n  dup3\n    /* \"#utility.yul\":4487:4491   */\n  dup3\n    /* \"#utility.yul\":4483:4499   */\n  shl\n    /* \"#utility.yul\":4462:4499   */\n  swap1\n  pop\n    /* \"#utility.yul\":4399:4506   */\n  swap3\n  swap2\n  pop\n  pop\n  jump\t// out\n    /* \"#utility.yul\":4512:4905   */\ntag_29:\n    /* \"#utility.yul\":4581:4587   */\n  0x00\n    /* \"#utility.yul\":4631:4632   */\n  0x08\n    /* \"#utility.yul\":4619:4629   */\n  dup4\n    /* \"#utility.yul\":4615:4633   */\n  mul\n    /* \"#utility.yul\":4654:4751   */\n  tag_94\n    /* \"#utility.yul\":4684:4750   */\n  0xffffffffffffffffffffffffffffffffffffffffffffffffffffffffffffffff\n    /* \"#utility.yul\":4673:4682   */\n  dup3\n    /* \"#utility.yul\":4654:4751   */\n  tag_28\n  jump\t// in\ntag_94:\n    /* \"#utility.yul\":4772:4811   */\n  tag_95\n    /* \"#utility.yul\":4802:4810   */\n  dup7\n    /* \"#utility.yul\":4791:4800   */\n  dup4\n    /* \"#utility.yul\":4772:4811   */\n  tag_28\n  jump\t// in\ntag_95:\n    /* \"#utility.yul\":4760:4811   */\n  swap6\n  pop\n    /* \"#utility.yul\":4844:4848   */\n  dup1\n    /* \"#utility.yul\":4840:4849   */\n  not\n    /* \"#utility.yul\":4833:4838   */\n  dup5\n    /* \"#utility.yul\":4829:4850   */\n  and\n    /* \"#utility.yul\":4820:4850   */\n  swap4\n  pop\n    /* \"#utility.yul\":4893:4897   */\n  dup1\n    /* \"#utility.yul\":4883:4891   */\n  dup7\n    /* \"#utility.yul\":4879:4898   */\n  and\n    /* \"#utility.yul\":4872:4877   */\n  dup5\n    /* \"#utility.yul\":4869:4899   */\n  or\n    /* \"#utility.yul\":4859:4899   */\n  swap3\n  pop\n    /* \"#utility.yul\":4588:4905   */\n  pop\n  pop\n    /* \"#utility.yul\":4512:4905   */\n  swap4\n  swap3\n  pop\n  pop\n  pop\n  jump\t// out\n    /* \"#utility.yul\":4911:4988   */\ntag_30:\n    /* \"#utility.yul\":4948:4955   */\n  0x00\n    /* \"#utility.yul\":4977:4982   */\n  dup2\n    /* \"#utility.yul\":4966:4982   */\n  swap1\n  pop\n    /* \"#utility.yul\":4911:4988   */\n  swap2\n  swap1\n  pop\n  jump\t// out\n    /* \"#utility.yul\":4994:5054   */\ntag_31:\n    /* \"#utility.yul\":5022:5025   */\n  0x00\n    /* \"#utility.yul\":5043:5048   */\n  dup2\n    /* \"#utility.yul\":5036:5048   */\n  swap1\n  pop\n    /* \"#utility.yul\":4994:5054   */\n  swap2\n  swap1\n  pop\n  jump\t// out\n    /* \"#utility.yul\":5060:5202   */\ntag_32:\n    /* \"#utility.yul\":5110:5119   */\n  0x00\n    /* \"#utility.yul\":5143:5196   */\n  tag_99\n    /* \"#utility.yul\":5161:5195   */\n  tag_100\n    /* \"#utility.yul\":5170:5194   */\n  tag_101\n    /* \"#utility.yul\":5188:5193   */\n  dup5\n    /* \"#utility.yul\":5170:5194   */\n  tag_30\n  jump\t// in\ntag_101:\n    /* \"#utility.yul\":5161:5195   */\n  tag_31\n  jump\t// in\ntag_100:\n    /* \"#utility.yul\":5143:5196   */\n  tag_30\n  jump\t// in\ntag_99:\n    /* \"#utility.yul\":5130:5196   */\n  swap1\n  pop\n    /* \"#utility.yul\":5060:5202   */\n  swap2\n  swap1\n  pop\n  jump\t// out\n    /* \"#utility.yul\":5208:5283   */\ntag_33:\n    /* \"#utility.yul\":5251:5254   */\n  0x00\n    /* \"#utility.yul\":5272:5277   */\n  dup2\n    /* \"#utility.yul\":5265:5277   */\n  swap1\n  pop\n    /* \"#utility.yul\":5208:5283   */\n  swap2\n  swap1\n  pop\n  jump\t// out\n    /* \"#utility.yul\":5289:5558   */\ntag_34:\n    /* \"#utility.yul\":5399:5438   */\n  tag_104\n    /* \"#utility.yul\":5430:5437   */\n  dup4\n    /* \"#utility.yul\":5399:5438   */\n  tag_32\n  jump\t// in\ntag_104:\n    /* \"#utility.yul\":5460:5551   */\n  tag_105\n    /* \"#utility.yul\":5509:5550   */\n  tag_106\n    /* \"#utility.yul\":5533:5549   */\n  dup3\n    /* \"#utility.yul\":5509:5550   */\n  tag_33\n  jump\t// in\ntag_106:\n    /* \"#utility.yul\":5501:5507   */\n  dup5\n    /* \"#utility.yul\":5494:5498   */\n  dup5\n    /* \"#utility.yul\":5488:5499   */\n  sload\n    /* \"#utility.yul\":5460:5551   */\n  tag_29\n  jump\t// in\ntag_105:\n    /* \"#utility.yul\":5454:5458   */\n  dup3\n    /* \"#utility.yul\":5447:5552   */\n  sstore\n    /* \"#utility.yul\":5365:5558   */\n  pop\n    /* \"#utility.yul\":5289:5558   */\n  pop\n  pop\n  pop\n  jump\t// out\n    /* \"#utility.yul\":5564:5637   */\ntag_35:\n    /* \"#utility.yul\":5609:5612   */\n  0x00\n    /* \"#utility.yul\":5564:5637   */\n  swap1\n  jump\t// out\n    /* \"#utility.yul\":5643:5832   */\ntag_36:\n    /* \"#utility.yul\":5720:5752   */\n  tag_109\n  tag_35\n  jump\t// in\ntag_109:\n    /* \"#utility.yul\":5761:5826   */\n  tag_110\n    /* \"#utility.yul\":5819:5825   */\n  dup2\n    /* \"#utility.yul\":5811:5817   */\n  dup5\n    /* \"#utility.yul\":5805:5809   */\n  dup5\n    /* \"#utility.yul\":5761:5826   */\n  tag_34\n  jump\t// in\ntag_110:\n    /* \"#utility.yul\":5696:5832   */\n  pop\n    /* \"#utility.yul\":5643:5832   */\n  pop\n  pop\n  jump\t// out\n    /* \"#utility.yul\":5838:6024   */\ntag_37:\n    /* \"#utility.yul\":5898:6018   */\ntag_112:\n    /* \"#utility.yul\":5915:5918   */\n  dup2\n    /* \"#utility.yul\":5908:5913   */\n  dup2\n    /* \"#utility.yul\":5905:5919   */\n  lt\n    /* \"#utility.yul\":5898:6018   */\n  iszero\n  tag_114\n  jumpi\n    /* \"#utility.yul\":5969:6008   */\n  tag_115\n    /* \"#utility.yul\":6006:6007   */\n  0x00\n    /* \"#utility.yul\":5999:6004   */\n  dup3\n    /* \"#utility.yul\":5969:6008   */\n  tag_36\n  jump\t// in\ntag_115:\n    /* \"#utility.yul\":5942:5943   */\n  0x01\n    /* \"#utility.yul\":5935:5940   */\n  dup2\n    /* \"#utility.yul\":5931:5944   */\n  add\n    /* \"#utility.yul\":5922:5944   */\n  swap1\n  pop\n    /* \"#utility.yul\":5898:6018   */\n  jump(tag_112)\ntag_114:\n    /* \"#utility.yul\":5838:6024   */\n  pop\n  pop\n  jump\t// out\n    /* \"#utility.yul\":6030:6573   */\ntag_38:\n    /* \"#utility.yul\":6131:6133   */\n  0x1f\n    /* \"#utility.yul\":6126:6129   */\n  dup3\n    /* \"#utility.yul\":6123:6134   */\n  gt\n    /* \"#utility.yul\":6120:6566   */\n  iszero\n  tag_117\n  jumpi\n    /* \"#utility.yul\":6165:6203   */\n  tag_118\n    /* \"#utility.yul\":6197:6202   */\n  dup2\n    /* \"#utility.yul\":6165:6203   */\n  tag_26\n  jump\t// in\ntag_118:\n    /* \"#utility.yul\":6249:6278   */\n  tag_119\n    /* \"#utility.yul\":6267:6277   */\n  dup5\n    /* \"#utility.yul\":6249:6278   */\n  tag_27\n  jump\t// in\ntag_119:\n    /* \"#utility.yul\":6239:6247   */\n  dup2\n    /* \"#utility.yul\":6235:6279   */\n  add\n    /* \"#utility.yul\":6432:6434   */\n  0x20\n    /* \"#utility.yul\":6420:6430   */\n  dup6\n    /* \"#utility.yul\":6417:6435   */\n  lt\n    /* \"#utility.yul\":6414:6463   */\n  iszero\n  tag_120\n  jumpi\n    /* \"#utility.yul\":6453:6461   */\n  dup2\n    /* \"#utility.yul\":6438:6461   */\n  swap1\n  pop\n    /* \"#utility.yul\":6414:6463   */\ntag_120:\n    /* \"#utility.yul\":6476:6556   */\n  tag_121\n    /* \"#utility.yul\":6532:6554   */\n  tag_122\n    /* \"#utility.yul\":6550:6553   */\n  dup6\n    /* \"#utility.yul\":6532:6554   */\n  tag_27\n  jump\t// in\ntag_122:\n    /* \"#utility.yul\":6522:6530   */\n  dup4\n    /* \"#utility.yul\":6518:6555   */\n  add\n    /* \"#utility.yul\":6505:6516   */\n  dup3\n    /* \"#utility.yul\":6476:6556   */\n  tag_37\n  jump\t// in\ntag_121:\n    /* \"#utility.yul\":6135:6566   */\n  pop\n  pop\n    /* \"#utility.yul\":6120:6566   */\ntag_117:\n    /* \"#utility.yul\":6030:6573   */\n  pop\n  pop\n  pop\n  jump\t// out\n    /* \"#utility.yul\":6579:6696   */\ntag_39:\n    /* \"#utility.yul\":6633:6641   */\n  0x00\n    /* \"#utility.yul\":6683:6688   */\n  dup3\n    /* \"#utility.yul\":6677:6681   */\n  dup3\n    /* \"#utility.yul\":6673:6689   */\n  shr\n    /* \"#utility.yul\":6652:6689   */\n  swap1\n  pop\n    /* \"#utility.yul\":6579:6696   */\n  swap3\n  swap2\n  pop\n  pop\n  jump\t// out\n    /* \"#utility.yul\":6702:6871   */\ntag_40:\n    /* \"#utility.yul\":6746:6752   */\n  0x00\n    /* \"#utility.yul\":6779:6830   */\n  tag_125\n    /* \"#utility.yul\":6827:6828   */\n  0x00\n    /* \"#utility.yul\":6823:6829   */\n  not\n    /* \"#utility.yul\":6815:6820   */\n  dup5\n    /* \"#utility.yul\":6812:6813   */\n  0x08\n    /* \"#utility.yul\":6808:6821   */\n  mul\n    /* \"#utility.yul\":6779:6830   */\n  tag_39\n  jump\t// in\ntag_125:\n    /* \"#utility.yul\":6775:6831   */\n  not\n    /* \"#utility.yul\":6860:6864   */\n  dup1\n    /* \"#utility.yul\":6854:6858   */\n  dup4\n    /* \"#utility.yul\":6850:6865   */\n  and\n    /* \"#utility.yul\":6840:6865   */\n  swap2\n  pop\n    /* \"#utility.yul\":6753:6871   */\n  pop\n    /* \"#utility.yul\":6702:6871   */\n  swap3\n  swap2\n  pop\n  pop\n  jump\t// out\n    /* \"#utility.yul\":6876:7171   */\ntag_41:\n    /* \"#utility.yul\":6952:6956   */\n  0x00\n    /* \"#utility.yul\":7098:7127   */\n  tag_127\n    /* \"#utility.yul\":7123:7126   */\n  dup4\n    /* \"#utility.yul\":7117:7121   */\n  dup4\n    /* \"#utility.yul\":7098:7127   */\n  tag_40\n  jump\t// in\ntag_127:\n    /* \"#utility.yul\":7090:7127   */\n  swap2\n  pop\n    /* \"#utility.yul\":7160:7163   */\n  dup3\n    /* \"#utility.yul\":7157:7158   */\n  0x02\n    /* \"#utility.yul\":7153:7164   */\n  mul\n    /* \"#utility.yul\":7147:7151   */\n  dup3\n    /* \"#utility.yul\":7144:7165   */\n  or\n    /* \"#utility.yul\":7136:7165   */\n  swap1\n  pop\n    /* \"#utility.yul\":6876:7171   */\n  swap3\n  swap2\n  pop\n  pop\n  jump\t// out\n    /* \"#utility.yul\":7176:8571   */\ntag_7:\n    /* \"#utility.yul\":7293:7330   */\n  tag_129\n    /* \"#utility.yul\":7326:7329   */\n  dup3\n    /* \"#utility.yul\":7293:7330   */\n  tag_23\n  jump\t// in\ntag_129:\n    /* \"#utility.yul\":7395:7413   */\n  0xffffffffffffffff\n    /* \"#utility.yul\":7387:7393   */\n  dup2\n    /* \"#utility.yul\":7384:7414   */\n  gt\n    /* \"#utility.yul\":7381:7437   */\n  iszero\n  tag_130\n  jumpi\n    /* \"#utility.yul\":7417:7435   */\n  tag_131\n  tag_16\n  jump\t// in\ntag_131:\n    /* \"#utility.yul\":7381:7437   */\ntag_130:\n    /* \"#utility.yul\":7461:7499   */\n  tag_132\n    /* \"#utility.yul\":7493:7497   */\n  dup3\n    /* \"#utility.yul\":7487:7498   */\n  sload\n    /* \"#utility.yul\":7461:7499   */\n  tag_25\n  jump\t// in\ntag_132:\n    /* \"#utility.yul\":7546:7613   */\n  tag_133\n    /* \"#utility.yul\":7606:7612   */\n  dup3\n    /* \"#utility.yul\":7598:7604   */\n  dup3\n    /* \"#utility.yul\":7592:7596   */\n  dup6\n    /* \"#utility.yul\":7546:7613   */\n  tag_38\n  jump\t// in\ntag_133:\n    /* \"#utility.yul\":7640:7641   */\n  0x00\n    /* \"#utility.yul\":7664:7668   */\n  0x20\n    /* \"#utility.yul\":7651:7668   */\n  swap1\n  pop\n    /* \"#utility.yul\":7696:7698   */\n  0x1f\n    /* \"#utility.yul\":7688:7694   */\n  dup4\n    /* \"#utility.yul\":7685:7699   */\n  gt\n    /* \"#utility.yul\":7713:7714   */\n  0x01\n    /* \"#utility.yul\":7708:8326   */\n  dup2\n  eq\n  tag_135\n  jumpi\n    /* \"#utility.yul\":8370:8371   */\n  0x00\n    /* \"#utility.yul\":8387:8393   */\n  dup5\n    /* \"#utility.yul\":8384:8461   */\n  iszero\n  tag_136\n  jumpi\n    /* \"#utility.yul\":8436:8445   */\n  dup3\n    /* \"#utility.yul\":8431:8434   */\n  dup8\n    /* \"#utility.yul\":8427:8446   */\n  add\n    /* \"#utility.yul\":8421:8447   */\n  mload\n    /* \"#utility.yul\":8412:8447   */\n  swap1\n  pop\n    /* \"#utility.yul\":8384:8461   */\ntag_136:\n    /* \"#utility.yul\":8487:8554   */\n  tag_137\n    /* \"#utility.yul\":8547:8553   */\n  dup6\n    /* \"#utility.yul\":8540:8545   */\n  dup3\n    /* \"#utility.yul\":8487:8554   */\n  tag_41\n  jump\t// in\ntag_137:\n    /* \"#utility.yul\":8481:8485   */\n  dup7\n    /* \"#utility.yul\":8474:8555   */\n  sstore\n    /* \"#utility.yul\":8343:8565   */\n  pop\n    /* \"#utility.yul\":7678:8565   */\n  jump(tag_134)\n    /* \"#utility.yul\":7708:8326   */\ntag_135:\n    /* \"#utility.yul\":7760:7764   */\n  0x1f\n    /* \"#utility.yul\":7756:7765   */\n  not\n    /* \"#utility.yul\":7748:7754   */\n  dup5\n    /* \"#utility.yul\":7744:7766   */\n  and\n    /* \"#utility.yul\":7794:7831   */\n  tag_138\n    /* \"#utility.yul\":7826:7830   */\n  dup7\n    /* \"#utility.yul\":7794:7831   */\n  tag_26\n  jump\t// in\ntag_138:\n    /* \"#utility.yul\":7853:7854   */\n  0x00\n    /* \"#utility.yul\":7867:8075   */\ntag_139:\n    /* \"#utility.yul\":7881:7888   */\n  dup3\n    /* \"#utility.yul\":7878:7879   */\n  dup2\n    /* \"#utility.yul\":7875:7889   */\n  lt\n    /* \"#utility.yul\":7867:8075   */\n  iszero\n  tag_141\n  jumpi\n    /* \"#utility.yul\":7960:7969   */\n  dup5\n    /* \"#utility.yul\":7955:7958   */\n  dup10\n    /* \"#utility.yul\":7951:7970   */\n  add\n    /* \"#utility.yul\":7945:7971   */\n  mload\n    /* \"#utility.yul\":7937:7943   */\n  dup3\n    /* \"#utility.yul\":7930:7972   */\n  sstore\n    /* \"#utility.yul\":8011:8012   */\n  0x01\n    /* \"#utility.yul\":8003:8009   */\n  dup3\n    /* \"#utility.yul\":7999:8013   */\n  add\n    /* \"#utility.yul\":7989:8013   */\n  swap2\n  pop\n    /* \"#utility.yul\":8058:8060   */\n  0x20\n    /* \"#utility.yul\":8047:8056   */\n  dup6\n    /* \"#utility.yul\":8043:8061   */\n  add\n    /* \"#utility.yul\":8030:8061   */\n  swap5\n  pop\n    /* \"#utility.yul\":7904:7908   */\n  0x20\n    /* \"#utility.yul\":7901:7902   */\n  dup2\n    /* \"#utility.yul\":7897:7909   */\n  add\n    /* \"#utility.yul\":7892:7909   */\n  swap1\n  pop\n    /* \"#utility.yul\":7867:8075   */\n  jump(tag_139)\ntag_141:\n    /* \"#utility.yul\":8103:8109   */\n  dup7\n    /* \"#utility.yul\":8094:8101   */\n  dup4\n    /* \"#utility.yul\":8091:8110   */\n  lt\n    /* \"#utility.yul\":8088:8267   */\n  iszero\n  tag_142\n  jumpi\n    /* \"#utility.yul\":8161:8170   */\n  dup5\n    /* \"#utility.yul\":8156:8159   */\n  dup10\n    /* \"#utility.yul\":8152:8171   */\n  add\n    /* \"#utility.yul\":8146:8172   */\n  mload\n    /* \"#utility.yul\":8204:8252   */\n  tag_143\n    /* \"#utility.yul\":8246:8250   */\n  0x1f\n    /* \"#utility.yul\":8238:8244   */\n  dup10\n    /* \"#utility.yul\":8234:8251   */\n  and\n    /* \"#utility.yul\":8223:8232   */\n  dup3\n    /* \"#utility.yul\":8204:8252   */\n  tag_40\n  jump\t// in\ntag_143:\n    /* \"#utility.yul\":8196:8202   */\n  dup4\n    /* \"#utility.yul\":8189:8253   */\n  sstore\n    /* \"#utility.yul\":8111:8267   */\n  pop\n    /* \"#utility.yul\":8088:8267   */\ntag_142:\n    /* \"#utility.yul\":8313:8314   */\n  0x01\n    /* \"#utility.yul\":8309:8310   */\n  0x02\n    /* \"#utility.yul\":8301:8307   */\n  dup9\n    /* \"#utility.yul\":8297:8311   */\n  mul\n    /* \"#utility.yul\":8293:8315   */\n  add\n    /* \"#utility.yul\":8287:8291   */\n  dup9\n    /* \"#utility.yul\":8280:8316   */\n  sstore\n    /* \"#utility.yul\":7715:8326   */\n  pop\n  pop\n  pop\n    /* \"#utility.yul\":7678:8565   */\ntag_134:\n  pop\n    /* \"#utility.yul\":7268:8571   */\n  pop\n  pop\n  pop\n    /* \"#utility.yul\":7176:8571   */\n  pop\n  pop\n  jump\t// out\n    /* \"ERC721(NFT+ERC165).sol\":4853:13279  contract ERC721 is IERC721, IERC721Metadata, IERC165 {... */\ntag_9:\n  dataSize(sub_0)\n  dup1\n  dataOffset(sub_0)\n  0x00\n  codecopy\n  0x00\n  return\nstop\n\nsub_0: assembly {\n        /* \"ERC721(NFT+ERC165).sol\":4853:13279  contract ERC721 is IERC721, IERC721Metadata, IERC165 {... */\n      mstore(0x40, 0x80)\n      callvalue\n      dup1\n      iszero\n      tag_1\n      jumpi\n      0x00\n      dup1\n      revert\n    tag_1:\n      pop\n      jumpi(tag_2, lt(calldatasize, 0x04))\n      shr(0xe0, calldataload(0x00))\n      dup1\n      0x70a08231\n      gt\n      tag_21\n      jumpi\n      dup1\n      0xa1448194\n      gt\n      tag_22\n      jumpi\n      dup1\n      0xa1448194\n      eq\n      tag_16\n      jumpi\n      dup1\n      0xa22cb465\n      eq\n      tag_17\n      jumpi\n      dup1\n      0xb88d4fde\n      eq\n      tag_18\n      jumpi\n      dup1\n      0xc87b56dd\n      eq\n      tag_19\n      jumpi\n      dup1\n      0xe985e9c5\n      eq\n      tag_20\n      jumpi\n      jump(tag_2)\n    tag_22:\n      dup1\n      0x70a08231\n      eq\n      tag_12\n      jumpi\n      dup1\n      0x75e79be6\n      eq\n      tag_13\n      jumpi\n      dup1\n      0x8832e6e3\n      eq\n      tag_14\n      jumpi\n      dup1\n      0x95d89b41\n      eq\n      tag_15\n      jumpi\n      jump(tag_2)\n    tag_21:\n      dup1\n      0x23b872dd\n      gt\n      tag_23\n      jumpi\n      dup1\n      0x23b872dd\n      eq\n      tag_7\n      jumpi\n      dup1\n      0x40c10f19\n      eq\n      tag_8\n      jumpi\n      dup1\n      0x42842e0e\n      eq\n      tag_9\n      jumpi\n      dup1\n      0x42966c68\n      eq\n      tag_10\n      jumpi\n      dup1\n      0x6352211e\n      eq\n      tag_11\n      jumpi\n      jump(tag_2)\n    tag_23:\n      dup1\n      0x06fdde03\n      eq\n      tag_3\n      jumpi\n      dup1\n      0x081812fc\n      eq\n      tag_4\n      jumpi\n      dup1\n      0x095ea7b3\n      eq\n      tag_5\n      jumpi\n      dup1\n      0x162094c4\n      eq\n      tag_6\n      jumpi\n    tag_2:\n      0x00\n      dup1\n      revert\n        /* \"ERC721(NFT+ERC165).sol\":5607:5689  function name() public view returns(string memory) {... */\n    tag_3:\n      tag_24\n      tag_25\n      jump\t// in\n    tag_24:\n      mload(0x40)\n      tag_26\n      swap2\n      swap1\n      tag_27\n      jump\t// in\n    tag_26:\n      mload(0x40)\n      dup1\n      swap2\n      sub\n      swap1\n      return\n        /* \"ERC721(NFT+ERC165).sol\":7504:7841  function getApproved(uint256 tokenId) public view returns(address) {... */\n    tag_4:\n      tag_28\n      0x04\n      dup1\n      calldatasize\n      sub\n      dup2\n      add\n      swap1\n      tag_29\n      swap2\n      swap1\n      tag_30\n      jump\t// in\n    tag_29:\n      tag_31\n      jump\t// in\n    tag_28:\n      mload(0x40)\n      tag_32\n      swap2\n      swap1\n      tag_33\n      jump\t// in\n    tag_32:\n      mload(0x40)\n      dup1\n      swap2\n      sub\n      swap1\n      return\n        /* \"ERC721(NFT+ERC165).sol\":6805:7498  function approve(address to, uint256 tokenId) public {... */\n    tag_5:\n      tag_34\n      0x04\n      dup1\n      calldatasize\n      sub\n      dup2\n      add\n      swap1\n      tag_35\n      swap2\n      swap1\n      tag_36\n      jump\t// in\n    tag_35:\n      tag_37\n      jump\t// in\n    tag_34:\n      stop\n        /* \"ERC721(NFT+ERC165).sol\":6101:6363  function setTokenURI(uint256 tokenId, string memory URI) public {... */\n    tag_6:\n      tag_38\n      0x04\n      dup1\n      calldatasize\n      sub\n      dup2\n      add\n      swap1\n      tag_39\n      swap2\n      swap1\n      tag_40\n      jump\t// in\n    tag_39:\n      tag_41\n      jump\t// in\n    tag_38:\n      stop\n        /* \"ERC721(NFT+ERC165).sol\":9285:9404  function transferFrom(address from, address to, uint256 tokenId) public {... */\n    tag_7:\n      tag_42\n      0x04\n      dup1\n      calldatasize\n      sub\n      dup2\n      add\n      swap1\n      tag_43\n      swap2\n      swap1\n      tag_44\n      jump\t// in\n    tag_43:\n      tag_45\n      jump\t// in\n    tag_42:\n      stop\n        /* \"ERC721(NFT+ERC165).sol\":11659:12081  function mint(address to, uint256 tokenId) public {... */\n    tag_8:\n      tag_46\n      0x04\n      dup1\n      calldatasize\n      sub\n      dup2\n      add\n      swap1\n      tag_47\n      swap2\n      swap1\n      tag_36\n      jump\t// in\n    tag_47:\n      tag_48\n      jump\t// in\n    tag_46:\n      stop\n        /* \"ERC721(NFT+ERC165).sol\":9985:10217  function safeTransferFrom(address from, address to, uint256 tokenId) public {... */\n    tag_9:\n      tag_49\n      0x04\n      dup1\n      calldatasize\n      sub\n      dup2\n      add\n      swap1\n      tag_50\n      swap2\n      swap1\n      tag_44\n      jump\t// in\n    tag_50:\n      tag_51\n      jump\t// in\n    tag_49:\n      stop\n        /* \"ERC721(NFT+ERC165).sol\":12420:12880  function burn(uint256 tokenId) public{... */\n    tag_10:\n      tag_52\n      0x04\n      dup1\n      calldatasize\n      sub\n      dup2\n      add\n      swap1\n      tag_53\n      swap2\n      swap1\n      tag_30\n      jump\t// in\n    tag_53:\n      tag_54\n      jump\t// in\n    tag_52:\n      stop\n        /* \"ERC721(NFT+ERC165).sol\":6571:6799  function ownerOf(uint256 tokenId) public view returns(address) {... */\n    tag_11:\n      tag_55\n      0x04\n      dup1\n      calldatasize\n      sub\n      dup2\n      add\n      swap1\n      tag_56\n      swap2\n      swap1\n      tag_30\n      jump\t// in\n    tag_56:\n      tag_57\n      jump\t// in\n    tag_55:\n      mload(0x40)\n      tag_58\n      swap2\n      swap1\n      tag_33\n      jump\t// in\n    tag_58:\n      mload(0x40)\n      dup1\n      swap2\n      sub\n      swap1\n      return\n        /* \"ERC721(NFT+ERC165).sol\":6369:6565  function balanceOf(address owner) public view returns(uint256) {... */\n    tag_12:\n      tag_59\n      0x04\n      dup1\n      calldatasize\n      sub\n      dup2\n      add\n      swap1\n      tag_60\n      swap2\n      swap1\n      tag_61\n      jump\t// in\n    tag_60:\n      tag_62\n      jump\t// in\n    tag_59:\n      mload(0x40)\n      tag_63\n      swap2\n      swap1\n      tag_64\n      jump\t// in\n    tag_63:\n      mload(0x40)\n      dup1\n      swap2\n      sub\n      swap1\n      return\n        /* \"ERC721(NFT+ERC165).sol\":12938:13276  function supportInterface(bytes4 interfaceId) public pure returns(bool) {... */\n    tag_13:\n      tag_65\n      0x04\n      dup1\n      calldatasize\n      sub\n      dup2\n      add\n      swap1\n      tag_66\n      swap2\n      swap1\n      tag_67\n      jump\t// in\n    tag_66:\n      tag_68\n      jump\t// in\n    tag_65:\n      mload(0x40)\n      tag_69\n      swap2\n      swap1\n      tag_70\n      jump\t// in\n    tag_69:\n      mload(0x40)\n      dup1\n      swap2\n      sub\n      swap1\n      return\n        /* \"ERC721(NFT+ERC165).sol\":12087:12310  function safeMint(address to, uint256 tokenId, bytes memory data) public {... */\n    tag_14:\n      tag_71\n      0x04\n      dup1\n      calldatasize\n      sub\n      dup2\n      add\n      swap1\n      tag_72\n      swap2\n      swap1\n      tag_73\n      jump\t// in\n    tag_72:\n      tag_74\n      jump\t// in\n    tag_71:\n      stop\n        /* \"ERC721(NFT+ERC165).sol\":5695:5783  function symbol() external view returns(string memory) {... */\n    tag_15:\n      tag_75\n      tag_76\n      jump\t// in\n    tag_75:\n      mload(0x40)\n      tag_77\n      swap2\n      swap1\n      tag_27\n      jump\t// in\n    tag_77:\n      mload(0x40)\n      dup1\n      swap2\n      sub\n      swap1\n      return\n        /* \"ERC721(NFT+ERC165).sol\":12316:12414  function safeMint(address to, uint256 tokenId) public {... */\n    tag_16:\n      tag_78\n      0x04\n      dup1\n      calldatasize\n      sub\n      dup2\n      add\n      swap1\n      tag_79\n      swap2\n      swap1\n      tag_36\n      jump\t// in\n    tag_79:\n      tag_80\n      jump\t// in\n    tag_78:\n      stop\n        /* \"ERC721(NFT+ERC165).sol\":7847:8154  function setApprovalForAll(address operator, bool _approved) public {... */\n    tag_17:\n      tag_81\n      0x04\n      dup1\n      calldatasize\n      sub\n      dup2\n      add\n      swap1\n      tag_82\n      swap2\n      swap1\n      tag_83\n      jump\t// in\n    tag_82:\n      tag_84\n      jump\t// in\n    tag_81:\n      stop\n        /* \"ERC721(NFT+ERC165).sol\":9744:9897  function safeTransferFrom(address from, address to, uint256 tokenId, bytes calldata data) public {... */\n    tag_18:\n      tag_85\n      0x04\n      dup1\n      calldatasize\n      sub\n      dup2\n      add\n      swap1\n      tag_86\n      swap2\n      swap1\n      tag_87\n      jump\t// in\n    tag_86:\n      tag_88\n      jump\t// in\n    tag_85:\n      stop\n        /* \"ERC721(NFT+ERC165).sol\":5854:6095  function tokenURI(uint256 tokenId) public view returns(string memory) {... */\n    tag_19:\n      tag_89\n      0x04\n      dup1\n      calldatasize\n      sub\n      dup2\n      add\n      swap1\n      tag_90\n      swap2\n      swap1\n      tag_30\n      jump\t// in\n    tag_90:\n      tag_91\n      jump\t// in\n    tag_89:\n      mload(0x40)\n      tag_92\n      swap2\n      swap1\n      tag_27\n      jump\t// in\n    tag_92:\n      mload(0x40)\n      dup1\n      swap2\n      sub\n      swap1\n      return\n        /* \"ERC721(NFT+ERC165).sol\":8160:8306  function isApprovedForAll(address owner, address operator) public view returns(bool) {... */\n    tag_20:\n      tag_93\n      0x04\n      dup1\n      calldatasize\n      sub\n      dup2\n      add\n      swap1\n      tag_94\n      swap2\n      swap1\n      tag_95\n      jump\t// in\n    tag_94:\n      tag_96\n      jump\t// in\n    tag_93:\n      mload(0x40)\n      tag_97\n      swap2\n      swap1\n      tag_70\n      jump\t// in\n    tag_97:\n      mload(0x40)\n      dup1\n      swap2\n      sub\n      swap1\n      return\n        /* \"ERC721(NFT+ERC165).sol\":5607:5689  function name() public view returns(string memory) {... */\n    tag_25:\n        /* \"ERC721(NFT+ERC165).sol\":5643:5656  string memory */\n      0x60\n        /* \"ERC721(NFT+ERC165).sol\":5676:5681  _name */\n      0x04\n        /* \"ERC721(NFT+ERC165).sol\":5669:5681  return _name */\n      dup1\n      sload\n      tag_99\n      swap1\n      tag_100\n      jump\t// in\n    tag_99:\n      dup1\n      0x1f\n      add\n      0x20\n      dup1\n      swap2\n      div\n      mul\n      0x20\n      add\n      mload(0x40)\n      swap1\n      dup2\n      add\n      0x40\n      mstore\n      dup1\n      swap3\n      swap2\n      swap1\n      dup2\n      dup2\n      mstore\n      0x20\n      add\n      dup3\n      dup1\n      sload\n      tag_101\n      swap1\n      tag_100\n      jump\t// in\n    tag_101:\n      dup1\n      iszero\n      tag_102\n      jumpi\n      dup1\n      0x1f\n      lt\n      tag_103\n      jumpi\n      0x0100\n      dup1\n      dup4\n      sload\n      div\n      mul\n      dup4\n      mstore\n      swap2\n      0x20\n      add\n      swap2\n      jump(tag_102)\n    tag_103:\n      dup3\n      add\n      swap2\n      swap1\n      0x00\n      mstore\n      keccak256(0x00, 0x20)\n      swap1\n    tag_104:\n      dup2\n      sload\n      dup2\n      mstore\n      swap1\n      0x01\n      add\n      swap1\n      0x20\n      add\n      dup1\n      dup4\n      gt\n      tag_104\n      jumpi\n      dup3\n      swap1\n      sub\n      0x1f\n      and\n      dup3\n      add\n      swap2\n    tag_102:\n      pop\n      pop\n      pop\n      pop\n      pop\n      swap1\n      pop\n        /* \"ERC721(NFT+ERC165).sol\":5607:5689  function name() public view returns(string memory) {... */\n      swap1\n      jump\t// out\n        /* \"ERC721(NFT+ERC165).sol\":7504:7841  function getApproved(uint256 tokenId) public view returns(address) {... */\n    tag_31:\n        /* \"ERC721(NFT+ERC165).sol\":7562:7569  address */\n      0x00\n        /* \"ERC721(NFT+ERC165).sol\":7582:7595  address owner */\n      dup1\n        /* \"ERC721(NFT+ERC165).sol\":7598:7605  _owners */\n      0x01\n        /* \"ERC721(NFT+ERC165).sol\":7598:7614  _owners[tokenId] */\n      0x00\n        /* \"ERC721(NFT+ERC165).sol\":7606:7613  tokenId */\n      dup5\n        /* \"ERC721(NFT+ERC165).sol\":7598:7614  _owners[tokenId] */\n      dup2\n      mstore\n      0x20\n      add\n      swap1\n      dup2\n      mstore\n      0x20\n      add\n      0x00\n      keccak256\n      0x00\n      swap1\n      sload\n      swap1\n      0x0100\n      exp\n      swap1\n      div\n      0xffffffffffffffffffffffffffffffffffffffff\n      and\n        /* \"ERC721(NFT+ERC165).sol\":7582:7614  address owner = _owners[tokenId] */\n      swap1\n      pop\n        /* \"ERC721(NFT+ERC165).sol\":7650:7651  0 */\n      0x00\n        /* \"ERC721(NFT+ERC165).sol\":7633:7652  owner != address(0) */\n      0xffffffffffffffffffffffffffffffffffffffff\n      and\n        /* \"ERC721(NFT+ERC165).sol\":7633:7638  owner */\n      dup2\n        /* \"ERC721(NFT+ERC165).sol\":7633:7652  owner != address(0) */\n      0xffffffffffffffffffffffffffffffffffffffff\n      and\n      sub\n        /* \"ERC721(NFT+ERC165).sol\":7625:7705  require(owner != address(0), \"ERROR: token has not been mint or has been burn.\") */\n      tag_106\n      jumpi\n      mload(0x40)\n      0x08c379a000000000000000000000000000000000000000000000000000000000\n      dup2\n      mstore\n      0x04\n      add\n      tag_107\n      swap1\n      tag_108\n      jump\t// in\n    tag_107:\n      mload(0x40)\n      dup1\n      swap2\n      sub\n      swap1\n      revert\n    tag_106:\n        /* \"ERC721(NFT+ERC165).sol\":7809:7824  _tokenApprovals */\n      0x02\n        /* \"ERC721(NFT+ERC165).sol\":7809:7833  _tokenApprovals[tokenId] */\n      0x00\n        /* \"ERC721(NFT+ERC165).sol\":7825:7832  tokenId */\n      dup5\n        /* \"ERC721(NFT+ERC165).sol\":7809:7833  _tokenApprovals[tokenId] */\n      dup2\n      mstore\n      0x20\n      add\n      swap1\n      dup2\n      mstore\n      0x20\n      add\n      0x00\n      keccak256\n      0x00\n      swap1\n      sload\n      swap1\n      0x0100\n      exp\n      swap1\n      div\n      0xffffffffffffffffffffffffffffffffffffffff\n      and\n        /* \"ERC721(NFT+ERC165).sol\":7802:7833  return _tokenApprovals[tokenId] */\n      swap2\n      pop\n      pop\n        /* \"ERC721(NFT+ERC165).sol\":7504:7841  function getApproved(uint256 tokenId) public view returns(address) {... */\n      swap2\n      swap1\n      pop\n      jump\t// out\n        /* \"ERC721(NFT+ERC165).sol\":6805:7498  function approve(address to, uint256 tokenId) public {... */\n    tag_37:\n        /* \"ERC721(NFT+ERC165).sol\":6869:6882  address owner */\n      0x00\n        /* \"ERC721(NFT+ERC165).sol\":6885:6892  _owners */\n      0x01\n        /* \"ERC721(NFT+ERC165).sol\":6885:6901  _owners[tokenId] */\n      0x00\n        /* \"ERC721(NFT+ERC165).sol\":6893:6900  tokenId */\n      dup4\n        /* \"ERC721(NFT+ERC165).sol\":6885:6901  _owners[tokenId] */\n      dup2\n      mstore\n      0x20\n      add\n      swap1\n      dup2\n      mstore\n      0x20\n      add\n      0x00\n      keccak256\n      0x00\n      swap1\n      sload\n      swap1\n      0x0100\n      exp\n      swap1\n      div\n      0xffffffffffffffffffffffffffffffffffffffff\n      and\n        /* \"ERC721(NFT+ERC165).sol\":6869:6901  address owner = _owners[tokenId] */\n      swap1\n      pop\n        /* \"ERC721(NFT+ERC165).sol\":6996:6997  0 */\n      0x00\n        /* \"ERC721(NFT+ERC165).sol\":6979:6998  owner != address(0) */\n      0xffffffffffffffffffffffffffffffffffffffff\n      and\n        /* \"ERC721(NFT+ERC165).sol\":6979:6984  owner */\n      dup2\n        /* \"ERC721(NFT+ERC165).sol\":6979:6998  owner != address(0) */\n      0xffffffffffffffffffffffffffffffffffffffff\n      and\n      sub\n        /* \"ERC721(NFT+ERC165).sol\":6971:7051  require(owner != address(0), \"ERROR: token has not been mint or has been burn.\") */\n      tag_110\n      jumpi\n      mload(0x40)\n      0x08c379a000000000000000000000000000000000000000000000000000000000\n      dup2\n      mstore\n      0x04\n      add\n      tag_111\n      swap1\n      tag_108\n      jump\t// in\n    tag_111:\n      mload(0x40)\n      dup1\n      swap2\n      sub\n      swap1\n      revert\n    tag_110:\n        /* \"ERC721(NFT+ERC165).sol\":7196:7206  msg.sender */\n      caller\n        /* \"ERC721(NFT+ERC165).sol\":7187:7206  owner == msg.sender */\n      0xffffffffffffffffffffffffffffffffffffffff\n      and\n        /* \"ERC721(NFT+ERC165).sol\":7187:7192  owner */\n      dup2\n        /* \"ERC721(NFT+ERC165).sol\":7187:7206  owner == msg.sender */\n      0xffffffffffffffffffffffffffffffffffffffff\n      and\n      eq\n        /* \"ERC721(NFT+ERC165).sol\":7187:7245  owner == msg.sender || isApprovedForAll(owner, msg.sender) */\n      dup1\n      tag_112\n      jumpi\n      pop\n        /* \"ERC721(NFT+ERC165).sol\":7210:7245  isApprovedForAll(owner, msg.sender) */\n      tag_113\n        /* \"ERC721(NFT+ERC165).sol\":7227:7232  owner */\n      dup2\n        /* \"ERC721(NFT+ERC165).sol\":7234:7244  msg.sender */\n      caller\n        /* \"ERC721(NFT+ERC165).sol\":7210:7226  isApprovedForAll */\n      tag_96\n        /* \"ERC721(NFT+ERC165).sol\":7210:7245  isApprovedForAll(owner, msg.sender) */\n      jump\t// in\n    tag_113:\n        /* \"ERC721(NFT+ERC165).sol\":7187:7245  owner == msg.sender || isApprovedForAll(owner, msg.sender) */\n    tag_112:\n        /* \"ERC721(NFT+ERC165).sol\":7187:7283  owner == msg.sender || isApprovedForAll(owner, msg.sender) || getApproved(tokenId) == msg.sender */\n      dup1\n      tag_114\n      jumpi\n      pop\n        /* \"ERC721(NFT+ERC165).sol\":7273:7283  msg.sender */\n      caller\n        /* \"ERC721(NFT+ERC165).sol\":7249:7283  getApproved(tokenId) == msg.sender */\n      0xffffffffffffffffffffffffffffffffffffffff\n      and\n        /* \"ERC721(NFT+ERC165).sol\":7249:7269  getApproved(tokenId) */\n      tag_115\n        /* \"ERC721(NFT+ERC165).sol\":7261:7268  tokenId */\n      dup4\n        /* \"ERC721(NFT+ERC165).sol\":7249:7260  getApproved */\n      tag_31\n        /* \"ERC721(NFT+ERC165).sol\":7249:7269  getApproved(tokenId) */\n      jump\t// in\n    tag_115:\n        /* \"ERC721(NFT+ERC165).sol\":7249:7283  getApproved(tokenId) == msg.sender */\n      0xffffffffffffffffffffffffffffffffffffffff\n      and\n      eq\n        /* \"ERC721(NFT+ERC165).sol\":7187:7283  owner == msg.sender || isApprovedForAll(owner, msg.sender) || getApproved(tokenId) == msg.sender */\n    tag_114:\n        /* \"ERC721(NFT+ERC165).sol\":7179:7339  require(owner == msg.sender || isApprovedForAll(owner, msg.sender) || getApproved(tokenId) == msg.sender, \"ERROR: Msg.sender is not owner or being authorized.\") */\n      tag_116\n      jumpi\n      mload(0x40)\n      0x08c379a000000000000000000000000000000000000000000000000000000000\n      dup2\n      mstore\n      0x04\n      add\n      tag_117\n      swap1\n      tag_118\n      jump\t// in\n    tag_117:\n      mload(0x40)\n      dup1\n      swap2\n      sub\n      swap1\n      revert\n    tag_116:\n        /* \"ERC721(NFT+ERC165).sol\":7411:7413  to */\n      dup3\n        /* \"ERC721(NFT+ERC165).sol\":7384:7399  _tokenApprovals */\n      0x02\n        /* \"ERC721(NFT+ERC165).sol\":7384:7408  _tokenApprovals[tokenId] */\n      0x00\n        /* \"ERC721(NFT+ERC165).sol\":7400:7407  tokenId */\n      dup5\n        /* \"ERC721(NFT+ERC165).sol\":7384:7408  _tokenApprovals[tokenId] */\n      dup2\n      mstore\n      0x20\n      add\n      swap1\n      dup2\n      mstore\n      0x20\n      add\n      0x00\n      keccak256\n      0x00\n        /* \"ERC721(NFT+ERC165).sol\":7384:7413  _tokenApprovals[tokenId] = to */\n      0x0100\n      exp\n      dup2\n      sload\n      dup2\n      0xffffffffffffffffffffffffffffffffffffffff\n      mul\n      not\n      and\n      swap1\n      dup4\n      0xffffffffffffffffffffffffffffffffffffffff\n      and\n      mul\n      or\n      swap1\n      sstore\n      pop\n        /* \"ERC721(NFT+ERC165).sol\":7478:7480  to */\n      dup3\n        /* \"ERC721(NFT+ERC165).sol\":7462:7490  Approval(owner, to, tokenId) */\n      0xffffffffffffffffffffffffffffffffffffffff\n      and\n        /* \"ERC721(NFT+ERC165).sol\":7471:7476  owner */\n      dup2\n        /* \"ERC721(NFT+ERC165).sol\":7462:7490  Approval(owner, to, tokenId) */\n      0xffffffffffffffffffffffffffffffffffffffff\n      and\n      0x8c5be1e5ebec7d5bd14f71427d1e84f3dd0314c0f7b2291e5b200ac8c7c3b925\n        /* \"ERC721(NFT+ERC165).sol\":7482:7489  tokenId */\n      dup5\n        /* \"ERC721(NFT+ERC165).sol\":7462:7490  Approval(owner, to, tokenId) */\n      mload(0x40)\n      tag_119\n      swap2\n      swap1\n      tag_64\n      jump\t// in\n    tag_119:\n      mload(0x40)\n      dup1\n      swap2\n      sub\n      swap1\n      log3\n        /* \"ERC721(NFT+ERC165).sol\":6858:7498  {... */\n      pop\n        /* \"ERC721(NFT+ERC165).sol\":6805:7498  function approve(address to, uint256 tokenId) public {... */\n      pop\n      pop\n      jump\t// out\n        /* \"ERC721(NFT+ERC165).sol\":6101:6363  function setTokenURI(uint256 tokenId, string memory URI) public {... */\n    tag_41:\n        /* \"ERC721(NFT+ERC165).sol\":6216:6229  address owner */\n      0x00\n        /* \"ERC721(NFT+ERC165).sol\":6232:6239  _owners */\n      0x01\n        /* \"ERC721(NFT+ERC165).sol\":6232:6248  _owners[tokenId] */\n      0x00\n        /* \"ERC721(NFT+ERC165).sol\":6240:6247  tokenId */\n      dup5\n        /* \"ERC721(NFT+ERC165).sol\":6232:6248  _owners[tokenId] */\n      dup2\n      mstore\n      0x20\n      add\n      swap1\n      dup2\n      mstore\n      0x20\n      add\n      0x00\n      keccak256\n      0x00\n      swap1\n      sload\n      swap1\n      0x0100\n      exp\n      swap1\n      div\n      0xffffffffffffffffffffffffffffffffffffffff\n      and\n        /* \"ERC721(NFT+ERC165).sol\":6216:6248  address owner = _owners[tokenId] */\n      swap1\n      pop\n        /* \"ERC721(NFT+ERC165).sol\":6284:6285  0 */\n      0x00\n        /* \"ERC721(NFT+ERC165).sol\":6267:6286  owner != address(0) */\n      0xffffffffffffffffffffffffffffffffffffffff\n      and\n        /* \"ERC721(NFT+ERC165).sol\":6267:6272  owner */\n      dup2\n        /* \"ERC721(NFT+ERC165).sol\":6267:6286  owner != address(0) */\n      0xffffffffffffffffffffffffffffffffffffffff\n      and\n      sub\n        /* \"ERC721(NFT+ERC165).sol\":6259:6319  require(owner != address(0), \"ERROR: Token Id is not valid\") */\n      tag_121\n      jumpi\n      mload(0x40)\n      0x08c379a000000000000000000000000000000000000000000000000000000000\n      dup2\n      mstore\n      0x04\n      add\n      tag_122\n      swap1\n      tag_123\n      jump\t// in\n    tag_122:\n      mload(0x40)\n      dup1\n      swap2\n      sub\n      swap1\n      revert\n    tag_121:\n        /* \"ERC721(NFT+ERC165).sol\":6352:6355  URI */\n      dup2\n        /* \"ERC721(NFT+ERC165).sol\":6330:6340  _tokenURIs */\n      0x06\n        /* \"ERC721(NFT+ERC165).sol\":6330:6349  _tokenURIs[tokenId] */\n      0x00\n        /* \"ERC721(NFT+ERC165).sol\":6341:6348  tokenId */\n      dup6\n        /* \"ERC721(NFT+ERC165).sol\":6330:6349  _tokenURIs[tokenId] */\n      dup2\n      mstore\n      0x20\n      add\n      swap1\n      dup2\n      mstore\n      0x20\n      add\n      0x00\n      keccak256\n        /* \"ERC721(NFT+ERC165).sol\":6330:6355  _tokenURIs[tokenId] = URI */\n      swap1\n      dup2\n      tag_124\n      swap2\n      swap1\n      tag_125\n      jump\t// in\n    tag_124:\n      pop\n        /* \"ERC721(NFT+ERC165).sol\":6165:6363  {... */\n      pop\n        /* \"ERC721(NFT+ERC165).sol\":6101:6363  function setTokenURI(uint256 tokenId, string memory URI) public {... */\n      pop\n      pop\n      jump\t// out\n        /* \"ERC721(NFT+ERC165).sol\":9285:9404  function transferFrom(address from, address to, uint256 tokenId) public {... */\n    tag_45:\n        /* \"ERC721(NFT+ERC165).sol\":9368:9396  _transfer(from, to, tokenId) */\n      tag_127\n        /* \"ERC721(NFT+ERC165).sol\":9378:9382  from */\n      dup4\n        /* \"ERC721(NFT+ERC165).sol\":9384:9386  to */\n      dup4\n        /* \"ERC721(NFT+ERC165).sol\":9388:9395  tokenId */\n      dup4\n        /* \"ERC721(NFT+ERC165).sol\":9368:9377  _transfer */\n      tag_128\n        /* \"ERC721(NFT+ERC165).sol\":9368:9396  _transfer(from, to, tokenId) */\n      jump\t// in\n    tag_127:\n        /* \"ERC721(NFT+ERC165).sol\":9285:9404  function transferFrom(address from, address to, uint256 tokenId) public {... */\n      pop\n      pop\n      pop\n      jump\t// out\n        /* \"ERC721(NFT+ERC165).sol\":11659:12081  function mint(address to, uint256 tokenId) public {... */\n    tag_48:\n        /* \"ERC721(NFT+ERC165).sol\":11742:11743  0 */\n      0x00\n        /* \"ERC721(NFT+ERC165).sol\":11728:11744  to != address(0) */\n      0xffffffffffffffffffffffffffffffffffffffff\n      and\n        /* \"ERC721(NFT+ERC165).sol\":11728:11730  to */\n      dup3\n        /* \"ERC721(NFT+ERC165).sol\":11728:11744  to != address(0) */\n      0xffffffffffffffffffffffffffffffffffffffff\n      and\n      sub\n        /* \"ERC721(NFT+ERC165).sol\":11720:11773  require(to != address(0), \"ERROR: Mint to address 0\") */\n      tag_130\n      jumpi\n      mload(0x40)\n      0x08c379a000000000000000000000000000000000000000000000000000000000\n      dup2\n      mstore\n      0x04\n      add\n      tag_131\n      swap1\n      tag_132\n      jump\t// in\n    tag_131:\n      mload(0x40)\n      dup1\n      swap2\n      sub\n      swap1\n      revert\n    tag_130:\n        /* \"ERC721(NFT+ERC165).sol\":11784:11797  address owner */\n      0x00\n        /* \"ERC721(NFT+ERC165).sol\":11800:11807  _owners */\n      0x01\n        /* \"ERC721(NFT+ERC165).sol\":11800:11816  _owners[tokenId] */\n      0x00\n        /* \"ERC721(NFT+ERC165).sol\":11808:11815  tokenId */\n      dup4\n        /* \"ERC721(NFT+ERC165).sol\":11800:11816  _owners[tokenId] */\n      dup2\n      mstore\n      0x20\n      add\n      swap1\n      dup2\n      mstore\n      0x20\n      add\n      0x00\n      keccak256\n      0x00\n      swap1\n      sload\n      swap1\n      0x0100\n      exp\n      swap1\n      div\n      0xffffffffffffffffffffffffffffffffffffffff\n      and\n        /* \"ERC721(NFT+ERC165).sol\":11784:11816  address owner = _owners[tokenId] */\n      swap1\n      pop\n        /* \"ERC721(NFT+ERC165).sol\":11921:11922  0 */\n      0x00\n        /* \"ERC721(NFT+ERC165).sol\":11904:11923  owner == address(0) */\n      0xffffffffffffffffffffffffffffffffffffffff\n      and\n        /* \"ERC721(NFT+ERC165).sol\":11904:11909  owner */\n      dup2\n        /* \"ERC721(NFT+ERC165).sol\":11904:11923  owner == address(0) */\n      0xffffffffffffffffffffffffffffffffffffffff\n      and\n      eq\n        /* \"ERC721(NFT+ERC165).sol\":11896:11963  require(owner == address(0), \"ERROR: tokenId has already existed.\") */\n      tag_133\n      jumpi\n      mload(0x40)\n      0x08c379a000000000000000000000000000000000000000000000000000000000\n      dup2\n      mstore\n      0x04\n      add\n      tag_134\n      swap1\n      tag_135\n      jump\t// in\n    tag_134:\n      mload(0x40)\n      dup1\n      swap2\n      sub\n      swap1\n      revert\n    tag_133:\n        /* \"ERC721(NFT+ERC165).sol\":11991:11992  1 */\n      0x01\n        /* \"ERC721(NFT+ERC165).sol\":11974:11983  _balances */\n      0x00\n        /* \"ERC721(NFT+ERC165).sol\":11974:11987  _balances[to] */\n      dup1\n        /* \"ERC721(NFT+ERC165).sol\":11984:11986  to */\n      dup6\n        /* \"ERC721(NFT+ERC165).sol\":11974:11987  _balances[to] */\n      0xffffffffffffffffffffffffffffffffffffffff\n      and\n      0xffffffffffffffffffffffffffffffffffffffff\n      and\n      dup2\n      mstore\n      0x20\n      add\n      swap1\n      dup2\n      mstore\n      0x20\n      add\n      0x00\n      keccak256\n      0x00\n        /* \"ERC721(NFT+ERC165).sol\":11974:11992  _balances[to] += 1 */\n      dup3\n      dup3\n      sload\n      tag_136\n      swap2\n      swap1\n      tag_137\n      jump\t// in\n    tag_136:\n      swap3\n      pop\n      pop\n      dup2\n      swap1\n      sstore\n      pop\n        /* \"ERC721(NFT+ERC165).sol\":12022:12024  to */\n      dup3\n        /* \"ERC721(NFT+ERC165).sol\":12003:12010  _owners */\n      0x01\n        /* \"ERC721(NFT+ERC165).sol\":12003:12019  _owners[tokenId] */\n      0x00\n        /* \"ERC721(NFT+ERC165).sol\":12011:12018  tokenId */\n      dup5\n        /* \"ERC721(NFT+ERC165).sol\":12003:12019  _owners[tokenId] */\n      dup2\n      mstore\n      0x20\n      add\n      swap1\n      dup2\n      mstore\n      0x20\n      add\n      0x00\n      keccak256\n      0x00\n        /* \"ERC721(NFT+ERC165).sol\":12003:12024  _owners[tokenId] = to */\n      0x0100\n      exp\n      dup2\n      sload\n      dup2\n      0xffffffffffffffffffffffffffffffffffffffff\n      mul\n      not\n      and\n      swap1\n      dup4\n      0xffffffffffffffffffffffffffffffffffffffff\n      and\n      mul\n      or\n      swap1\n      sstore\n      pop\n        /* \"ERC721(NFT+ERC165).sol\":12061:12063  to */\n      dup3\n        /* \"ERC721(NFT+ERC165).sol\":12040:12073  Transfer(address(0), to, tokenId) */\n      0xffffffffffffffffffffffffffffffffffffffff\n      and\n        /* \"ERC721(NFT+ERC165).sol\":12057:12058  0 */\n      0x00\n        /* \"ERC721(NFT+ERC165).sol\":12040:12073  Transfer(address(0), to, tokenId) */\n      0xffffffffffffffffffffffffffffffffffffffff\n      and\n      0xddf252ad1be2c89b69c2b068fc378daa952ba7f163c4a11628f55a4df523b3ef\n        /* \"ERC721(NFT+ERC165).sol\":12065:12072  tokenId */\n      dup5\n        /* \"ERC721(NFT+ERC165).sol\":12040:12073  Transfer(address(0), to, tokenId) */\n      mload(0x40)\n      tag_138\n      swap2\n      swap1\n      tag_64\n      jump\t// in\n    tag_138:\n      mload(0x40)\n      dup1\n      swap2\n      sub\n      swap1\n      log3\n        /* \"ERC721(NFT+ERC165).sol\":11709:12081  {... */\n      pop\n        /* \"ERC721(NFT+ERC165).sol\":11659:12081  function mint(address to, uint256 tokenId) public {... */\n      pop\n      pop\n      jump\t// out\n        /* \"ERC721(NFT+ERC165).sol\":9985:10217  function safeTransferFrom(address from, address to, uint256 tokenId) public {... */\n    tag_51:\n        /* \"ERC721(NFT+ERC165).sol\":10173:10209  _safeTransfer(from, to, tokenId, \"\") */\n      tag_140\n        /* \"ERC721(NFT+ERC165).sol\":10187:10191  from */\n      dup4\n        /* \"ERC721(NFT+ERC165).sol\":10193:10195  to */\n      dup4\n        /* \"ERC721(NFT+ERC165).sol\":10197:10204  tokenId */\n      dup4\n        /* \"ERC721(NFT+ERC165).sol\":10173:10209  _safeTransfer(from, to, tokenId, \"\") */\n      mload(0x40)\n      dup1\n      0x20\n      add\n      0x40\n      mstore\n      dup1\n      0x00\n      dup2\n      mstore\n      pop\n        /* \"ERC721(NFT+ERC165).sol\":10173:10186  _safeTransfer */\n      tag_141\n        /* \"ERC721(NFT+ERC165).sol\":10173:10209  _safeTransfer(from, to, tokenId, \"\") */\n      jump\t// in\n    tag_140:\n        /* \"ERC721(NFT+ERC165).sol\":9985:10217  function safeTransferFrom(address from, address to, uint256 tokenId) public {... */\n      pop\n      pop\n      pop\n      jump\t// out\n        /* \"ERC721(NFT+ERC165).sol\":12420:12880  function burn(uint256 tokenId) public{... */\n    tag_54:\n        /* \"ERC721(NFT+ERC165).sol\":12468:12481  address owner */\n      0x00\n        /* \"ERC721(NFT+ERC165).sol\":12484:12491  _owners */\n      0x01\n        /* \"ERC721(NFT+ERC165).sol\":12484:12500  _owners[tokenId] */\n      0x00\n        /* \"ERC721(NFT+ERC165).sol\":12492:12499  tokenId */\n      dup4\n        /* \"ERC721(NFT+ERC165).sol\":12484:12500  _owners[tokenId] */\n      dup2\n      mstore\n      0x20\n      add\n      swap1\n      dup2\n      mstore\n      0x20\n      add\n      0x00\n      keccak256\n      0x00\n      swap1\n      sload\n      swap1\n      0x0100\n      exp\n      swap1\n      div\n      0xffffffffffffffffffffffffffffffffffffffff\n      and\n        /* \"ERC721(NFT+ERC165).sol\":12468:12500  address owner = _owners[tokenId] */\n      swap1\n      pop\n        /* \"ERC721(NFT+ERC165).sol\":12533:12538  owner */\n      dup1\n        /* \"ERC721(NFT+ERC165).sol\":12519:12538  msg.sender == owner */\n      0xffffffffffffffffffffffffffffffffffffffff\n      and\n        /* \"ERC721(NFT+ERC165).sol\":12519:12529  msg.sender */\n      caller\n        /* \"ERC721(NFT+ERC165).sol\":12519:12538  msg.sender == owner */\n      0xffffffffffffffffffffffffffffffffffffffff\n      and\n      eq\n        /* \"ERC721(NFT+ERC165).sol\":12511:12568  require(msg.sender == owner, \"Only NTF's owner can burn\") */\n      tag_143\n      jumpi\n      mload(0x40)\n      0x08c379a000000000000000000000000000000000000000000000000000000000\n      dup2\n      mstore\n      0x04\n      add\n      tag_144\n      swap1\n      tag_145\n      jump\t// in\n    tag_144:\n      mload(0x40)\n      dup1\n      swap2\n      sub\n      swap1\n      revert\n    tag_143:\n        /* \"ERC721(NFT+ERC165).sol\":12599:12600  1 */\n      0x01\n        /* \"ERC721(NFT+ERC165).sol\":12579:12588  _balances */\n      0x00\n        /* \"ERC721(NFT+ERC165).sol\":12579:12595  _balances[owner] */\n      dup1\n        /* \"ERC721(NFT+ERC165).sol\":12589:12594  owner */\n      dup4\n        /* \"ERC721(NFT+ERC165).sol\":12579:12595  _balances[owner] */\n      0xffffffffffffffffffffffffffffffffffffffff\n      and\n      0xffffffffffffffffffffffffffffffffffffffff\n      and\n      dup2\n      mstore\n      0x20\n      add\n      swap1\n      dup2\n      mstore\n      0x20\n      add\n      0x00\n      keccak256\n      0x00\n        /* \"ERC721(NFT+ERC165).sol\":12579:12600  _balances[owner] -= 1 */\n      dup3\n      dup3\n      sload\n      tag_146\n      swap2\n      swap1\n      tag_147\n      jump\t// in\n    tag_146:\n      swap3\n      pop\n      pop\n      dup2\n      swap1\n      sstore\n      pop\n        /* \"ERC721(NFT+ERC165).sol\":12692:12699  _owners */\n      0x01\n        /* \"ERC721(NFT+ERC165).sol\":12692:12708  _owners[tokenId] */\n      0x00\n        /* \"ERC721(NFT+ERC165).sol\":12700:12707  tokenId */\n      dup4\n        /* \"ERC721(NFT+ERC165).sol\":12692:12708  _owners[tokenId] */\n      dup2\n      mstore\n      0x20\n      add\n      swap1\n      dup2\n      mstore\n      0x20\n      add\n      0x00\n      keccak256\n      0x00\n        /* \"ERC721(NFT+ERC165).sol\":12685:12708  delete _owners[tokenId] */\n      0x0100\n      exp\n      dup2\n      sload\n      swap1\n      0xffffffffffffffffffffffffffffffffffffffff\n      mul\n      not\n      and\n      swap1\n      sstore\n        /* \"ERC721(NFT+ERC165).sol\":12796:12811  _tokenApprovals */\n      0x02\n        /* \"ERC721(NFT+ERC165).sol\":12796:12820  _tokenApprovals[tokenId] */\n      0x00\n        /* \"ERC721(NFT+ERC165).sol\":12812:12819  tokenId */\n      dup4\n        /* \"ERC721(NFT+ERC165).sol\":12796:12820  _tokenApprovals[tokenId] */\n      dup2\n      mstore\n      0x20\n      add\n      swap1\n      dup2\n      mstore\n      0x20\n      add\n      0x00\n      keccak256\n      0x00\n        /* \"ERC721(NFT+ERC165).sol\":12789:12820  delete _tokenApprovals[tokenId] */\n      0x0100\n      exp\n      dup2\n      sload\n      swap1\n      0xffffffffffffffffffffffffffffffffffffffff\n      mul\n      not\n      and\n      swap1\n      sstore\n        /* \"ERC721(NFT+ERC165).sol\":12860:12861  0 */\n      0x00\n        /* \"ERC721(NFT+ERC165).sol\":12836:12872  Transfer(owner, address(0), tokenId) */\n      0xffffffffffffffffffffffffffffffffffffffff\n      and\n        /* \"ERC721(NFT+ERC165).sol\":12845:12850  owner */\n      dup2\n        /* \"ERC721(NFT+ERC165).sol\":12836:12872  Transfer(owner, address(0), tokenId) */\n      0xffffffffffffffffffffffffffffffffffffffff\n      and\n      0xddf252ad1be2c89b69c2b068fc378daa952ba7f163c4a11628f55a4df523b3ef\n        /* \"ERC721(NFT+ERC165).sol\":12864:12871  tokenId */\n      dup5\n        /* \"ERC721(NFT+ERC165).sol\":12836:12872  Transfer(owner, address(0), tokenId) */\n      mload(0x40)\n      tag_148\n      swap2\n      swap1\n      tag_64\n      jump\t// in\n    tag_148:\n      mload(0x40)\n      dup1\n      swap2\n      sub\n      swap1\n      log3\n        /* \"ERC721(NFT+ERC165).sol\":12457:12880  {... */\n      pop\n        /* \"ERC721(NFT+ERC165).sol\":12420:12880  function burn(uint256 tokenId) public{... */\n      pop\n      jump\t// out\n        /* \"ERC721(NFT+ERC165).sol\":6571:6799  function ownerOf(uint256 tokenId) public view returns(address) {... */\n    tag_57:\n        /* \"ERC721(NFT+ERC165).sol\":6625:6632  address */\n      0x00\n        /* \"ERC721(NFT+ERC165).sol\":6645:6658  address owner */\n      dup1\n        /* \"ERC721(NFT+ERC165).sol\":6661:6668  _owners */\n      0x01\n        /* \"ERC721(NFT+ERC165).sol\":6661:6677  _owners[tokenId] */\n      0x00\n        /* \"ERC721(NFT+ERC165).sol\":6669:6676  tokenId */\n      dup5\n        /* \"ERC721(NFT+ERC165).sol\":6661:6677  _owners[tokenId] */\n      dup2\n      mstore\n      0x20\n      add\n      swap1\n      dup2\n      mstore\n      0x20\n      add\n      0x00\n      keccak256\n      0x00\n      swap1\n      sload\n      swap1\n      0x0100\n      exp\n      swap1\n      div\n      0xffffffffffffffffffffffffffffffffffffffff\n      and\n        /* \"ERC721(NFT+ERC165).sol\":6645:6677  address owner = _owners[tokenId] */\n      swap1\n      pop\n        /* \"ERC721(NFT+ERC165).sol\":6713:6714  0 */\n      0x00\n        /* \"ERC721(NFT+ERC165).sol\":6696:6715  owner != address(0) */\n      0xffffffffffffffffffffffffffffffffffffffff\n      and\n        /* \"ERC721(NFT+ERC165).sol\":6696:6701  owner */\n      dup2\n        /* \"ERC721(NFT+ERC165).sol\":6696:6715  owner != address(0) */\n      0xffffffffffffffffffffffffffffffffffffffff\n      and\n      sub\n        /* \"ERC721(NFT+ERC165).sol\":6688:6768  require(owner != address(0), \"ERROR: token has not been mint or has been burn.\") */\n      tag_150\n      jumpi\n      mload(0x40)\n      0x08c379a000000000000000000000000000000000000000000000000000000000\n      dup2\n      mstore\n      0x04\n      add\n      tag_151\n      swap1\n      tag_108\n      jump\t// in\n    tag_151:\n      mload(0x40)\n      dup1\n      swap2\n      sub\n      swap1\n      revert\n    tag_150:\n        /* \"ERC721(NFT+ERC165).sol\":6786:6791  owner */\n      dup1\n        /* \"ERC721(NFT+ERC165).sol\":6779:6791  return owner */\n      swap2\n      pop\n      pop\n        /* \"ERC721(NFT+ERC165).sol\":6571:6799  function ownerOf(uint256 tokenId) public view returns(address) {... */\n      swap2\n      swap1\n      pop\n      jump\t// out\n        /* \"ERC721(NFT+ERC165).sol\":6369:6565  function balanceOf(address owner) public view returns(uint256) {... */\n    tag_62:\n        /* \"ERC721(NFT+ERC165).sol\":6423:6430  uint256 */\n      0x00\n        /* \"ERC721(NFT+ERC165).sol\":6468:6469  0 */\n      dup1\n        /* \"ERC721(NFT+ERC165).sol\":6451:6470  owner != address(0) */\n      0xffffffffffffffffffffffffffffffffffffffff\n      and\n        /* \"ERC721(NFT+ERC165).sol\":6451:6456  owner */\n      dup3\n        /* \"ERC721(NFT+ERC165).sol\":6451:6470  owner != address(0) */\n      0xffffffffffffffffffffffffffffffffffffffff\n      and\n      sub\n        /* \"ERC721(NFT+ERC165).sol\":6443:6523  require(owner != address(0), \"ERROR: token has not been mint or has been burn.\") */\n      tag_153\n      jumpi\n      mload(0x40)\n      0x08c379a000000000000000000000000000000000000000000000000000000000\n      dup2\n      mstore\n      0x04\n      add\n      tag_154\n      swap1\n      tag_108\n      jump\t// in\n    tag_154:\n      mload(0x40)\n      dup1\n      swap2\n      sub\n      swap1\n      revert\n    tag_153:\n        /* \"ERC721(NFT+ERC165).sol\":6541:6550  _balances */\n      0x00\n        /* \"ERC721(NFT+ERC165).sol\":6541:6557  _balances[owner] */\n      dup1\n        /* \"ERC721(NFT+ERC165).sol\":6551:6556  owner */\n      dup4\n        /* \"ERC721(NFT+ERC165).sol\":6541:6557  _balances[owner] */\n      0xffffffffffffffffffffffffffffffffffffffff\n      and\n      0xffffffffffffffffffffffffffffffffffffffff\n      and\n      dup2\n      mstore\n      0x20\n      add\n      swap1\n      dup2\n      mstore\n      0x20\n      add\n      0x00\n      keccak256\n      sload\n        /* \"ERC721(NFT+ERC165).sol\":6534:6557  return _balances[owner] */\n      swap1\n      pop\n        /* \"ERC721(NFT+ERC165).sol\":6369:6565  function balanceOf(address owner) public view returns(uint256) {... */\n      swap2\n      swap1\n      pop\n      jump\t// out\n        /* \"ERC721(NFT+ERC165).sol\":12938:13276  function supportInterface(bytes4 interfaceId) public pure returns(bool) {... */\n    tag_68:\n        /* \"ERC721(NFT+ERC165).sol\":13004:13008  bool */\n      0x00\n        /* \"ERC721(NFT+ERC165).sol\":13121:13146  type(IERC721).interfaceId */\n      0x80ac58cd00000000000000000000000000000000000000000000000000000000\n        /* \"ERC721(NFT+ERC165).sol\":13106:13146  interfaceId == type(IERC721).interfaceId */\n      not(0xffffffffffffffffffffffffffffffffffffffffffffffffffffffff)\n      and\n        /* \"ERC721(NFT+ERC165).sol\":13106:13117  interfaceId */\n      dup3\n        /* \"ERC721(NFT+ERC165).sol\":13106:13146  interfaceId == type(IERC721).interfaceId */\n      not(0xffffffffffffffffffffffffffffffffffffffffffffffffffffffff)\n      and\n      eq\n        /* \"ERC721(NFT+ERC165).sol\":13106:13211  interfaceId == type(IERC721).interfaceId ||... */\n      dup1\n      tag_156\n      jumpi\n      pop\n        /* \"ERC721(NFT+ERC165).sol\":13178:13211  type(IERC721Metadata).interfaceId */\n      0x5b5e139f00000000000000000000000000000000000000000000000000000000\n        /* \"ERC721(NFT+ERC165).sol\":13163:13211  interfaceId == type(IERC721Metadata).interfaceId */\n      not(0xffffffffffffffffffffffffffffffffffffffffffffffffffffffff)\n      and\n        /* \"ERC721(NFT+ERC165).sol\":13163:13174  interfaceId */\n      dup3\n        /* \"ERC721(NFT+ERC165).sol\":13163:13211  interfaceId == type(IERC721Metadata).interfaceId */\n      not(0xffffffffffffffffffffffffffffffffffffffffffffffffffffffff)\n      and\n      eq\n        /* \"ERC721(NFT+ERC165).sol\":13106:13211  interfaceId == type(IERC721).interfaceId ||... */\n    tag_156:\n        /* \"ERC721(NFT+ERC165).sol\":13106:13268  interfaceId == type(IERC721).interfaceId ||... */\n      dup1\n      tag_157\n      jumpi\n      pop\n        /* \"ERC721(NFT+ERC165).sol\":13243:13268  type(IERC165).interfaceId */\n      0x75e79be600000000000000000000000000000000000000000000000000000000\n        /* \"ERC721(NFT+ERC165).sol\":13228:13268  interfaceId == type(IERC165).interfaceId */\n      not(0xffffffffffffffffffffffffffffffffffffffffffffffffffffffff)\n      and\n        /* \"ERC721(NFT+ERC165).sol\":13228:13239  interfaceId */\n      dup3\n        /* \"ERC721(NFT+ERC165).sol\":13228:13268  interfaceId == type(IERC165).interfaceId */\n      not(0xffffffffffffffffffffffffffffffffffffffffffffffffffffffff)\n      and\n      eq\n        /* \"ERC721(NFT+ERC165).sol\":13106:13268  interfaceId == type(IERC721).interfaceId ||... */\n    tag_157:\n        /* \"ERC721(NFT+ERC165).sol\":13099:13268  return interfaceId == type(IERC721).interfaceId ||... */\n      swap1\n      pop\n        /* \"ERC721(NFT+ERC165).sol\":12938:13276  function supportInterface(bytes4 interfaceId) public pure returns(bool) {... */\n      swap2\n      swap1\n      pop\n      jump\t// out\n        /* \"ERC721(NFT+ERC165).sol\":12087:12310  function safeMint(address to, uint256 tokenId, bytes memory data) public {... */\n    tag_74:\n        /* \"ERC721(NFT+ERC165).sol\":12171:12188  mint(to, tokenId) */\n      tag_159\n        /* \"ERC721(NFT+ERC165).sol\":12176:12178  to */\n      dup4\n        /* \"ERC721(NFT+ERC165).sol\":12180:12187  tokenId */\n      dup4\n        /* \"ERC721(NFT+ERC165).sol\":12171:12175  mint */\n      tag_48\n        /* \"ERC721(NFT+ERC165).sol\":12171:12188  mint(to, tokenId) */\n      jump\t// in\n    tag_159:\n        /* \"ERC721(NFT+ERC165).sol\":12207:12260  _checkOnERC721Received(address(0), to, tokenId, data) */\n      tag_160\n        /* \"ERC721(NFT+ERC165).sol\":12238:12239  0 */\n      0x00\n        /* \"ERC721(NFT+ERC165).sol\":12242:12244  to */\n      dup5\n        /* \"ERC721(NFT+ERC165).sol\":12246:12253  tokenId */\n      dup5\n        /* \"ERC721(NFT+ERC165).sol\":12255:12259  data */\n      dup5\n        /* \"ERC721(NFT+ERC165).sol\":12207:12229  _checkOnERC721Received */\n      tag_161\n        /* \"ERC721(NFT+ERC165).sol\":12207:12260  _checkOnERC721Received(address(0), to, tokenId, data) */\n      jump\t// in\n    tag_160:\n        /* \"ERC721(NFT+ERC165).sol\":12199:12302  require(_checkOnERC721Received(address(0), to, tokenId, data), \"ERROR: ERCReceiver is not implemented\") */\n      tag_162\n      jumpi\n      mload(0x40)\n      0x08c379a000000000000000000000000000000000000000000000000000000000\n      dup2\n      mstore\n      0x04\n      add\n      tag_163\n      swap1\n      tag_164\n      jump\t// in\n    tag_163:\n      mload(0x40)\n      dup1\n      swap2\n      sub\n      swap1\n      revert\n    tag_162:\n        /* \"ERC721(NFT+ERC165).sol\":12087:12310  function safeMint(address to, uint256 tokenId, bytes memory data) public {... */\n      pop\n      pop\n      pop\n      jump\t// out\n        /* \"ERC721(NFT+ERC165).sol\":5695:5783  function symbol() external view returns(string memory) {... */\n    tag_76:\n        /* \"ERC721(NFT+ERC165).sol\":5735:5748  string memory */\n      0x60\n        /* \"ERC721(NFT+ERC165).sol\":5768:5775  _symbol */\n      0x05\n        /* \"ERC721(NFT+ERC165).sol\":5761:5775  return _symbol */\n      dup1\n      sload\n      tag_166\n      swap1\n      tag_100\n      jump\t// in\n    tag_166:\n      dup1\n      0x1f\n      add\n      0x20\n      dup1\n      swap2\n      div\n      mul\n      0x20\n      add\n      mload(0x40)\n      swap1\n      dup2\n      add\n      0x40\n      mstore\n      dup1\n      swap3\n      swap2\n      swap1\n      dup2\n      dup2\n      mstore\n      0x20\n      add\n      dup3\n      dup1\n      sload\n      tag_167\n      swap1\n      tag_100\n      jump\t// in\n    tag_167:\n      dup1\n      iszero\n      tag_168\n      jumpi\n      dup1\n      0x1f\n      lt\n      tag_169\n      jumpi\n      0x0100\n      dup1\n      dup4\n      sload\n      div\n      mul\n      dup4\n      mstore\n      swap2\n      0x20\n      add\n      swap2\n      jump(tag_168)\n    tag_169:\n      dup3\n      add\n      swap2\n      swap1\n      0x00\n      mstore\n      keccak256(0x00, 0x20)\n      swap1\n    tag_170:\n      dup2\n      sload\n      dup2\n      mstore\n      swap1\n      0x01\n      add\n      swap1\n      0x20\n      add\n      dup1\n      dup4\n      gt\n      tag_170\n      jumpi\n      dup3\n      swap1\n      sub\n      0x1f\n      and\n      dup3\n      add\n      swap2\n    tag_168:\n      pop\n      pop\n      pop\n      pop\n      pop\n      swap1\n      pop\n        /* \"ERC721(NFT+ERC165).sol\":5695:5783  function symbol() external view returns(string memory) {... */\n      swap1\n      jump\t// out\n        /* \"ERC721(NFT+ERC165).sol\":12316:12414  function safeMint(address to, uint256 tokenId) public {... */\n    tag_80:\n        /* \"ERC721(NFT+ERC165).sol\":12381:12406  safeMint(to, tokenId, \"\") */\n      tag_172\n        /* \"ERC721(NFT+ERC165).sol\":12390:12392  to */\n      dup3\n        /* \"ERC721(NFT+ERC165).sol\":12394:12401  tokenId */\n      dup3\n        /* \"ERC721(NFT+ERC165).sol\":12381:12406  safeMint(to, tokenId, \"\") */\n      mload(0x40)\n      dup1\n      0x20\n      add\n      0x40\n      mstore\n      dup1\n      0x00\n      dup2\n      mstore\n      pop\n        /* \"ERC721(NFT+ERC165).sol\":12381:12389  safeMint */\n      tag_74\n        /* \"ERC721(NFT+ERC165).sol\":12381:12406  safeMint(to, tokenId, \"\") */\n      jump\t// in\n    tag_172:\n        /* \"ERC721(NFT+ERC165).sol\":12316:12414  function safeMint(address to, uint256 tokenId) public {... */\n      pop\n      pop\n      jump\t// out\n        /* \"ERC721(NFT+ERC165).sol\":7847:8154  function setApprovalForAll(address operator, bool _approved) public {... */\n    tag_84:\n        /* \"ERC721(NFT+ERC165).sol\":7948:7956  operator */\n      dup2\n        /* \"ERC721(NFT+ERC165).sol\":7934:7956  msg.sender != operator */\n      0xffffffffffffffffffffffffffffffffffffffff\n      and\n        /* \"ERC721(NFT+ERC165).sol\":7934:7944  msg.sender */\n      caller\n        /* \"ERC721(NFT+ERC165).sol\":7934:7956  msg.sender != operator */\n      0xffffffffffffffffffffffffffffffffffffffff\n      and\n      sub\n        /* \"ERC721(NFT+ERC165).sol\":7926:8020  require(msg.sender != operator, \"ERROR: msg.sender shouldn't be the person being authorized.\") */\n      tag_174\n      jumpi\n      mload(0x40)\n      0x08c379a000000000000000000000000000000000000000000000000000000000\n      dup2\n      mstore\n      0x04\n      add\n      tag_175\n      swap1\n      tag_176\n      jump\t// in\n    tag_175:\n      mload(0x40)\n      dup1\n      swap2\n      sub\n      swap1\n      revert\n    tag_174:\n        /* \"ERC721(NFT+ERC165).sol\":8074:8083  _approved */\n      dup1\n        /* \"ERC721(NFT+ERC165).sol\":8031:8049  _operatorApprovals */\n      0x03\n        /* \"ERC721(NFT+ERC165).sol\":8031:8061  _operatorApprovals[msg.sender] */\n      0x00\n        /* \"ERC721(NFT+ERC165).sol\":8050:8060  msg.sender */\n      caller\n        /* \"ERC721(NFT+ERC165).sol\":8031:8061  _operatorApprovals[msg.sender] */\n      0xffffffffffffffffffffffffffffffffffffffff\n      and\n      0xffffffffffffffffffffffffffffffffffffffff\n      and\n      dup2\n      mstore\n      0x20\n      add\n      swap1\n      dup2\n      mstore\n      0x20\n      add\n      0x00\n      keccak256\n        /* \"ERC721(NFT+ERC165).sol\":8031:8071  _operatorApprovals[msg.sender][operator] */\n      0x00\n        /* \"ERC721(NFT+ERC165).sol\":8062:8070  operator */\n      dup5\n        /* \"ERC721(NFT+ERC165).sol\":8031:8071  _operatorApprovals[msg.sender][operator] */\n      0xffffffffffffffffffffffffffffffffffffffff\n      and\n      0xffffffffffffffffffffffffffffffffffffffff\n      and\n      dup2\n      mstore\n      0x20\n      add\n      swap1\n      dup2\n      mstore\n      0x20\n      add\n      0x00\n      keccak256\n      0x00\n        /* \"ERC721(NFT+ERC165).sol\":8031:8083  _operatorApprovals[msg.sender][operator] = _approved */\n      0x0100\n      exp\n      dup2\n      sload\n      dup2\n      0xff\n      mul\n      not\n      and\n      swap1\n      dup4\n      iszero\n      iszero\n      mul\n      or\n      swap1\n      sstore\n      pop\n        /* \"ERC721(NFT+ERC165).sol\":8126:8134  operator */\n      dup2\n        /* \"ERC721(NFT+ERC165).sol\":8099:8146  ApprovalForAll(msg.sender, operator, _approved) */\n      0xffffffffffffffffffffffffffffffffffffffff\n      and\n        /* \"ERC721(NFT+ERC165).sol\":8114:8124  msg.sender */\n      caller\n        /* \"ERC721(NFT+ERC165).sol\":8099:8146  ApprovalForAll(msg.sender, operator, _approved) */\n      0xffffffffffffffffffffffffffffffffffffffff\n      and\n      0x17307eab39ab6107e8899845ad3d59bd9653f200f220920489ca2b5937696c31\n        /* \"ERC721(NFT+ERC165).sol\":8136:8145  _approved */\n      dup4\n        /* \"ERC721(NFT+ERC165).sol\":8099:8146  ApprovalForAll(msg.sender, operator, _approved) */\n      mload(0x40)\n      tag_177\n      swap2\n      swap1\n      tag_70\n      jump\t// in\n    tag_177:\n      mload(0x40)\n      dup1\n      swap2\n      sub\n      swap1\n      log3\n        /* \"ERC721(NFT+ERC165).sol\":7847:8154  function setApprovalForAll(address operator, bool _approved) public {... */\n      pop\n      pop\n      jump\t// out\n        /* \"ERC721(NFT+ERC165).sol\":9744:9897  function safeTransferFrom(address from, address to, uint256 tokenId, bytes calldata data) public {... */\n    tag_88:\n        /* \"ERC721(NFT+ERC165).sol\":9852:9890  _safeTransfer(from, to, tokenId, data) */\n      tag_179\n        /* \"ERC721(NFT+ERC165).sol\":9866:9870  from */\n      dup6\n        /* \"ERC721(NFT+ERC165).sol\":9872:9874  to */\n      dup6\n        /* \"ERC721(NFT+ERC165).sol\":9876:9883  tokenId */\n      dup6\n        /* \"ERC721(NFT+ERC165).sol\":9885:9889  data */\n      dup6\n      dup6\n        /* \"ERC721(NFT+ERC165).sol\":9852:9890  _safeTransfer(from, to, tokenId, data) */\n      dup1\n      dup1\n      0x1f\n      add\n      0x20\n      dup1\n      swap2\n      div\n      mul\n      0x20\n      add\n      mload(0x40)\n      swap1\n      dup2\n      add\n      0x40\n      mstore\n      dup1\n      swap4\n      swap3\n      swap2\n      swap1\n      dup2\n      dup2\n      mstore\n      0x20\n      add\n      dup4\n      dup4\n      dup1\n      dup3\n      dup5\n      calldatacopy\n      0x00\n      dup2\n      dup5\n      add\n      mstore\n      not(0x1f)\n      0x1f\n      dup3\n      add\n      and\n      swap1\n      pop\n      dup1\n      dup4\n      add\n      swap3\n      pop\n      pop\n      pop\n      pop\n      pop\n      pop\n      pop\n        /* \"ERC721(NFT+ERC165).sol\":9852:9865  _safeTransfer */\n      tag_141\n        /* \"ERC721(NFT+ERC165).sol\":9852:9890  _safeTransfer(from, to, tokenId, data) */\n      jump\t// in\n    tag_179:\n        /* \"ERC721(NFT+ERC165).sol\":9744:9897  function safeTransferFrom(address from, address to, uint256 tokenId, bytes calldata data) public {... */\n      pop\n      pop\n      pop\n      pop\n      pop\n      jump\t// out\n        /* \"ERC721(NFT+ERC165).sol\":5854:6095  function tokenURI(uint256 tokenId) public view returns(string memory) {... */\n    tag_91:\n        /* \"ERC721(NFT+ERC165).sol\":5909:5922  string memory */\n      0x60\n        /* \"ERC721(NFT+ERC165).sol\":5935:5948  address owner */\n      0x00\n        /* \"ERC721(NFT+ERC165).sol\":5951:5958  _owners */\n      0x01\n        /* \"ERC721(NFT+ERC165).sol\":5951:5967  _owners[tokenId] */\n      0x00\n        /* \"ERC721(NFT+ERC165).sol\":5959:5966  tokenId */\n      dup5\n        /* \"ERC721(NFT+ERC165).sol\":5951:5967  _owners[tokenId] */\n      dup2\n      mstore\n      0x20\n      add\n      swap1\n      dup2\n      mstore\n      0x20\n      add\n      0x00\n      keccak256\n      0x00\n      swap1\n      sload\n      swap1\n      0x0100\n      exp\n      swap1\n      div\n      0xffffffffffffffffffffffffffffffffffffffff\n      and\n        /* \"ERC721(NFT+ERC165).sol\":5935:5967  address owner = _owners[tokenId] */\n      swap1\n      pop\n        /* \"ERC721(NFT+ERC165).sol\":6015:6016  0 */\n      0x00\n        /* \"ERC721(NFT+ERC165).sol\":5998:6017  owner != address(0) */\n      0xffffffffffffffffffffffffffffffffffffffff\n      and\n        /* \"ERC721(NFT+ERC165).sol\":5998:6003  owner */\n      dup2\n        /* \"ERC721(NFT+ERC165).sol\":5998:6017  owner != address(0) */\n      0xffffffffffffffffffffffffffffffffffffffff\n      and\n      sub\n        /* \"ERC721(NFT+ERC165).sol\":5990:6050  require(owner != address(0), \"ERROR: Token Id is not valid\") */\n      tag_181\n      jumpi\n      mload(0x40)\n      0x08c379a000000000000000000000000000000000000000000000000000000000\n      dup2\n      mstore\n      0x04\n      add\n      tag_182\n      swap1\n      tag_123\n      jump\t// in\n    tag_182:\n      mload(0x40)\n      dup1\n      swap2\n      sub\n      swap1\n      revert\n    tag_181:\n        /* \"ERC721(NFT+ERC165).sol\":6068:6078  _tokenURIs */\n      0x06\n        /* \"ERC721(NFT+ERC165).sol\":6068:6087  _tokenURIs[tokenId] */\n      0x00\n        /* \"ERC721(NFT+ERC165).sol\":6079:6086  tokenId */\n      dup5\n        /* \"ERC721(NFT+ERC165).sol\":6068:6087  _tokenURIs[tokenId] */\n      dup2\n      mstore\n      0x20\n      add\n      swap1\n      dup2\n      mstore\n      0x20\n      add\n      0x00\n      keccak256\n        /* \"ERC721(NFT+ERC165).sol\":6061:6087  return _tokenURIs[tokenId] */\n      dup1\n      sload\n      tag_183\n      swap1\n      tag_100\n      jump\t// in\n    tag_183:\n      dup1\n      0x1f\n      add\n      0x20\n      dup1\n      swap2\n      div\n      mul\n      0x20\n      add\n      mload(0x40)\n      swap1\n      dup2\n      add\n      0x40\n      mstore\n      dup1\n      swap3\n      swap2\n      swap1\n      dup2\n      dup2\n      mstore\n      0x20\n      add\n      dup3\n      dup1\n      sload\n      tag_184\n      swap1\n      tag_100\n      jump\t// in\n    tag_184:\n      dup1\n      iszero\n      tag_185\n      jumpi\n      dup1\n      0x1f\n      lt\n      tag_186\n      jumpi\n      0x0100\n      dup1\n      dup4\n      sload\n      div\n      mul\n      dup4\n      mstore\n      swap2\n      0x20\n      add\n      swap2\n      jump(tag_185)\n    tag_186:\n      dup3\n      add\n      swap2\n      swap1\n      0x00\n      mstore\n      keccak256(0x00, 0x20)\n      swap1\n    tag_187:\n      dup2\n      sload\n      dup2\n      mstore\n      swap1\n      0x01\n      add\n      swap1\n      0x20\n      add\n      dup1\n      dup4\n      gt\n      tag_187\n      jumpi\n      dup3\n      swap1\n      sub\n      0x1f\n      and\n      dup3\n      add\n      swap2\n    tag_185:\n      pop\n      pop\n      pop\n      pop\n      pop\n      swap2\n      pop\n      pop\n        /* \"ERC721(NFT+ERC165).sol\":5854:6095  function tokenURI(uint256 tokenId) public view returns(string memory) {... */\n      swap2\n      swap1\n      pop\n      jump\t// out\n        /* \"ERC721(NFT+ERC165).sol\":8160:8306  function isApprovedForAll(address owner, address operator) public view returns(bool) {... */\n    tag_96:\n        /* \"ERC721(NFT+ERC165).sol\":8239:8243  bool */\n      0x00\n        /* \"ERC721(NFT+ERC165).sol\":8263:8281  _operatorApprovals */\n      0x03\n        /* \"ERC721(NFT+ERC165).sol\":8263:8288  _operatorApprovals[owner] */\n      0x00\n        /* \"ERC721(NFT+ERC165).sol\":8282:8287  owner */\n      dup5\n        /* \"ERC721(NFT+ERC165).sol\":8263:8288  _operatorApprovals[owner] */\n      0xffffffffffffffffffffffffffffffffffffffff\n      and\n      0xffffffffffffffffffffffffffffffffffffffff\n      and\n      dup2\n      mstore\n      0x20\n      add\n      swap1\n      dup2\n      mstore\n      0x20\n      add\n      0x00\n      keccak256\n        /* \"ERC721(NFT+ERC165).sol\":8263:8298  _operatorApprovals[owner][operator] */\n      0x00\n        /* \"ERC721(NFT+ERC165).sol\":8289:8297  operator */\n      dup4\n        /* \"ERC721(NFT+ERC165).sol\":8263:8298  _operatorApprovals[owner][operator] */\n      0xffffffffffffffffffffffffffffffffffffffff\n      and\n      0xffffffffffffffffffffffffffffffffffffffff\n      and\n      dup2\n      mstore\n      0x20\n      add\n      swap1\n      dup2\n      mstore\n      0x20\n      add\n      0x00\n      keccak256\n      0x00\n      swap1\n      sload\n      swap1\n      0x0100\n      exp\n      swap1\n      div\n      0xff\n      and\n        /* \"ERC721(NFT+ERC165).sol\":8256:8298  return _operatorApprovals[owner][operator] */\n      swap1\n      pop\n        /* \"ERC721(NFT+ERC165).sol\":8160:8306  function isApprovedForAll(address owner, address operator) public view returns(bool) {... */\n      swap3\n      swap2\n      pop\n      pop\n      jump\t// out\n        /* \"ERC721(NFT+ERC165).sol\":8312:9279  function _transfer(address from, address to, uint256 tokenId) internal {... */\n    tag_128:\n        /* \"ERC721(NFT+ERC165).sol\":8394:8407  address owner */\n      0x00\n        /* \"ERC721(NFT+ERC165).sol\":8410:8417  _owners */\n      0x01\n        /* \"ERC721(NFT+ERC165).sol\":8410:8426  _owners[tokenId] */\n      0x00\n        /* \"ERC721(NFT+ERC165).sol\":8418:8425  tokenId */\n      dup4\n        /* \"ERC721(NFT+ERC165).sol\":8410:8426  _owners[tokenId] */\n      dup2\n      mstore\n      0x20\n      add\n      swap1\n      dup2\n      mstore\n      0x20\n      add\n      0x00\n      keccak256\n      0x00\n      swap1\n      sload\n      swap1\n      0x0100\n      exp\n      swap1\n      div\n      0xffffffffffffffffffffffffffffffffffffffff\n      and\n        /* \"ERC721(NFT+ERC165).sol\":8394:8426  address owner = _owners[tokenId] */\n      swap1\n      pop\n        /* \"ERC721(NFT+ERC165).sol\":8462:8463  0 */\n      0x00\n        /* \"ERC721(NFT+ERC165).sol\":8445:8464  owner != address(0) */\n      0xffffffffffffffffffffffffffffffffffffffff\n      and\n        /* \"ERC721(NFT+ERC165).sol\":8445:8450  owner */\n      dup2\n        /* \"ERC721(NFT+ERC165).sol\":8445:8464  owner != address(0) */\n      0xffffffffffffffffffffffffffffffffffffffff\n      and\n      sub\n        /* \"ERC721(NFT+ERC165).sol\":8437:8517  require(owner != address(0), \"ERROR: token has not been mint or has been burn.\") */\n      tag_190\n      jumpi\n      mload(0x40)\n      0x08c379a000000000000000000000000000000000000000000000000000000000\n      dup2\n      mstore\n      0x04\n      add\n      tag_191\n      swap1\n      tag_108\n      jump\t// in\n    tag_191:\n      mload(0x40)\n      dup1\n      swap2\n      sub\n      swap1\n      revert\n    tag_190:\n        /* \"ERC721(NFT+ERC165).sol\":8550:8552  to */\n      dup3\n        /* \"ERC721(NFT+ERC165).sol\":8536:8552  msg.sender != to */\n      0xffffffffffffffffffffffffffffffffffffffff\n      and\n        /* \"ERC721(NFT+ERC165).sol\":8536:8546  msg.sender */\n      caller\n        /* \"ERC721(NFT+ERC165).sol\":8536:8552  msg.sender != to */\n      0xffffffffffffffffffffffffffffffffffffffff\n      and\n      sub\n        /* \"ERC721(NFT+ERC165).sol\":8528:8616  require(msg.sender != to, \"ERROR: msg.sender shouldn't be the person being transfered.\") */\n      tag_192\n      jumpi\n      mload(0x40)\n      0x08c379a000000000000000000000000000000000000000000000000000000000\n      dup2\n      mstore\n      0x04\n      add\n      tag_193\n      swap1\n      tag_194\n      jump\t// in\n    tag_193:\n      mload(0x40)\n      dup1\n      swap2\n      sub\n      swap1\n      revert\n    tag_192:\n        /* \"ERC721(NFT+ERC165).sol\":8644:8654  msg.sender */\n      caller\n        /* \"ERC721(NFT+ERC165).sol\":8635:8654  owner == msg.sender */\n      0xffffffffffffffffffffffffffffffffffffffff\n      and\n        /* \"ERC721(NFT+ERC165).sol\":8635:8640  owner */\n      dup2\n        /* \"ERC721(NFT+ERC165).sol\":8635:8654  owner == msg.sender */\n      0xffffffffffffffffffffffffffffffffffffffff\n      and\n      eq\n        /* \"ERC721(NFT+ERC165).sol\":8627:8710  require(owner == msg.sender, \"ERROR: You have no permission to transfer this nft.\") */\n      tag_195\n      jumpi\n      mload(0x40)\n      0x08c379a000000000000000000000000000000000000000000000000000000000\n      dup2\n      mstore\n      0x04\n      add\n      tag_196\n      swap1\n      tag_197\n      jump\t// in\n    tag_196:\n      mload(0x40)\n      dup1\n      swap2\n      sub\n      swap1\n      revert\n    tag_195:\n        /* \"ERC721(NFT+ERC165).sol\":8811:8821  msg.sender */\n      caller\n        /* \"ERC721(NFT+ERC165).sol\":8802:8821  owner == msg.sender */\n      0xffffffffffffffffffffffffffffffffffffffff\n      and\n        /* \"ERC721(NFT+ERC165).sol\":8802:8807  owner */\n      dup2\n        /* \"ERC721(NFT+ERC165).sol\":8802:8821  owner == msg.sender */\n      0xffffffffffffffffffffffffffffffffffffffff\n      and\n      eq\n        /* \"ERC721(NFT+ERC165).sol\":8802:8860  owner == msg.sender || isApprovedForAll(owner, msg.sender) */\n      dup1\n      tag_198\n      jumpi\n      pop\n        /* \"ERC721(NFT+ERC165).sol\":8825:8860  isApprovedForAll(owner, msg.sender) */\n      tag_199\n        /* \"ERC721(NFT+ERC165).sol\":8842:8847  owner */\n      dup2\n        /* \"ERC721(NFT+ERC165).sol\":8849:8859  msg.sender */\n      caller\n        /* \"ERC721(NFT+ERC165).sol\":8825:8841  isApprovedForAll */\n      tag_96\n        /* \"ERC721(NFT+ERC165).sol\":8825:8860  isApprovedForAll(owner, msg.sender) */\n      jump\t// in\n    tag_199:\n        /* \"ERC721(NFT+ERC165).sol\":8802:8860  owner == msg.sender || isApprovedForAll(owner, msg.sender) */\n    tag_198:\n        /* \"ERC721(NFT+ERC165).sol\":8802:8898  owner == msg.sender || isApprovedForAll(owner, msg.sender) || getApproved(tokenId) == msg.sender */\n      dup1\n      tag_200\n      jumpi\n      pop\n        /* \"ERC721(NFT+ERC165).sol\":8888:8898  msg.sender */\n      caller\n        /* \"ERC721(NFT+ERC165).sol\":8864:8898  getApproved(tokenId) == msg.sender */\n      0xffffffffffffffffffffffffffffffffffffffff\n      and\n        /* \"ERC721(NFT+ERC165).sol\":8864:8884  getApproved(tokenId) */\n      tag_201\n        /* \"ERC721(NFT+ERC165).sol\":8876:8883  tokenId */\n      dup4\n        /* \"ERC721(NFT+ERC165).sol\":8864:8875  getApproved */\n      tag_31\n        /* \"ERC721(NFT+ERC165).sol\":8864:8884  getApproved(tokenId) */\n      jump\t// in\n    tag_201:\n        /* \"ERC721(NFT+ERC165).sol\":8864:8898  getApproved(tokenId) == msg.sender */\n      0xffffffffffffffffffffffffffffffffffffffff\n      and\n      eq\n        /* \"ERC721(NFT+ERC165).sol\":8802:8898  owner == msg.sender || isApprovedForAll(owner, msg.sender) || getApproved(tokenId) == msg.sender */\n    tag_200:\n        /* \"ERC721(NFT+ERC165).sol\":8794:8954  require(owner == msg.sender || isApprovedForAll(owner, msg.sender) || getApproved(tokenId) == msg.sender, \"ERROR: Msg.sender is not owner or being authorized.\") */\n      tag_202\n      jumpi\n      mload(0x40)\n      0x08c379a000000000000000000000000000000000000000000000000000000000\n      dup2\n      mstore\n      0x04\n      add\n      tag_203\n      swap1\n      tag_118\n      jump\t// in\n    tag_203:\n      mload(0x40)\n      dup1\n      swap2\n      sub\n      swap1\n      revert\n    tag_202:\n        /* \"ERC721(NFT+ERC165).sol\":9112:9127  _tokenApprovals */\n      0x02\n        /* \"ERC721(NFT+ERC165).sol\":9112:9136  _tokenApprovals[tokenId] */\n      0x00\n        /* \"ERC721(NFT+ERC165).sol\":9128:9135  tokenId */\n      dup4\n        /* \"ERC721(NFT+ERC165).sol\":9112:9136  _tokenApprovals[tokenId] */\n      dup2\n      mstore\n      0x20\n      add\n      swap1\n      dup2\n      mstore\n      0x20\n      add\n      0x00\n      keccak256\n      0x00\n        /* \"ERC721(NFT+ERC165).sol\":9105:9136  delete _tokenApprovals[tokenId] */\n      0x0100\n      exp\n      dup2\n      sload\n      swap1\n      0xffffffffffffffffffffffffffffffffffffffff\n      mul\n      not\n      and\n      swap1\n      sstore\n        /* \"ERC721(NFT+ERC165).sol\":9166:9167  1 */\n      0x01\n        /* \"ERC721(NFT+ERC165).sol\":9147:9156  _balances */\n      0x00\n        /* \"ERC721(NFT+ERC165).sol\":9147:9162  _balances[from] */\n      dup1\n        /* \"ERC721(NFT+ERC165).sol\":9157:9161  from */\n      dup7\n        /* \"ERC721(NFT+ERC165).sol\":9147:9162  _balances[from] */\n      0xffffffffffffffffffffffffffffffffffffffff\n      and\n      0xffffffffffffffffffffffffffffffffffffffff\n      and\n      dup2\n      mstore\n      0x20\n      add\n      swap1\n      dup2\n      mstore\n      0x20\n      add\n      0x00\n      keccak256\n      0x00\n        /* \"ERC721(NFT+ERC165).sol\":9147:9167  _balances[from] -= 1 */\n      dup3\n      dup3\n      sload\n      tag_204\n      swap2\n      swap1\n      tag_147\n      jump\t// in\n    tag_204:\n      swap3\n      pop\n      pop\n      dup2\n      swap1\n      sstore\n      pop\n        /* \"ERC721(NFT+ERC165).sol\":9195:9196  1 */\n      0x01\n        /* \"ERC721(NFT+ERC165).sol\":9178:9187  _balances */\n      0x00\n        /* \"ERC721(NFT+ERC165).sol\":9178:9191  _balances[to] */\n      dup1\n        /* \"ERC721(NFT+ERC165).sol\":9188:9190  to */\n      dup6\n        /* \"ERC721(NFT+ERC165).sol\":9178:9191  _balances[to] */\n      0xffffffffffffffffffffffffffffffffffffffff\n      and\n      0xffffffffffffffffffffffffffffffffffffffff\n      and\n      dup2\n      mstore\n      0x20\n      add\n      swap1\n      dup2\n      mstore\n      0x20\n      add\n      0x00\n      keccak256\n      0x00\n        /* \"ERC721(NFT+ERC165).sol\":9178:9196  _balances[to] += 1 */\n      dup3\n      dup3\n      sload\n      tag_205\n      swap2\n      swap1\n      tag_137\n      jump\t// in\n    tag_205:\n      swap3\n      pop\n      pop\n      dup2\n      swap1\n      sstore\n      pop\n        /* \"ERC721(NFT+ERC165).sol\":9226:9228  to */\n      dup3\n        /* \"ERC721(NFT+ERC165).sol\":9207:9214  _owners */\n      0x01\n        /* \"ERC721(NFT+ERC165).sol\":9207:9223  _owners[tokenId] */\n      0x00\n        /* \"ERC721(NFT+ERC165).sol\":9215:9222  tokenId */\n      dup5\n        /* \"ERC721(NFT+ERC165).sol\":9207:9223  _owners[tokenId] */\n      dup2\n      mstore\n      0x20\n      add\n      swap1\n      dup2\n      mstore\n      0x20\n      add\n      0x00\n      keccak256\n      0x00\n        /* \"ERC721(NFT+ERC165).sol\":9207:9228  _owners[tokenId] = to */\n      0x0100\n      exp\n      dup2\n      sload\n      dup2\n      0xffffffffffffffffffffffffffffffffffffffff\n      mul\n      not\n      and\n      swap1\n      dup4\n      0xffffffffffffffffffffffffffffffffffffffff\n      and\n      mul\n      or\n      swap1\n      sstore\n      pop\n        /* \"ERC721(NFT+ERC165).sol\":9259:9261  to */\n      dup3\n        /* \"ERC721(NFT+ERC165).sol\":9244:9271  Transfer(from, to, tokenId) */\n      0xffffffffffffffffffffffffffffffffffffffff\n      and\n        /* \"ERC721(NFT+ERC165).sol\":9253:9257  from */\n      dup5\n        /* \"ERC721(NFT+ERC165).sol\":9244:9271  Transfer(from, to, tokenId) */\n      0xffffffffffffffffffffffffffffffffffffffff\n      and\n      0xddf252ad1be2c89b69c2b068fc378daa952ba7f163c4a11628f55a4df523b3ef\n        /* \"ERC721(NFT+ERC165).sol\":9263:9270  tokenId */\n      dup5\n        /* \"ERC721(NFT+ERC165).sol\":9244:9271  Transfer(from, to, tokenId) */\n      mload(0x40)\n      tag_206\n      swap2\n      swap1\n      tag_64\n      jump\t// in\n    tag_206:\n      mload(0x40)\n      dup1\n      swap2\n      sub\n      swap1\n      log3\n        /* \"ERC721(NFT+ERC165).sol\":8383:9279  {... */\n      pop\n        /* \"ERC721(NFT+ERC165).sol\":8312:9279  function _transfer(address from, address to, uint256 tokenId) internal {... */\n      pop\n      pop\n      pop\n      jump\t// out\n        /* \"ERC721(NFT+ERC165).sol\":9410:9661  function _safeTransfer(address from, address to, uint256 tokenId, bytes memory data) internal {... */\n    tag_141:\n        /* \"ERC721(NFT+ERC165).sol\":9515:9543  _transfer(from, to, tokenId) */\n      tag_208\n        /* \"ERC721(NFT+ERC165).sol\":9525:9529  from */\n      dup5\n        /* \"ERC721(NFT+ERC165).sol\":9531:9533  to */\n      dup5\n        /* \"ERC721(NFT+ERC165).sol\":9535:9542  tokenId */\n      dup5\n        /* \"ERC721(NFT+ERC165).sol\":9515:9524  _transfer */\n      tag_128\n        /* \"ERC721(NFT+ERC165).sol\":9515:9543  _transfer(from, to, tokenId) */\n      jump\t// in\n    tag_208:\n        /* \"ERC721(NFT+ERC165).sol\":9562:9609  _checkOnERC721Received(from, to, tokenId, data) */\n      tag_209\n        /* \"ERC721(NFT+ERC165).sol\":9585:9589  from */\n      dup5\n        /* \"ERC721(NFT+ERC165).sol\":9591:9593  to */\n      dup5\n        /* \"ERC721(NFT+ERC165).sol\":9595:9602  tokenId */\n      dup5\n        /* \"ERC721(NFT+ERC165).sol\":9604:9608  data */\n      dup5\n        /* \"ERC721(NFT+ERC165).sol\":9562:9584  _checkOnERC721Received */\n      tag_161\n        /* \"ERC721(NFT+ERC165).sol\":9562:9609  _checkOnERC721Received(from, to, tokenId, data) */\n      jump\t// in\n    tag_209:\n        /* \"ERC721(NFT+ERC165).sol\":9554:9654  require(_checkOnERC721Received(from, to, tokenId, data), \"ERROR: ERC721Receiver is not implemented\") */\n      tag_210\n      jumpi\n      mload(0x40)\n      0x08c379a000000000000000000000000000000000000000000000000000000000\n      dup2\n      mstore\n      0x04\n      add\n      tag_211\n      swap1\n      tag_212\n      jump\t// in\n    tag_211:\n      mload(0x40)\n      dup1\n      swap2\n      sub\n      swap1\n      revert\n    tag_210:\n        /* \"ERC721(NFT+ERC165).sol\":9410:9661  function _safeTransfer(address from, address to, uint256 tokenId, bytes memory data) internal {... */\n      pop\n      pop\n      pop\n      pop\n      jump\t// out\n        /* \"ERC721(NFT+ERC165).sol\":10223:11653  function _checkOnERC721Received(address from, address to, uint256 tokenId, bytes memory data) private returns(bool) {... */\n    tag_161:\n        /* \"ERC721(NFT+ERC165).sol\":10333:10337  bool */\n      0x00\n        /* \"ERC721(NFT+ERC165).sol\":10413:10414  0 */\n      dup1\n        /* \"ERC721(NFT+ERC165).sol\":10396:10398  to */\n      dup5\n        /* \"ERC721(NFT+ERC165).sol\":10396:10410  to.code.length */\n      0xffffffffffffffffffffffffffffffffffffffff\n      and\n      extcodesize\n        /* \"ERC721(NFT+ERC165).sol\":10396:10414  to.code.length > 0 */\n      gt\n        /* \"ERC721(NFT+ERC165).sol\":10393:11646  if(to.code.length > 0){... */\n      iszero\n      tag_214\n      jumpi\n        /* \"ERC721(NFT+ERC165).sol\":10450:10452  to */\n      dup4\n        /* \"ERC721(NFT+ERC165).sol\":10434:10470  IERC721Receiver(to).onERC721Received */\n      0xffffffffffffffffffffffffffffffffffffffff\n      and\n      0x150b7a02\n        /* \"ERC721(NFT+ERC165).sol\":10471:10481  msg.sender */\n      caller\n        /* \"ERC721(NFT+ERC165).sol\":10483:10487  from */\n      dup8\n        /* \"ERC721(NFT+ERC165).sol\":10489:10496  tokenId */\n      dup7\n        /* \"ERC721(NFT+ERC165).sol\":10498:10502  data */\n      dup7\n        /* \"ERC721(NFT+ERC165).sol\":10434:10503  IERC721Receiver(to).onERC721Received(msg.sender, from, tokenId, data) */\n      mload(0x40)\n      dup6\n      0xffffffff\n      and\n      0xe0\n      shl\n      dup2\n      mstore\n      0x04\n      add\n      tag_215\n      swap5\n      swap4\n      swap3\n      swap2\n      swap1\n      tag_216\n      jump\t// in\n    tag_215:\n      0x20\n      mload(0x40)\n      dup1\n      dup4\n      sub\n      dup2\n      0x00\n      dup8\n      gas\n      call\n      swap3\n      pop\n      pop\n      pop\n      dup1\n      iszero\n      tag_217\n      jumpi\n      pop\n      mload(0x40)\n      returndatasize\n      not(0x1f)\n      0x1f\n      dup3\n      add\n      and\n      dup3\n      add\n      dup1\n      0x40\n      mstore\n      pop\n      dup2\n      add\n      swap1\n      tag_218\n      swap2\n      swap1\n      tag_219\n      jump\t// in\n    tag_218:\n      0x01\n    tag_217:\n        /* \"ERC721(NFT+ERC165).sol\":10430:11519  try IERC721Receiver(to).onERC721Received(msg.sender, from, tokenId, data) returns(bytes4 retval) {... */\n      tag_220\n      jumpi\n      returndatasize\n      dup1\n      0x00\n      dup2\n      eq\n      tag_225\n      jumpi\n      mload(0x40)\n      swap2\n      pop\n      and(add(returndatasize, 0x3f), not(0x1f))\n      dup3\n      add\n      0x40\n      mstore\n      returndatasize\n      dup3\n      mstore\n      returndatasize\n      0x00\n      0x20\n      dup5\n      add\n      returndatacopy\n      jump(tag_224)\n    tag_225:\n      0x60\n      swap2\n      pop\n    tag_224:\n      pop\n        /* \"ERC721(NFT+ERC165).sol\":10967:10968  0 */\n      0x00\n        /* \"ERC721(NFT+ERC165).sol\":10950:10956  reason */\n      dup2\n        /* \"ERC721(NFT+ERC165).sol\":10950:10963  reason.length */\n      mload\n        /* \"ERC721(NFT+ERC165).sol\":10950:10968  reason.length == 0 */\n      sub\n        /* \"ERC721(NFT+ERC165).sol\":10947:11504  if(reason.length == 0){... */\n      tag_226\n      jumpi\n        /* \"ERC721(NFT+ERC165).sol\":10992:11053  revert(\"ERC721: transfer to non ERC721Receiver implementer.\") */\n      mload(0x40)\n      0x08c379a000000000000000000000000000000000000000000000000000000000\n      dup2\n      mstore\n      0x04\n      add\n      tag_227\n      swap1\n      tag_228\n      jump\t// in\n    tag_227:\n      mload(0x40)\n      dup1\n      swap2\n      sub\n      swap1\n      revert\n        /* \"ERC721(NFT+ERC165).sol\":10947:11504  if(reason.length == 0){... */\n    tag_226:\n        /* \"ERC721(NFT+ERC165).sol\":11454:11460  reason */\n      dup1\n        /* \"ERC721(NFT+ERC165).sol\":11448:11461  mload(reason) */\n      mload\n        /* \"ERC721(NFT+ERC165).sol\":11439:11445  reason */\n      dup2\n        /* \"ERC721(NFT+ERC165).sol\":11435:11437  32 */\n      0x20\n        /* \"ERC721(NFT+ERC165).sol\":11431:11446  add(32, reason) */\n      add\n        /* \"ERC721(NFT+ERC165).sol\":11424:11462  revert(add(32, reason), mload(reason)) */\n      revert\n        /* \"ERC721(NFT+ERC165).sol\":10430:11519  try IERC721Receiver(to).onERC721Received(msg.sender, from, tokenId, data) returns(bytes4 retval) {... */\n    tag_220:\n        /* \"ERC721(NFT+ERC165).sol\":10648:10689  IERC721Receiver.onERC721Received.selector */\n      shl(0xe0, 0x150b7a02)\n        /* \"ERC721(NFT+ERC165).sol\":10638:10689  retval == IERC721Receiver.onERC721Received.selector */\n      not(0xffffffffffffffffffffffffffffffffffffffffffffffffffffffff)\n      and\n        /* \"ERC721(NFT+ERC165).sol\":10638:10644  retval */\n      dup2\n        /* \"ERC721(NFT+ERC165).sol\":10638:10689  retval == IERC721Receiver.onERC721Received.selector */\n      not(0xffffffffffffffffffffffffffffffffffffffffffffffffffffffff)\n      and\n      eq\n        /* \"ERC721(NFT+ERC165).sol\":10631:10689  return retval == IERC721Receiver.onERC721Received.selector */\n      swap2\n      pop\n      pop\n      jump(tag_213)\n        /* \"ERC721(NFT+ERC165).sol\":10393:11646  if(to.code.length > 0){... */\n    tag_214:\n        /* \"ERC721(NFT+ERC165).sol\":11630:11634  true */\n      0x01\n        /* \"ERC721(NFT+ERC165).sol\":11623:11634  return true */\n      swap1\n      pop\n        /* \"ERC721(NFT+ERC165).sol\":10223:11653  function _checkOnERC721Received(address from, address to, uint256 tokenId, bytes memory data) private returns(bool) {... */\n    tag_213:\n      swap5\n      swap4\n      pop\n      pop\n      pop\n      pop\n      jump\t// out\n        /* \"#utility.yul\":7:106   */\n    tag_232:\n        /* \"#utility.yul\":59:65   */\n      0x00\n        /* \"#utility.yul\":93:98   */\n      dup2\n        /* \"#utility.yul\":87:99   */\n      mload\n        /* \"#utility.yul\":77:99   */\n      swap1\n      pop\n        /* \"#utility.yul\":7:106   */\n      swap2\n      swap1\n      pop\n      jump\t// out\n        /* \"#utility.yul\":112:281   */\n    tag_233:\n        /* \"#utility.yul\":196:207   */\n      0x00\n        /* \"#utility.yul\":230:236   */\n      dup3\n        /* \"#utility.yul\":225:228   */\n      dup3\n        /* \"#utility.yul\":218:237   */\n      mstore\n        /* \"#utility.yul\":270:274   */\n      0x20\n        /* \"#utility.yul\":265:268   */\n      dup3\n        /* \"#utility.yul\":261:275   */\n      add\n        /* \"#utility.yul\":246:275   */\n      swap1\n      pop\n        /* \"#utility.yul\":112:281   */\n      swap3\n      swap2\n      pop\n      pop\n      jump\t// out\n        /* \"#utility.yul\":287:533   */\n    tag_234:\n        /* \"#utility.yul\":368:369   */\n      0x00\n        /* \"#utility.yul\":378:491   */\n    tag_320:\n        /* \"#utility.yul\":392:398   */\n      dup4\n        /* \"#utility.yul\":389:390   */\n      dup2\n        /* \"#utility.yul\":386:399   */\n      lt\n        /* \"#utility.yul\":378:491   */\n      iszero\n      tag_322\n      jumpi\n        /* \"#utility.yul\":477:478   */\n      dup1\n        /* \"#utility.yul\":472:475   */\n      dup3\n        /* \"#utility.yul\":468:479   */\n      add\n        /* \"#utility.yul\":462:480   */\n      mload\n        /* \"#utility.yul\":458:459   */\n      dup2\n        /* \"#utility.yul\":453:456   */\n      dup5\n        /* \"#utility.yul\":449:460   */\n      add\n        /* \"#utility.yul\":442:481   */\n      mstore\n        /* \"#utility.yul\":414:416   */\n      0x20\n        /* \"#utility.yul\":411:412   */\n      dup2\n        /* \"#utility.yul\":407:417   */\n      add\n        /* \"#utility.yul\":402:417   */\n      swap1\n      pop\n        /* \"#utility.yul\":378:491   */\n      jump(tag_320)\n    tag_322:\n        /* \"#utility.yul\":525:526   */\n      0x00\n        /* \"#utility.yul\":516:522   */\n      dup5\n        /* \"#utility.yul\":511:514   */\n      dup5\n        /* \"#utility.yul\":507:523   */\n      add\n        /* \"#utility.yul\":500:527   */\n      mstore\n        /* \"#utility.yul\":349:533   */\n      pop\n        /* \"#utility.yul\":287:533   */\n      pop\n      pop\n      pop\n      jump\t// out\n        /* \"#utility.yul\":539:641   */\n    tag_235:\n        /* \"#utility.yul\":580:586   */\n      0x00\n        /* \"#utility.yul\":631:633   */\n      0x1f\n        /* \"#utility.yul\":627:634   */\n      not\n        /* \"#utility.yul\":622:624   */\n      0x1f\n        /* \"#utility.yul\":615:620   */\n      dup4\n        /* \"#utility.yul\":611:625   */\n      add\n        /* \"#utility.yul\":607:635   */\n      and\n        /* \"#utility.yul\":597:635   */\n      swap1\n      pop\n        /* \"#utility.yul\":539:641   */\n      swap2\n      swap1\n      pop\n      jump\t// out\n        /* \"#utility.yul\":647:1024   */\n    tag_236:\n        /* \"#utility.yul\":735:738   */\n      0x00\n        /* \"#utility.yul\":763:802   */\n      tag_325\n        /* \"#utility.yul\":796:801   */\n      dup3\n        /* \"#utility.yul\":763:802   */\n      tag_232\n      jump\t// in\n    tag_325:\n        /* \"#utility.yul\":818:889   */\n      tag_326\n        /* \"#utility.yul\":882:888   */\n      dup2\n        /* \"#utility.yul\":877:880   */\n      dup6\n        /* \"#utility.yul\":818:889   */\n      tag_233\n      jump\t// in\n    tag_326:\n        /* \"#utility.yul\":811:889   */\n      swap4\n      pop\n        /* \"#utility.yul\":898:963   */\n      tag_327\n        /* \"#utility.yul\":956:962   */\n      dup2\n        /* \"#utility.yul\":951:954   */\n      dup6\n        /* \"#utility.yul\":944:948   */\n      0x20\n        /* \"#utility.yul\":937:942   */\n      dup7\n        /* \"#utility.yul\":933:949   */\n      add\n        /* \"#utility.yul\":898:963   */\n      tag_234\n      jump\t// in\n    tag_327:\n        /* \"#utility.yul\":988:1017   */\n      tag_328\n        /* \"#utility.yul\":1010:1016   */\n      dup2\n        /* \"#utility.yul\":988:1017   */\n      tag_235\n      jump\t// in\n    tag_328:\n        /* \"#utility.yul\":983:986   */\n      dup5\n        /* \"#utility.yul\":979:1018   */\n      add\n        /* \"#utility.yul\":972:1018   */\n      swap2\n      pop\n        /* \"#utility.yul\":739:1024   */\n      pop\n        /* \"#utility.yul\":647:1024   */\n      swap3\n      swap2\n      pop\n      pop\n      jump\t// out\n        /* \"#utility.yul\":1030:1343   */\n    tag_27:\n        /* \"#utility.yul\":1143:1147   */\n      0x00\n        /* \"#utility.yul\":1181:1183   */\n      0x20\n        /* \"#utility.yul\":1170:1179   */\n      dup3\n        /* \"#utility.yul\":1166:1184   */\n      add\n        /* \"#utility.yul\":1158:1184   */\n      swap1\n      pop\n        /* \"#utility.yul\":1230:1239   */\n      dup2\n        /* \"#utility.yul\":1224:1228   */\n      dup2\n        /* \"#utility.yul\":1220:1240   */\n      sub\n        /* \"#utility.yul\":1216:1217   */\n      0x00\n        /* \"#utility.yul\":1205:1214   */\n      dup4\n        /* \"#utility.yul\":1201:1218   */\n      add\n        /* \"#utility.yul\":1194:1241   */\n      mstore\n        /* \"#utility.yul\":1258:1336   */\n      tag_330\n        /* \"#utility.yul\":1331:1335   */\n      dup2\n        /* \"#utility.yul\":1322:1328   */\n      dup5\n        /* \"#utility.yul\":1258:1336   */\n      tag_236\n      jump\t// in\n    tag_330:\n        /* \"#utility.yul\":1250:1336   */\n      swap1\n      pop\n        /* \"#utility.yul\":1030:1343   */\n      swap3\n      swap2\n      pop\n      pop\n      jump\t// out\n        /* \"#utility.yul\":1349:1424   */\n    tag_237:\n        /* \"#utility.yul\":1382:1388   */\n      0x00\n        /* \"#utility.yul\":1415:1417   */\n      0x40\n        /* \"#utility.yul\":1409:1418   */\n      mload\n        /* \"#utility.yul\":1399:1418   */\n      swap1\n      pop\n        /* \"#utility.yul\":1349:1424   */\n      swap1\n      jump\t// out\n        /* \"#utility.yul\":1430:1547   */\n    tag_238:\n        /* \"#utility.yul\":1539:1540   */\n      0x00\n        /* \"#utility.yul\":1536:1537   */\n      dup1\n        /* \"#utility.yul\":1529:1541   */\n      revert\n        /* \"#utility.yul\":1553:1670   */\n    tag_239:\n        /* \"#utility.yul\":1662:1663   */\n      0x00\n        /* \"#utility.yul\":1659:1660   */\n      dup1\n        /* \"#utility.yul\":1652:1664   */\n      revert\n        /* \"#utility.yul\":1676:1753   */\n    tag_240:\n        /* \"#utility.yul\":1713:1720   */\n      0x00\n        /* \"#utility.yul\":1742:1747   */\n      dup2\n        /* \"#utility.yul\":1731:1747   */\n      swap1\n      pop\n        /* \"#utility.yul\":1676:1753   */\n      swap2\n      swap1\n      pop\n      jump\t// out\n        /* \"#utility.yul\":1759:1881   */\n    tag_241:\n        /* \"#utility.yul\":1832:1856   */\n      tag_336\n        /* \"#utility.yul\":1850:1855   */\n      dup2\n        /* \"#utility.yul\":1832:1856   */\n      tag_240\n      jump\t// in\n    tag_336:\n        /* \"#utility.yul\":1825:1830   */\n      dup2\n        /* \"#utility.yul\":1822:1857   */\n      eq\n        /* \"#utility.yul\":1812:1875   */\n      tag_337\n      jumpi\n        /* \"#utility.yul\":1871:1872   */\n      0x00\n        /* \"#utility.yul\":1868:1869   */\n      dup1\n        /* \"#utility.yul\":1861:1873   */\n      revert\n        /* \"#utility.yul\":1812:1875   */\n    tag_337:\n        /* \"#utility.yul\":1759:1881   */\n      pop\n      jump\t// out\n        /* \"#utility.yul\":1887:2026   */\n    tag_242:\n        /* \"#utility.yul\":1933:1938   */\n      0x00\n        /* \"#utility.yul\":1971:1977   */\n      dup2\n        /* \"#utility.yul\":1958:1978   */\n      calldataload\n        /* \"#utility.yul\":1949:1978   */\n      swap1\n      pop\n        /* \"#utility.yul\":1987:2020   */\n      tag_339\n        /* \"#utility.yul\":2014:2019   */\n      dup2\n        /* \"#utility.yul\":1987:2020   */\n      tag_241\n      jump\t// in\n    tag_339:\n        /* \"#utility.yul\":1887:2026   */\n      swap3\n      swap2\n      pop\n      pop\n      jump\t// out\n        /* \"#utility.yul\":2032:2361   */\n    tag_30:\n        /* \"#utility.yul\":2091:2097   */\n      0x00\n        /* \"#utility.yul\":2140:2142   */\n      0x20\n        /* \"#utility.yul\":2128:2137   */\n      dup3\n        /* \"#utility.yul\":2119:2126   */\n      dup5\n        /* \"#utility.yul\":2115:2138   */\n      sub\n        /* \"#utility.yul\":2111:2143   */\n      slt\n        /* \"#utility.yul\":2108:2227   */\n      iszero\n      tag_341\n      jumpi\n        /* \"#utility.yul\":2146:2225   */\n      tag_342\n      tag_238\n      jump\t// in\n    tag_342:\n        /* \"#utility.yul\":2108:2227   */\n    tag_341:\n        /* \"#utility.yul\":2266:2267   */\n      0x00\n        /* \"#utility.yul\":2291:2344   */\n      tag_343\n        /* \"#utility.yul\":2336:2343   */\n      dup5\n        /* \"#utility.yul\":2327:2333   */\n      dup3\n        /* \"#utility.yul\":2316:2325   */\n      dup6\n        /* \"#utility.yul\":2312:2334   */\n      add\n        /* \"#utility.yul\":2291:2344   */\n      tag_242\n      jump\t// in\n    tag_343:\n        /* \"#utility.yul\":2281:2344   */\n      swap2\n      pop\n        /* \"#utility.yul\":2237:2354   */\n      pop\n        /* \"#utility.yul\":2032:2361   */\n      swap3\n      swap2\n      pop\n      pop\n      jump\t// out\n        /* \"#utility.yul\":2367:2493   */\n    tag_243:\n        /* \"#utility.yul\":2404:2411   */\n      0x00\n        /* \"#utility.yul\":2444:2486   */\n      0xffffffffffffffffffffffffffffffffffffffff\n        /* \"#utility.yul\":2437:2442   */\n      dup3\n        /* \"#utility.yul\":2433:2487   */\n      and\n        /* \"#utility.yul\":2422:2487   */\n      swap1\n      pop\n        /* \"#utility.yul\":2367:2493   */\n      swap2\n      swap1\n      pop\n      jump\t// out\n        /* \"#utility.yul\":2499:2595   */\n    tag_244:\n        /* \"#utility.yul\":2536:2543   */\n      0x00\n        /* \"#utility.yul\":2565:2589   */\n      tag_346\n        /* \"#utility.yul\":2583:2588   */\n      dup3\n        /* \"#utility.yul\":2565:2589   */\n      tag_243\n      jump\t// in\n    tag_346:\n        /* \"#utility.yul\":2554:2589   */\n      swap1\n      pop\n        /* \"#utility.yul\":2499:2595   */\n      swap2\n      swap1\n      pop\n      jump\t// out\n        /* \"#utility.yul\":2601:2719   */\n    tag_245:\n        /* \"#utility.yul\":2688:2712   */\n      tag_348\n        /* \"#utility.yul\":2706:2711   */\n      dup2\n        /* \"#utility.yul\":2688:2712   */\n      tag_244\n      jump\t// in\n    tag_348:\n        /* \"#utility.yul\":2683:2686   */\n      dup3\n        /* \"#utility.yul\":2676:2713   */\n      mstore\n        /* \"#utility.yul\":2601:2719   */\n      pop\n      pop\n      jump\t// out\n        /* \"#utility.yul\":2725:2947   */\n    tag_33:\n        /* \"#utility.yul\":2818:2822   */\n      0x00\n        /* \"#utility.yul\":2856:2858   */\n      0x20\n        /* \"#utility.yul\":2845:2854   */\n      dup3\n        /* \"#utility.yul\":2841:2859   */\n      add\n        /* \"#utility.yul\":2833:2859   */\n      swap1\n      pop\n        /* \"#utility.yul\":2869:2940   */\n      tag_350\n        /* \"#utility.yul\":2937:2938   */\n      0x00\n        /* \"#utility.yul\":2926:2935   */\n      dup4\n        /* \"#utility.yul\":2922:2939   */\n      add\n        /* \"#utility.yul\":2913:2919   */\n      dup5\n        /* \"#utility.yul\":2869:2940   */\n      tag_245\n      jump\t// in\n    tag_350:\n        /* \"#utility.yul\":2725:2947   */\n      swap3\n      swap2\n      pop\n      pop\n      jump\t// out\n        /* \"#utility.yul\":2953:3075   */\n    tag_246:\n        /* \"#utility.yul\":3026:3050   */\n      tag_352\n        /* \"#utility.yul\":3044:3049   */\n      dup2\n        /* \"#utility.yul\":3026:3050   */\n      tag_244\n      jump\t// in\n    tag_352:\n        /* \"#utility.yul\":3019:3024   */\n      dup2\n        /* \"#utility.yul\":3016:3051   */\n      eq\n        /* \"#utility.yul\":3006:3069   */\n      tag_353\n      jumpi\n        /* \"#utility.yul\":3065:3066   */\n      0x00\n        /* \"#utility.yul\":3062:3063   */\n      dup1\n        /* \"#utility.yul\":3055:3067   */\n      revert\n        /* \"#utility.yul\":3006:3069   */\n    tag_353:\n        /* \"#utility.yul\":2953:3075   */\n      pop\n      jump\t// out\n        /* \"#utility.yul\":3081:3220   */\n    tag_247:\n        /* \"#utility.yul\":3127:3132   */\n      0x00\n        /* \"#utility.yul\":3165:3171   */\n      dup2\n        /* \"#utility.yul\":3152:3172   */\n      calldataload\n        /* \"#utility.yul\":3143:3172   */\n      swap1\n      pop\n        /* \"#utility.yul\":3181:3214   */\n      tag_355\n        /* \"#utility.yul\":3208:3213   */\n      dup2\n        /* \"#utility.yul\":3181:3214   */\n      tag_246\n      jump\t// in\n    tag_355:\n        /* \"#utility.yul\":3081:3220   */\n      swap3\n      swap2\n      pop\n      pop\n      jump\t// out\n        /* \"#utility.yul\":3226:3700   */\n    tag_36:\n        /* \"#utility.yul\":3294:3300   */\n      0x00\n        /* \"#utility.yul\":3302:3308   */\n      dup1\n        /* \"#utility.yul\":3351:3353   */\n      0x40\n        /* \"#utility.yul\":3339:3348   */\n      dup4\n        /* \"#utility.yul\":3330:3337   */\n      dup6\n        /* \"#utility.yul\":3326:3349   */\n      sub\n        /* \"#utility.yul\":3322:3354   */\n      slt\n        /* \"#utility.yul\":3319:3438   */\n      iszero\n      tag_357\n      jumpi\n        /* \"#utility.yul\":3357:3436   */\n      tag_358\n      tag_238\n      jump\t// in\n    tag_358:\n        /* \"#utility.yul\":3319:3438   */\n    tag_357:\n        /* \"#utility.yul\":3477:3478   */\n      0x00\n        /* \"#utility.yul\":3502:3555   */\n      tag_359\n        /* \"#utility.yul\":3547:3554   */\n      dup6\n        /* \"#utility.yul\":3538:3544   */\n      dup3\n        /* \"#utility.yul\":3527:3536   */\n      dup7\n        /* \"#utility.yul\":3523:3545   */\n      add\n        /* \"#utility.yul\":3502:3555   */\n      tag_247\n      jump\t// in\n    tag_359:\n        /* \"#utility.yul\":3492:3555   */\n      swap3\n      pop\n        /* \"#utility.yul\":3448:3565   */\n      pop\n        /* \"#utility.yul\":3604:3606   */\n      0x20\n        /* \"#utility.yul\":3630:3683   */\n      tag_360\n        /* \"#utility.yul\":3675:3682   */\n      dup6\n        /* \"#utility.yul\":3666:3672   */\n      dup3\n        /* \"#utility.yul\":3655:3664   */\n      dup7\n        /* \"#utility.yul\":3651:3673   */\n      add\n        /* \"#utility.yul\":3630:3683   */\n      tag_242\n      jump\t// in\n    tag_360:\n        /* \"#utility.yul\":3620:3683   */\n      swap2\n      pop\n        /* \"#utility.yul\":3575:3693   */\n      pop\n        /* \"#utility.yul\":3226:3700   */\n      swap3\n      pop\n      swap3\n      swap1\n      pop\n      jump\t// out\n        /* \"#utility.yul\":3706:3823   */\n    tag_248:\n        /* \"#utility.yul\":3815:3816   */\n      0x00\n        /* \"#utility.yul\":3812:3813   */\n      dup1\n        /* \"#utility.yul\":3805:3817   */\n      revert\n        /* \"#utility.yul\":3829:3946   */\n    tag_249:\n        /* \"#utility.yul\":3938:3939   */\n      0x00\n        /* \"#utility.yul\":3935:3936   */\n      dup1\n        /* \"#utility.yul\":3928:3940   */\n      revert\n        /* \"#utility.yul\":3952:4132   */\n    tag_250:\n        /* \"#utility.yul\":4000:4077   */\n      0x4e487b7100000000000000000000000000000000000000000000000000000000\n        /* \"#utility.yul\":3997:3998   */\n      0x00\n        /* \"#utility.yul\":3990:4078   */\n      mstore\n        /* \"#utility.yul\":4097:4101   */\n      0x41\n        /* \"#utility.yul\":4094:4095   */\n      0x04\n        /* \"#utility.yul\":4087:4102   */\n      mstore\n        /* \"#utility.yul\":4121:4125   */\n      0x24\n        /* \"#utility.yul\":4118:4119   */\n      0x00\n        /* \"#utility.yul\":4111:4126   */\n      revert\n        /* \"#utility.yul\":4138:4419   */\n    tag_251:\n        /* \"#utility.yul\":4221:4248   */\n      tag_365\n        /* \"#utility.yul\":4243:4247   */\n      dup3\n        /* \"#utility.yul\":4221:4248   */\n      tag_235\n      jump\t// in\n    tag_365:\n        /* \"#utility.yul\":4213:4219   */\n      dup2\n        /* \"#utility.yul\":4209:4249   */\n      add\n        /* \"#utility.yul\":4351:4357   */\n      dup2\n        /* \"#utility.yul\":4339:4349   */\n      dup2\n        /* \"#utility.yul\":4336:4358   */\n      lt\n        /* \"#utility.yul\":4315:4333   */\n      0xffffffffffffffff\n        /* \"#utility.yul\":4303:4313   */\n      dup3\n        /* \"#utility.yul\":4300:4334   */\n      gt\n        /* \"#utility.yul\":4297:4359   */\n      or\n        /* \"#utility.yul\":4294:4382   */\n      iszero\n      tag_366\n      jumpi\n        /* \"#utility.yul\":4362:4380   */\n      tag_367\n      tag_250\n      jump\t// in\n    tag_367:\n        /* \"#utility.yul\":4294:4382   */\n    tag_366:\n        /* \"#utility.yul\":4402:4412   */\n      dup1\n        /* \"#utility.yul\":4398:4400   */\n      0x40\n        /* \"#utility.yul\":4391:4413   */\n      mstore\n        /* \"#utility.yul\":4181:4419   */\n      pop\n        /* \"#utility.yul\":4138:4419   */\n      pop\n      pop\n      jump\t// out\n        /* \"#utility.yul\":4425:4554   */\n    tag_252:\n        /* \"#utility.yul\":4459:4465   */\n      0x00\n        /* \"#utility.yul\":4486:4506   */\n      tag_369\n      tag_237\n      jump\t// in\n    tag_369:\n        /* \"#utility.yul\":4476:4506   */\n      swap1\n      pop\n        /* \"#utility.yul\":4515:4548   */\n      tag_370\n        /* \"#utility.yul\":4543:4547   */\n      dup3\n        /* \"#utility.yul\":4535:4541   */\n      dup3\n        /* \"#utility.yul\":4515:4548   */\n      tag_251\n      jump\t// in\n    tag_370:\n        /* \"#utility.yul\":4425:4554   */\n      swap2\n      swap1\n      pop\n      jump\t// out\n        /* \"#utility.yul\":4560:4868   */\n    tag_253:\n        /* \"#utility.yul\":4622:4626   */\n      0x00\n        /* \"#utility.yul\":4712:4730   */\n      0xffffffffffffffff\n        /* \"#utility.yul\":4704:4710   */\n      dup3\n        /* \"#utility.yul\":4701:4731   */\n      gt\n        /* \"#utility.yul\":4698:4754   */\n      iszero\n      tag_372\n      jumpi\n        /* \"#utility.yul\":4734:4752   */\n      tag_373\n      tag_250\n      jump\t// in\n    tag_373:\n        /* \"#utility.yul\":4698:4754   */\n    tag_372:\n        /* \"#utility.yul\":4772:4801   */\n      tag_374\n        /* \"#utility.yul\":4794:4800   */\n      dup3\n        /* \"#utility.yul\":4772:4801   */\n      tag_235\n      jump\t// in\n    tag_374:\n        /* \"#utility.yul\":4764:4801   */\n      swap1\n      pop\n        /* \"#utility.yul\":4856:4860   */\n      0x20\n        /* \"#utility.yul\":4850:4854   */\n      dup2\n        /* \"#utility.yul\":4846:4861   */\n      add\n        /* \"#utility.yul\":4838:4861   */\n      swap1\n      pop\n        /* \"#utility.yul\":4560:4868   */\n      swap2\n      swap1\n      pop\n      jump\t// out\n        /* \"#utility.yul\":4874:5020   */\n    tag_254:\n        /* \"#utility.yul\":4971:4977   */\n      dup3\n        /* \"#utility.yul\":4966:4969   */\n      dup2\n        /* \"#utility.yul\":4961:4964   */\n      dup4\n        /* \"#utility.yul\":4948:4978   */\n      calldatacopy\n        /* \"#utility.yul\":5012:5013   */\n      0x00\n        /* \"#utility.yul\":5003:5009   */\n      dup4\n        /* \"#utility.yul\":4998:5001   */\n      dup4\n        /* \"#utility.yul\":4994:5010   */\n      add\n        /* \"#utility.yul\":4987:5014   */\n      mstore\n        /* \"#utility.yul\":4874:5020   */\n      pop\n      pop\n      pop\n      jump\t// out\n        /* \"#utility.yul\":5026:5451   */\n    tag_255:\n        /* \"#utility.yul\":5104:5109   */\n      0x00\n        /* \"#utility.yul\":5129:5195   */\n      tag_377\n        /* \"#utility.yul\":5145:5194   */\n      tag_378\n        /* \"#utility.yul\":5187:5193   */\n      dup5\n        /* \"#utility.yul\":5145:5194   */\n      tag_253\n      jump\t// in\n    tag_378:\n        /* \"#utility.yul\":5129:5195   */\n      tag_252\n      jump\t// in\n    tag_377:\n        /* \"#utility.yul\":5120:5195   */\n      swap1\n      pop\n        /* \"#utility.yul\":5218:5224   */\n      dup3\n        /* \"#utility.yul\":5211:5216   */\n      dup2\n        /* \"#utility.yul\":5204:5225   */\n      mstore\n        /* \"#utility.yul\":5256:5260   */\n      0x20\n        /* \"#utility.yul\":5249:5254   */\n      dup2\n        /* \"#utility.yul\":5245:5261   */\n      add\n        /* \"#utility.yul\":5294:5297   */\n      dup5\n        /* \"#utility.yul\":5285:5291   */\n      dup5\n        /* \"#utility.yul\":5280:5283   */\n      dup5\n        /* \"#utility.yul\":5276:5292   */\n      add\n        /* \"#utility.yul\":5273:5298   */\n      gt\n        /* \"#utility.yul\":5270:5382   */\n      iszero\n      tag_379\n      jumpi\n        /* \"#utility.yul\":5301:5380   */\n      tag_380\n      tag_249\n      jump\t// in\n    tag_380:\n        /* \"#utility.yul\":5270:5382   */\n    tag_379:\n        /* \"#utility.yul\":5391:5445   */\n      tag_381\n        /* \"#utility.yul\":5438:5444   */\n      dup5\n        /* \"#utility.yul\":5433:5436   */\n      dup3\n        /* \"#utility.yul\":5428:5431   */\n      dup6\n        /* \"#utility.yul\":5391:5445   */\n      tag_254\n      jump\t// in\n    tag_381:\n        /* \"#utility.yul\":5110:5451   */\n      pop\n        /* \"#utility.yul\":5026:5451   */\n      swap4\n      swap3\n      pop\n      pop\n      pop\n      jump\t// out\n        /* \"#utility.yul\":5471:5811   */\n    tag_256:\n        /* \"#utility.yul\":5527:5532   */\n      0x00\n        /* \"#utility.yul\":5576:5579   */\n      dup3\n        /* \"#utility.yul\":5569:5573   */\n      0x1f\n        /* \"#utility.yul\":5561:5567   */\n      dup4\n        /* \"#utility.yul\":5557:5574   */\n      add\n        /* \"#utility.yul\":5553:5580   */\n      slt\n        /* \"#utility.yul\":5543:5665   */\n      tag_383\n      jumpi\n        /* \"#utility.yul\":5584:5663   */\n      tag_384\n      tag_248\n      jump\t// in\n    tag_384:\n        /* \"#utility.yul\":5543:5665   */\n    tag_383:\n        /* \"#utility.yul\":5701:5707   */\n      dup2\n        /* \"#utility.yul\":5688:5708   */\n      calldataload\n        /* \"#utility.yul\":5726:5805   */\n      tag_385\n        /* \"#utility.yul\":5801:5804   */\n      dup5\n        /* \"#utility.yul\":5793:5799   */\n      dup3\n        /* \"#utility.yul\":5786:5790   */\n      0x20\n        /* \"#utility.yul\":5778:5784   */\n      dup7\n        /* \"#utility.yul\":5774:5791   */\n      add\n        /* \"#utility.yul\":5726:5805   */\n      tag_255\n      jump\t// in\n    tag_385:\n        /* \"#utility.yul\":5717:5805   */\n      swap2\n      pop\n        /* \"#utility.yul\":5533:5811   */\n      pop\n        /* \"#utility.yul\":5471:5811   */\n      swap3\n      swap2\n      pop\n      pop\n      jump\t// out\n        /* \"#utility.yul\":5817:6471   */\n    tag_40:\n        /* \"#utility.yul\":5895:5901   */\n      0x00\n        /* \"#utility.yul\":5903:5909   */\n      dup1\n        /* \"#utility.yul\":5952:5954   */\n      0x40\n        /* \"#utility.yul\":5940:5949   */\n      dup4\n        /* \"#utility.yul\":5931:5938   */\n      dup6\n        /* \"#utility.yul\":5927:5950   */\n      sub\n        /* \"#utility.yul\":5923:5955   */\n      slt\n        /* \"#utility.yul\":5920:6039   */\n      iszero\n      tag_387\n      jumpi\n        /* \"#utility.yul\":5958:6037   */\n      tag_388\n      tag_238\n      jump\t// in\n    tag_388:\n        /* \"#utility.yul\":5920:6039   */\n    tag_387:\n        /* \"#utility.yul\":6078:6079   */\n      0x00\n        /* \"#utility.yul\":6103:6156   */\n      tag_389\n        /* \"#utility.yul\":6148:6155   */\n      dup6\n        /* \"#utility.yul\":6139:6145   */\n      dup3\n        /* \"#utility.yul\":6128:6137   */\n      dup7\n        /* \"#utility.yul\":6124:6146   */\n      add\n        /* \"#utility.yul\":6103:6156   */\n      tag_242\n      jump\t// in\n    tag_389:\n        /* \"#utility.yul\":6093:6156   */\n      swap3\n      pop\n        /* \"#utility.yul\":6049:6166   */\n      pop\n        /* \"#utility.yul\":6233:6235   */\n      0x20\n        /* \"#utility.yul\":6222:6231   */\n      dup4\n        /* \"#utility.yul\":6218:6236   */\n      add\n        /* \"#utility.yul\":6205:6237   */\n      calldataload\n        /* \"#utility.yul\":6264:6282   */\n      0xffffffffffffffff\n        /* \"#utility.yul\":6256:6262   */\n      dup2\n        /* \"#utility.yul\":6253:6283   */\n      gt\n        /* \"#utility.yul\":6250:6367   */\n      iszero\n      tag_390\n      jumpi\n        /* \"#utility.yul\":6286:6365   */\n      tag_391\n      tag_239\n      jump\t// in\n    tag_391:\n        /* \"#utility.yul\":6250:6367   */\n    tag_390:\n        /* \"#utility.yul\":6391:6454   */\n      tag_392\n        /* \"#utility.yul\":6446:6453   */\n      dup6\n        /* \"#utility.yul\":6437:6443   */\n      dup3\n        /* \"#utility.yul\":6426:6435   */\n      dup7\n        /* \"#utility.yul\":6422:6444   */\n      add\n        /* \"#utility.yul\":6391:6454   */\n      tag_256\n      jump\t// in\n    tag_392:\n        /* \"#utility.yul\":6381:6454   */\n      swap2\n      pop\n        /* \"#utility.yul\":6176:6464   */\n      pop\n        /* \"#utility.yul\":5817:6471   */\n      swap3\n      pop\n      swap3\n      swap1\n      pop\n      jump\t// out\n        /* \"#utility.yul\":6477:7096   */\n    tag_44:\n        /* \"#utility.yul\":6554:6560   */\n      0x00\n        /* \"#utility.yul\":6562:6568   */\n      dup1\n        /* \"#utility.yul\":6570:6576   */\n      0x00\n        /* \"#utility.yul\":6619:6621   */\n      0x60\n        /* \"#utility.yul\":6607:6616   */\n      dup5\n        /* \"#utility.yul\":6598:6605   */\n      dup7\n        /* \"#utility.yul\":6594:6617   */\n      sub\n        /* \"#utility.yul\":6590:6622   */\n      slt\n        /* \"#utility.yul\":6587:6706   */\n      iszero\n      tag_394\n      jumpi\n        /* \"#utility.yul\":6625:6704   */\n      tag_395\n      tag_238\n      jump\t// in\n    tag_395:\n        /* \"#utility.yul\":6587:6706   */\n    tag_394:\n        /* \"#utility.yul\":6745:6746   */\n      0x00\n        /* \"#utility.yul\":6770:6823   */\n      tag_396\n        /* \"#utility.yul\":6815:6822   */\n      dup7\n        /* \"#utility.yul\":6806:6812   */\n      dup3\n        /* \"#utility.yul\":6795:6804   */\n      dup8\n        /* \"#utility.yul\":6791:6813   */\n      add\n        /* \"#utility.yul\":6770:6823   */\n      tag_247\n      jump\t// in\n    tag_396:\n        /* \"#utility.yul\":6760:6823   */\n      swap4\n      pop\n        /* \"#utility.yul\":6716:6833   */\n      pop\n        /* \"#utility.yul\":6872:6874   */\n      0x20\n        /* \"#utility.yul\":6898:6951   */\n      tag_397\n        /* \"#utility.yul\":6943:6950   */\n      dup7\n        /* \"#utility.yul\":6934:6940   */\n      dup3\n        /* \"#utility.yul\":6923:6932   */\n      dup8\n        /* \"#utility.yul\":6919:6941   */\n      add\n        /* \"#utility.yul\":6898:6951   */\n      tag_247\n      jump\t// in\n    tag_397:\n        /* \"#utility.yul\":6888:6951   */\n      swap3\n      pop\n        /* \"#utility.yul\":6843:6961   */\n      pop\n        /* \"#utility.yul\":7000:7002   */\n      0x40\n        /* \"#utility.yul\":7026:7079   */\n      tag_398\n        /* \"#utility.yul\":7071:7078   */\n      dup7\n        /* \"#utility.yul\":7062:7068   */\n      dup3\n        /* \"#utility.yul\":7051:7060   */\n      dup8\n        /* \"#utility.yul\":7047:7069   */\n      add\n        /* \"#utility.yul\":7026:7079   */\n      tag_242\n      jump\t// in\n    tag_398:\n        /* \"#utility.yul\":7016:7079   */\n      swap2\n      pop\n        /* \"#utility.yul\":6971:7089   */\n      pop\n        /* \"#utility.yul\":6477:7096   */\n      swap3\n      pop\n      swap3\n      pop\n      swap3\n      jump\t// out\n        /* \"#utility.yul\":7102:7431   */\n    tag_61:\n        /* \"#utility.yul\":7161:7167   */\n      0x00\n        /* \"#utility.yul\":7210:7212   */\n      0x20\n        /* \"#utility.yul\":7198:7207   */\n      dup3\n        /* \"#utility.yul\":7189:7196   */\n      dup5\n        /* \"#utility.yul\":7185:7208   */\n      sub\n        /* \"#utility.yul\":7181:7213   */\n      slt\n        /* \"#utility.yul\":7178:7297   */\n      iszero\n      tag_400\n      jumpi\n        /* \"#utility.yul\":7216:7295   */\n      tag_401\n      tag_238\n      jump\t// in\n    tag_401:\n        /* \"#utility.yul\":7178:7297   */\n    tag_400:\n        /* \"#utility.yul\":7336:7337   */\n      0x00\n        /* \"#utility.yul\":7361:7414   */\n      tag_402\n        /* \"#utility.yul\":7406:7413   */\n      dup5\n        /* \"#utility.yul\":7397:7403   */\n      dup3\n        /* \"#utility.yul\":7386:7395   */\n      dup6\n        /* \"#utility.yul\":7382:7404   */\n      add\n        /* \"#utility.yul\":7361:7414   */\n      tag_247\n      jump\t// in\n    tag_402:\n        /* \"#utility.yul\":7351:7414   */\n      swap2\n      pop\n        /* \"#utility.yul\":7307:7424   */\n      pop\n        /* \"#utility.yul\":7102:7431   */\n      swap3\n      swap2\n      pop\n      pop\n      jump\t// out\n        /* \"#utility.yul\":7437:7555   */\n    tag_257:\n        /* \"#utility.yul\":7524:7548   */\n      tag_404\n        /* \"#utility.yul\":7542:7547   */\n      dup2\n        /* \"#utility.yul\":7524:7548   */\n      tag_240\n      jump\t// in\n    tag_404:\n        /* \"#utility.yul\":7519:7522   */\n      dup3\n        /* \"#utility.yul\":7512:7549   */\n      mstore\n        /* \"#utility.yul\":7437:7555   */\n      pop\n      pop\n      jump\t// out\n        /* \"#utility.yul\":7561:7783   */\n    tag_64:\n        /* \"#utility.yul\":7654:7658   */\n      0x00\n        /* \"#utility.yul\":7692:7694   */\n      0x20\n        /* \"#utility.yul\":7681:7690   */\n      dup3\n        /* \"#utility.yul\":7677:7695   */\n      add\n        /* \"#utility.yul\":7669:7695   */\n      swap1\n      pop\n        /* \"#utility.yul\":7705:7776   */\n      tag_406\n        /* \"#utility.yul\":7773:7774   */\n      0x00\n        /* \"#utility.yul\":7762:7771   */\n      dup4\n        /* \"#utility.yul\":7758:7775   */\n      add\n        /* \"#utility.yul\":7749:7755   */\n      dup5\n        /* \"#utility.yul\":7705:7776   */\n      tag_257\n      jump\t// in\n    tag_406:\n        /* \"#utility.yul\":7561:7783   */\n      swap3\n      swap2\n      pop\n      pop\n      jump\t// out\n        /* \"#utility.yul\":7789:7938   */\n    tag_258:\n        /* \"#utility.yul\":7825:7832   */\n      0x00\n        /* \"#utility.yul\":7865:7931   */\n      0xffffffff00000000000000000000000000000000000000000000000000000000\n        /* \"#utility.yul\":7858:7863   */\n      dup3\n        /* \"#utility.yul\":7854:7932   */\n      and\n        /* \"#utility.yul\":7843:7932   */\n      swap1\n      pop\n        /* \"#utility.yul\":7789:7938   */\n      swap2\n      swap1\n      pop\n      jump\t// out\n        /* \"#utility.yul\":7944:8064   */\n    tag_259:\n        /* \"#utility.yul\":8016:8039   */\n      tag_409\n        /* \"#utility.yul\":8033:8038   */\n      dup2\n        /* \"#utility.yul\":8016:8039   */\n      tag_258\n      jump\t// in\n    tag_409:\n        /* \"#utility.yul\":8009:8014   */\n      dup2\n        /* \"#utility.yul\":8006:8040   */\n      eq\n        /* \"#utility.yul\":7996:8058   */\n      tag_410\n      jumpi\n        /* \"#utility.yul\":8054:8055   */\n      0x00\n        /* \"#utility.yul\":8051:8052   */\n      dup1\n        /* \"#utility.yul\":8044:8056   */\n      revert\n        /* \"#utility.yul\":7996:8058   */\n    tag_410:\n        /* \"#utility.yul\":7944:8064   */\n      pop\n      jump\t// out\n        /* \"#utility.yul\":8070:8207   */\n    tag_260:\n        /* \"#utility.yul\":8115:8120   */\n      0x00\n        /* \"#utility.yul\":8153:8159   */\n      dup2\n        /* \"#utility.yul\":8140:8160   */\n      calldataload\n        /* \"#utility.yul\":8131:8160   */\n      swap1\n      pop\n        /* \"#utility.yul\":8169:8201   */\n      tag_412\n        /* \"#utility.yul\":8195:8200   */\n      dup2\n        /* \"#utility.yul\":8169:8201   */\n      tag_259\n      jump\t// in\n    tag_412:\n        /* \"#utility.yul\":8070:8207   */\n      swap3\n      swap2\n      pop\n      pop\n      jump\t// out\n        /* \"#utility.yul\":8213:8540   */\n    tag_67:\n        /* \"#utility.yul\":8271:8277   */\n      0x00\n        /* \"#utility.yul\":8320:8322   */\n      0x20\n        /* \"#utility.yul\":8308:8317   */\n      dup3\n        /* \"#utility.yul\":8299:8306   */\n      dup5\n        /* \"#utility.yul\":8295:8318   */\n      sub\n        /* \"#utility.yul\":8291:8323   */\n      slt\n        /* \"#utility.yul\":8288:8407   */\n      iszero\n      tag_414\n      jumpi\n        /* \"#utility.yul\":8326:8405   */\n      tag_415\n      tag_238\n      jump\t// in\n    tag_415:\n        /* \"#utility.yul\":8288:8407   */\n    tag_414:\n        /* \"#utility.yul\":8446:8447   */\n      0x00\n        /* \"#utility.yul\":8471:8523   */\n      tag_416\n        /* \"#utility.yul\":8515:8522   */\n      dup5\n        /* \"#utility.yul\":8506:8512   */\n      dup3\n        /* \"#utility.yul\":8495:8504   */\n      dup6\n        /* \"#utility.yul\":8491:8513   */\n      add\n        /* \"#utility.yul\":8471:8523   */\n      tag_260\n      jump\t// in\n    tag_416:\n        /* \"#utility.yul\":8461:8523   */\n      swap2\n      pop\n        /* \"#utility.yul\":8417:8533   */\n      pop\n        /* \"#utility.yul\":8213:8540   */\n      swap3\n      swap2\n      pop\n      pop\n      jump\t// out\n        /* \"#utility.yul\":8546:8636   */\n    tag_261:\n        /* \"#utility.yul\":8580:8587   */\n      0x00\n        /* \"#utility.yul\":8623:8628   */\n      dup2\n        /* \"#utility.yul\":8616:8629   */\n      iszero\n        /* \"#utility.yul\":8609:8630   */\n      iszero\n        /* \"#utility.yul\":8598:8630   */\n      swap1\n      pop\n        /* \"#utility.yul\":8546:8636   */\n      swap2\n      swap1\n      pop\n      jump\t// out\n        /* \"#utility.yul\":8642:8751   */\n    tag_262:\n        /* \"#utility.yul\":8723:8744   */\n      tag_419\n        /* \"#utility.yul\":8738:8743   */\n      dup2\n        /* \"#utility.yul\":8723:8744   */\n      tag_261\n      jump\t// in\n    tag_419:\n        /* \"#utility.yul\":8718:8721   */\n      dup3\n        /* \"#utility.yul\":8711:8745   */\n      mstore\n        /* \"#utility.yul\":8642:8751   */\n      pop\n      pop\n      jump\t// out\n        /* \"#utility.yul\":8757:8967   */\n    tag_70:\n        /* \"#utility.yul\":8844:8848   */\n      0x00\n        /* \"#utility.yul\":8882:8884   */\n      0x20\n        /* \"#utility.yul\":8871:8880   */\n      dup3\n        /* \"#utility.yul\":8867:8885   */\n      add\n        /* \"#utility.yul\":8859:8885   */\n      swap1\n      pop\n        /* \"#utility.yul\":8895:8960   */\n      tag_421\n        /* \"#utility.yul\":8957:8958   */\n      0x00\n        /* \"#utility.yul\":8946:8955   */\n      dup4\n        /* \"#utility.yul\":8942:8959   */\n      add\n        /* \"#utility.yul\":8933:8939   */\n      dup5\n        /* \"#utility.yul\":8895:8960   */\n      tag_262\n      jump\t// in\n    tag_421:\n        /* \"#utility.yul\":8757:8967   */\n      swap3\n      swap2\n      pop\n      pop\n      jump\t// out\n        /* \"#utility.yul\":8973:9280   */\n    tag_263:\n        /* \"#utility.yul\":9034:9038   */\n      0x00\n        /* \"#utility.yul\":9124:9142   */\n      0xffffffffffffffff\n        /* \"#utility.yul\":9116:9122   */\n      dup3\n        /* \"#utility.yul\":9113:9143   */\n      gt\n        /* \"#utility.yul\":9110:9166   */\n      iszero\n      tag_423\n      jumpi\n        /* \"#utility.yul\":9146:9164   */\n      tag_424\n      tag_250\n      jump\t// in\n    tag_424:\n        /* \"#utility.yul\":9110:9166   */\n    tag_423:\n        /* \"#utility.yul\":9184:9213   */\n      tag_425\n        /* \"#utility.yul\":9206:9212   */\n      dup3\n        /* \"#utility.yul\":9184:9213   */\n      tag_235\n      jump\t// in\n    tag_425:\n        /* \"#utility.yul\":9176:9213   */\n      swap1\n      pop\n        /* \"#utility.yul\":9268:9272   */\n      0x20\n        /* \"#utility.yul\":9262:9266   */\n      dup2\n        /* \"#utility.yul\":9258:9273   */\n      add\n        /* \"#utility.yul\":9250:9273   */\n      swap1\n      pop\n        /* \"#utility.yul\":8973:9280   */\n      swap2\n      swap1\n      pop\n      jump\t// out\n        /* \"#utility.yul\":9286:9709   */\n    tag_264:\n        /* \"#utility.yul\":9363:9368   */\n      0x00\n        /* \"#utility.yul\":9388:9453   */\n      tag_427\n        /* \"#utility.yul\":9404:9452   */\n      tag_428\n        /* \"#utility.yul\":9445:9451   */\n      dup5\n        /* \"#utility.yul\":9404:9452   */\n      tag_263\n      jump\t// in\n    tag_428:\n        /* \"#utility.yul\":9388:9453   */\n      tag_252\n      jump\t// in\n    tag_427:\n        /* \"#utility.yul\":9379:9453   */\n      swap1\n      pop\n        /* \"#utility.yul\":9476:9482   */\n      dup3\n        /* \"#utility.yul\":9469:9474   */\n      dup2\n        /* \"#utility.yul\":9462:9483   */\n      mstore\n        /* \"#utility.yul\":9514:9518   */\n      0x20\n        /* \"#utility.yul\":9507:9512   */\n      dup2\n        /* \"#utility.yul\":9503:9519   */\n      add\n        /* \"#utility.yul\":9552:9555   */\n      dup5\n        /* \"#utility.yul\":9543:9549   */\n      dup5\n        /* \"#utility.yul\":9538:9541   */\n      dup5\n        /* \"#utility.yul\":9534:9550   */\n      add\n        /* \"#utility.yul\":9531:9556   */\n      gt\n        /* \"#utility.yul\":9528:9640   */\n      iszero\n      tag_429\n      jumpi\n        /* \"#utility.yul\":9559:9638   */\n      tag_430\n      tag_249\n      jump\t// in\n    tag_430:\n        /* \"#utility.yul\":9528:9640   */\n    tag_429:\n        /* \"#utility.yul\":9649:9703   */\n      tag_431\n        /* \"#utility.yul\":9696:9702   */\n      dup5\n        /* \"#utility.yul\":9691:9694   */\n      dup3\n        /* \"#utility.yul\":9686:9689   */\n      dup6\n        /* \"#utility.yul\":9649:9703   */\n      tag_254\n      jump\t// in\n    tag_431:\n        /* \"#utility.yul\":9369:9709   */\n      pop\n        /* \"#utility.yul\":9286:9709   */\n      swap4\n      swap3\n      pop\n      pop\n      pop\n      jump\t// out\n        /* \"#utility.yul\":9728:10066   */\n    tag_265:\n        /* \"#utility.yul\":9783:9788   */\n      0x00\n        /* \"#utility.yul\":9832:9835   */\n      dup3\n        /* \"#utility.yul\":9825:9829   */\n      0x1f\n        /* \"#utility.yul\":9817:9823   */\n      dup4\n        /* \"#utility.yul\":9813:9830   */\n      add\n        /* \"#utility.yul\":9809:9836   */\n      slt\n        /* \"#utility.yul\":9799:9921   */\n      tag_433\n      jumpi\n        /* \"#utility.yul\":9840:9919   */\n      tag_434\n      tag_248\n      jump\t// in\n    tag_434:\n        /* \"#utility.yul\":9799:9921   */\n    tag_433:\n        /* \"#utility.yul\":9957:9963   */\n      dup2\n        /* \"#utility.yul\":9944:9964   */\n      calldataload\n        /* \"#utility.yul\":9982:10060   */\n      tag_435\n        /* \"#utility.yul\":10056:10059   */\n      dup5\n        /* \"#utility.yul\":10048:10054   */\n      dup3\n        /* \"#utility.yul\":10041:10045   */\n      0x20\n        /* \"#utility.yul\":10033:10039   */\n      dup7\n        /* \"#utility.yul\":10029:10046   */\n      add\n        /* \"#utility.yul\":9982:10060   */\n      tag_264\n      jump\t// in\n    tag_435:\n        /* \"#utility.yul\":9973:10060   */\n      swap2\n      pop\n        /* \"#utility.yul\":9789:10066   */\n      pop\n        /* \"#utility.yul\":9728:10066   */\n      swap3\n      swap2\n      pop\n      pop\n      jump\t// out\n        /* \"#utility.yul\":10072:10869   */\n    tag_73:\n        /* \"#utility.yul\":10158:10164   */\n      0x00\n        /* \"#utility.yul\":10166:10172   */\n      dup1\n        /* \"#utility.yul\":10174:10180   */\n      0x00\n        /* \"#utility.yul\":10223:10225   */\n      0x60\n        /* \"#utility.yul\":10211:10220   */\n      dup5\n        /* \"#utility.yul\":10202:10209   */\n      dup7\n        /* \"#utility.yul\":10198:10221   */\n      sub\n        /* \"#utility.yul\":10194:10226   */\n      slt\n        /* \"#utility.yul\":10191:10310   */\n      iszero\n      tag_437\n      jumpi\n        /* \"#utility.yul\":10229:10308   */\n      tag_438\n      tag_238\n      jump\t// in\n    tag_438:\n        /* \"#utility.yul\":10191:10310   */\n    tag_437:\n        /* \"#utility.yul\":10349:10350   */\n      0x00\n        /* \"#utility.yul\":10374:10427   */\n      tag_439\n        /* \"#utility.yul\":10419:10426   */\n      dup7\n        /* \"#utility.yul\":10410:10416   */\n      dup3\n        /* \"#utility.yul\":10399:10408   */\n      dup8\n        /* \"#utility.yul\":10395:10417   */\n      add\n        /* \"#utility.yul\":10374:10427   */\n      tag_247\n      jump\t// in\n    tag_439:\n        /* \"#utility.yul\":10364:10427   */\n      swap4\n      pop\n        /* \"#utility.yul\":10320:10437   */\n      pop\n        /* \"#utility.yul\":10476:10478   */\n      0x20\n        /* \"#utility.yul\":10502:10555   */\n      tag_440\n        /* \"#utility.yul\":10547:10554   */\n      dup7\n        /* \"#utility.yul\":10538:10544   */\n      dup3\n        /* \"#utility.yul\":10527:10536   */\n      dup8\n        /* \"#utility.yul\":10523:10545   */\n      add\n        /* \"#utility.yul\":10502:10555   */\n      tag_242\n      jump\t// in\n    tag_440:\n        /* \"#utility.yul\":10492:10555   */\n      swap3\n      pop\n        /* \"#utility.yul\":10447:10565   */\n      pop\n        /* \"#utility.yul\":10632:10634   */\n      0x40\n        /* \"#utility.yul\":10621:10630   */\n      dup5\n        /* \"#utility.yul\":10617:10635   */\n      add\n        /* \"#utility.yul\":10604:10636   */\n      calldataload\n        /* \"#utility.yul\":10663:10681   */\n      0xffffffffffffffff\n        /* \"#utility.yul\":10655:10661   */\n      dup2\n        /* \"#utility.yul\":10652:10682   */\n      gt\n        /* \"#utility.yul\":10649:10766   */\n      iszero\n      tag_441\n      jumpi\n        /* \"#utility.yul\":10685:10764   */\n      tag_442\n      tag_239\n      jump\t// in\n    tag_442:\n        /* \"#utility.yul\":10649:10766   */\n    tag_441:\n        /* \"#utility.yul\":10790:10852   */\n      tag_443\n        /* \"#utility.yul\":10844:10851   */\n      dup7\n        /* \"#utility.yul\":10835:10841   */\n      dup3\n        /* \"#utility.yul\":10824:10833   */\n      dup8\n        /* \"#utility.yul\":10820:10842   */\n      add\n        /* \"#utility.yul\":10790:10852   */\n      tag_265\n      jump\t// in\n    tag_443:\n        /* \"#utility.yul\":10780:10852   */\n      swap2\n      pop\n        /* \"#utility.yul\":10575:10862   */\n      pop\n        /* \"#utility.yul\":10072:10869   */\n      swap3\n      pop\n      swap3\n      pop\n      swap3\n      jump\t// out\n        /* \"#utility.yul\":10875:10991   */\n    tag_266:\n        /* \"#utility.yul\":10945:10966   */\n      tag_445\n        /* \"#utility.yul\":10960:10965   */\n      dup2\n        /* \"#utility.yul\":10945:10966   */\n      tag_261\n      jump\t// in\n    tag_445:\n        /* \"#utility.yul\":10938:10943   */\n      dup2\n        /* \"#utility.yul\":10935:10967   */\n      eq\n        /* \"#utility.yul\":10925:10985   */\n      tag_446\n      jumpi\n        /* \"#utility.yul\":10981:10982   */\n      0x00\n        /* \"#utility.yul\":10978:10979   */\n      dup1\n        /* \"#utility.yul\":10971:10983   */\n      revert\n        /* \"#utility.yul\":10925:10985   */\n    tag_446:\n        /* \"#utility.yul\":10875:10991   */\n      pop\n      jump\t// out\n        /* \"#utility.yul\":10997:11130   */\n    tag_267:\n        /* \"#utility.yul\":11040:11045   */\n      0x00\n        /* \"#utility.yul\":11078:11084   */\n      dup2\n        /* \"#utility.yul\":11065:11085   */\n      calldataload\n        /* \"#utility.yul\":11056:11085   */\n      swap1\n      pop\n        /* \"#utility.yul\":11094:11124   */\n      tag_448\n        /* \"#utility.yul\":11118:11123   */\n      dup2\n        /* \"#utility.yul\":11094:11124   */\n      tag_266\n      jump\t// in\n    tag_448:\n        /* \"#utility.yul\":10997:11130   */\n      swap3\n      swap2\n      pop\n      pop\n      jump\t// out\n        /* \"#utility.yul\":11136:11604   */\n    tag_83:\n        /* \"#utility.yul\":11201:11207   */\n      0x00\n        /* \"#utility.yul\":11209:11215   */\n      dup1\n        /* \"#utility.yul\":11258:11260   */\n      0x40\n        /* \"#utility.yul\":11246:11255   */\n      dup4\n        /* \"#utility.yul\":11237:11244   */\n      dup6\n        /* \"#utility.yul\":11233:11256   */\n      sub\n        /* \"#utility.yul\":11229:11261   */\n      slt\n        /* \"#utility.yul\":11226:11345   */\n      iszero\n      tag_450\n      jumpi\n        /* \"#utility.yul\":11264:11343   */\n      tag_451\n      tag_238\n      jump\t// in\n    tag_451:\n        /* \"#utility.yul\":11226:11345   */\n    tag_450:\n        /* \"#utility.yul\":11384:11385   */\n      0x00\n        /* \"#utility.yul\":11409:11462   */\n      tag_452\n        /* \"#utility.yul\":11454:11461   */\n      dup6\n        /* \"#utility.yul\":11445:11451   */\n      dup3\n        /* \"#utility.yul\":11434:11443   */\n      dup7\n        /* \"#utility.yul\":11430:11452   */\n      add\n        /* \"#utility.yul\":11409:11462   */\n      tag_247\n      jump\t// in\n    tag_452:\n        /* \"#utility.yul\":11399:11462   */\n      swap3\n      pop\n        /* \"#utility.yul\":11355:11472   */\n      pop\n        /* \"#utility.yul\":11511:11513   */\n      0x20\n        /* \"#utility.yul\":11537:11587   */\n      tag_453\n        /* \"#utility.yul\":11579:11586   */\n      dup6\n        /* \"#utility.yul\":11570:11576   */\n      dup3\n        /* \"#utility.yul\":11559:11568   */\n      dup7\n        /* \"#utility.yul\":11555:11577   */\n      add\n        /* \"#utility.yul\":11537:11587   */\n      tag_267\n      jump\t// in\n    tag_453:\n        /* \"#utility.yul\":11527:11587   */\n      swap2\n      pop\n        /* \"#utility.yul\":11482:11597   */\n      pop\n        /* \"#utility.yul\":11136:11604   */\n      swap3\n      pop\n      swap3\n      swap1\n      pop\n      jump\t// out\n        /* \"#utility.yul\":11610:11727   */\n    tag_268:\n        /* \"#utility.yul\":11719:11720   */\n      0x00\n        /* \"#utility.yul\":11716:11717   */\n      dup1\n        /* \"#utility.yul\":11709:11721   */\n      revert\n        /* \"#utility.yul\":11733:11850   */\n    tag_269:\n        /* \"#utility.yul\":11842:11843   */\n      0x00\n        /* \"#utility.yul\":11839:11840   */\n      dup1\n        /* \"#utility.yul\":11832:11844   */\n      revert\n        /* \"#utility.yul\":11869:12421   */\n    tag_270:\n        /* \"#utility.yul\":11926:11934   */\n      0x00\n        /* \"#utility.yul\":11936:11942   */\n      dup1\n        /* \"#utility.yul\":11986:11989   */\n      dup4\n        /* \"#utility.yul\":11979:11983   */\n      0x1f\n        /* \"#utility.yul\":11971:11977   */\n      dup5\n        /* \"#utility.yul\":11967:11984   */\n      add\n        /* \"#utility.yul\":11963:11990   */\n      slt\n        /* \"#utility.yul\":11953:12075   */\n      tag_457\n      jumpi\n        /* \"#utility.yul\":11994:12073   */\n      tag_458\n      tag_248\n      jump\t// in\n    tag_458:\n        /* \"#utility.yul\":11953:12075   */\n    tag_457:\n        /* \"#utility.yul\":12107:12113   */\n      dup3\n        /* \"#utility.yul\":12094:12114   */\n      calldataload\n        /* \"#utility.yul\":12084:12114   */\n      swap1\n      pop\n        /* \"#utility.yul\":12137:12155   */\n      0xffffffffffffffff\n        /* \"#utility.yul\":12129:12135   */\n      dup2\n        /* \"#utility.yul\":12126:12156   */\n      gt\n        /* \"#utility.yul\":12123:12240   */\n      iszero\n      tag_459\n      jumpi\n        /* \"#utility.yul\":12159:12238   */\n      tag_460\n      tag_268\n      jump\t// in\n    tag_460:\n        /* \"#utility.yul\":12123:12240   */\n    tag_459:\n        /* \"#utility.yul\":12273:12277   */\n      0x20\n        /* \"#utility.yul\":12265:12271   */\n      dup4\n        /* \"#utility.yul\":12261:12278   */\n      add\n        /* \"#utility.yul\":12249:12278   */\n      swap2\n      pop\n        /* \"#utility.yul\":12327:12330   */\n      dup4\n        /* \"#utility.yul\":12319:12323   */\n      0x01\n        /* \"#utility.yul\":12311:12317   */\n      dup3\n        /* \"#utility.yul\":12307:12324   */\n      mul\n        /* \"#utility.yul\":12297:12305   */\n      dup4\n        /* \"#utility.yul\":12293:12325   */\n      add\n        /* \"#utility.yul\":12290:12331   */\n      gt\n        /* \"#utility.yul\":12287:12415   */\n      iszero\n      tag_461\n      jumpi\n        /* \"#utility.yul\":12334:12413   */\n      tag_462\n      tag_269\n      jump\t// in\n    tag_462:\n        /* \"#utility.yul\":12287:12415   */\n    tag_461:\n        /* \"#utility.yul\":11869:12421   */\n      swap3\n      pop\n      swap3\n      swap1\n      pop\n      jump\t// out\n        /* \"#utility.yul\":12427:13390   */\n    tag_87:\n        /* \"#utility.yul\":12524:12530   */\n      0x00\n        /* \"#utility.yul\":12532:12538   */\n      dup1\n        /* \"#utility.yul\":12540:12546   */\n      0x00\n        /* \"#utility.yul\":12548:12554   */\n      dup1\n        /* \"#utility.yul\":12556:12562   */\n      0x00\n        /* \"#utility.yul\":12605:12608   */\n      0x80\n        /* \"#utility.yul\":12593:12602   */\n      dup7\n        /* \"#utility.yul\":12584:12591   */\n      dup9\n        /* \"#utility.yul\":12580:12603   */\n      sub\n        /* \"#utility.yul\":12576:12609   */\n      slt\n        /* \"#utility.yul\":12573:12693   */\n      iszero\n      tag_464\n      jumpi\n        /* \"#utility.yul\":12612:12691   */\n      tag_465\n      tag_238\n      jump\t// in\n    tag_465:\n        /* \"#utility.yul\":12573:12693   */\n    tag_464:\n        /* \"#utility.yul\":12732:12733   */\n      0x00\n        /* \"#utility.yul\":12757:12810   */\n      tag_466\n        /* \"#utility.yul\":12802:12809   */\n      dup9\n        /* \"#utility.yul\":12793:12799   */\n      dup3\n        /* \"#utility.yul\":12782:12791   */\n      dup10\n        /* \"#utility.yul\":12778:12800   */\n      add\n        /* \"#utility.yul\":12757:12810   */\n      tag_247\n      jump\t// in\n    tag_466:\n        /* \"#utility.yul\":12747:12810   */\n      swap6\n      pop\n        /* \"#utility.yul\":12703:12820   */\n      pop\n        /* \"#utility.yul\":12859:12861   */\n      0x20\n        /* \"#utility.yul\":12885:12938   */\n      tag_467\n        /* \"#utility.yul\":12930:12937   */\n      dup9\n        /* \"#utility.yul\":12921:12927   */\n      dup3\n        /* \"#utility.yul\":12910:12919   */\n      dup10\n        /* \"#utility.yul\":12906:12928   */\n      add\n        /* \"#utility.yul\":12885:12938   */\n      tag_247\n      jump\t// in\n    tag_467:\n        /* \"#utility.yul\":12875:12938   */\n      swap5\n      pop\n        /* \"#utility.yul\":12830:12948   */\n      pop\n        /* \"#utility.yul\":12987:12989   */\n      0x40\n        /* \"#utility.yul\":13013:13066   */\n      tag_468\n        /* \"#utility.yul\":13058:13065   */\n      dup9\n        /* \"#utility.yul\":13049:13055   */\n      dup3\n        /* \"#utility.yul\":13038:13047   */\n      dup10\n        /* \"#utility.yul\":13034:13056   */\n      add\n        /* \"#utility.yul\":13013:13066   */\n      tag_242\n      jump\t// in\n    tag_468:\n        /* \"#utility.yul\":13003:13066   */\n      swap4\n      pop\n        /* \"#utility.yul\":12958:13076   */\n      pop\n        /* \"#utility.yul\":13143:13145   */\n      0x60\n        /* \"#utility.yul\":13132:13141   */\n      dup7\n        /* \"#utility.yul\":13128:13146   */\n      add\n        /* \"#utility.yul\":13115:13147   */\n      calldataload\n        /* \"#utility.yul\":13174:13192   */\n      0xffffffffffffffff\n        /* \"#utility.yul\":13166:13172   */\n      dup2\n        /* \"#utility.yul\":13163:13193   */\n      gt\n        /* \"#utility.yul\":13160:13277   */\n      iszero\n      tag_469\n      jumpi\n        /* \"#utility.yul\":13196:13275   */\n      tag_470\n      tag_239\n      jump\t// in\n    tag_470:\n        /* \"#utility.yul\":13160:13277   */\n    tag_469:\n        /* \"#utility.yul\":13309:13373   */\n      tag_471\n        /* \"#utility.yul\":13365:13372   */\n      dup9\n        /* \"#utility.yul\":13356:13362   */\n      dup3\n        /* \"#utility.yul\":13345:13354   */\n      dup10\n        /* \"#utility.yul\":13341:13363   */\n      add\n        /* \"#utility.yul\":13309:13373   */\n      tag_270\n      jump\t// in\n    tag_471:\n        /* \"#utility.yul\":13291:13373   */\n      swap3\n      pop\n      swap3\n      pop\n        /* \"#utility.yul\":13086:13383   */\n      pop\n        /* \"#utility.yul\":12427:13390   */\n      swap3\n      swap6\n      pop\n      swap3\n      swap6\n      swap1\n      swap4\n      pop\n      jump\t// out\n        /* \"#utility.yul\":13396:13870   */\n    tag_95:\n        /* \"#utility.yul\":13464:13470   */\n      0x00\n        /* \"#utility.yul\":13472:13478   */\n      dup1\n        /* \"#utility.yul\":13521:13523   */\n      0x40\n        /* \"#utility.yul\":13509:13518   */\n      dup4\n        /* \"#utility.yul\":13500:13507   */\n      dup6\n        /* \"#utility.yul\":13496:13519   */\n      sub\n        /* \"#utility.yul\":13492:13524   */\n      slt\n        /* \"#utility.yul\":13489:13608   */\n      iszero\n      tag_473\n      jumpi\n        /* \"#utility.yul\":13527:13606   */\n      tag_474\n      tag_238\n      jump\t// in\n    tag_474:\n        /* \"#utility.yul\":13489:13608   */\n    tag_473:\n        /* \"#utility.yul\":13647:13648   */\n      0x00\n        /* \"#utility.yul\":13672:13725   */\n      tag_475\n        /* \"#utility.yul\":13717:13724   */\n      dup6\n        /* \"#utility.yul\":13708:13714   */\n      dup3\n        /* \"#utility.yul\":13697:13706   */\n      dup7\n        /* \"#utility.yul\":13693:13715   */\n      add\n        /* \"#utility.yul\":13672:13725   */\n      tag_247\n      jump\t// in\n    tag_475:\n        /* \"#utility.yul\":13662:13725   */\n      swap3\n      pop\n        /* \"#utility.yul\":13618:13735   */\n      pop\n        /* \"#utility.yul\":13774:13776   */\n      0x20\n        /* \"#utility.yul\":13800:13853   */\n      tag_476\n        /* \"#utility.yul\":13845:13852   */\n      dup6\n        /* \"#utility.yul\":13836:13842   */\n      dup3\n        /* \"#utility.yul\":13825:13834   */\n      dup7\n        /* \"#utility.yul\":13821:13843   */\n      add\n        /* \"#utility.yul\":13800:13853   */\n      tag_247\n      jump\t// in\n    tag_476:\n        /* \"#utility.yul\":13790:13853   */\n      swap2\n      pop\n        /* \"#utility.yul\":13745:13863   */\n      pop\n        /* \"#utility.yul\":13396:13870   */\n      swap3\n      pop\n      swap3\n      swap1\n      pop\n      jump\t// out\n        /* \"#utility.yul\":13876:14056   */\n    tag_271:\n        /* \"#utility.yul\":13924:14001   */\n      0x4e487b7100000000000000000000000000000000000000000000000000000000\n        /* \"#utility.yul\":13921:13922   */\n      0x00\n        /* \"#utility.yul\":13914:14002   */\n      mstore\n        /* \"#utility.yul\":14021:14025   */\n      0x22\n        /* \"#utility.yul\":14018:14019   */\n      0x04\n        /* \"#utility.yul\":14011:14026   */\n      mstore\n        /* \"#utility.yul\":14045:14049   */\n      0x24\n        /* \"#utility.yul\":14042:14043   */\n      0x00\n        /* \"#utility.yul\":14035:14050   */\n      revert\n        /* \"#utility.yul\":14062:14382   */\n    tag_100:\n        /* \"#utility.yul\":14106:14112   */\n      0x00\n        /* \"#utility.yul\":14143:14144   */\n      0x02\n        /* \"#utility.yul\":14137:14141   */\n      dup3\n        /* \"#utility.yul\":14133:14145   */\n      div\n        /* \"#utility.yul\":14123:14145   */\n      swap1\n      pop\n        /* \"#utility.yul\":14190:14191   */\n      0x01\n        /* \"#utility.yul\":14184:14188   */\n      dup3\n        /* \"#utility.yul\":14180:14192   */\n      and\n        /* \"#utility.yul\":14211:14229   */\n      dup1\n        /* \"#utility.yul\":14201:14282   */\n      tag_479\n      jumpi\n        /* \"#utility.yul\":14267:14271   */\n      0x7f\n        /* \"#utility.yul\":14259:14265   */\n      dup3\n        /* \"#utility.yul\":14255:14272   */\n      and\n        /* \"#utility.yul\":14245:14272   */\n      swap2\n      pop\n        /* \"#utility.yul\":14201:14282   */\n    tag_479:\n        /* \"#utility.yul\":14329:14331   */\n      0x20\n        /* \"#utility.yul\":14321:14327   */\n      dup3\n        /* \"#utility.yul\":14318:14332   */\n      lt\n        /* \"#utility.yul\":14298:14316   */\n      dup2\n        /* \"#utility.yul\":14295:14333   */\n      sub\n        /* \"#utility.yul\":14292:14376   */\n      tag_480\n      jumpi\n        /* \"#utility.yul\":14348:14366   */\n      tag_481\n      tag_271\n      jump\t// in\n    tag_481:\n        /* \"#utility.yul\":14292:14376   */\n    tag_480:\n        /* \"#utility.yul\":14113:14382   */\n      pop\n        /* \"#utility.yul\":14062:14382   */\n      swap2\n      swap1\n      pop\n      jump\t// out\n        /* \"#utility.yul\":14388:14623   */\n    tag_272:\n        /* \"#utility.yul\":14528:14562   */\n      0x4552524f523a20746f6b656e20686173206e6f74206265656e206d696e74206f\n        /* \"#utility.yul\":14524:14525   */\n      0x00\n        /* \"#utility.yul\":14516:14522   */\n      dup3\n        /* \"#utility.yul\":14512:14526   */\n      add\n        /* \"#utility.yul\":14505:14563   */\n      mstore\n        /* \"#utility.yul\":14597:14615   */\n      0x7220686173206265656e206275726e2e00000000000000000000000000000000\n        /* \"#utility.yul\":14592:14594   */\n      0x20\n        /* \"#utility.yul\":14584:14590   */\n      dup3\n        /* \"#utility.yul\":14580:14595   */\n      add\n        /* \"#utility.yul\":14573:14616   */\n      mstore\n        /* \"#utility.yul\":14388:14623   */\n      pop\n      jump\t// out\n        /* \"#utility.yul\":14629:14995   */\n    tag_273:\n        /* \"#utility.yul\":14771:14774   */\n      0x00\n        /* \"#utility.yul\":14792:14859   */\n      tag_484\n        /* \"#utility.yul\":14856:14858   */\n      0x30\n        /* \"#utility.yul\":14851:14854   */\n      dup4\n        /* \"#utility.yul\":14792:14859   */\n      tag_233\n      jump\t// in\n    tag_484:\n        /* \"#utility.yul\":14785:14859   */\n      swap2\n      pop\n        /* \"#utility.yul\":14868:14961   */\n      tag_485\n        /* \"#utility.yul\":14957:14960   */\n      dup3\n        /* \"#utility.yul\":14868:14961   */\n      tag_272\n      jump\t// in\n    tag_485:\n        /* \"#utility.yul\":14986:14988   */\n      0x40\n        /* \"#utility.yul\":14981:14984   */\n      dup3\n        /* \"#utility.yul\":14977:14989   */\n      add\n        /* \"#utility.yul\":14970:14989   */\n      swap1\n      pop\n        /* \"#utility.yul\":14629:14995   */\n      swap2\n      swap1\n      pop\n      jump\t// out\n        /* \"#utility.yul\":15001:15420   */\n    tag_108:\n        /* \"#utility.yul\":15167:15171   */\n      0x00\n        /* \"#utility.yul\":15205:15207   */\n      0x20\n        /* \"#utility.yul\":15194:15203   */\n      dup3\n        /* \"#utility.yul\":15190:15208   */\n      add\n        /* \"#utility.yul\":15182:15208   */\n      swap1\n      pop\n        /* \"#utility.yul\":15254:15263   */\n      dup2\n        /* \"#utility.yul\":15248:15252   */\n      dup2\n        /* \"#utility.yul\":15244:15264   */\n      sub\n        /* \"#utility.yul\":15240:15241   */\n      0x00\n        /* \"#utility.yul\":15229:15238   */\n      dup4\n        /* \"#utility.yul\":15225:15242   */\n      add\n        /* \"#utility.yul\":15218:15265   */\n      mstore\n        /* \"#utility.yul\":15282:15413   */\n      tag_487\n        /* \"#utility.yul\":15408:15412   */\n      dup2\n        /* \"#utility.yul\":15282:15413   */\n      tag_273\n      jump\t// in\n    tag_487:\n        /* \"#utility.yul\":15274:15413   */\n      swap1\n      pop\n        /* \"#utility.yul\":15001:15420   */\n      swap2\n      swap1\n      pop\n      jump\t// out\n        /* \"#utility.yul\":15426:15664   */\n    tag_274:\n        /* \"#utility.yul\":15566:15600   */\n      0x4552524f523a204d73672e73656e646572206973206e6f74206f776e6572206f\n        /* \"#utility.yul\":15562:15563   */\n      0x00\n        /* \"#utility.yul\":15554:15560   */\n      dup3\n        /* \"#utility.yul\":15550:15564   */\n      add\n        /* \"#utility.yul\":15543:15601   */\n      mstore\n        /* \"#utility.yul\":15635:15656   */\n      0x72206265696e6720617574686f72697a65642e00000000000000000000000000\n        /* \"#utility.yul\":15630:15632   */\n      0x20\n        /* \"#utility.yul\":15622:15628   */\n      dup3\n        /* \"#utility.yul\":15618:15633   */\n      add\n        /* \"#utility.yul\":15611:15657   */\n      mstore\n        /* \"#utility.yul\":15426:15664   */\n      pop\n      jump\t// out\n        /* \"#utility.yul\":15670:16036   */\n    tag_275:\n        /* \"#utility.yul\":15812:15815   */\n      0x00\n        /* \"#utility.yul\":15833:15900   */\n      tag_490\n        /* \"#utility.yul\":15897:15899   */\n      0x33\n        /* \"#utility.yul\":15892:15895   */\n      dup4\n        /* \"#utility.yul\":15833:15900   */\n      tag_233\n      jump\t// in\n    tag_490:\n        /* \"#utility.yul\":15826:15900   */\n      swap2\n      pop\n        /* \"#utility.yul\":15909:16002   */\n      tag_491\n        /* \"#utility.yul\":15998:16001   */\n      dup3\n        /* \"#utility.yul\":15909:16002   */\n      tag_274\n      jump\t// in\n    tag_491:\n        /* \"#utility.yul\":16027:16029   */\n      0x40\n        /* \"#utility.yul\":16022:16025   */\n      dup3\n        /* \"#utility.yul\":16018:16030   */\n      add\n        /* \"#utility.yul\":16011:16030   */\n      swap1\n      pop\n        /* \"#utility.yul\":15670:16036   */\n      swap2\n      swap1\n      pop\n      jump\t// out\n        /* \"#utility.yul\":16042:16461   */\n    tag_118:\n        /* \"#utility.yul\":16208:16212   */\n      0x00\n        /* \"#utility.yul\":16246:16248   */\n      0x20\n        /* \"#utility.yul\":16235:16244   */\n      dup3\n        /* \"#utility.yul\":16231:16249   */\n      add\n        /* \"#utility.yul\":16223:16249   */\n      swap1\n      pop\n        /* \"#utility.yul\":16295:16304   */\n      dup2\n        /* \"#utility.yul\":16289:16293   */\n      dup2\n        /* \"#utility.yul\":16285:16305   */\n      sub\n        /* \"#utility.yul\":16281:16282   */\n      0x00\n        /* \"#utility.yul\":16270:16279   */\n      dup4\n        /* \"#utility.yul\":16266:16283   */\n      add\n        /* \"#utility.yul\":16259:16306   */\n      mstore\n        /* \"#utility.yul\":16323:16454   */\n      tag_493\n        /* \"#utility.yul\":16449:16453   */\n      dup2\n        /* \"#utility.yul\":16323:16454   */\n      tag_275\n      jump\t// in\n    tag_493:\n        /* \"#utility.yul\":16315:16454   */\n      swap1\n      pop\n        /* \"#utility.yul\":16042:16461   */\n      swap2\n      swap1\n      pop\n      jump\t// out\n        /* \"#utility.yul\":16467:16645   */\n    tag_276:\n        /* \"#utility.yul\":16607:16637   */\n      0x4552524f523a20546f6b656e204964206973206e6f742076616c696400000000\n        /* \"#utility.yul\":16603:16604   */\n      0x00\n        /* \"#utility.yul\":16595:16601   */\n      dup3\n        /* \"#utility.yul\":16591:16605   */\n      add\n        /* \"#utility.yul\":16584:16638   */\n      mstore\n        /* \"#utility.yul\":16467:16645   */\n      pop\n      jump\t// out\n        /* \"#utility.yul\":16651:17017   */\n    tag_277:\n        /* \"#utility.yul\":16793:16796   */\n      0x00\n        /* \"#utility.yul\":16814:16881   */\n      tag_496\n        /* \"#utility.yul\":16878:16880   */\n      0x1c\n        /* \"#utility.yul\":16873:16876   */\n      dup4\n        /* \"#utility.yul\":16814:16881   */\n      tag_233\n      jump\t// in\n    tag_496:\n        /* \"#utility.yul\":16807:16881   */\n      swap2\n      pop\n        /* \"#utility.yul\":16890:16983   */\n      tag_497\n        /* \"#utility.yul\":16979:16982   */\n      dup3\n        /* \"#utility.yul\":16890:16983   */\n      tag_276\n      jump\t// in\n    tag_497:\n        /* \"#utility.yul\":17008:17010   */\n      0x20\n        /* \"#utility.yul\":17003:17006   */\n      dup3\n        /* \"#utility.yul\":16999:17011   */\n      add\n        /* \"#utility.yul\":16992:17011   */\n      swap1\n      pop\n        /* \"#utility.yul\":16651:17017   */\n      swap2\n      swap1\n      pop\n      jump\t// out\n        /* \"#utility.yul\":17023:17442   */\n    tag_123:\n        /* \"#utility.yul\":17189:17193   */\n      0x00\n        /* \"#utility.yul\":17227:17229   */\n      0x20\n        /* \"#utility.yul\":17216:17225   */\n      dup3\n        /* \"#utility.yul\":17212:17230   */\n      add\n        /* \"#utility.yul\":17204:17230   */\n      swap1\n      pop\n        /* \"#utility.yul\":17276:17285   */\n      dup2\n        /* \"#utility.yul\":17270:17274   */\n      dup2\n        /* \"#utility.yul\":17266:17286   */\n      sub\n        /* \"#utility.yul\":17262:17263   */\n      0x00\n        /* \"#utility.yul\":17251:17260   */\n      dup4\n        /* \"#utility.yul\":17247:17264   */\n      add\n        /* \"#utility.yul\":17240:17287   */\n      mstore\n        /* \"#utility.yul\":17304:17435   */\n      tag_499\n        /* \"#utility.yul\":17430:17434   */\n      dup2\n        /* \"#utility.yul\":17304:17435   */\n      tag_277\n      jump\t// in\n    tag_499:\n        /* \"#utility.yul\":17296:17435   */\n      swap1\n      pop\n        /* \"#utility.yul\":17023:17442   */\n      swap2\n      swap1\n      pop\n      jump\t// out\n        /* \"#utility.yul\":17448:17589   */\n    tag_278:\n        /* \"#utility.yul\":17497:17501   */\n      0x00\n        /* \"#utility.yul\":17520:17523   */\n      dup2\n        /* \"#utility.yul\":17512:17523   */\n      swap1\n      pop\n        /* \"#utility.yul\":17543:17546   */\n      dup2\n        /* \"#utility.yul\":17540:17541   */\n      0x00\n        /* \"#utility.yul\":17533:17547   */\n      mstore\n        /* \"#utility.yul\":17577:17581   */\n      0x20\n        /* \"#utility.yul\":17574:17575   */\n      0x00\n        /* \"#utility.yul\":17564:17582   */\n      keccak256\n        /* \"#utility.yul\":17556:17582   */\n      swap1\n      pop\n        /* \"#utility.yul\":17448:17589   */\n      swap2\n      swap1\n      pop\n      jump\t// out\n        /* \"#utility.yul\":17595:17688   */\n    tag_279:\n        /* \"#utility.yul\":17632:17638   */\n      0x00\n        /* \"#utility.yul\":17679:17681   */\n      0x20\n        /* \"#utility.yul\":17674:17676   */\n      0x1f\n        /* \"#utility.yul\":17667:17672   */\n      dup4\n        /* \"#utility.yul\":17663:17677   */\n      add\n        /* \"#utility.yul\":17659:17682   */\n      div\n        /* \"#utility.yul\":17649:17682   */\n      swap1\n      pop\n        /* \"#utility.yul\":17595:17688   */\n      swap2\n      swap1\n      pop\n      jump\t// out\n        /* \"#utility.yul\":17694:17801   */\n    tag_280:\n        /* \"#utility.yul\":17738:17746   */\n      0x00\n        /* \"#utility.yul\":17788:17793   */\n      dup3\n        /* \"#utility.yul\":17782:17786   */\n      dup3\n        /* \"#utility.yul\":17778:17794   */\n      shl\n        /* \"#utility.yul\":17757:17794   */\n      swap1\n      pop\n        /* \"#utility.yul\":17694:17801   */\n      swap3\n      swap2\n      pop\n      pop\n      jump\t// out\n        /* \"#utility.yul\":17807:18200   */\n    tag_281:\n        /* \"#utility.yul\":17876:17882   */\n      0x00\n        /* \"#utility.yul\":17926:17927   */\n      0x08\n        /* \"#utility.yul\":17914:17924   */\n      dup4\n        /* \"#utility.yul\":17910:17928   */\n      mul\n        /* \"#utility.yul\":17949:18046   */\n      tag_504\n        /* \"#utility.yul\":17979:18045   */\n      0xffffffffffffffffffffffffffffffffffffffffffffffffffffffffffffffff\n        /* \"#utility.yul\":17968:17977   */\n      dup3\n        /* \"#utility.yul\":17949:18046   */\n      tag_280\n      jump\t// in\n    tag_504:\n        /* \"#utility.yul\":18067:18106   */\n      tag_505\n        /* \"#utility.yul\":18097:18105   */\n      dup7\n        /* \"#utility.yul\":18086:18095   */\n      dup4\n        /* \"#utility.yul\":18067:18106   */\n      tag_280\n      jump\t// in\n    tag_505:\n        /* \"#utility.yul\":18055:18106   */\n      swap6\n      pop\n        /* \"#utility.yul\":18139:18143   */\n      dup1\n        /* \"#utility.yul\":18135:18144   */\n      not\n        /* \"#utility.yul\":18128:18133   */\n      dup5\n        /* \"#utility.yul\":18124:18145   */\n      and\n        /* \"#utility.yul\":18115:18145   */\n      swap4\n      pop\n        /* \"#utility.yul\":18188:18192   */\n      dup1\n        /* \"#utility.yul\":18178:18186   */\n      dup7\n        /* \"#utility.yul\":18174:18193   */\n      and\n        /* \"#utility.yul\":18167:18172   */\n      dup5\n        /* \"#utility.yul\":18164:18194   */\n      or\n        /* \"#utility.yul\":18154:18194   */\n      swap3\n      pop\n        /* \"#utility.yul\":17883:18200   */\n      pop\n      pop\n        /* \"#utility.yul\":17807:18200   */\n      swap4\n      swap3\n      pop\n      pop\n      pop\n      jump\t// out\n        /* \"#utility.yul\":18206:18266   */\n    tag_282:\n        /* \"#utility.yul\":18234:18237   */\n      0x00\n        /* \"#utility.yul\":18255:18260   */\n      dup2\n        /* \"#utility.yul\":18248:18260   */\n      swap1\n      pop\n        /* \"#utility.yul\":18206:18266   */\n      swap2\n      swap1\n      pop\n      jump\t// out\n        /* \"#utility.yul\":18272:18414   */\n    tag_283:\n        /* \"#utility.yul\":18322:18331   */\n      0x00\n        /* \"#utility.yul\":18355:18408   */\n      tag_508\n        /* \"#utility.yul\":18373:18407   */\n      tag_509\n        /* \"#utility.yul\":18382:18406   */\n      tag_510\n        /* \"#utility.yul\":18400:18405   */\n      dup5\n        /* \"#utility.yul\":18382:18406   */\n      tag_240\n      jump\t// in\n    tag_510:\n        /* \"#utility.yul\":18373:18407   */\n      tag_282\n      jump\t// in\n    tag_509:\n        /* \"#utility.yul\":18355:18408   */\n      tag_240\n      jump\t// in\n    tag_508:\n        /* \"#utility.yul\":18342:18408   */\n      swap1\n      pop\n        /* \"#utility.yul\":18272:18414   */\n      swap2\n      swap1\n      pop\n      jump\t// out\n        /* \"#utility.yul\":18420:18495   */\n    tag_284:\n        /* \"#utility.yul\":18463:18466   */\n      0x00\n        /* \"#utility.yul\":18484:18489   */\n      dup2\n        /* \"#utility.yul\":18477:18489   */\n      swap1\n      pop\n        /* \"#utility.yul\":18420:18495   */\n      swap2\n      swap1\n      pop\n      jump\t// out\n        /* \"#utility.yul\":18501:18770   */\n    tag_285:\n        /* \"#utility.yul\":18611:18650   */\n      tag_513\n        /* \"#utility.yul\":18642:18649   */\n      dup4\n        /* \"#utility.yul\":18611:18650   */\n      tag_283\n      jump\t// in\n    tag_513:\n        /* \"#utility.yul\":18672:18763   */\n      tag_514\n        /* \"#utility.yul\":18721:18762   */\n      tag_515\n        /* \"#utility.yul\":18745:18761   */\n      dup3\n        /* \"#utility.yul\":18721:18762   */\n      tag_284\n      jump\t// in\n    tag_515:\n        /* \"#utility.yul\":18713:18719   */\n      dup5\n        /* \"#utility.yul\":18706:18710   */\n      dup5\n        /* \"#utility.yul\":18700:18711   */\n      sload\n        /* \"#utility.yul\":18672:18763   */\n      tag_281\n      jump\t// in\n    tag_514:\n        /* \"#utility.yul\":18666:18670   */\n      dup3\n        /* \"#utility.yul\":18659:18764   */\n      sstore\n        /* \"#utility.yul\":18577:18770   */\n      pop\n        /* \"#utility.yul\":18501:18770   */\n      pop\n      pop\n      pop\n      jump\t// out\n        /* \"#utility.yul\":18776:18849   */\n    tag_286:\n        /* \"#utility.yul\":18821:18824   */\n      0x00\n        /* \"#utility.yul\":18776:18849   */\n      swap1\n      jump\t// out\n        /* \"#utility.yul\":18855:19044   */\n    tag_287:\n        /* \"#utility.yul\":18932:18964   */\n      tag_518\n      tag_286\n      jump\t// in\n    tag_518:\n        /* \"#utility.yul\":18973:19038   */\n      tag_519\n        /* \"#utility.yul\":19031:19037   */\n      dup2\n        /* \"#utility.yul\":19023:19029   */\n      dup5\n        /* \"#utility.yul\":19017:19021   */\n      dup5\n        /* \"#utility.yul\":18973:19038   */\n      tag_285\n      jump\t// in\n    tag_519:\n        /* \"#utility.yul\":18908:19044   */\n      pop\n        /* \"#utility.yul\":18855:19044   */\n      pop\n      pop\n      jump\t// out\n        /* \"#utility.yul\":19050:19236   */\n    tag_288:\n        /* \"#utility.yul\":19110:19230   */\n    tag_521:\n        /* \"#utility.yul\":19127:19130   */\n      dup2\n        /* \"#utility.yul\":19120:19125   */\n      dup2\n        /* \"#utility.yul\":19117:19131   */\n      lt\n        /* \"#utility.yul\":19110:19230   */\n      iszero\n      tag_523\n      jumpi\n        /* \"#utility.yul\":19181:19220   */\n      tag_524\n        /* \"#utility.yul\":19218:19219   */\n      0x00\n        /* \"#utility.yul\":19211:19216   */\n      dup3\n        /* \"#utility.yul\":19181:19220   */\n      tag_287\n      jump\t// in\n    tag_524:\n        /* \"#utility.yul\":19154:19155   */\n      0x01\n        /* \"#utility.yul\":19147:19152   */\n      dup2\n        /* \"#utility.yul\":19143:19156   */\n      add\n        /* \"#utility.yul\":19134:19156   */\n      swap1\n      pop\n        /* \"#utility.yul\":19110:19230   */\n      jump(tag_521)\n    tag_523:\n        /* \"#utility.yul\":19050:19236   */\n      pop\n      pop\n      jump\t// out\n        /* \"#utility.yul\":19242:19785   */\n    tag_289:\n        /* \"#utility.yul\":19343:19345   */\n      0x1f\n        /* \"#utility.yul\":19338:19341   */\n      dup3\n        /* \"#utility.yul\":19335:19346   */\n      gt\n        /* \"#utility.yul\":19332:19778   */\n      iszero\n      tag_526\n      jumpi\n        /* \"#utility.yul\":19377:19415   */\n      tag_527\n        /* \"#utility.yul\":19409:19414   */\n      dup2\n        /* \"#utility.yul\":19377:19415   */\n      tag_278\n      jump\t// in\n    tag_527:\n        /* \"#utility.yul\":19461:19490   */\n      tag_528\n        /* \"#utility.yul\":19479:19489   */\n      dup5\n        /* \"#utility.yul\":19461:19490   */\n      tag_279\n      jump\t// in\n    tag_528:\n        /* \"#utility.yul\":19451:19459   */\n      dup2\n        /* \"#utility.yul\":19447:19491   */\n      add\n        /* \"#utility.yul\":19644:19646   */\n      0x20\n        /* \"#utility.yul\":19632:19642   */\n      dup6\n        /* \"#utility.yul\":19629:19647   */\n      lt\n        /* \"#utility.yul\":19626:19675   */\n      iszero\n      tag_529\n      jumpi\n        /* \"#utility.yul\":19665:19673   */\n      dup2\n        /* \"#utility.yul\":19650:19673   */\n      swap1\n      pop\n        /* \"#utility.yul\":19626:19675   */\n    tag_529:\n        /* \"#utility.yul\":19688:19768   */\n      tag_530\n        /* \"#utility.yul\":19744:19766   */\n      tag_531\n        /* \"#utility.yul\":19762:19765   */\n      dup6\n        /* \"#utility.yul\":19744:19766   */\n      tag_279\n      jump\t// in\n    tag_531:\n        /* \"#utility.yul\":19734:19742   */\n      dup4\n        /* \"#utility.yul\":19730:19767   */\n      add\n        /* \"#utility.yul\":19717:19728   */\n      dup3\n        /* \"#utility.yul\":19688:19768   */\n      tag_288\n      jump\t// in\n    tag_530:\n        /* \"#utility.yul\":19347:19778   */\n      pop\n      pop\n        /* \"#utility.yul\":19332:19778   */\n    tag_526:\n        /* \"#utility.yul\":19242:19785   */\n      pop\n      pop\n      pop\n      jump\t// out\n        /* \"#utility.yul\":19791:19908   */\n    tag_290:\n        /* \"#utility.yul\":19845:19853   */\n      0x00\n        /* \"#utility.yul\":19895:19900   */\n      dup3\n        /* \"#utility.yul\":19889:19893   */\n      dup3\n        /* \"#utility.yul\":19885:19901   */\n      shr\n        /* \"#utility.yul\":19864:19901   */\n      swap1\n      pop\n        /* \"#utility.yul\":19791:19908   */\n      swap3\n      swap2\n      pop\n      pop\n      jump\t// out\n        /* \"#utility.yul\":19914:20083   */\n    tag_291:\n        /* \"#utility.yul\":19958:19964   */\n      0x00\n        /* \"#utility.yul\":19991:20042   */\n      tag_534\n        /* \"#utility.yul\":20039:20040   */\n      0x00\n        /* \"#utility.yul\":20035:20041   */\n      not\n        /* \"#utility.yul\":20027:20032   */\n      dup5\n        /* \"#utility.yul\":20024:20025   */\n      0x08\n        /* \"#utility.yul\":20020:20033   */\n      mul\n        /* \"#utility.yul\":19991:20042   */\n      tag_290\n      jump\t// in\n    tag_534:\n        /* \"#utility.yul\":19987:20043   */\n      not\n        /* \"#utility.yul\":20072:20076   */\n      dup1\n        /* \"#utility.yul\":20066:20070   */\n      dup4\n        /* \"#utility.yul\":20062:20077   */\n      and\n        /* \"#utility.yul\":20052:20077   */\n      swap2\n      pop\n        /* \"#utility.yul\":19965:20083   */\n      pop\n        /* \"#utility.yul\":19914:20083   */\n      swap3\n      swap2\n      pop\n      pop\n      jump\t// out\n        /* \"#utility.yul\":20088:20383   */\n    tag_292:\n        /* \"#utility.yul\":20164:20168   */\n      0x00\n        /* \"#utility.yul\":20310:20339   */\n      tag_536\n        /* \"#utility.yul\":20335:20338   */\n      dup4\n        /* \"#utility.yul\":20329:20333   */\n      dup4\n        /* \"#utility.yul\":20310:20339   */\n      tag_291\n      jump\t// in\n    tag_536:\n        /* \"#utility.yul\":20302:20339   */\n      swap2\n      pop\n        /* \"#utility.yul\":20372:20375   */\n      dup3\n        /* \"#utility.yul\":20369:20370   */\n      0x02\n        /* \"#utility.yul\":20365:20376   */\n      mul\n        /* \"#utility.yul\":20359:20363   */\n      dup3\n        /* \"#utility.yul\":20356:20377   */\n      or\n        /* \"#utility.yul\":20348:20377   */\n      swap1\n      pop\n        /* \"#utility.yul\":20088:20383   */\n      swap3\n      swap2\n      pop\n      pop\n      jump\t// out\n        /* \"#utility.yul\":20388:21783   */\n    tag_125:\n        /* \"#utility.yul\":20505:20542   */\n      tag_538\n        /* \"#utility.yul\":20538:20541   */\n      dup3\n        /* \"#utility.yul\":20505:20542   */\n      tag_232\n      jump\t// in\n    tag_538:\n        /* \"#utility.yul\":20607:20625   */\n      0xffffffffffffffff\n        /* \"#utility.yul\":20599:20605   */\n      dup2\n        /* \"#utility.yul\":20596:20626   */\n      gt\n        /* \"#utility.yul\":20593:20649   */\n      iszero\n      tag_539\n      jumpi\n        /* \"#utility.yul\":20629:20647   */\n      tag_540\n      tag_250\n      jump\t// in\n    tag_540:\n        /* \"#utility.yul\":20593:20649   */\n    tag_539:\n        /* \"#utility.yul\":20673:20711   */\n      tag_541\n        /* \"#utility.yul\":20705:20709   */\n      dup3\n        /* \"#utility.yul\":20699:20710   */\n      sload\n        /* \"#utility.yul\":20673:20711   */\n      tag_100\n      jump\t// in\n    tag_541:\n        /* \"#utility.yul\":20758:20825   */\n      tag_542\n        /* \"#utility.yul\":20818:20824   */\n      dup3\n        /* \"#utility.yul\":20810:20816   */\n      dup3\n        /* \"#utility.yul\":20804:20808   */\n      dup6\n        /* \"#utility.yul\":20758:20825   */\n      tag_289\n      jump\t// in\n    tag_542:\n        /* \"#utility.yul\":20852:20853   */\n      0x00\n        /* \"#utility.yul\":20876:20880   */\n      0x20\n        /* \"#utility.yul\":20863:20880   */\n      swap1\n      pop\n        /* \"#utility.yul\":20908:20910   */\n      0x1f\n        /* \"#utility.yul\":20900:20906   */\n      dup4\n        /* \"#utility.yul\":20897:20911   */\n      gt\n        /* \"#utility.yul\":20925:20926   */\n      0x01\n        /* \"#utility.yul\":20920:21538   */\n      dup2\n      eq\n      tag_544\n      jumpi\n        /* \"#utility.yul\":21582:21583   */\n      0x00\n        /* \"#utility.yul\":21599:21605   */\n      dup5\n        /* \"#utility.yul\":21596:21673   */\n      iszero\n      tag_545\n      jumpi\n        /* \"#utility.yul\":21648:21657   */\n      dup3\n        /* \"#utility.yul\":21643:21646   */\n      dup8\n        /* \"#utility.yul\":21639:21658   */\n      add\n        /* \"#utility.yul\":21633:21659   */\n      mload\n        /* \"#utility.yul\":21624:21659   */\n      swap1\n      pop\n        /* \"#utility.yul\":21596:21673   */\n    tag_545:\n        /* \"#utility.yul\":21699:21766   */\n      tag_546\n        /* \"#utility.yul\":21759:21765   */\n      dup6\n        /* \"#utility.yul\":21752:21757   */\n      dup3\n        /* \"#utility.yul\":21699:21766   */\n      tag_292\n      jump\t// in\n    tag_546:\n        /* \"#utility.yul\":21693:21697   */\n      dup7\n        /* \"#utility.yul\":21686:21767   */\n      sstore\n        /* \"#utility.yul\":21555:21777   */\n      pop\n        /* \"#utility.yul\":20890:21777   */\n      jump(tag_543)\n        /* \"#utility.yul\":20920:21538   */\n    tag_544:\n        /* \"#utility.yul\":20972:20976   */\n      0x1f\n        /* \"#utility.yul\":20968:20977   */\n      not\n        /* \"#utility.yul\":20960:20966   */\n      dup5\n        /* \"#utility.yul\":20956:20978   */\n      and\n        /* \"#utility.yul\":21006:21043   */\n      tag_547\n        /* \"#utility.yul\":21038:21042   */\n      dup7\n        /* \"#utility.yul\":21006:21043   */\n      tag_278\n      jump\t// in\n    tag_547:\n        /* \"#utility.yul\":21065:21066   */\n      0x00\n        /* \"#utility.yul\":21079:21287   */\n    tag_548:\n        /* \"#utility.yul\":21093:21100   */\n      dup3\n        /* \"#utility.yul\":21090:21091   */\n      dup2\n        /* \"#utility.yul\":21087:21101   */\n      lt\n        /* \"#utility.yul\":21079:21287   */\n      iszero\n      tag_550\n      jumpi\n        /* \"#utility.yul\":21172:21181   */\n      dup5\n        /* \"#utility.yul\":21167:21170   */\n      dup10\n        /* \"#utility.yul\":21163:21182   */\n      add\n        /* \"#utility.yul\":21157:21183   */\n      mload\n        /* \"#utility.yul\":21149:21155   */\n      dup3\n        /* \"#utility.yul\":21142:21184   */\n      sstore\n        /* \"#utility.yul\":21223:21224   */\n      0x01\n        /* \"#utility.yul\":21215:21221   */\n      dup3\n        /* \"#utility.yul\":21211:21225   */\n      add\n        /* \"#utility.yul\":21201:21225   */\n      swap2\n      pop\n        /* \"#utility.yul\":21270:21272   */\n      0x20\n        /* \"#utility.yul\":21259:21268   */\n      dup6\n        /* \"#utility.yul\":21255:21273   */\n      add\n        /* \"#utility.yul\":21242:21273   */\n      swap5\n      pop\n        /* \"#utility.yul\":21116:21120   */\n      0x20\n        /* \"#utility.yul\":21113:21114   */\n      dup2\n        /* \"#utility.yul\":21109:21121   */\n      add\n        /* \"#utility.yul\":21104:21121   */\n      swap1\n      pop\n        /* \"#utility.yul\":21079:21287   */\n      jump(tag_548)\n    tag_550:\n        /* \"#utility.yul\":21315:21321   */\n      dup7\n        /* \"#utility.yul\":21306:21313   */\n      dup4\n        /* \"#utility.yul\":21303:21322   */\n      lt\n        /* \"#utility.yul\":21300:21479   */\n      iszero\n      tag_551\n      jumpi\n        /* \"#utility.yul\":21373:21382   */\n      dup5\n        /* \"#utility.yul\":21368:21371   */\n      dup10\n        /* \"#utility.yul\":21364:21383   */\n      add\n        /* \"#utility.yul\":21358:21384   */\n      mload\n        /* \"#utility.yul\":21416:21464   */\n      tag_552\n        /* \"#utility.yul\":21458:21462   */\n      0x1f\n        /* \"#utility.yul\":21450:21456   */\n      dup10\n        /* \"#utility.yul\":21446:21463   */\n      and\n        /* \"#utility.yul\":21435:21444   */\n      dup3\n        /* \"#utility.yul\":21416:21464   */\n      tag_291\n      jump\t// in\n    tag_552:\n        /* \"#utility.yul\":21408:21414   */\n      dup4\n        /* \"#utility.yul\":21401:21465   */\n      sstore\n        /* \"#utility.yul\":21323:21479   */\n      pop\n        /* \"#utility.yul\":21300:21479   */\n    tag_551:\n        /* \"#utility.yul\":21525:21526   */\n      0x01\n        /* \"#utility.yul\":21521:21522   */\n      0x02\n        /* \"#utility.yul\":21513:21519   */\n      dup9\n        /* \"#utility.yul\":21509:21523   */\n      mul\n        /* \"#utility.yul\":21505:21527   */\n      add\n        /* \"#utility.yul\":21499:21503   */\n      dup9\n        /* \"#utility.yul\":21492:21528   */\n      sstore\n        /* \"#utility.yul\":20927:21538   */\n      pop\n      pop\n      pop\n        /* \"#utility.yul\":20890:21777   */\n    tag_543:\n      pop\n        /* \"#utility.yul\":20480:21783   */\n      pop\n      pop\n      pop\n        /* \"#utility.yul\":20388:21783   */\n      pop\n      pop\n      jump\t// out\n        /* \"#utility.yul\":21789:21963   */\n    tag_293:\n        /* \"#utility.yul\":21929:21955   */\n      0x4552524f523a204d696e7420746f206164647265737320300000000000000000\n        /* \"#utility.yul\":21925:21926   */\n      0x00\n        /* \"#utility.yul\":21917:21923   */\n      dup3\n        /* \"#utility.yul\":21913:21927   */\n      add\n        /* \"#utility.yul\":21906:21956   */\n      mstore\n        /* \"#utility.yul\":21789:21963   */\n      pop\n      jump\t// out\n        /* \"#utility.yul\":21969:22335   */\n    tag_294:\n        /* \"#utility.yul\":22111:22114   */\n      0x00\n        /* \"#utility.yul\":22132:22199   */\n      tag_555\n        /* \"#utility.yul\":22196:22198   */\n      0x18\n        /* \"#utility.yul\":22191:22194   */\n      dup4\n        /* \"#utility.yul\":22132:22199   */\n      tag_233\n      jump\t// in\n    tag_555:\n        /* \"#utility.yul\":22125:22199   */\n      swap2\n      pop\n        /* \"#utility.yul\":22208:22301   */\n      tag_556\n        /* \"#utility.yul\":22297:22300   */\n      dup3\n        /* \"#utility.yul\":22208:22301   */\n      tag_293\n      jump\t// in\n    tag_556:\n        /* \"#utility.yul\":22326:22328   */\n      0x20\n        /* \"#utility.yul\":22321:22324   */\n      dup3\n        /* \"#utility.yul\":22317:22329   */\n      add\n        /* \"#utility.yul\":22310:22329   */\n      swap1\n      pop\n        /* \"#utility.yul\":21969:22335   */\n      swap2\n      swap1\n      pop\n      jump\t// out\n        /* \"#utility.yul\":22341:22760   */\n    tag_132:\n        /* \"#utility.yul\":22507:22511   */\n      0x00\n        /* \"#utility.yul\":22545:22547   */\n      0x20\n        /* \"#utility.yul\":22534:22543   */\n      dup3\n        /* \"#utility.yul\":22530:22548   */\n      add\n        /* \"#utility.yul\":22522:22548   */\n      swap1\n      pop\n        /* \"#utility.yul\":22594:22603   */\n      dup2\n        /* \"#utility.yul\":22588:22592   */\n      dup2\n        /* \"#utility.yul\":22584:22604   */\n      sub\n        /* \"#utility.yul\":22580:22581   */\n      0x00\n        /* \"#utility.yul\":22569:22578   */\n      dup4\n        /* \"#utility.yul\":22565:22582   */\n      add\n        /* \"#utility.yul\":22558:22605   */\n      mstore\n        /* \"#utility.yul\":22622:22753   */\n      tag_558\n        /* \"#utility.yul\":22748:22752   */\n      dup2\n        /* \"#utility.yul\":22622:22753   */\n      tag_294\n      jump\t// in\n    tag_558:\n        /* \"#utility.yul\":22614:22753   */\n      swap1\n      pop\n        /* \"#utility.yul\":22341:22760   */\n      swap2\n      swap1\n      pop\n      jump\t// out\n        /* \"#utility.yul\":22766:22988   */\n    tag_295:\n        /* \"#utility.yul\":22906:22940   */\n      0x4552524f523a20746f6b656e49642068617320616c7265616479206578697374\n        /* \"#utility.yul\":22902:22903   */\n      0x00\n        /* \"#utility.yul\":22894:22900   */\n      dup3\n        /* \"#utility.yul\":22890:22904   */\n      add\n        /* \"#utility.yul\":22883:22941   */\n      mstore\n        /* \"#utility.yul\":22975:22980   */\n      0x65642e0000000000000000000000000000000000000000000000000000000000\n        /* \"#utility.yul\":22970:22972   */\n      0x20\n        /* \"#utility.yul\":22962:22968   */\n      dup3\n        /* \"#utility.yul\":22958:22973   */\n      add\n        /* \"#utility.yul\":22951:22981   */\n      mstore\n        /* \"#utility.yul\":22766:22988   */\n      pop\n      jump\t// out\n        /* \"#utility.yul\":22994:23360   */\n    tag_296:\n        /* \"#utility.yul\":23136:23139   */\n      0x00\n        /* \"#utility.yul\":23157:23224   */\n      tag_561\n        /* \"#utility.yul\":23221:23223   */\n      0x23\n        /* \"#utility.yul\":23216:23219   */\n      dup4\n        /* \"#utility.yul\":23157:23224   */\n      tag_233\n      jump\t// in\n    tag_561:\n        /* \"#utility.yul\":23150:23224   */\n      swap2\n      pop\n        /* \"#utility.yul\":23233:23326   */\n      tag_562\n        /* \"#utility.yul\":23322:23325   */\n      dup3\n        /* \"#utility.yul\":23233:23326   */\n      tag_295\n      jump\t// in\n    tag_562:\n        /* \"#utility.yul\":23351:23353   */\n      0x40\n        /* \"#utility.yul\":23346:23349   */\n      dup3\n        /* \"#utility.yul\":23342:23354   */\n      add\n        /* \"#utility.yul\":23335:23354   */\n      swap1\n      pop\n        /* \"#utility.yul\":22994:23360   */\n      swap2\n      swap1\n      pop\n      jump\t// out\n        /* \"#utility.yul\":23366:23785   */\n    tag_135:\n        /* \"#utility.yul\":23532:23536   */\n      0x00\n        /* \"#utility.yul\":23570:23572   */\n      0x20\n        /* \"#utility.yul\":23559:23568   */\n      dup3\n        /* \"#utility.yul\":23555:23573   */\n      add\n        /* \"#utility.yul\":23547:23573   */\n      swap1\n      pop\n        /* \"#utility.yul\":23619:23628   */\n      dup2\n        /* \"#utility.yul\":23613:23617   */\n      dup2\n        /* \"#utility.yul\":23609:23629   */\n      sub\n        /* \"#utility.yul\":23605:23606   */\n      0x00\n        /* \"#utility.yul\":23594:23603   */\n      dup4\n        /* \"#utility.yul\":23590:23607   */\n      add\n        /* \"#utility.yul\":23583:23630   */\n      mstore\n        /* \"#utility.yul\":23647:23778   */\n      tag_564\n        /* \"#utility.yul\":23773:23777   */\n      dup2\n        /* \"#utility.yul\":23647:23778   */\n      tag_296\n      jump\t// in\n    tag_564:\n        /* \"#utility.yul\":23639:23778   */\n      swap1\n      pop\n        /* \"#utility.yul\":23366:23785   */\n      swap2\n      swap1\n      pop\n      jump\t// out\n        /* \"#utility.yul\":23791:23971   */\n    tag_297:\n        /* \"#utility.yul\":23839:23916   */\n      0x4e487b7100000000000000000000000000000000000000000000000000000000\n        /* \"#utility.yul\":23836:23837   */\n      0x00\n        /* \"#utility.yul\":23829:23917   */\n      mstore\n        /* \"#utility.yul\":23936:23940   */\n      0x11\n        /* \"#utility.yul\":23933:23934   */\n      0x04\n        /* \"#utility.yul\":23926:23941   */\n      mstore\n        /* \"#utility.yul\":23960:23964   */\n      0x24\n        /* \"#utility.yul\":23957:23958   */\n      0x00\n        /* \"#utility.yul\":23950:23965   */\n      revert\n        /* \"#utility.yul\":23977:24168   */\n    tag_137:\n        /* \"#utility.yul\":24017:24020   */\n      0x00\n        /* \"#utility.yul\":24036:24056   */\n      tag_567\n        /* \"#utility.yul\":24054:24055   */\n      dup3\n        /* \"#utility.yul\":24036:24056   */\n      tag_240\n      jump\t// in\n    tag_567:\n        /* \"#utility.yul\":24031:24056   */\n      swap2\n      pop\n        /* \"#utility.yul\":24070:24090   */\n      tag_568\n        /* \"#utility.yul\":24088:24089   */\n      dup4\n        /* \"#utility.yul\":24070:24090   */\n      tag_240\n      jump\t// in\n    tag_568:\n        /* \"#utility.yul\":24065:24090   */\n      swap3\n      pop\n        /* \"#utility.yul\":24113:24114   */\n      dup3\n        /* \"#utility.yul\":24110:24111   */\n      dup3\n        /* \"#utility.yul\":24106:24115   */\n      add\n        /* \"#utility.yul\":24099:24115   */\n      swap1\n      pop\n        /* \"#utility.yul\":24134:24137   */\n      dup1\n        /* \"#utility.yul\":24131:24132   */\n      dup3\n        /* \"#utility.yul\":24128:24138   */\n      gt\n        /* \"#utility.yul\":24125:24161   */\n      iszero\n      tag_569\n      jumpi\n        /* \"#utility.yul\":24141:24159   */\n      tag_570\n      tag_297\n      jump\t// in\n    tag_570:\n        /* \"#utility.yul\":24125:24161   */\n    tag_569:\n        /* \"#utility.yul\":23977:24168   */\n      swap3\n      swap2\n      pop\n      pop\n      jump\t// out\n        /* \"#utility.yul\":24174:24349   */\n    tag_298:\n        /* \"#utility.yul\":24314:24341   */\n      0x4f6e6c79204e54462773206f776e65722063616e206275726e00000000000000\n        /* \"#utility.yul\":24310:24311   */\n      0x00\n        /* \"#utility.yul\":24302:24308   */\n      dup3\n        /* \"#utility.yul\":24298:24312   */\n      add\n        /* \"#utility.yul\":24291:24342   */\n      mstore\n        /* \"#utility.yul\":24174:24349   */\n      pop\n      jump\t// out\n        /* \"#utility.yul\":24355:24721   */\n    tag_299:\n        /* \"#utility.yul\":24497:24500   */\n      0x00\n        /* \"#utility.yul\":24518:24585   */\n      tag_573\n        /* \"#utility.yul\":24582:24584   */\n      0x19\n        /* \"#utility.yul\":24577:24580   */\n      dup4\n        /* \"#utility.yul\":24518:24585   */\n      tag_233\n      jump\t// in\n    tag_573:\n        /* \"#utility.yul\":24511:24585   */\n      swap2\n      pop\n        /* \"#utility.yul\":24594:24687   */\n      tag_574\n        /* \"#utility.yul\":24683:24686   */\n      dup3\n        /* \"#utility.yul\":24594:24687   */\n      tag_298\n      jump\t// in\n    tag_574:\n        /* \"#utility.yul\":24712:24714   */\n      0x20\n        /* \"#utility.yul\":24707:24710   */\n      dup3\n        /* \"#utility.yul\":24703:24715   */\n      add\n        /* \"#utility.yul\":24696:24715   */\n      swap1\n      pop\n        /* \"#utility.yul\":24355:24721   */\n      swap2\n      swap1\n      pop\n      jump\t// out\n        /* \"#utility.yul\":24727:25146   */\n    tag_145:\n        /* \"#utility.yul\":24893:24897   */\n      0x00\n        /* \"#utility.yul\":24931:24933   */\n      0x20\n        /* \"#utility.yul\":24920:24929   */\n      dup3\n        /* \"#utility.yul\":24916:24934   */\n      add\n        /* \"#utility.yul\":24908:24934   */\n      swap1\n      pop\n        /* \"#utility.yul\":24980:24989   */\n      dup2\n        /* \"#utility.yul\":24974:24978   */\n      dup2\n        /* \"#utility.yul\":24970:24990   */\n      sub\n        /* \"#utility.yul\":24966:24967   */\n      0x00\n        /* \"#utility.yul\":24955:24964   */\n      dup4\n        /* \"#utility.yul\":24951:24968   */\n      add\n        /* \"#utility.yul\":24944:24991   */\n      mstore\n        /* \"#utility.yul\":25008:25139   */\n      tag_576\n        /* \"#utility.yul\":25134:25138   */\n      dup2\n        /* \"#utility.yul\":25008:25139   */\n      tag_299\n      jump\t// in\n    tag_576:\n        /* \"#utility.yul\":25000:25139   */\n      swap1\n      pop\n        /* \"#utility.yul\":24727:25146   */\n      swap2\n      swap1\n      pop\n      jump\t// out\n        /* \"#utility.yul\":25152:25346   */\n    tag_147:\n        /* \"#utility.yul\":25192:25196   */\n      0x00\n        /* \"#utility.yul\":25212:25232   */\n      tag_578\n        /* \"#utility.yul\":25230:25231   */\n      dup3\n        /* \"#utility.yul\":25212:25232   */\n      tag_240\n      jump\t// in\n    tag_578:\n        /* \"#utility.yul\":25207:25232   */\n      swap2\n      pop\n        /* \"#utility.yul\":25246:25266   */\n      tag_579\n        /* \"#utility.yul\":25264:25265   */\n      dup4\n        /* \"#utility.yul\":25246:25266   */\n      tag_240\n      jump\t// in\n    tag_579:\n        /* \"#utility.yul\":25241:25266   */\n      swap3\n      pop\n        /* \"#utility.yul\":25290:25291   */\n      dup3\n        /* \"#utility.yul\":25287:25288   */\n      dup3\n        /* \"#utility.yul\":25283:25292   */\n      sub\n        /* \"#utility.yul\":25275:25292   */\n      swap1\n      pop\n        /* \"#utility.yul\":25314:25315   */\n      dup2\n        /* \"#utility.yul\":25308:25312   */\n      dup2\n        /* \"#utility.yul\":25305:25316   */\n      gt\n        /* \"#utility.yul\":25302:25339   */\n      iszero\n      tag_580\n      jumpi\n        /* \"#utility.yul\":25319:25337   */\n      tag_581\n      tag_297\n      jump\t// in\n    tag_581:\n        /* \"#utility.yul\":25302:25339   */\n    tag_580:\n        /* \"#utility.yul\":25152:25346   */\n      swap3\n      swap2\n      pop\n      pop\n      jump\t// out\n        /* \"#utility.yul\":25352:25576   */\n    tag_300:\n        /* \"#utility.yul\":25492:25526   */\n      0x4552524f523a204552435265636569766572206973206e6f7420696d706c656d\n        /* \"#utility.yul\":25488:25489   */\n      0x00\n        /* \"#utility.yul\":25480:25486   */\n      dup3\n        /* \"#utility.yul\":25476:25490   */\n      add\n        /* \"#utility.yul\":25469:25527   */\n      mstore\n        /* \"#utility.yul\":25561:25568   */\n      0x656e746564000000000000000000000000000000000000000000000000000000\n        /* \"#utility.yul\":25556:25558   */\n      0x20\n        /* \"#utility.yul\":25548:25554   */\n      dup3\n        /* \"#utility.yul\":25544:25559   */\n      add\n        /* \"#utility.yul\":25537:25569   */\n      mstore\n        /* \"#utility.yul\":25352:25576   */\n      pop\n      jump\t// out\n        /* \"#utility.yul\":25582:25948   */\n    tag_301:\n        /* \"#utility.yul\":25724:25727   */\n      0x00\n        /* \"#utility.yul\":25745:25812   */\n      tag_584\n        /* \"#utility.yul\":25809:25811   */\n      0x25\n        /* \"#utility.yul\":25804:25807   */\n      dup4\n        /* \"#utility.yul\":25745:25812   */\n      tag_233\n      jump\t// in\n    tag_584:\n        /* \"#utility.yul\":25738:25812   */\n      swap2\n      pop\n        /* \"#utility.yul\":25821:25914   */\n      tag_585\n        /* \"#utility.yul\":25910:25913   */\n      dup3\n        /* \"#utility.yul\":25821:25914   */\n      tag_300\n      jump\t// in\n    tag_585:\n        /* \"#utility.yul\":25939:25941   */\n      0x40\n        /* \"#utility.yul\":25934:25937   */\n      dup3\n        /* \"#utility.yul\":25930:25942   */\n      add\n        /* \"#utility.yul\":25923:25942   */\n      swap1\n      pop\n        /* \"#utility.yul\":25582:25948   */\n      swap2\n      swap1\n      pop\n      jump\t// out\n        /* \"#utility.yul\":25954:26373   */\n    tag_164:\n        /* \"#utility.yul\":26120:26124   */\n      0x00\n        /* \"#utility.yul\":26158:26160   */\n      0x20\n        /* \"#utility.yul\":26147:26156   */\n      dup3\n        /* \"#utility.yul\":26143:26161   */\n      add\n        /* \"#utility.yul\":26135:26161   */\n      swap1\n      pop\n        /* \"#utility.yul\":26207:26216   */\n      dup2\n        /* \"#utility.yul\":26201:26205   */\n      dup2\n        /* \"#utility.yul\":26197:26217   */\n      sub\n        /* \"#utility.yul\":26193:26194   */\n      0x00\n        /* \"#utility.yul\":26182:26191   */\n      dup4\n        /* \"#utility.yul\":26178:26195   */\n      add\n        /* \"#utility.yul\":26171:26218   */\n      mstore\n        /* \"#utility.yul\":26235:26366   */\n      tag_587\n        /* \"#utility.yul\":26361:26365   */\n      dup2\n        /* \"#utility.yul\":26235:26366   */\n      tag_301\n      jump\t// in\n    tag_587:\n        /* \"#utility.yul\":26227:26366   */\n      swap1\n      pop\n        /* \"#utility.yul\":25954:26373   */\n      swap2\n      swap1\n      pop\n      jump\t// out\n        /* \"#utility.yul\":26379:26625   */\n    tag_302:\n        /* \"#utility.yul\":26519:26553   */\n      0x4552524f523a206d73672e73656e6465722073686f756c646e27742062652074\n        /* \"#utility.yul\":26515:26516   */\n      0x00\n        /* \"#utility.yul\":26507:26513   */\n      dup3\n        /* \"#utility.yul\":26503:26517   */\n      add\n        /* \"#utility.yul\":26496:26554   */\n      mstore\n        /* \"#utility.yul\":26588:26617   */\n      0x686520706572736f6e206265696e6720617574686f72697a65642e0000000000\n        /* \"#utility.yul\":26583:26585   */\n      0x20\n        /* \"#utility.yul\":26575:26581   */\n      dup3\n        /* \"#utility.yul\":26571:26586   */\n      add\n        /* \"#utility.yul\":26564:26618   */\n      mstore\n        /* \"#utility.yul\":26379:26625   */\n      pop\n      jump\t// out\n        /* \"#utility.yul\":26631:26997   */\n    tag_303:\n        /* \"#utility.yul\":26773:26776   */\n      0x00\n        /* \"#utility.yul\":26794:26861   */\n      tag_590\n        /* \"#utility.yul\":26858:26860   */\n      0x3b\n        /* \"#utility.yul\":26853:26856   */\n      dup4\n        /* \"#utility.yul\":26794:26861   */\n      tag_233\n      jump\t// in\n    tag_590:\n        /* \"#utility.yul\":26787:26861   */\n      swap2\n      pop\n        /* \"#utility.yul\":26870:26963   */\n      tag_591\n        /* \"#utility.yul\":26959:26962   */\n      dup3\n        /* \"#utility.yul\":26870:26963   */\n      tag_302\n      jump\t// in\n    tag_591:\n        /* \"#utility.yul\":26988:26990   */\n      0x40\n        /* \"#utility.yul\":26983:26986   */\n      dup3\n        /* \"#utility.yul\":26979:26991   */\n      add\n        /* \"#utility.yul\":26972:26991   */\n      swap1\n      pop\n        /* \"#utility.yul\":26631:26997   */\n      swap2\n      swap1\n      pop\n      jump\t// out\n        /* \"#utility.yul\":27003:27422   */\n    tag_176:\n        /* \"#utility.yul\":27169:27173   */\n      0x00\n        /* \"#utility.yul\":27207:27209   */\n      0x20\n        /* \"#utility.yul\":27196:27205   */\n      dup3\n        /* \"#utility.yul\":27192:27210   */\n      add\n        /* \"#utility.yul\":27184:27210   */\n      swap1\n      pop\n        /* \"#utility.yul\":27256:27265   */\n      dup2\n        /* \"#utility.yul\":27250:27254   */\n      dup2\n        /* \"#utility.yul\":27246:27266   */\n      sub\n        /* \"#utility.yul\":27242:27243   */\n      0x00\n        /* \"#utility.yul\":27231:27240   */\n      dup4\n        /* \"#utility.yul\":27227:27244   */\n      add\n        /* \"#utility.yul\":27220:27267   */\n      mstore\n        /* \"#utility.yul\":27284:27415   */\n      tag_593\n        /* \"#utility.yul\":27410:27414   */\n      dup2\n        /* \"#utility.yul\":27284:27415   */\n      tag_303\n      jump\t// in\n    tag_593:\n        /* \"#utility.yul\":27276:27415   */\n      swap1\n      pop\n        /* \"#utility.yul\":27003:27422   */\n      swap2\n      swap1\n      pop\n      jump\t// out\n        /* \"#utility.yul\":27428:27674   */\n    tag_304:\n        /* \"#utility.yul\":27568:27602   */\n      0x4552524f523a206d73672e73656e6465722073686f756c646e27742062652074\n        /* \"#utility.yul\":27564:27565   */\n      0x00\n        /* \"#utility.yul\":27556:27562   */\n      dup3\n        /* \"#utility.yul\":27552:27566   */\n      add\n        /* \"#utility.yul\":27545:27603   */\n      mstore\n        /* \"#utility.yul\":27637:27666   */\n      0x686520706572736f6e206265696e67207472616e7366657265642e0000000000\n        /* \"#utility.yul\":27632:27634   */\n      0x20\n        /* \"#utility.yul\":27624:27630   */\n      dup3\n        /* \"#utility.yul\":27620:27635   */\n      add\n        /* \"#utility.yul\":27613:27667   */\n      mstore\n        /* \"#utility.yul\":27428:27674   */\n      pop\n      jump\t// out\n        /* \"#utility.yul\":27680:28046   */\n    tag_305:\n        /* \"#utility.yul\":27822:27825   */\n      0x00\n        /* \"#utility.yul\":27843:27910   */\n      tag_596\n        /* \"#utility.yul\":27907:27909   */\n      0x3b\n        /* \"#utility.yul\":27902:27905   */\n      dup4\n        /* \"#utility.yul\":27843:27910   */\n      tag_233\n      jump\t// in\n    tag_596:\n        /* \"#utility.yul\":27836:27910   */\n      swap2\n      pop\n        /* \"#utility.yul\":27919:28012   */\n      tag_597\n        /* \"#utility.yul\":28008:28011   */\n      dup3\n        /* \"#utility.yul\":27919:28012   */\n      tag_304\n      jump\t// in\n    tag_597:\n        /* \"#utility.yul\":28037:28039   */\n      0x40\n        /* \"#utility.yul\":28032:28035   */\n      dup3\n        /* \"#utility.yul\":28028:28040   */\n      add\n        /* \"#utility.yul\":28021:28040   */\n      swap1\n      pop\n        /* \"#utility.yul\":27680:28046   */\n      swap2\n      swap1\n      pop\n      jump\t// out\n        /* \"#utility.yul\":28052:28471   */\n    tag_194:\n        /* \"#utility.yul\":28218:28222   */\n      0x00\n        /* \"#utility.yul\":28256:28258   */\n      0x20\n        /* \"#utility.yul\":28245:28254   */\n      dup3\n        /* \"#utility.yul\":28241:28259   */\n      add\n        /* \"#utility.yul\":28233:28259   */\n      swap1\n      pop\n        /* \"#utility.yul\":28305:28314   */\n      dup2\n        /* \"#utility.yul\":28299:28303   */\n      dup2\n        /* \"#utility.yul\":28295:28315   */\n      sub\n        /* \"#utility.yul\":28291:28292   */\n      0x00\n        /* \"#utility.yul\":28280:28289   */\n      dup4\n        /* \"#utility.yul\":28276:28293   */\n      add\n        /* \"#utility.yul\":28269:28316   */\n      mstore\n        /* \"#utility.yul\":28333:28464   */\n      tag_599\n        /* \"#utility.yul\":28459:28463   */\n      dup2\n        /* \"#utility.yul\":28333:28464   */\n      tag_305\n      jump\t// in\n    tag_599:\n        /* \"#utility.yul\":28325:28464   */\n      swap1\n      pop\n        /* \"#utility.yul\":28052:28471   */\n      swap2\n      swap1\n      pop\n      jump\t// out\n        /* \"#utility.yul\":28477:28715   */\n    tag_306:\n        /* \"#utility.yul\":28617:28651   */\n      0x4552524f523a20596f752068617665206e6f207065726d697373696f6e20746f\n        /* \"#utility.yul\":28613:28614   */\n      0x00\n        /* \"#utility.yul\":28605:28611   */\n      dup3\n        /* \"#utility.yul\":28601:28615   */\n      add\n        /* \"#utility.yul\":28594:28652   */\n      mstore\n        /* \"#utility.yul\":28686:28707   */\n      0x207472616e736665722074686973206e66742e00000000000000000000000000\n        /* \"#utility.yul\":28681:28683   */\n      0x20\n        /* \"#utility.yul\":28673:28679   */\n      dup3\n        /* \"#utility.yul\":28669:28684   */\n      add\n        /* \"#utility.yul\":28662:28708   */\n      mstore\n        /* \"#utility.yul\":28477:28715   */\n      pop\n      jump\t// out\n        /* \"#utility.yul\":28721:29087   */\n    tag_307:\n        /* \"#utility.yul\":28863:28866   */\n      0x00\n        /* \"#utility.yul\":28884:28951   */\n      tag_602\n        /* \"#utility.yul\":28948:28950   */\n      0x33\n        /* \"#utility.yul\":28943:28946   */\n      dup4\n        /* \"#utility.yul\":28884:28951   */\n      tag_233\n      jump\t// in\n    tag_602:\n        /* \"#utility.yul\":28877:28951   */\n      swap2\n      pop\n        /* \"#utility.yul\":28960:29053   */\n      tag_603\n        /* \"#utility.yul\":29049:29052   */\n      dup3\n        /* \"#utility.yul\":28960:29053   */\n      tag_306\n      jump\t// in\n    tag_603:\n        /* \"#utility.yul\":29078:29080   */\n      0x40\n        /* \"#utility.yul\":29073:29076   */\n      dup3\n        /* \"#utility.yul\":29069:29081   */\n      add\n        /* \"#utility.yul\":29062:29081   */\n      swap1\n      pop\n        /* \"#utility.yul\":28721:29087   */\n      swap2\n      swap1\n      pop\n      jump\t// out\n        /* \"#utility.yul\":29093:29512   */\n    tag_197:\n        /* \"#utility.yul\":29259:29263   */\n      0x00\n        /* \"#utility.yul\":29297:29299   */\n      0x20\n        /* \"#utility.yul\":29286:29295   */\n      dup3\n        /* \"#utility.yul\":29282:29300   */\n      add\n        /* \"#utility.yul\":29274:29300   */\n      swap1\n      pop\n        /* \"#utility.yul\":29346:29355   */\n      dup2\n        /* \"#utility.yul\":29340:29344   */\n      dup2\n        /* \"#utility.yul\":29336:29356   */\n      sub\n        /* \"#utility.yul\":29332:29333   */\n      0x00\n        /* \"#utility.yul\":29321:29330   */\n      dup4\n        /* \"#utility.yul\":29317:29334   */\n      add\n        /* \"#utility.yul\":29310:29357   */\n      mstore\n        /* \"#utility.yul\":29374:29505   */\n      tag_605\n        /* \"#utility.yul\":29500:29504   */\n      dup2\n        /* \"#utility.yul\":29374:29505   */\n      tag_307\n      jump\t// in\n    tag_605:\n        /* \"#utility.yul\":29366:29505   */\n      swap1\n      pop\n        /* \"#utility.yul\":29093:29512   */\n      swap2\n      swap1\n      pop\n      jump\t// out\n        /* \"#utility.yul\":29518:29745   */\n    tag_308:\n        /* \"#utility.yul\":29658:29692   */\n      0x4552524f523a204552433732315265636569766572206973206e6f7420696d70\n        /* \"#utility.yul\":29654:29655   */\n      0x00\n        /* \"#utility.yul\":29646:29652   */\n      dup3\n        /* \"#utility.yul\":29642:29656   */\n      add\n        /* \"#utility.yul\":29635:29693   */\n      mstore\n        /* \"#utility.yul\":29727:29737   */\n      0x6c656d656e746564000000000000000000000000000000000000000000000000\n        /* \"#utility.yul\":29722:29724   */\n      0x20\n        /* \"#utility.yul\":29714:29720   */\n      dup3\n        /* \"#utility.yul\":29710:29725   */\n      add\n        /* \"#utility.yul\":29703:29738   */\n      mstore\n        /* \"#utility.yul\":29518:29745   */\n      pop\n      jump\t// out\n        /* \"#utility.yul\":29751:30117   */\n    tag_309:\n        /* \"#utility.yul\":29893:29896   */\n      0x00\n        /* \"#utility.yul\":29914:29981   */\n      tag_608\n        /* \"#utility.yul\":29978:29980   */\n      0x28\n        /* \"#utility.yul\":29973:29976   */\n      dup4\n        /* \"#utility.yul\":29914:29981   */\n      tag_233\n      jump\t// in\n    tag_608:\n        /* \"#utility.yul\":29907:29981   */\n      swap2\n      pop\n        /* \"#utility.yul\":29990:30083   */\n      tag_609\n        /* \"#utility.yul\":30079:30082   */\n      dup3\n        /* \"#utility.yul\":29990:30083   */\n      tag_308\n      jump\t// in\n    tag_609:\n        /* \"#utility.yul\":30108:30110   */\n      0x40\n        /* \"#utility.yul\":30103:30106   */\n      dup3\n        /* \"#utility.yul\":30099:30111   */\n      add\n        /* \"#utility.yul\":30092:30111   */\n      swap1\n      pop\n        /* \"#utility.yul\":29751:30117   */\n      swap2\n      swap1\n      pop\n      jump\t// out\n        /* \"#utility.yul\":30123:30542   */\n    tag_212:\n        /* \"#utility.yul\":30289:30293   */\n      0x00\n        /* \"#utility.yul\":30327:30329   */\n      0x20\n        /* \"#utility.yul\":30316:30325   */\n      dup3\n        /* \"#utility.yul\":30312:30330   */\n      add\n        /* \"#utility.yul\":30304:30330   */\n      swap1\n      pop\n        /* \"#utility.yul\":30376:30385   */\n      dup2\n        /* \"#utility.yul\":30370:30374   */\n      dup2\n        /* \"#utility.yul\":30366:30386   */\n      sub\n        /* \"#utility.yul\":30362:30363   */\n      0x00\n        /* \"#utility.yul\":30351:30360   */\n      dup4\n        /* \"#utility.yul\":30347:30364   */\n      add\n        /* \"#utility.yul\":30340:30387   */\n      mstore\n        /* \"#utility.yul\":30404:30535   */\n      tag_611\n        /* \"#utility.yul\":30530:30534   */\n      dup2\n        /* \"#utility.yul\":30404:30535   */\n      tag_309\n      jump\t// in\n    tag_611:\n        /* \"#utility.yul\":30396:30535   */\n      swap1\n      pop\n        /* \"#utility.yul\":30123:30542   */\n      swap2\n      swap1\n      pop\n      jump\t// out\n        /* \"#utility.yul\":30548:30646   */\n    tag_310:\n        /* \"#utility.yul\":30599:30605   */\n      0x00\n        /* \"#utility.yul\":30633:30638   */\n      dup2\n        /* \"#utility.yul\":30627:30639   */\n      mload\n        /* \"#utility.yul\":30617:30639   */\n      swap1\n      pop\n        /* \"#utility.yul\":30548:30646   */\n      swap2\n      swap1\n      pop\n      jump\t// out\n        /* \"#utility.yul\":30652:30820   */\n    tag_311:\n        /* \"#utility.yul\":30735:30746   */\n      0x00\n        /* \"#utility.yul\":30769:30775   */\n      dup3\n        /* \"#utility.yul\":30764:30767   */\n      dup3\n        /* \"#utility.yul\":30757:30776   */\n      mstore\n        /* \"#utility.yul\":30809:30813   */\n      0x20\n        /* \"#utility.yul\":30804:30807   */\n      dup3\n        /* \"#utility.yul\":30800:30814   */\n      add\n        /* \"#utility.yul\":30785:30814   */\n      swap1\n      pop\n        /* \"#utility.yul\":30652:30820   */\n      swap3\n      swap2\n      pop\n      pop\n      jump\t// out\n        /* \"#utility.yul\":30826:31199   */\n    tag_312:\n        /* \"#utility.yul\":30912:30915   */\n      0x00\n        /* \"#utility.yul\":30940:30978   */\n      tag_615\n        /* \"#utility.yul\":30972:30977   */\n      dup3\n        /* \"#utility.yul\":30940:30978   */\n      tag_310\n      jump\t// in\n    tag_615:\n        /* \"#utility.yul\":30994:31064   */\n      tag_616\n        /* \"#utility.yul\":31057:31063   */\n      dup2\n        /* \"#utility.yul\":31052:31055   */\n      dup6\n        /* \"#utility.yul\":30994:31064   */\n      tag_311\n      jump\t// in\n    tag_616:\n        /* \"#utility.yul\":30987:31064   */\n      swap4\n      pop\n        /* \"#utility.yul\":31073:31138   */\n      tag_617\n        /* \"#utility.yul\":31131:31137   */\n      dup2\n        /* \"#utility.yul\":31126:31129   */\n      dup6\n        /* \"#utility.yul\":31119:31123   */\n      0x20\n        /* \"#utility.yul\":31112:31117   */\n      dup7\n        /* \"#utility.yul\":31108:31124   */\n      add\n        /* \"#utility.yul\":31073:31138   */\n      tag_234\n      jump\t// in\n    tag_617:\n        /* \"#utility.yul\":31163:31192   */\n      tag_618\n        /* \"#utility.yul\":31185:31191   */\n      dup2\n        /* \"#utility.yul\":31163:31192   */\n      tag_235\n      jump\t// in\n    tag_618:\n        /* \"#utility.yul\":31158:31161   */\n      dup5\n        /* \"#utility.yul\":31154:31193   */\n      add\n        /* \"#utility.yul\":31147:31193   */\n      swap2\n      pop\n        /* \"#utility.yul\":30916:31199   */\n      pop\n        /* \"#utility.yul\":30826:31199   */\n      swap3\n      swap2\n      pop\n      pop\n      jump\t// out\n        /* \"#utility.yul\":31205:31845   */\n    tag_216:\n        /* \"#utility.yul\":31400:31404   */\n      0x00\n        /* \"#utility.yul\":31438:31441   */\n      0x80\n        /* \"#utility.yul\":31427:31436   */\n      dup3\n        /* \"#utility.yul\":31423:31442   */\n      add\n        /* \"#utility.yul\":31415:31442   */\n      swap1\n      pop\n        /* \"#utility.yul\":31452:31523   */\n      tag_620\n        /* \"#utility.yul\":31520:31521   */\n      0x00\n        /* \"#utility.yul\":31509:31518   */\n      dup4\n        /* \"#utility.yul\":31505:31522   */\n      add\n        /* \"#utility.yul\":31496:31502   */\n      dup8\n        /* \"#utility.yul\":31452:31523   */\n      tag_245\n      jump\t// in\n    tag_620:\n        /* \"#utility.yul\":31533:31605   */\n      tag_621\n        /* \"#utility.yul\":31601:31603   */\n      0x20\n        /* \"#utility.yul\":31590:31599   */\n      dup4\n        /* \"#utility.yul\":31586:31604   */\n      add\n        /* \"#utility.yul\":31577:31583   */\n      dup7\n        /* \"#utility.yul\":31533:31605   */\n      tag_245\n      jump\t// in\n    tag_621:\n        /* \"#utility.yul\":31615:31687   */\n      tag_622\n        /* \"#utility.yul\":31683:31685   */\n      0x40\n        /* \"#utility.yul\":31672:31681   */\n      dup4\n        /* \"#utility.yul\":31668:31686   */\n      add\n        /* \"#utility.yul\":31659:31665   */\n      dup6\n        /* \"#utility.yul\":31615:31687   */\n      tag_257\n      jump\t// in\n    tag_622:\n        /* \"#utility.yul\":31734:31743   */\n      dup2\n        /* \"#utility.yul\":31728:31732   */\n      dup2\n        /* \"#utility.yul\":31724:31744   */\n      sub\n        /* \"#utility.yul\":31719:31721   */\n      0x60\n        /* \"#utility.yul\":31708:31717   */\n      dup4\n        /* \"#utility.yul\":31704:31722   */\n      add\n        /* \"#utility.yul\":31697:31745   */\n      mstore\n        /* \"#utility.yul\":31762:31838   */\n      tag_623\n        /* \"#utility.yul\":31833:31837   */\n      dup2\n        /* \"#utility.yul\":31824:31830   */\n      dup5\n        /* \"#utility.yul\":31762:31838   */\n      tag_312\n      jump\t// in\n    tag_623:\n        /* \"#utility.yul\":31754:31838   */\n      swap1\n      pop\n        /* \"#utility.yul\":31205:31845   */\n      swap6\n      swap5\n      pop\n      pop\n      pop\n      pop\n      pop\n      jump\t// out\n        /* \"#utility.yul\":31851:31992   */\n    tag_313:\n        /* \"#utility.yul\":31907:31912   */\n      0x00\n        /* \"#utility.yul\":31938:31944   */\n      dup2\n        /* \"#utility.yul\":31932:31945   */\n      mload\n        /* \"#utility.yul\":31923:31945   */\n      swap1\n      pop\n        /* \"#utility.yul\":31954:31986   */\n      tag_625\n        /* \"#utility.yul\":31980:31985   */\n      dup2\n        /* \"#utility.yul\":31954:31986   */\n      tag_259\n      jump\t// in\n    tag_625:\n        /* \"#utility.yul\":31851:31992   */\n      swap3\n      swap2\n      pop\n      pop\n      jump\t// out\n        /* \"#utility.yul\":31998:32347   */\n    tag_219:\n        /* \"#utility.yul\":32067:32073   */\n      0x00\n        /* \"#utility.yul\":32116:32118   */\n      0x20\n        /* \"#utility.yul\":32104:32113   */\n      dup3\n        /* \"#utility.yul\":32095:32102   */\n      dup5\n        /* \"#utility.yul\":32091:32114   */\n      sub\n        /* \"#utility.yul\":32087:32119   */\n      slt\n        /* \"#utility.yul\":32084:32203   */\n      iszero\n      tag_627\n      jumpi\n        /* \"#utility.yul\":32122:32201   */\n      tag_628\n      tag_238\n      jump\t// in\n    tag_628:\n        /* \"#utility.yul\":32084:32203   */\n    tag_627:\n        /* \"#utility.yul\":32242:32243   */\n      0x00\n        /* \"#utility.yul\":32267:32330   */\n      tag_629\n        /* \"#utility.yul\":32322:32329   */\n      dup5\n        /* \"#utility.yul\":32313:32319   */\n      dup3\n        /* \"#utility.yul\":32302:32311   */\n      dup6\n        /* \"#utility.yul\":32298:32320   */\n      add\n        /* \"#utility.yul\":32267:32330   */\n      tag_313\n      jump\t// in\n    tag_629:\n        /* \"#utility.yul\":32257:32330   */\n      swap2\n      pop\n        /* \"#utility.yul\":32213:32340   */\n      pop\n        /* \"#utility.yul\":31998:32347   */\n      swap3\n      swap2\n      pop\n      pop\n      jump\t// out\n        /* \"#utility.yul\":32353:32591   */\n    tag_314:\n        /* \"#utility.yul\":32493:32527   */\n      0x4552433732313a207472616e7366657220746f206e6f6e204552433732315265\n        /* \"#utility.yul\":32489:32490   */\n      0x00\n        /* \"#utility.yul\":32481:32487   */\n      dup3\n        /* \"#utility.yul\":32477:32491   */\n      add\n        /* \"#utility.yul\":32470:32528   */\n      mstore\n        /* \"#utility.yul\":32562:32583   */\n      0x63656976657220696d706c656d656e7465722e00000000000000000000000000\n        /* \"#utility.yul\":32557:32559   */\n      0x20\n        /* \"#utility.yul\":32549:32555   */\n      dup3\n        /* \"#utility.yul\":32545:32560   */\n      add\n        /* \"#utility.yul\":32538:32584   */\n      mstore\n        /* \"#utility.yul\":32353:32591   */\n      pop\n      jump\t// out\n        /* \"#utility.yul\":32597:32963   */\n    tag_315:\n        /* \"#utility.yul\":32739:32742   */\n      0x00\n        /* \"#utility.yul\":32760:32827   */\n      tag_632\n        /* \"#utility.yul\":32824:32826   */\n      0x33\n        /* \"#utility.yul\":32819:32822   */\n      dup4\n        /* \"#utility.yul\":32760:32827   */\n      tag_233\n      jump\t// in\n    tag_632:\n        /* \"#utility.yul\":32753:32827   */\n      swap2\n      pop\n        /* \"#utility.yul\":32836:32929   */\n      tag_633\n        /* \"#utility.yul\":32925:32928   */\n      dup3\n        /* \"#utility.yul\":32836:32929   */\n      tag_314\n      jump\t// in\n    tag_633:\n        /* \"#utility.yul\":32954:32956   */\n      0x40\n        /* \"#utility.yul\":32949:32952   */\n      dup3\n        /* \"#utility.yul\":32945:32957   */\n      add\n        /* \"#utility.yul\":32938:32957   */\n      swap1\n      pop\n        /* \"#utility.yul\":32597:32963   */\n      swap2\n      swap1\n      pop\n      jump\t// out\n        /* \"#utility.yul\":32969:33388   */\n    tag_228:\n        /* \"#utility.yul\":33135:33139   */\n      0x00\n        /* \"#utility.yul\":33173:33175   */\n      0x20\n        /* \"#utility.yul\":33162:33171   */\n      dup3\n        /* \"#utility.yul\":33158:33176   */\n      add\n        /* \"#utility.yul\":33150:33176   */\n      swap1\n      pop\n        /* \"#utility.yul\":33222:33231   */\n      dup2\n        /* \"#utility.yul\":33216:33220   */\n      dup2\n        /* \"#utility.yul\":33212:33232   */\n      sub\n        /* \"#utility.yul\":33208:33209   */\n      0x00\n        /* \"#utility.yul\":33197:33206   */\n      dup4\n        /* \"#utility.yul\":33193:33210   */\n      add\n        /* \"#utility.yul\":33186:33233   */\n      mstore\n        /* \"#utility.yul\":33250:33381   */\n      tag_635\n        /* \"#utility.yul\":33376:33380   */\n      dup2\n        /* \"#utility.yul\":33250:33381   */\n      tag_315\n      jump\t// in\n    tag_635:\n        /* \"#utility.yul\":33242:33381   */\n      swap1\n      pop\n        /* \"#utility.yul\":32969:33388   */\n      swap2\n      swap1\n      pop\n      jump\t// out\n\n    auxdata: 0xa26469706673582212204a89b2d10a28fd1f0ce7a30b6c0ee887484d7e796c69c88f432c9e51bbf36def64736f6c63430008110033\n}\n",
				"bytecode": {
					"linkReferences": {},
					"object": "60806040523480156200001157600080fd5b506040516200315e3803806200315e8339818101604052810190620000379190620001f6565b8160049081620000489190620004c6565b5080600590816200005a9190620004c6565b505050620005ad565b6000604051905090565b600080fd5b600080fd5b600080fd5b600080fd5b6000601f19601f8301169050919050565b7f4e487b7100000000000000000000000000000000000000000000000000000000600052604160045260246000fd5b620000cc8262000081565b810181811067ffffffffffffffff82111715620000ee57620000ed62000092565b5b80604052505050565b60006200010362000063565b9050620001118282620000c1565b919050565b600067ffffffffffffffff82111562000134576200013362000092565b5b6200013f8262000081565b9050602081019050919050565b60005b838110156200016c5780820151818401526020810190506200014f565b60008484015250505050565b60006200018f620001898462000116565b620000f7565b905082815260208101848484011115620001ae57620001ad6200007c565b5b620001bb8482856200014c565b509392505050565b600082601f830112620001db57620001da62000077565b5b8151620001ed84826020860162000178565b91505092915050565b6000806040838503121562000210576200020f6200006d565b5b600083015167ffffffffffffffff81111562000231576200023062000072565b5b6200023f85828601620001c3565b925050602083015167ffffffffffffffff81111562000263576200026262000072565b5b6200027185828601620001c3565b9150509250929050565b600081519050919050565b7f4e487b7100000000000000000000000000000000000000000000000000000000600052602260045260246000fd5b60006002820490506001821680620002ce57607f821691505b602082108103620002e457620002e362000286565b5b50919050565b60008190508160005260206000209050919050565b60006020601f8301049050919050565b600082821b905092915050565b6000600883026200034e7fffffffffffffffffffffffffffffffffffffffffffffffffffffffffffffffff826200030f565b6200035a86836200030f565b95508019841693508086168417925050509392505050565b6000819050919050565b6000819050919050565b6000620003a7620003a16200039b8462000372565b6200037c565b62000372565b9050919050565b6000819050919050565b620003c38362000386565b620003db620003d282620003ae565b8484546200031c565b825550505050565b600090565b620003f2620003e3565b620003ff818484620003b8565b505050565b5b8181101562000427576200041b600082620003e8565b60018101905062000405565b5050565b601f82111562000476576200044081620002ea565b6200044b84620002ff565b810160208510156200045b578190505b620004736200046a85620002ff565b83018262000404565b50505b505050565b600082821c905092915050565b60006200049b600019846008026200047b565b1980831691505092915050565b6000620004b6838362000488565b9150826002028217905092915050565b620004d1826200027b565b67ffffffffffffffff811115620004ed57620004ec62000092565b5b620004f98254620002b5565b620005068282856200042b565b600060209050601f8311600181146200053e576000841562000529578287015190505b620005358582620004a8565b865550620005a5565b601f1984166200054e86620002ea565b60005b82811015620005785784890151825560018201915060208501945060208101905062000551565b8683101562000598578489015162000594601f89168262000488565b8355505b6001600288020188555050505b505050505050565b612ba180620005bd6000396000f3fe608060405234801561001057600080fd5b50600436106101165760003560e01c806370a08231116100a2578063a144819411610071578063a1448194146102db578063a22cb465146102f7578063b88d4fde14610313578063c87b56dd1461032f578063e985e9c51461035f57610116565b806370a082311461024157806375e79be6146102715780638832e6e3146102a157806395d89b41146102bd57610116565b806323b872dd116100e957806323b872dd146101a157806340c10f19146101bd57806342842e0e146101d957806342966c68146101f55780636352211e1461021157610116565b806306fdde031461011b578063081812fc14610139578063095ea7b314610169578063162094c414610185575b600080fd5b61012361038f565b60405161013091906119b2565b60405180910390f35b610153600480360381019061014e9190611a1e565b610421565b6040516101609190611a8c565b60405180910390f35b610183600480360381019061017e9190611ad3565b610505565b005b61019f600480360381019061019a9190611c48565b610725565b005b6101bb60048036038101906101b69190611ca4565b6107f2565b005b6101d760048036038101906101d29190611ad3565b610802565b005b6101f360048036038101906101ee9190611ca4565b610a2b565b005b61020f600480360381019061020a9190611a1e565b610a4b565b005b61022b60048036038101906102269190611a1e565b610c1d565b6040516102389190611a8c565b60405180910390f35b61025b60048036038101906102569190611cf7565b610cce565b6040516102689190611d33565b60405180910390f35b61028b60048036038101906102869190611da6565b610d84565b6040516102989190611dee565b60405180910390f35b6102bb60048036038101906102b69190611eaa565b610ebe565b005b6102c5610f19565b6040516102d291906119b2565b60405180910390f35b6102f560048036038101906102f09190611ad3565b610fab565b005b610311600480360381019061030c9190611f45565b610fc9565b005b61032d60048036038101906103289190611fe5565b611134565b005b61034960048036038101906103449190611a1e565b61118b565b60405161035691906119b2565b60405180910390f35b6103796004803603810190610374919061206d565b6112d8565b6040516103869190611dee565b60405180910390f35b60606004805461039e906120dc565b80601f01602080910402602001604051908101604052809291908181526020018280546103ca906120dc565b80156104175780601f106103ec57610100808354040283529160200191610417565b820191906000526020600020905b8154815290600101906020018083116103fa57829003601f168201915b5050505050905090565b6000806001600084815260200190815260200160002060009054906101000a900473ffffffffffffffffffffffffffffffffffffffff169050600073ffffffffffffffffffffffffffffffffffffffff168173ffffffffffffffffffffffffffffffffffffffff16036104c9576040517f08c379a00000000000000000000000000000000000000000000000000000000081526004016104c09061217f565b60405180910390fd5b6002600084815260200190815260200160002060009054906101000a900473ffffffffffffffffffffffffffffffffffffffff16915050919050565b60006001600083815260200190815260200160002060009054906101000a900473ffffffffffffffffffffffffffffffffffffffff169050600073ffffffffffffffffffffffffffffffffffffffff168173ffffffffffffffffffffffffffffffffffffffff16036105ac576040517f08c379a00000000000000000000000000000000000000000000000000000000081526004016105a39061217f565b60405180910390fd5b3373ffffffffffffffffffffffffffffffffffffffff168173ffffffffffffffffffffffffffffffffffffffff1614806105ec57506105eb81336112d8565b5b8061062a57503373ffffffffffffffffffffffffffffffffffffffff1661061283610421565b73ffffffffffffffffffffffffffffffffffffffff16145b610669576040517f08c379a000000000000000000000000000000000000000000000000000000000815260040161066090612211565b60405180910390fd5b826002600084815260200190815260200160002060006101000a81548173ffffffffffffffffffffffffffffffffffffffff021916908373ffffffffffffffffffffffffffffffffffffffff1602179055508273ffffffffffffffffffffffffffffffffffffffff168173ffffffffffffffffffffffffffffffffffffffff167f8c5be1e5ebec7d5bd14f71427d1e84f3dd0314c0f7b2291e5b200ac8c7c3b925846040516107189190611d33565b60405180910390a3505050565b60006001600084815260200190815260200160002060009054906101000a900473ffffffffffffffffffffffffffffffffffffffff169050600073ffffffffffffffffffffffffffffffffffffffff168173ffffffffffffffffffffffffffffffffffffffff16036107cc576040517f08c379a00000000000000000000000000000000000000000000000000000000081526004016107c39061227d565b60405180910390fd5b816006600085815260200190815260200160002090816107ec9190612449565b50505050565b6107fd83838361136c565b505050565b600073ffffffffffffffffffffffffffffffffffffffff168273ffffffffffffffffffffffffffffffffffffffff1603610871576040517f08c379a000000000000000000000000000000000000000000000000000000000815260040161086890612567565b60405180910390fd5b60006001600083815260200190815260200160002060009054906101000a900473ffffffffffffffffffffffffffffffffffffffff169050600073ffffffffffffffffffffffffffffffffffffffff168173ffffffffffffffffffffffffffffffffffffffff1614610918576040517f08c379a000000000000000000000000000000000000000000000000000000000815260040161090f906125f9565b60405180910390fd5b60016000808573ffffffffffffffffffffffffffffffffffffffff1673ffffffffffffffffffffffffffffffffffffffff16815260200190815260200160002060008282546109679190612648565b92505081905550826001600084815260200190815260200160002060006101000a81548173ffffffffffffffffffffffffffffffffffffffff021916908373ffffffffffffffffffffffffffffffffffffffff1602179055508273ffffffffffffffffffffffffffffffffffffffff16600073ffffffffffffffffffffffffffffffffffffffff167fddf252ad1be2c89b69c2b068fc378daa952ba7f163c4a11628f55a4df523b3ef84604051610a1e9190611d33565b60405180910390a3505050565b610a468383836040518060200160405280600081525061174b565b505050565b60006001600083815260200190815260200160002060009054906101000a900473ffffffffffffffffffffffffffffffffffffffff1690508073ffffffffffffffffffffffffffffffffffffffff163373ffffffffffffffffffffffffffffffffffffffff1614610af1576040517f08c379a0000000000000000000000000000000000000000000000000000000008152600401610ae8906126c8565b60405180910390fd5b60016000808373ffffffffffffffffffffffffffffffffffffffff1673ffffffffffffffffffffffffffffffffffffffff1681526020019081526020016000206000828254610b4091906126e8565b925050819055506001600083815260200190815260200160002060006101000a81549073ffffffffffffffffffffffffffffffffffffffff02191690556002600083815260200190815260200160002060006101000a81549073ffffffffffffffffffffffffffffffffffffffff0219169055600073ffffffffffffffffffffffffffffffffffffffff168173ffffffffffffffffffffffffffffffffffffffff167fddf252ad1be2c89b69c2b068fc378daa952ba7f163c4a11628f55a4df523b3ef84604051610c119190611d33565b60405180910390a35050565b6000806001600084815260200190815260200160002060009054906101000a900473ffffffffffffffffffffffffffffffffffffffff169050600073ffffffffffffffffffffffffffffffffffffffff168173ffffffffffffffffffffffffffffffffffffffff1603610cc5576040517f08c379a0000000000000000000000000000000000000000000000000000000008152600401610cbc9061217f565b60405180910390fd5b80915050919050565b60008073ffffffffffffffffffffffffffffffffffffffff168273ffffffffffffffffffffffffffffffffffffffff1603610d3e576040517f08c379a0000000000000000000000000000000000000000000000000000000008152600401610d359061217f565b60405180910390fd5b6000808373ffffffffffffffffffffffffffffffffffffffff1673ffffffffffffffffffffffffffffffffffffffff168152602001908152602001600020549050919050565b60007f80ac58cd000000000000000000000000000000000000000000000000000000007bffffffffffffffffffffffffffffffffffffffffffffffffffffffff1916827bffffffffffffffffffffffffffffffffffffffffffffffffffffffff19161480610e4f57507f5b5e139f000000000000000000000000000000000000000000000000000000007bffffffffffffffffffffffffffffffffffffffffffffffffffffffff1916827bffffffffffffffffffffffffffffffffffffffffffffffffffffffff1916145b80610eb757507f75e79be6000000000000000000000000000000000000000000000000000000007bffffffffffffffffffffffffffffffffffffffffffffffffffffffff1916827bffffffffffffffffffffffffffffffffffffffffffffffffffffffff1916145b9050919050565b610ec88383610802565b610ed560008484846117a7565b610f14576040517f08c379a0000000000000000000000000000000000000000000000000000000008152600401610f0b9061278e565b60405180910390fd5b505050565b606060058054610f28906120dc565b80601f0160208091040260200160405190810160405280929190818152602001828054610f54906120dc565b8015610fa15780601f10610f7657610100808354040283529160200191610fa1565b820191906000526020600020905b815481529060010190602001808311610f8457829003601f168201915b5050505050905090565b610fc5828260405180602001604052806000815250610ebe565b5050565b8173ffffffffffffffffffffffffffffffffffffffff163373ffffffffffffffffffffffffffffffffffffffff1603611037576040517f08c379a000000000000000000000000000000000000000000000000000000000815260040161102e90612820565b60405180910390fd5b80600360003373ffffffffffffffffffffffffffffffffffffffff1673ffffffffffffffffffffffffffffffffffffffff16815260200190815260200160002060008473ffffffffffffffffffffffffffffffffffffffff1673ffffffffffffffffffffffffffffffffffffffff16815260200190815260200160002060006101000a81548160ff0219169083151502179055508173ffffffffffffffffffffffffffffffffffffffff163373ffffffffffffffffffffffffffffffffffffffff167f17307eab39ab6107e8899845ad3d59bd9653f200f220920489ca2b5937696c31836040516111289190611dee565b60405180910390a35050565b61118485858585858080601f016020809104026020016040519081016040528093929190818152602001838380828437600081840152601f19601f8201169050808301925050505050505061174b565b5050505050565b606060006001600084815260200190815260200160002060009054906101000a900473ffffffffffffffffffffffffffffffffffffffff169050600073ffffffffffffffffffffffffffffffffffffffff168173ffffffffffffffffffffffffffffffffffffffff1603611234576040517f08c379a000000000000000000000000000000000000000000000000000000000815260040161122b9061227d565b60405180910390fd5b600660008481526020019081526020016000208054611252906120dc565b80601f016020809104026020016040519081016040528092919081815260200182805461127e906120dc565b80156112cb5780601f106112a0576101008083540402835291602001916112cb565b820191906000526020600020905b8154815290600101906020018083116112ae57829003601f168201915b5050505050915050919050565b6000600360008473ffffffffffffffffffffffffffffffffffffffff1673ffffffffffffffffffffffffffffffffffffffff16815260200190815260200160002060008373ffffffffffffffffffffffffffffffffffffffff1673ffffffffffffffffffffffffffffffffffffffff16815260200190815260200160002060009054906101000a900460ff16905092915050565b60006001600083815260200190815260200160002060009054906101000a900473ffffffffffffffffffffffffffffffffffffffff169050600073ffffffffffffffffffffffffffffffffffffffff168173ffffffffffffffffffffffffffffffffffffffff1603611413576040517f08c379a000000000000000000000000000000000000000000000000000000000815260040161140a9061217f565b60405180910390fd5b8273ffffffffffffffffffffffffffffffffffffffff163373ffffffffffffffffffffffffffffffffffffffff1603611481576040517f08c379a0000000000000000000000000000000000000000000000000000000008152600401611478906128b2565b60405180910390fd5b3373ffffffffffffffffffffffffffffffffffffffff168173ffffffffffffffffffffffffffffffffffffffff16146114ef576040517f08c379a00000000000000000000000000000000000000000000000000000000081526004016114e690612944565b60405180910390fd5b3373ffffffffffffffffffffffffffffffffffffffff168173ffffffffffffffffffffffffffffffffffffffff16148061152f575061152e81336112d8565b5b8061156d57503373ffffffffffffffffffffffffffffffffffffffff1661155583610421565b73ffffffffffffffffffffffffffffffffffffffff16145b6115ac576040517f08c379a00000000000000000000000000000000000000000000000000000000081526004016115a390612211565b60405180910390fd5b6002600083815260200190815260200160002060006101000a81549073ffffffffffffffffffffffffffffffffffffffff021916905560016000808673ffffffffffffffffffffffffffffffffffffffff1673ffffffffffffffffffffffffffffffffffffffff168152602001908152602001600020600082825461163191906126e8565b9250508190555060016000808573ffffffffffffffffffffffffffffffffffffffff1673ffffffffffffffffffffffffffffffffffffffff16815260200190815260200160002060008282546116879190612648565b92505081905550826001600084815260200190815260200160002060006101000a81548173ffffffffffffffffffffffffffffffffffffffff021916908373ffffffffffffffffffffffffffffffffffffffff1602179055508273ffffffffffffffffffffffffffffffffffffffff168473ffffffffffffffffffffffffffffffffffffffff167fddf252ad1be2c89b69c2b068fc378daa952ba7f163c4a11628f55a4df523b3ef8460405161173d9190611d33565b60405180910390a350505050565b61175684848461136c565b611762848484846117a7565b6117a1576040517f08c379a0000000000000000000000000000000000000000000000000000000008152600401611798906129d6565b60405180910390fd5b50505050565b6000808473ffffffffffffffffffffffffffffffffffffffff163b1115611915578373ffffffffffffffffffffffffffffffffffffffff1663150b7a02338786866040518563ffffffff1660e01b81526004016118079493929190612a4b565b6020604051808303816000875af192505050801561184357506040513d601f19601f820116820180604052508101906118409190612aac565b60015b6118c5573d8060008114611873576040519150601f19603f3d011682016040523d82523d6000602084013e611878565b606091505b5060008151036118bd576040517f08c379a00000000000000000000000000000000000000000000000000000000081526004016118b490612b4b565b60405180910390fd5b805181602001fd5b63150b7a0260e01b7bffffffffffffffffffffffffffffffffffffffffffffffffffffffff1916817bffffffffffffffffffffffffffffffffffffffffffffffffffffffff19161491505061191a565b600190505b949350505050565b600081519050919050565b600082825260208201905092915050565b60005b8381101561195c578082015181840152602081019050611941565b60008484015250505050565b6000601f19601f8301169050919050565b600061198482611922565b61198e818561192d565b935061199e81856020860161193e565b6119a781611968565b840191505092915050565b600060208201905081810360008301526119cc8184611979565b905092915050565b6000604051905090565b600080fd5b600080fd5b6000819050919050565b6119fb816119e8565b8114611a0657600080fd5b50565b600081359050611a18816119f2565b92915050565b600060208284031215611a3457611a336119de565b5b6000611a4284828501611a09565b91505092915050565b600073ffffffffffffffffffffffffffffffffffffffff82169050919050565b6000611a7682611a4b565b9050919050565b611a8681611a6b565b82525050565b6000602082019050611aa16000830184611a7d565b92915050565b611ab081611a6b565b8114611abb57600080fd5b50565b600081359050611acd81611aa7565b92915050565b60008060408385031215611aea57611ae96119de565b5b6000611af885828601611abe565b9250506020611b0985828601611a09565b9150509250929050565b600080fd5b600080fd5b7f4e487b7100000000000000000000000000000000000000000000000000000000600052604160045260246000fd5b611b5582611968565b810181811067ffffffffffffffff82111715611b7457611b73611b1d565b5b80604052505050565b6000611b876119d4565b9050611b938282611b4c565b919050565b600067ffffffffffffffff821115611bb357611bb2611b1d565b5b611bbc82611968565b9050602081019050919050565b82818337600083830152505050565b6000611beb611be684611b98565b611b7d565b905082815260208101848484011115611c0757611c06611b18565b5b611c12848285611bc9565b509392505050565b600082601f830112611c2f57611c2e611b13565b5b8135611c3f848260208601611bd8565b91505092915050565b60008060408385031215611c5f57611c5e6119de565b5b6000611c6d85828601611a09565b925050602083013567ffffffffffffffff811115611c8e57611c8d6119e3565b5b611c9a85828601611c1a565b9150509250929050565b600080600060608486031215611cbd57611cbc6119de565b5b6000611ccb86828701611abe565b9350506020611cdc86828701611abe565b9250506040611ced86828701611a09565b9150509250925092565b600060208284031215611d0d57611d0c6119de565b5b6000611d1b84828501611abe565b91505092915050565b611d2d816119e8565b82525050565b6000602082019050611d486000830184611d24565b92915050565b60007fffffffff0000000000000000000000000000000000000000000000000000000082169050919050565b611d8381611d4e565b8114611d8e57600080fd5b50565b600081359050611da081611d7a565b92915050565b600060208284031215611dbc57611dbb6119de565b5b6000611dca84828501611d91565b91505092915050565b60008115159050919050565b611de881611dd3565b82525050565b6000602082019050611e036000830184611ddf565b92915050565b600067ffffffffffffffff821115611e2457611e23611b1d565b5b611e2d82611968565b9050602081019050919050565b6000611e4d611e4884611e09565b611b7d565b905082815260208101848484011115611e6957611e68611b18565b5b611e74848285611bc9565b509392505050565b600082601f830112611e9157611e90611b13565b5b8135611ea1848260208601611e3a565b91505092915050565b600080600060608486031215611ec357611ec26119de565b5b6000611ed186828701611abe565b9350506020611ee286828701611a09565b925050604084013567ffffffffffffffff811115611f0357611f026119e3565b5b611f0f86828701611e7c565b9150509250925092565b611f2281611dd3565b8114611f2d57600080fd5b50565b600081359050611f3f81611f19565b92915050565b60008060408385031215611f5c57611f5b6119de565b5b6000611f6a85828601611abe565b9250506020611f7b85828601611f30565b9150509250929050565b600080fd5b600080fd5b60008083601f840112611fa557611fa4611b13565b5b8235905067ffffffffffffffff811115611fc257611fc1611f85565b5b602083019150836001820283011115611fde57611fdd611f8a565b5b9250929050565b600080600080600060808688031215612001576120006119de565b5b600061200f88828901611abe565b955050602061202088828901611abe565b945050604061203188828901611a09565b935050606086013567ffffffffffffffff811115612052576120516119e3565b5b61205e88828901611f8f565b92509250509295509295909350565b60008060408385031215612084576120836119de565b5b600061209285828601611abe565b92505060206120a385828601611abe565b9150509250929050565b7f4e487b7100000000000000000000000000000000000000000000000000000000600052602260045260246000fd5b600060028204905060018216806120f457607f821691505b602082108103612107576121066120ad565b5b50919050565b7f4552524f523a20746f6b656e20686173206e6f74206265656e206d696e74206f60008201527f7220686173206265656e206275726e2e00000000000000000000000000000000602082015250565b600061216960308361192d565b91506121748261210d565b604082019050919050565b600060208201905081810360008301526121988161215c565b9050919050565b7f4552524f523a204d73672e73656e646572206973206e6f74206f776e6572206f60008201527f72206265696e6720617574686f72697a65642e00000000000000000000000000602082015250565b60006121fb60338361192d565b91506122068261219f565b604082019050919050565b6000602082019050818103600083015261222a816121ee565b9050919050565b7f4552524f523a20546f6b656e204964206973206e6f742076616c696400000000600082015250565b6000612267601c8361192d565b915061227282612231565b602082019050919050565b600060208201905081810360008301526122968161225a565b9050919050565b60008190508160005260206000209050919050565b60006020601f8301049050919050565b600082821b905092915050565b6000600883026122ff7fffffffffffffffffffffffffffffffffffffffffffffffffffffffffffffffff826122c2565b61230986836122c2565b95508019841693508086168417925050509392505050565b6000819050919050565b600061234661234161233c846119e8565b612321565b6119e8565b9050919050565b6000819050919050565b6123608361232b565b61237461236c8261234d565b8484546122cf565b825550505050565b600090565b61238961237c565b612394818484612357565b505050565b5b818110156123b8576123ad600082612381565b60018101905061239a565b5050565b601f8211156123fd576123ce8161229d565b6123d7846122b2565b810160208510156123e6578190505b6123fa6123f2856122b2565b830182612399565b50505b505050565b600082821c905092915050565b600061242060001984600802612402565b1980831691505092915050565b6000612439838361240f565b9150826002028217905092915050565b61245282611922565b67ffffffffffffffff81111561246b5761246a611b1d565b5b61247582546120dc565b6124808282856123bc565b600060209050601f8311600181146124b357600084156124a1578287015190505b6124ab858261242d565b865550612513565b601f1984166124c18661229d565b60005b828110156124e9578489015182556001820191506020850194506020810190506124c4565b868310156125065784890151612502601f89168261240f565b8355505b6001600288020188555050505b505050505050565b7f4552524f523a204d696e7420746f206164647265737320300000000000000000600082015250565b600061255160188361192d565b915061255c8261251b565b602082019050919050565b6000602082019050818103600083015261258081612544565b9050919050565b7f4552524f523a20746f6b656e49642068617320616c726561647920657869737460008201527f65642e0000000000000000000000000000000000000000000000000000000000602082015250565b60006125e360238361192d565b91506125ee82612587565b604082019050919050565b60006020820190508181036000830152612612816125d6565b9050919050565b7f4e487b7100000000000000000000000000000000000000000000000000000000600052601160045260246000fd5b6000612653826119e8565b915061265e836119e8565b925082820190508082111561267657612675612619565b5b92915050565b7f4f6e6c79204e54462773206f776e65722063616e206275726e00000000000000600082015250565b60006126b260198361192d565b91506126bd8261267c565b602082019050919050565b600060208201905081810360008301526126e1816126a5565b9050919050565b60006126f3826119e8565b91506126fe836119e8565b925082820390508181111561271657612715612619565b5b92915050565b7f4552524f523a204552435265636569766572206973206e6f7420696d706c656d60008201527f656e746564000000000000000000000000000000000000000000000000000000602082015250565b600061277860258361192d565b91506127838261271c565b604082019050919050565b600060208201905081810360008301526127a78161276b565b9050919050565b7f4552524f523a206d73672e73656e6465722073686f756c646e2774206265207460008201527f686520706572736f6e206265696e6720617574686f72697a65642e0000000000602082015250565b600061280a603b8361192d565b9150612815826127ae565b604082019050919050565b60006020820190508181036000830152612839816127fd565b9050919050565b7f4552524f523a206d73672e73656e6465722073686f756c646e2774206265207460008201527f686520706572736f6e206265696e67207472616e7366657265642e0000000000602082015250565b600061289c603b8361192d565b91506128a782612840565b604082019050919050565b600060208201905081810360008301526128cb8161288f565b9050919050565b7f4552524f523a20596f752068617665206e6f207065726d697373696f6e20746f60008201527f207472616e736665722074686973206e66742e00000000000000000000000000602082015250565b600061292e60338361192d565b9150612939826128d2565b604082019050919050565b6000602082019050818103600083015261295d81612921565b9050919050565b7f4552524f523a204552433732315265636569766572206973206e6f7420696d7060008201527f6c656d656e746564000000000000000000000000000000000000000000000000602082015250565b60006129c060288361192d565b91506129cb82612964565b604082019050919050565b600060208201905081810360008301526129ef816129b3565b9050919050565b600081519050919050565b600082825260208201905092915050565b6000612a1d826129f6565b612a278185612a01565b9350612a3781856020860161193e565b612a4081611968565b840191505092915050565b6000608082019050612a606000830187611a7d565b612a6d6020830186611a7d565b612a7a6040830185611d24565b8181036060830152612a8c8184612a12565b905095945050505050565b600081519050612aa681611d7a565b92915050565b600060208284031215612ac257612ac16119de565b5b6000612ad084828501612a97565b91505092915050565b7f4552433732313a207472616e7366657220746f206e6f6e20455243373231526560008201527f63656976657220696d706c656d656e7465722e00000000000000000000000000602082015250565b6000612b3560338361192d565b9150612b4082612ad9565b604082019050919050565b60006020820190508181036000830152612b6481612b28565b905091905056fea26469706673582212204a89b2d10a28fd1f0ce7a30b6c0ee887484d7e796c69c88f432c9e51bbf36def64736f6c63430008110033",
					"opcodes": "PUSH1 0x80 PUSH1 0x40 MSTORE CALLVALUE DUP1 ISZERO PUSH3 0x11 JUMPI PUSH1 0x0 DUP1 REVERT JUMPDEST POP PUSH1 0x40 MLOAD PUSH3 0x315E CODESIZE SUB DUP1 PUSH3 0x315E DUP4 CODECOPY DUP2 DUP2 ADD PUSH1 0x40 MSTORE DUP2 ADD SWAP1 PUSH3 0x37 SWAP2 SWAP1 PUSH3 0x1F6 JUMP JUMPDEST DUP2 PUSH1 0x4 SWAP1 DUP2 PUSH3 0x48 SWAP2 SWAP1 PUSH3 0x4C6 JUMP JUMPDEST POP DUP1 PUSH1 0x5 SWAP1 DUP2 PUSH3 0x5A SWAP2 SWAP1 PUSH3 0x4C6 JUMP JUMPDEST POP POP POP PUSH3 0x5AD JUMP JUMPDEST PUSH1 0x0 PUSH1 0x40 MLOAD SWAP1 POP SWAP1 JUMP JUMPDEST PUSH1 0x0 DUP1 REVERT JUMPDEST PUSH1 0x0 DUP1 REVERT JUMPDEST PUSH1 0x0 DUP1 REVERT JUMPDEST PUSH1 0x0 DUP1 REVERT JUMPDEST PUSH1 0x0 PUSH1 0x1F NOT PUSH1 0x1F DUP4 ADD AND SWAP1 POP SWAP2 SWAP1 POP JUMP JUMPDEST PUSH32 0x4E487B7100000000000000000000000000000000000000000000000000000000 PUSH1 0x0 MSTORE PUSH1 0x41 PUSH1 0x4 MSTORE PUSH1 0x24 PUSH1 0x0 REVERT JUMPDEST PUSH3 0xCC DUP3 PUSH3 0x81 JUMP JUMPDEST DUP2 ADD DUP2 DUP2 LT PUSH8 0xFFFFFFFFFFFFFFFF DUP3 GT OR ISZERO PUSH3 0xEE JUMPI PUSH3 0xED PUSH3 0x92 JUMP JUMPDEST JUMPDEST DUP1 PUSH1 0x40 MSTORE POP POP POP JUMP JUMPDEST PUSH1 0x0 PUSH3 0x103 PUSH3 0x63 JUMP JUMPDEST SWAP1 POP PUSH3 0x111 DUP3 DUP3 PUSH3 0xC1 JUMP JUMPDEST SWAP2 SWAP1 POP JUMP JUMPDEST PUSH1 0x0 PUSH8 0xFFFFFFFFFFFFFFFF DUP3 GT ISZERO PUSH3 0x134 JUMPI PUSH3 0x133 PUSH3 0x92 JUMP JUMPDEST JUMPDEST PUSH3 0x13F DUP3 PUSH3 0x81 JUMP JUMPDEST SWAP1 POP PUSH1 0x20 DUP2 ADD SWAP1 POP SWAP2 SWAP1 POP JUMP JUMPDEST PUSH1 0x0 JUMPDEST DUP4 DUP2 LT ISZERO PUSH3 0x16C JUMPI DUP1 DUP3 ADD MLOAD DUP2 DUP5 ADD MSTORE PUSH1 0x20 DUP2 ADD SWAP1 POP PUSH3 0x14F JUMP JUMPDEST PUSH1 0x0 DUP5 DUP5 ADD MSTORE POP POP POP POP JUMP JUMPDEST PUSH1 0x0 PUSH3 0x18F PUSH3 0x189 DUP5 PUSH3 0x116 JUMP JUMPDEST PUSH3 0xF7 JUMP JUMPDEST SWAP1 POP DUP3 DUP2 MSTORE PUSH1 0x20 DUP2 ADD DUP5 DUP5 DUP5 ADD GT ISZERO PUSH3 0x1AE JUMPI PUSH3 0x1AD PUSH3 0x7C JUMP JUMPDEST JUMPDEST PUSH3 0x1BB DUP5 DUP3 DUP6 PUSH3 0x14C JUMP JUMPDEST POP SWAP4 SWAP3 POP POP POP JUMP JUMPDEST PUSH1 0x0 DUP3 PUSH1 0x1F DUP4 ADD SLT PUSH3 0x1DB JUMPI PUSH3 0x1DA PUSH3 0x77 JUMP JUMPDEST JUMPDEST DUP2 MLOAD PUSH3 0x1ED DUP5 DUP3 PUSH1 0x20 DUP7 ADD PUSH3 0x178 JUMP JUMPDEST SWAP2 POP POP SWAP3 SWAP2 POP POP JUMP JUMPDEST PUSH1 0x0 DUP1 PUSH1 0x40 DUP4 DUP6 SUB SLT ISZERO PUSH3 0x210 JUMPI PUSH3 0x20F PUSH3 0x6D JUMP JUMPDEST JUMPDEST PUSH1 0x0 DUP4 ADD MLOAD PUSH8 0xFFFFFFFFFFFFFFFF DUP2 GT ISZERO PUSH3 0x231 JUMPI PUSH3 0x230 PUSH3 0x72 JUMP JUMPDEST JUMPDEST PUSH3 0x23F DUP6 DUP3 DUP7 ADD PUSH3 0x1C3 JUMP JUMPDEST SWAP3 POP POP PUSH1 0x20 DUP4 ADD MLOAD PUSH8 0xFFFFFFFFFFFFFFFF DUP2 GT ISZERO PUSH3 0x263 JUMPI PUSH3 0x262 PUSH3 0x72 JUMP JUMPDEST JUMPDEST PUSH3 0x271 DUP6 DUP3 DUP7 ADD PUSH3 0x1C3 JUMP JUMPDEST SWAP2 POP POP SWAP3 POP SWAP3 SWAP1 POP JUMP JUMPDEST PUSH1 0x0 DUP2 MLOAD SWAP1 POP SWAP2 SWAP1 POP JUMP JUMPDEST PUSH32 0x4E487B7100000000000000000000000000000000000000000000000000000000 PUSH1 0x0 MSTORE PUSH1 0x22 PUSH1 0x4 MSTORE PUSH1 0x24 PUSH1 0x0 REVERT JUMPDEST PUSH1 0x0 PUSH1 0x2 DUP3 DIV SWAP1 POP PUSH1 0x1 DUP3 AND DUP1 PUSH3 0x2CE JUMPI PUSH1 0x7F DUP3 AND SWAP2 POP JUMPDEST PUSH1 0x20 DUP3 LT DUP2 SUB PUSH3 0x2E4 JUMPI PUSH3 0x2E3 PUSH3 0x286 JUMP JUMPDEST JUMPDEST POP SWAP2 SWAP1 POP JUMP JUMPDEST PUSH1 0x0 DUP2 SWAP1 POP DUP2 PUSH1 0x0 MSTORE PUSH1 0x20 PUSH1 0x0 KECCAK256 SWAP1 POP SWAP2 SWAP1 POP JUMP JUMPDEST PUSH1 0x0 PUSH1 0x20 PUSH1 0x1F DUP4 ADD DIV SWAP1 POP SWAP2 SWAP1 POP JUMP JUMPDEST PUSH1 0x0 DUP3 DUP3 SHL SWAP1 POP SWAP3 SWAP2 POP POP JUMP JUMPDEST PUSH1 0x0 PUSH1 0x8 DUP4 MUL PUSH3 0x34E PUSH32 0xFFFFFFFFFFFFFFFFFFFFFFFFFFFFFFFFFFFFFFFFFFFFFFFFFFFFFFFFFFFFFFFF DUP3 PUSH3 0x30F JUMP JUMPDEST PUSH3 0x35A DUP7 DUP4 PUSH3 0x30F JUMP JUMPDEST SWAP6 POP DUP1 NOT DUP5 AND SWAP4 POP DUP1 DUP7 AND DUP5 OR SWAP3 POP POP POP SWAP4 SWAP3 POP POP POP JUMP JUMPDEST PUSH1 0x0 DUP2 SWAP1 POP SWAP2 SWAP1 POP JUMP JUMPDEST PUSH1 0x0 DUP2 SWAP1 POP SWAP2 SWAP1 POP JUMP JUMPDEST PUSH1 0x0 PUSH3 0x3A7 PUSH3 0x3A1 PUSH3 0x39B DUP5 PUSH3 0x372 JUMP JUMPDEST PUSH3 0x37C JUMP JUMPDEST PUSH3 0x372 JUMP JUMPDEST SWAP1 POP SWAP2 SWAP1 POP JUMP JUMPDEST PUSH1 0x0 DUP2 SWAP1 POP SWAP2 SWAP1 POP JUMP JUMPDEST PUSH3 0x3C3 DUP4 PUSH3 0x386 JUMP JUMPDEST PUSH3 0x3DB PUSH3 0x3D2 DUP3 PUSH3 0x3AE JUMP JUMPDEST DUP5 DUP5 SLOAD PUSH3 0x31C JUMP JUMPDEST DUP3 SSTORE POP POP POP POP JUMP JUMPDEST PUSH1 0x0 SWAP1 JUMP JUMPDEST PUSH3 0x3F2 PUSH3 0x3E3 JUMP JUMPDEST PUSH3 0x3FF DUP2 DUP5 DUP5 PUSH3 0x3B8 JUMP JUMPDEST POP POP POP JUMP JUMPDEST JUMPDEST DUP2 DUP2 LT ISZERO PUSH3 0x427 JUMPI PUSH3 0x41B PUSH1 0x0 DUP3 PUSH3 0x3E8 JUMP JUMPDEST PUSH1 0x1 DUP2 ADD SWAP1 POP PUSH3 0x405 JUMP JUMPDEST POP POP JUMP JUMPDEST PUSH1 0x1F DUP3 GT ISZERO PUSH3 0x476 JUMPI PUSH3 0x440 DUP2 PUSH3 0x2EA JUMP JUMPDEST PUSH3 0x44B DUP5 PUSH3 0x2FF JUMP JUMPDEST DUP2 ADD PUSH1 0x20 DUP6 LT ISZERO PUSH3 0x45B JUMPI DUP2 SWAP1 POP JUMPDEST PUSH3 0x473 PUSH3 0x46A DUP6 PUSH3 0x2FF JUMP JUMPDEST DUP4 ADD DUP3 PUSH3 0x404 JUMP JUMPDEST POP POP JUMPDEST POP POP POP JUMP JUMPDEST PUSH1 0x0 DUP3 DUP3 SHR SWAP1 POP SWAP3 SWAP2 POP POP JUMP JUMPDEST PUSH1 0x0 PUSH3 0x49B PUSH1 0x0 NOT DUP5 PUSH1 0x8 MUL PUSH3 0x47B JUMP JUMPDEST NOT DUP1 DUP4 AND SWAP2 POP POP SWAP3 SWAP2 POP POP JUMP JUMPDEST PUSH1 0x0 PUSH3 0x4B6 DUP4 DUP4 PUSH3 0x488 JUMP JUMPDEST SWAP2 POP DUP3 PUSH1 0x2 MUL DUP3 OR SWAP1 POP SWAP3 SWAP2 POP POP JUMP JUMPDEST PUSH3 0x4D1 DUP3 PUSH3 0x27B JUMP JUMPDEST PUSH8 0xFFFFFFFFFFFFFFFF DUP2 GT ISZERO PUSH3 0x4ED JUMPI PUSH3 0x4EC PUSH3 0x92 JUMP JUMPDEST JUMPDEST PUSH3 0x4F9 DUP3 SLOAD PUSH3 0x2B5 JUMP JUMPDEST PUSH3 0x506 DUP3 DUP3 DUP6 PUSH3 0x42B JUMP JUMPDEST PUSH1 0x0 PUSH1 0x20 SWAP1 POP PUSH1 0x1F DUP4 GT PUSH1 0x1 DUP2 EQ PUSH3 0x53E JUMPI PUSH1 0x0 DUP5 ISZERO PUSH3 0x529 JUMPI DUP3 DUP8 ADD MLOAD SWAP1 POP JUMPDEST PUSH3 0x535 DUP6 DUP3 PUSH3 0x4A8 JUMP JUMPDEST DUP7 SSTORE POP PUSH3 0x5A5 JUMP JUMPDEST PUSH1 0x1F NOT DUP5 AND PUSH3 0x54E DUP7 PUSH3 0x2EA JUMP JUMPDEST PUSH1 0x0 JUMPDEST DUP3 DUP2 LT ISZERO PUSH3 0x578 JUMPI DUP5 DUP10 ADD MLOAD DUP3 SSTORE PUSH1 0x1 DUP3 ADD SWAP2 POP PUSH1 0x20 DUP6 ADD SWAP5 POP PUSH1 0x20 DUP2 ADD SWAP1 POP PUSH3 0x551 JUMP JUMPDEST DUP7 DUP4 LT ISZERO PUSH3 0x598 JUMPI DUP5 DUP10 ADD MLOAD PUSH3 0x594 PUSH1 0x1F DUP10 AND DUP3 PUSH3 0x488 JUMP JUMPDEST DUP4 SSTORE POP JUMPDEST PUSH1 0x1 PUSH1 0x2 DUP9 MUL ADD DUP9 SSTORE POP POP POP JUMPDEST POP POP POP POP POP POP JUMP JUMPDEST PUSH2 0x2BA1 DUP1 PUSH3 0x5BD PUSH1 0x0 CODECOPY PUSH1 0x0 RETURN INVALID PUSH1 0x80 PUSH1 0x40 MSTORE CALLVALUE DUP1 ISZERO PUSH2 0x10 JUMPI PUSH1 0x0 DUP1 REVERT JUMPDEST POP PUSH1 0x4 CALLDATASIZE LT PUSH2 0x116 JUMPI PUSH1 0x0 CALLDATALOAD PUSH1 0xE0 SHR DUP1 PUSH4 0x70A08231 GT PUSH2 0xA2 JUMPI DUP1 PUSH4 0xA1448194 GT PUSH2 0x71 JUMPI DUP1 PUSH4 0xA1448194 EQ PUSH2 0x2DB JUMPI DUP1 PUSH4 0xA22CB465 EQ PUSH2 0x2F7 JUMPI DUP1 PUSH4 0xB88D4FDE EQ PUSH2 0x313 JUMPI DUP1 PUSH4 0xC87B56DD EQ PUSH2 0x32F JUMPI DUP1 PUSH4 0xE985E9C5 EQ PUSH2 0x35F JUMPI PUSH2 0x116 JUMP JUMPDEST DUP1 PUSH4 0x70A08231 EQ PUSH2 0x241 JUMPI DUP1 PUSH4 0x75E79BE6 EQ PUSH2 0x271 JUMPI DUP1 PUSH4 0x8832E6E3 EQ PUSH2 0x2A1 JUMPI DUP1 PUSH4 0x95D89B41 EQ PUSH2 0x2BD JUMPI PUSH2 0x116 JUMP JUMPDEST DUP1 PUSH4 0x23B872DD GT PUSH2 0xE9 JUMPI DUP1 PUSH4 0x23B872DD EQ PUSH2 0x1A1 JUMPI DUP1 PUSH4 0x40C10F19 EQ PUSH2 0x1BD JUMPI DUP1 PUSH4 0x42842E0E EQ PUSH2 0x1D9 JUMPI DUP1 PUSH4 0x42966C68 EQ PUSH2 0x1F5 JUMPI DUP1 PUSH4 0x6352211E EQ PUSH2 0x211 JUMPI PUSH2 0x116 JUMP JUMPDEST DUP1 PUSH4 0x6FDDE03 EQ PUSH2 0x11B JUMPI DUP1 PUSH4 0x81812FC EQ PUSH2 0x139 JUMPI DUP1 PUSH4 0x95EA7B3 EQ PUSH2 0x169 JUMPI DUP1 PUSH4 0x162094C4 EQ PUSH2 0x185 JUMPI JUMPDEST PUSH1 0x0 DUP1 REVERT JUMPDEST PUSH2 0x123 PUSH2 0x38F JUMP JUMPDEST PUSH1 0x40 MLOAD PUSH2 0x130 SWAP2 SWAP1 PUSH2 0x19B2 JUMP JUMPDEST PUSH1 0x40 MLOAD DUP1 SWAP2 SUB SWAP1 RETURN JUMPDEST PUSH2 0x153 PUSH1 0x4 DUP1 CALLDATASIZE SUB DUP2 ADD SWAP1 PUSH2 0x14E SWAP2 SWAP1 PUSH2 0x1A1E JUMP JUMPDEST PUSH2 0x421 JUMP JUMPDEST PUSH1 0x40 MLOAD PUSH2 0x160 SWAP2 SWAP1 PUSH2 0x1A8C JUMP JUMPDEST PUSH1 0x40 MLOAD DUP1 SWAP2 SUB SWAP1 RETURN JUMPDEST PUSH2 0x183 PUSH1 0x4 DUP1 CALLDATASIZE SUB DUP2 ADD SWAP1 PUSH2 0x17E SWAP2 SWAP1 PUSH2 0x1AD3 JUMP JUMPDEST PUSH2 0x505 JUMP JUMPDEST STOP JUMPDEST PUSH2 0x19F PUSH1 0x4 DUP1 CALLDATASIZE SUB DUP2 ADD SWAP1 PUSH2 0x19A SWAP2 SWAP1 PUSH2 0x1C48 JUMP JUMPDEST PUSH2 0x725 JUMP JUMPDEST STOP JUMPDEST PUSH2 0x1BB PUSH1 0x4 DUP1 CALLDATASIZE SUB DUP2 ADD SWAP1 PUSH2 0x1B6 SWAP2 SWAP1 PUSH2 0x1CA4 JUMP JUMPDEST PUSH2 0x7F2 JUMP JUMPDEST STOP JUMPDEST PUSH2 0x1D7 PUSH1 0x4 DUP1 CALLDATASIZE SUB DUP2 ADD SWAP1 PUSH2 0x1D2 SWAP2 SWAP1 PUSH2 0x1AD3 JUMP JUMPDEST PUSH2 0x802 JUMP JUMPDEST STOP JUMPDEST PUSH2 0x1F3 PUSH1 0x4 DUP1 CALLDATASIZE SUB DUP2 ADD SWAP1 PUSH2 0x1EE SWAP2 SWAP1 PUSH2 0x1CA4 JUMP JUMPDEST PUSH2 0xA2B JUMP JUMPDEST STOP JUMPDEST PUSH2 0x20F PUSH1 0x4 DUP1 CALLDATASIZE SUB DUP2 ADD SWAP1 PUSH2 0x20A SWAP2 SWAP1 PUSH2 0x1A1E JUMP JUMPDEST PUSH2 0xA4B JUMP JUMPDEST STOP JUMPDEST PUSH2 0x22B PUSH1 0x4 DUP1 CALLDATASIZE SUB DUP2 ADD SWAP1 PUSH2 0x226 SWAP2 SWAP1 PUSH2 0x1A1E JUMP JUMPDEST PUSH2 0xC1D JUMP JUMPDEST PUSH1 0x40 MLOAD PUSH2 0x238 SWAP2 SWAP1 PUSH2 0x1A8C JUMP JUMPDEST PUSH1 0x40 MLOAD DUP1 SWAP2 SUB SWAP1 RETURN JUMPDEST PUSH2 0x25B PUSH1 0x4 DUP1 CALLDATASIZE SUB DUP2 ADD SWAP1 PUSH2 0x256 SWAP2 SWAP1 PUSH2 0x1CF7 JUMP JUMPDEST PUSH2 0xCCE JUMP JUMPDEST PUSH1 0x40 MLOAD PUSH2 0x268 SWAP2 SWAP1 PUSH2 0x1D33 JUMP JUMPDEST PUSH1 0x40 MLOAD DUP1 SWAP2 SUB SWAP1 RETURN JUMPDEST PUSH2 0x28B PUSH1 0x4 DUP1 CALLDATASIZE SUB DUP2 ADD SWAP1 PUSH2 0x286 SWAP2 SWAP1 PUSH2 0x1DA6 JUMP JUMPDEST PUSH2 0xD84 JUMP JUMPDEST PUSH1 0x40 MLOAD PUSH2 0x298 SWAP2 SWAP1 PUSH2 0x1DEE JUMP JUMPDEST PUSH1 0x40 MLOAD DUP1 SWAP2 SUB SWAP1 RETURN JUMPDEST PUSH2 0x2BB PUSH1 0x4 DUP1 CALLDATASIZE SUB DUP2 ADD SWAP1 PUSH2 0x2B6 SWAP2 SWAP1 PUSH2 0x1EAA JUMP JUMPDEST PUSH2 0xEBE JUMP JUMPDEST STOP JUMPDEST PUSH2 0x2C5 PUSH2 0xF19 JUMP JUMPDEST PUSH1 0x40 MLOAD PUSH2 0x2D2 SWAP2 SWAP1 PUSH2 0x19B2 JUMP JUMPDEST PUSH1 0x40 MLOAD DUP1 SWAP2 SUB SWAP1 RETURN JUMPDEST PUSH2 0x2F5 PUSH1 0x4 DUP1 CALLDATASIZE SUB DUP2 ADD SWAP1 PUSH2 0x2F0 SWAP2 SWAP1 PUSH2 0x1AD3 JUMP JUMPDEST PUSH2 0xFAB JUMP JUMPDEST STOP JUMPDEST PUSH2 0x311 PUSH1 0x4 DUP1 CALLDATASIZE SUB DUP2 ADD SWAP1 PUSH2 0x30C SWAP2 SWAP1 PUSH2 0x1F45 JUMP JUMPDEST PUSH2 0xFC9 JUMP JUMPDEST STOP JUMPDEST PUSH2 0x32D PUSH1 0x4 DUP1 CALLDATASIZE SUB DUP2 ADD SWAP1 PUSH2 0x328 SWAP2 SWAP1 PUSH2 0x1FE5 JUMP JUMPDEST PUSH2 0x1134 JUMP JUMPDEST STOP JUMPDEST PUSH2 0x349 PUSH1 0x4 DUP1 CALLDATASIZE SUB DUP2 ADD SWAP1 PUSH2 0x344 SWAP2 SWAP1 PUSH2 0x1A1E JUMP JUMPDEST PUSH2 0x118B JUMP JUMPDEST PUSH1 0x40 MLOAD PUSH2 0x356 SWAP2 SWAP1 PUSH2 0x19B2 JUMP JUMPDEST PUSH1 0x40 MLOAD DUP1 SWAP2 SUB SWAP1 RETURN JUMPDEST PUSH2 0x379 PUSH1 0x4 DUP1 CALLDATASIZE SUB DUP2 ADD SWAP1 PUSH2 0x374 SWAP2 SWAP1 PUSH2 0x206D JUMP JUMPDEST PUSH2 0x12D8 JUMP JUMPDEST PUSH1 0x40 MLOAD PUSH2 0x386 SWAP2 SWAP1 PUSH2 0x1DEE JUMP JUMPDEST PUSH1 0x40 MLOAD DUP1 SWAP2 SUB SWAP1 RETURN JUMPDEST PUSH1 0x60 PUSH1 0x4 DUP1 SLOAD PUSH2 0x39E SWAP1 PUSH2 0x20DC JUMP JUMPDEST DUP1 PUSH1 0x1F ADD PUSH1 0x20 DUP1 SWAP2 DIV MUL PUSH1 0x20 ADD PUSH1 0x40 MLOAD SWAP1 DUP2 ADD PUSH1 0x40 MSTORE DUP1 SWAP3 SWAP2 SWAP1 DUP2 DUP2 MSTORE PUSH1 0x20 ADD DUP3 DUP1 SLOAD PUSH2 0x3CA SWAP1 PUSH2 0x20DC JUMP JUMPDEST DUP1 ISZERO PUSH2 0x417 JUMPI DUP1 PUSH1 0x1F LT PUSH2 0x3EC JUMPI PUSH2 0x100 DUP1 DUP4 SLOAD DIV MUL DUP4 MSTORE SWAP2 PUSH1 0x20 ADD SWAP2 PUSH2 0x417 JUMP JUMPDEST DUP3 ADD SWAP2 SWAP1 PUSH1 0x0 MSTORE PUSH1 0x20 PUSH1 0x0 KECCAK256 SWAP1 JUMPDEST DUP2 SLOAD DUP2 MSTORE SWAP1 PUSH1 0x1 ADD SWAP1 PUSH1 0x20 ADD DUP1 DUP4 GT PUSH2 0x3FA JUMPI DUP3 SWAP1 SUB PUSH1 0x1F AND DUP3 ADD SWAP2 JUMPDEST POP POP POP POP POP SWAP1 POP SWAP1 JUMP JUMPDEST PUSH1 0x0 DUP1 PUSH1 0x1 PUSH1 0x0 DUP5 DUP2 MSTORE PUSH1 0x20 ADD SWAP1 DUP2 MSTORE PUSH1 0x20 ADD PUSH1 0x0 KECCAK256 PUSH1 0x0 SWAP1 SLOAD SWAP1 PUSH2 0x100 EXP SWAP1 DIV PUSH20 0xFFFFFFFFFFFFFFFFFFFFFFFFFFFFFFFFFFFFFFFF AND SWAP1 POP PUSH1 0x0 PUSH20 0xFFFFFFFFFFFFFFFFFFFFFFFFFFFFFFFFFFFFFFFF AND DUP2 PUSH20 0xFFFFFFFFFFFFFFFFFFFFFFFFFFFFFFFFFFFFFFFF AND SUB PUSH2 0x4C9 JUMPI PUSH1 0x40 MLOAD PUSH32 0x8C379A000000000000000000000000000000000000000000000000000000000 DUP2 MSTORE PUSH1 0x4 ADD PUSH2 0x4C0 SWAP1 PUSH2 0x217F JUMP JUMPDEST PUSH1 0x40 MLOAD DUP1 SWAP2 SUB SWAP1 REVERT JUMPDEST PUSH1 0x2 PUSH1 0x0 DUP5 DUP2 MSTORE PUSH1 0x20 ADD SWAP1 DUP2 MSTORE PUSH1 0x20 ADD PUSH1 0x0 KECCAK256 PUSH1 0x0 SWAP1 SLOAD SWAP1 PUSH2 0x100 EXP SWAP1 DIV PUSH20 0xFFFFFFFFFFFFFFFFFFFFFFFFFFFFFFFFFFFFFFFF AND SWAP2 POP POP SWAP2 SWAP1 POP JUMP JUMPDEST PUSH1 0x0 PUSH1 0x1 PUSH1 0x0 DUP4 DUP2 MSTORE PUSH1 0x20 ADD SWAP1 DUP2 MSTORE PUSH1 0x20 ADD PUSH1 0x0 KECCAK256 PUSH1 0x0 SWAP1 SLOAD SWAP1 PUSH2 0x100 EXP SWAP1 DIV PUSH20 0xFFFFFFFFFFFFFFFFFFFFFFFFFFFFFFFFFFFFFFFF AND SWAP1 POP PUSH1 0x0 PUSH20 0xFFFFFFFFFFFFFFFFFFFFFFFFFFFFFFFFFFFFFFFF AND DUP2 PUSH20 0xFFFFFFFFFFFFFFFFFFFFFFFFFFFFFFFFFFFFFFFF AND SUB PUSH2 0x5AC JUMPI PUSH1 0x40 MLOAD PUSH32 0x8C379A000000000000000000000000000000000000000000000000000000000 DUP2 MSTORE PUSH1 0x4 ADD PUSH2 0x5A3 SWAP1 PUSH2 0x217F JUMP JUMPDEST PUSH1 0x40 MLOAD DUP1 SWAP2 SUB SWAP1 REVERT JUMPDEST CALLER PUSH20 0xFFFFFFFFFFFFFFFFFFFFFFFFFFFFFFFFFFFFFFFF AND DUP2 PUSH20 0xFFFFFFFFFFFFFFFFFFFFFFFFFFFFFFFFFFFFFFFF AND EQ DUP1 PUSH2 0x5EC JUMPI POP PUSH2 0x5EB DUP2 CALLER PUSH2 0x12D8 JUMP JUMPDEST JUMPDEST DUP1 PUSH2 0x62A JUMPI POP CALLER PUSH20 0xFFFFFFFFFFFFFFFFFFFFFFFFFFFFFFFFFFFFFFFF AND PUSH2 0x612 DUP4 PUSH2 0x421 JUMP JUMPDEST PUSH20 0xFFFFFFFFFFFFFFFFFFFFFFFFFFFFFFFFFFFFFFFF AND EQ JUMPDEST PUSH2 0x669 JUMPI PUSH1 0x40 MLOAD PUSH32 0x8C379A000000000000000000000000000000000000000000000000000000000 DUP2 MSTORE PUSH1 0x4 ADD PUSH2 0x660 SWAP1 PUSH2 0x2211 JUMP JUMPDEST PUSH1 0x40 MLOAD DUP1 SWAP2 SUB SWAP1 REVERT JUMPDEST DUP3 PUSH1 0x2 PUSH1 0x0 DUP5 DUP2 MSTORE PUSH1 0x20 ADD SWAP1 DUP2 MSTORE PUSH1 0x20 ADD PUSH1 0x0 KECCAK256 PUSH1 0x0 PUSH2 0x100 EXP DUP2 SLOAD DUP2 PUSH20 0xFFFFFFFFFFFFFFFFFFFFFFFFFFFFFFFFFFFFFFFF MUL NOT AND SWAP1 DUP4 PUSH20 0xFFFFFFFFFFFFFFFFFFFFFFFFFFFFFFFFFFFFFFFF AND MUL OR SWAP1 SSTORE POP DUP3 PUSH20 0xFFFFFFFFFFFFFFFFFFFFFFFFFFFFFFFFFFFFFFFF AND DUP2 PUSH20 0xFFFFFFFFFFFFFFFFFFFFFFFFFFFFFFFFFFFFFFFF AND PUSH32 0x8C5BE1E5EBEC7D5BD14F71427D1E84F3DD0314C0F7B2291E5B200AC8C7C3B925 DUP5 PUSH1 0x40 MLOAD PUSH2 0x718 SWAP2 SWAP1 PUSH2 0x1D33 JUMP JUMPDEST PUSH1 0x40 MLOAD DUP1 SWAP2 SUB SWAP1 LOG3 POP POP POP JUMP JUMPDEST PUSH1 0x0 PUSH1 0x1 PUSH1 0x0 DUP5 DUP2 MSTORE PUSH1 0x20 ADD SWAP1 DUP2 MSTORE PUSH1 0x20 ADD PUSH1 0x0 KECCAK256 PUSH1 0x0 SWAP1 SLOAD SWAP1 PUSH2 0x100 EXP SWAP1 DIV PUSH20 0xFFFFFFFFFFFFFFFFFFFFFFFFFFFFFFFFFFFFFFFF AND SWAP1 POP PUSH1 0x0 PUSH20 0xFFFFFFFFFFFFFFFFFFFFFFFFFFFFFFFFFFFFFFFF AND DUP2 PUSH20 0xFFFFFFFFFFFFFFFFFFFFFFFFFFFFFFFFFFFFFFFF AND SUB PUSH2 0x7CC JUMPI PUSH1 0x40 MLOAD PUSH32 0x8C379A000000000000000000000000000000000000000000000000000000000 DUP2 MSTORE PUSH1 0x4 ADD PUSH2 0x7C3 SWAP1 PUSH2 0x227D JUMP JUMPDEST PUSH1 0x40 MLOAD DUP1 SWAP2 SUB SWAP1 REVERT JUMPDEST DUP2 PUSH1 0x6 PUSH1 0x0 DUP6 DUP2 MSTORE PUSH1 0x20 ADD SWAP1 DUP2 MSTORE PUSH1 0x20 ADD PUSH1 0x0 KECCAK256 SWAP1 DUP2 PUSH2 0x7EC SWAP2 SWAP1 PUSH2 0x2449 JUMP JUMPDEST POP POP POP POP JUMP JUMPDEST PUSH2 0x7FD DUP4 DUP4 DUP4 PUSH2 0x136C JUMP JUMPDEST POP POP POP JUMP JUMPDEST PUSH1 0x0 PUSH20 0xFFFFFFFFFFFFFFFFFFFFFFFFFFFFFFFFFFFFFFFF AND DUP3 PUSH20 0xFFFFFFFFFFFFFFFFFFFFFFFFFFFFFFFFFFFFFFFF AND SUB PUSH2 0x871 JUMPI PUSH1 0x40 MLOAD PUSH32 0x8C379A000000000000000000000000000000000000000000000000000000000 DUP2 MSTORE PUSH1 0x4 ADD PUSH2 0x868 SWAP1 PUSH2 0x2567 JUMP JUMPDEST PUSH1 0x40 MLOAD DUP1 SWAP2 SUB SWAP1 REVERT JUMPDEST PUSH1 0x0 PUSH1 0x1 PUSH1 0x0 DUP4 DUP2 MSTORE PUSH1 0x20 ADD SWAP1 DUP2 MSTORE PUSH1 0x20 ADD PUSH1 0x0 KECCAK256 PUSH1 0x0 SWAP1 SLOAD SWAP1 PUSH2 0x100 EXP SWAP1 DIV PUSH20 0xFFFFFFFFFFFFFFFFFFFFFFFFFFFFFFFFFFFFFFFF AND SWAP1 POP PUSH1 0x0 PUSH20 0xFFFFFFFFFFFFFFFFFFFFFFFFFFFFFFFFFFFFFFFF AND DUP2 PUSH20 0xFFFFFFFFFFFFFFFFFFFFFFFFFFFFFFFFFFFFFFFF AND EQ PUSH2 0x918 JUMPI PUSH1 0x40 MLOAD PUSH32 0x8C379A000000000000000000000000000000000000000000000000000000000 DUP2 MSTORE PUSH1 0x4 ADD PUSH2 0x90F SWAP1 PUSH2 0x25F9 JUMP JUMPDEST PUSH1 0x40 MLOAD DUP1 SWAP2 SUB SWAP1 REVERT JUMPDEST PUSH1 0x1 PUSH1 0x0 DUP1 DUP6 PUSH20 0xFFFFFFFFFFFFFFFFFFFFFFFFFFFFFFFFFFFFFFFF AND PUSH20 0xFFFFFFFFFFFFFFFFFFFFFFFFFFFFFFFFFFFFFFFF AND DUP2 MSTORE PUSH1 0x20 ADD SWAP1 DUP2 MSTORE PUSH1 0x20 ADD PUSH1 0x0 KECCAK256 PUSH1 0x0 DUP3 DUP3 SLOAD PUSH2 0x967 SWAP2 SWAP1 PUSH2 0x2648 JUMP JUMPDEST SWAP3 POP POP DUP2 SWAP1 SSTORE POP DUP3 PUSH1 0x1 PUSH1 0x0 DUP5 DUP2 MSTORE PUSH1 0x20 ADD SWAP1 DUP2 MSTORE PUSH1 0x20 ADD PUSH1 0x0 KECCAK256 PUSH1 0x0 PUSH2 0x100 EXP DUP2 SLOAD DUP2 PUSH20 0xFFFFFFFFFFFFFFFFFFFFFFFFFFFFFFFFFFFFFFFF MUL NOT AND SWAP1 DUP4 PUSH20 0xFFFFFFFFFFFFFFFFFFFFFFFFFFFFFFFFFFFFFFFF AND MUL OR SWAP1 SSTORE POP DUP3 PUSH20 0xFFFFFFFFFFFFFFFFFFFFFFFFFFFFFFFFFFFFFFFF AND PUSH1 0x0 PUSH20 0xFFFFFFFFFFFFFFFFFFFFFFFFFFFFFFFFFFFFFFFF AND PUSH32 0xDDF252AD1BE2C89B69C2B068FC378DAA952BA7F163C4A11628F55A4DF523B3EF DUP5 PUSH1 0x40 MLOAD PUSH2 0xA1E SWAP2 SWAP1 PUSH2 0x1D33 JUMP JUMPDEST PUSH1 0x40 MLOAD DUP1 SWAP2 SUB SWAP1 LOG3 POP POP POP JUMP JUMPDEST PUSH2 0xA46 DUP4 DUP4 DUP4 PUSH1 0x40 MLOAD DUP1 PUSH1 0x20 ADD PUSH1 0x40 MSTORE DUP1 PUSH1 0x0 DUP2 MSTORE POP PUSH2 0x174B JUMP JUMPDEST POP POP POP JUMP JUMPDEST PUSH1 0x0 PUSH1 0x1 PUSH1 0x0 DUP4 DUP2 MSTORE PUSH1 0x20 ADD SWAP1 DUP2 MSTORE PUSH1 0x20 ADD PUSH1 0x0 KECCAK256 PUSH1 0x0 SWAP1 SLOAD SWAP1 PUSH2 0x100 EXP SWAP1 DIV PUSH20 0xFFFFFFFFFFFFFFFFFFFFFFFFFFFFFFFFFFFFFFFF AND SWAP1 POP DUP1 PUSH20 0xFFFFFFFFFFFFFFFFFFFFFFFFFFFFFFFFFFFFFFFF AND CALLER PUSH20 0xFFFFFFFFFFFFFFFFFFFFFFFFFFFFFFFFFFFFFFFF AND EQ PUSH2 0xAF1 JUMPI PUSH1 0x40 MLOAD PUSH32 0x8C379A000000000000000000000000000000000000000000000000000000000 DUP2 MSTORE PUSH1 0x4 ADD PUSH2 0xAE8 SWAP1 PUSH2 0x26C8 JUMP JUMPDEST PUSH1 0x40 MLOAD DUP1 SWAP2 SUB SWAP1 REVERT JUMPDEST PUSH1 0x1 PUSH1 0x0 DUP1 DUP4 PUSH20 0xFFFFFFFFFFFFFFFFFFFFFFFFFFFFFFFFFFFFFFFF AND PUSH20 0xFFFFFFFFFFFFFFFFFFFFFFFFFFFFFFFFFFFFFFFF AND DUP2 MSTORE PUSH1 0x20 ADD SWAP1 DUP2 MSTORE PUSH1 0x20 ADD PUSH1 0x0 KECCAK256 PUSH1 0x0 DUP3 DUP3 SLOAD PUSH2 0xB40 SWAP2 SWAP1 PUSH2 0x26E8 JUMP JUMPDEST SWAP3 POP POP DUP2 SWAP1 SSTORE POP PUSH1 0x1 PUSH1 0x0 DUP4 DUP2 MSTORE PUSH1 0x20 ADD SWAP1 DUP2 MSTORE PUSH1 0x20 ADD PUSH1 0x0 KECCAK256 PUSH1 0x0 PUSH2 0x100 EXP DUP2 SLOAD SWAP1 PUSH20 0xFFFFFFFFFFFFFFFFFFFFFFFFFFFFFFFFFFFFFFFF MUL NOT AND SWAP1 SSTORE PUSH1 0x2 PUSH1 0x0 DUP4 DUP2 MSTORE PUSH1 0x20 ADD SWAP1 DUP2 MSTORE PUSH1 0x20 ADD PUSH1 0x0 KECCAK256 PUSH1 0x0 PUSH2 0x100 EXP DUP2 SLOAD SWAP1 PUSH20 0xFFFFFFFFFFFFFFFFFFFFFFFFFFFFFFFFFFFFFFFF MUL NOT AND SWAP1 SSTORE PUSH1 0x0 PUSH20 0xFFFFFFFFFFFFFFFFFFFFFFFFFFFFFFFFFFFFFFFF AND DUP2 PUSH20 0xFFFFFFFFFFFFFFFFFFFFFFFFFFFFFFFFFFFFFFFF AND PUSH32 0xDDF252AD1BE2C89B69C2B068FC378DAA952BA7F163C4A11628F55A4DF523B3EF DUP5 PUSH1 0x40 MLOAD PUSH2 0xC11 SWAP2 SWAP1 PUSH2 0x1D33 JUMP JUMPDEST PUSH1 0x40 MLOAD DUP1 SWAP2 SUB SWAP1 LOG3 POP POP JUMP JUMPDEST PUSH1 0x0 DUP1 PUSH1 0x1 PUSH1 0x0 DUP5 DUP2 MSTORE PUSH1 0x20 ADD SWAP1 DUP2 MSTORE PUSH1 0x20 ADD PUSH1 0x0 KECCAK256 PUSH1 0x0 SWAP1 SLOAD SWAP1 PUSH2 0x100 EXP SWAP1 DIV PUSH20 0xFFFFFFFFFFFFFFFFFFFFFFFFFFFFFFFFFFFFFFFF AND SWAP1 POP PUSH1 0x0 PUSH20 0xFFFFFFFFFFFFFFFFFFFFFFFFFFFFFFFFFFFFFFFF AND DUP2 PUSH20 0xFFFFFFFFFFFFFFFFFFFFFFFFFFFFFFFFFFFFFFFF AND SUB PUSH2 0xCC5 JUMPI PUSH1 0x40 MLOAD PUSH32 0x8C379A000000000000000000000000000000000000000000000000000000000 DUP2 MSTORE PUSH1 0x4 ADD PUSH2 0xCBC SWAP1 PUSH2 0x217F JUMP JUMPDEST PUSH1 0x40 MLOAD DUP1 SWAP2 SUB SWAP1 REVERT JUMPDEST DUP1 SWAP2 POP POP SWAP2 SWAP1 POP JUMP JUMPDEST PUSH1 0x0 DUP1 PUSH20 0xFFFFFFFFFFFFFFFFFFFFFFFFFFFFFFFFFFFFFFFF AND DUP3 PUSH20 0xFFFFFFFFFFFFFFFFFFFFFFFFFFFFFFFFFFFFFFFF AND SUB PUSH2 0xD3E JUMPI PUSH1 0x40 MLOAD PUSH32 0x8C379A000000000000000000000000000000000000000000000000000000000 DUP2 MSTORE PUSH1 0x4 ADD PUSH2 0xD35 SWAP1 PUSH2 0x217F JUMP JUMPDEST PUSH1 0x40 MLOAD DUP1 SWAP2 SUB SWAP1 REVERT JUMPDEST PUSH1 0x0 DUP1 DUP4 PUSH20 0xFFFFFFFFFFFFFFFFFFFFFFFFFFFFFFFFFFFFFFFF AND PUSH20 0xFFFFFFFFFFFFFFFFFFFFFFFFFFFFFFFFFFFFFFFF AND DUP2 MSTORE PUSH1 0x20 ADD SWAP1 DUP2 MSTORE PUSH1 0x20 ADD PUSH1 0x0 KECCAK256 SLOAD SWAP1 POP SWAP2 SWAP1 POP JUMP JUMPDEST PUSH1 0x0 PUSH32 0x80AC58CD00000000000000000000000000000000000000000000000000000000 PUSH28 0xFFFFFFFFFFFFFFFFFFFFFFFFFFFFFFFFFFFFFFFFFFFFFFFFFFFFFFFF NOT AND DUP3 PUSH28 0xFFFFFFFFFFFFFFFFFFFFFFFFFFFFFFFFFFFFFFFFFFFFFFFFFFFFFFFF NOT AND EQ DUP1 PUSH2 0xE4F JUMPI POP PUSH32 0x5B5E139F00000000000000000000000000000000000000000000000000000000 PUSH28 0xFFFFFFFFFFFFFFFFFFFFFFFFFFFFFFFFFFFFFFFFFFFFFFFFFFFFFFFF NOT AND DUP3 PUSH28 0xFFFFFFFFFFFFFFFFFFFFFFFFFFFFFFFFFFFFFFFFFFFFFFFFFFFFFFFF NOT AND EQ JUMPDEST DUP1 PUSH2 0xEB7 JUMPI POP PUSH32 0x75E79BE600000000000000000000000000000000000000000000000000000000 PUSH28 0xFFFFFFFFFFFFFFFFFFFFFFFFFFFFFFFFFFFFFFFFFFFFFFFFFFFFFFFF NOT AND DUP3 PUSH28 0xFFFFFFFFFFFFFFFFFFFFFFFFFFFFFFFFFFFFFFFFFFFFFFFFFFFFFFFF NOT AND EQ JUMPDEST SWAP1 POP SWAP2 SWAP1 POP JUMP JUMPDEST PUSH2 0xEC8 DUP4 DUP4 PUSH2 0x802 JUMP JUMPDEST PUSH2 0xED5 PUSH1 0x0 DUP5 DUP5 DUP5 PUSH2 0x17A7 JUMP JUMPDEST PUSH2 0xF14 JUMPI PUSH1 0x40 MLOAD PUSH32 0x8C379A000000000000000000000000000000000000000000000000000000000 DUP2 MSTORE PUSH1 0x4 ADD PUSH2 0xF0B SWAP1 PUSH2 0x278E JUMP JUMPDEST PUSH1 0x40 MLOAD DUP1 SWAP2 SUB SWAP1 REVERT JUMPDEST POP POP POP JUMP JUMPDEST PUSH1 0x60 PUSH1 0x5 DUP1 SLOAD PUSH2 0xF28 SWAP1 PUSH2 0x20DC JUMP JUMPDEST DUP1 PUSH1 0x1F ADD PUSH1 0x20 DUP1 SWAP2 DIV MUL PUSH1 0x20 ADD PUSH1 0x40 MLOAD SWAP1 DUP2 ADD PUSH1 0x40 MSTORE DUP1 SWAP3 SWAP2 SWAP1 DUP2 DUP2 MSTORE PUSH1 0x20 ADD DUP3 DUP1 SLOAD PUSH2 0xF54 SWAP1 PUSH2 0x20DC JUMP JUMPDEST DUP1 ISZERO PUSH2 0xFA1 JUMPI DUP1 PUSH1 0x1F LT PUSH2 0xF76 JUMPI PUSH2 0x100 DUP1 DUP4 SLOAD DIV MUL DUP4 MSTORE SWAP2 PUSH1 0x20 ADD SWAP2 PUSH2 0xFA1 JUMP JUMPDEST DUP3 ADD SWAP2 SWAP1 PUSH1 0x0 MSTORE PUSH1 0x20 PUSH1 0x0 KECCAK256 SWAP1 JUMPDEST DUP2 SLOAD DUP2 MSTORE SWAP1 PUSH1 0x1 ADD SWAP1 PUSH1 0x20 ADD DUP1 DUP4 GT PUSH2 0xF84 JUMPI DUP3 SWAP1 SUB PUSH1 0x1F AND DUP3 ADD SWAP2 JUMPDEST POP POP POP POP POP SWAP1 POP SWAP1 JUMP JUMPDEST PUSH2 0xFC5 DUP3 DUP3 PUSH1 0x40 MLOAD DUP1 PUSH1 0x20 ADD PUSH1 0x40 MSTORE DUP1 PUSH1 0x0 DUP2 MSTORE POP PUSH2 0xEBE JUMP JUMPDEST POP POP JUMP JUMPDEST DUP2 PUSH20 0xFFFFFFFFFFFFFFFFFFFFFFFFFFFFFFFFFFFFFFFF AND CALLER PUSH20 0xFFFFFFFFFFFFFFFFFFFFFFFFFFFFFFFFFFFFFFFF AND SUB PUSH2 0x1037 JUMPI PUSH1 0x40 MLOAD PUSH32 0x8C379A000000000000000000000000000000000000000000000000000000000 DUP2 MSTORE PUSH1 0x4 ADD PUSH2 0x102E SWAP1 PUSH2 0x2820 JUMP JUMPDEST PUSH1 0x40 MLOAD DUP1 SWAP2 SUB SWAP1 REVERT JUMPDEST DUP1 PUSH1 0x3 PUSH1 0x0 CALLER PUSH20 0xFFFFFFFFFFFFFFFFFFFFFFFFFFFFFFFFFFFFFFFF AND PUSH20 0xFFFFFFFFFFFFFFFFFFFFFFFFFFFFFFFFFFFFFFFF AND DUP2 MSTORE PUSH1 0x20 ADD SWAP1 DUP2 MSTORE PUSH1 0x20 ADD PUSH1 0x0 KECCAK256 PUSH1 0x0 DUP5 PUSH20 0xFFFFFFFFFFFFFFFFFFFFFFFFFFFFFFFFFFFFFFFF AND PUSH20 0xFFFFFFFFFFFFFFFFFFFFFFFFFFFFFFFFFFFFFFFF AND DUP2 MSTORE PUSH1 0x20 ADD SWAP1 DUP2 MSTORE PUSH1 0x20 ADD PUSH1 0x0 KECCAK256 PUSH1 0x0 PUSH2 0x100 EXP DUP2 SLOAD DUP2 PUSH1 0xFF MUL NOT AND SWAP1 DUP4 ISZERO ISZERO MUL OR SWAP1 SSTORE POP DUP2 PUSH20 0xFFFFFFFFFFFFFFFFFFFFFFFFFFFFFFFFFFFFFFFF AND CALLER PUSH20 0xFFFFFFFFFFFFFFFFFFFFFFFFFFFFFFFFFFFFFFFF AND PUSH32 0x17307EAB39AB6107E8899845AD3D59BD9653F200F220920489CA2B5937696C31 DUP4 PUSH1 0x40 MLOAD PUSH2 0x1128 SWAP2 SWAP1 PUSH2 0x1DEE JUMP JUMPDEST PUSH1 0x40 MLOAD DUP1 SWAP2 SUB SWAP1 LOG3 POP POP JUMP JUMPDEST PUSH2 0x1184 DUP6 DUP6 DUP6 DUP6 DUP6 DUP1 DUP1 PUSH1 0x1F ADD PUSH1 0x20 DUP1 SWAP2 DIV MUL PUSH1 0x20 ADD PUSH1 0x40 MLOAD SWAP1 DUP2 ADD PUSH1 0x40 MSTORE DUP1 SWAP4 SWAP3 SWAP2 SWAP1 DUP2 DUP2 MSTORE PUSH1 0x20 ADD DUP4 DUP4 DUP1 DUP3 DUP5 CALLDATACOPY PUSH1 0x0 DUP2 DUP5 ADD MSTORE PUSH1 0x1F NOT PUSH1 0x1F DUP3 ADD AND SWAP1 POP DUP1 DUP4 ADD SWAP3 POP POP POP POP POP POP POP PUSH2 0x174B JUMP JUMPDEST POP POP POP POP POP JUMP JUMPDEST PUSH1 0x60 PUSH1 0x0 PUSH1 0x1 PUSH1 0x0 DUP5 DUP2 MSTORE PUSH1 0x20 ADD SWAP1 DUP2 MSTORE PUSH1 0x20 ADD PUSH1 0x0 KECCAK256 PUSH1 0x0 SWAP1 SLOAD SWAP1 PUSH2 0x100 EXP SWAP1 DIV PUSH20 0xFFFFFFFFFFFFFFFFFFFFFFFFFFFFFFFFFFFFFFFF AND SWAP1 POP PUSH1 0x0 PUSH20 0xFFFFFFFFFFFFFFFFFFFFFFFFFFFFFFFFFFFFFFFF AND DUP2 PUSH20 0xFFFFFFFFFFFFFFFFFFFFFFFFFFFFFFFFFFFFFFFF AND SUB PUSH2 0x1234 JUMPI PUSH1 0x40 MLOAD PUSH32 0x8C379A000000000000000000000000000000000000000000000000000000000 DUP2 MSTORE PUSH1 0x4 ADD PUSH2 0x122B SWAP1 PUSH2 0x227D JUMP JUMPDEST PUSH1 0x40 MLOAD DUP1 SWAP2 SUB SWAP1 REVERT JUMPDEST PUSH1 0x6 PUSH1 0x0 DUP5 DUP2 MSTORE PUSH1 0x20 ADD SWAP1 DUP2 MSTORE PUSH1 0x20 ADD PUSH1 0x0 KECCAK256 DUP1 SLOAD PUSH2 0x1252 SWAP1 PUSH2 0x20DC JUMP JUMPDEST DUP1 PUSH1 0x1F ADD PUSH1 0x20 DUP1 SWAP2 DIV MUL PUSH1 0x20 ADD PUSH1 0x40 MLOAD SWAP1 DUP2 ADD PUSH1 0x40 MSTORE DUP1 SWAP3 SWAP2 SWAP1 DUP2 DUP2 MSTORE PUSH1 0x20 ADD DUP3 DUP1 SLOAD PUSH2 0x127E SWAP1 PUSH2 0x20DC JUMP JUMPDEST DUP1 ISZERO PUSH2 0x12CB JUMPI DUP1 PUSH1 0x1F LT PUSH2 0x12A0 JUMPI PUSH2 0x100 DUP1 DUP4 SLOAD DIV MUL DUP4 MSTORE SWAP2 PUSH1 0x20 ADD SWAP2 PUSH2 0x12CB JUMP JUMPDEST DUP3 ADD SWAP2 SWAP1 PUSH1 0x0 MSTORE PUSH1 0x20 PUSH1 0x0 KECCAK256 SWAP1 JUMPDEST DUP2 SLOAD DUP2 MSTORE SWAP1 PUSH1 0x1 ADD SWAP1 PUSH1 0x20 ADD DUP1 DUP4 GT PUSH2 0x12AE JUMPI DUP3 SWAP1 SUB PUSH1 0x1F AND DUP3 ADD SWAP2 JUMPDEST POP POP POP POP POP SWAP2 POP POP SWAP2 SWAP1 POP JUMP JUMPDEST PUSH1 0x0 PUSH1 0x3 PUSH1 0x0 DUP5 PUSH20 0xFFFFFFFFFFFFFFFFFFFFFFFFFFFFFFFFFFFFFFFF AND PUSH20 0xFFFFFFFFFFFFFFFFFFFFFFFFFFFFFFFFFFFFFFFF AND DUP2 MSTORE PUSH1 0x20 ADD SWAP1 DUP2 MSTORE PUSH1 0x20 ADD PUSH1 0x0 KECCAK256 PUSH1 0x0 DUP4 PUSH20 0xFFFFFFFFFFFFFFFFFFFFFFFFFFFFFFFFFFFFFFFF AND PUSH20 0xFFFFFFFFFFFFFFFFFFFFFFFFFFFFFFFFFFFFFFFF AND DUP2 MSTORE PUSH1 0x20 ADD SWAP1 DUP2 MSTORE PUSH1 0x20 ADD PUSH1 0x0 KECCAK256 PUSH1 0x0 SWAP1 SLOAD SWAP1 PUSH2 0x100 EXP SWAP1 DIV PUSH1 0xFF AND SWAP1 POP SWAP3 SWAP2 POP POP JUMP JUMPDEST PUSH1 0x0 PUSH1 0x1 PUSH1 0x0 DUP4 DUP2 MSTORE PUSH1 0x20 ADD SWAP1 DUP2 MSTORE PUSH1 0x20 ADD PUSH1 0x0 KECCAK256 PUSH1 0x0 SWAP1 SLOAD SWAP1 PUSH2 0x100 EXP SWAP1 DIV PUSH20 0xFFFFFFFFFFFFFFFFFFFFFFFFFFFFFFFFFFFFFFFF AND SWAP1 POP PUSH1 0x0 PUSH20 0xFFFFFFFFFFFFFFFFFFFFFFFFFFFFFFFFFFFFFFFF AND DUP2 PUSH20 0xFFFFFFFFFFFFFFFFFFFFFFFFFFFFFFFFFFFFFFFF AND SUB PUSH2 0x1413 JUMPI PUSH1 0x40 MLOAD PUSH32 0x8C379A000000000000000000000000000000000000000000000000000000000 DUP2 MSTORE PUSH1 0x4 ADD PUSH2 0x140A SWAP1 PUSH2 0x217F JUMP JUMPDEST PUSH1 0x40 MLOAD DUP1 SWAP2 SUB SWAP1 REVERT JUMPDEST DUP3 PUSH20 0xFFFFFFFFFFFFFFFFFFFFFFFFFFFFFFFFFFFFFFFF AND CALLER PUSH20 0xFFFFFFFFFFFFFFFFFFFFFFFFFFFFFFFFFFFFFFFF AND SUB PUSH2 0x1481 JUMPI PUSH1 0x40 MLOAD PUSH32 0x8C379A000000000000000000000000000000000000000000000000000000000 DUP2 MSTORE PUSH1 0x4 ADD PUSH2 0x1478 SWAP1 PUSH2 0x28B2 JUMP JUMPDEST PUSH1 0x40 MLOAD DUP1 SWAP2 SUB SWAP1 REVERT JUMPDEST CALLER PUSH20 0xFFFFFFFFFFFFFFFFFFFFFFFFFFFFFFFFFFFFFFFF AND DUP2 PUSH20 0xFFFFFFFFFFFFFFFFFFFFFFFFFFFFFFFFFFFFFFFF AND EQ PUSH2 0x14EF JUMPI PUSH1 0x40 MLOAD PUSH32 0x8C379A000000000000000000000000000000000000000000000000000000000 DUP2 MSTORE PUSH1 0x4 ADD PUSH2 0x14E6 SWAP1 PUSH2 0x2944 JUMP JUMPDEST PUSH1 0x40 MLOAD DUP1 SWAP2 SUB SWAP1 REVERT JUMPDEST CALLER PUSH20 0xFFFFFFFFFFFFFFFFFFFFFFFFFFFFFFFFFFFFFFFF AND DUP2 PUSH20 0xFFFFFFFFFFFFFFFFFFFFFFFFFFFFFFFFFFFFFFFF AND EQ DUP1 PUSH2 0x152F JUMPI POP PUSH2 0x152E DUP2 CALLER PUSH2 0x12D8 JUMP JUMPDEST JUMPDEST DUP1 PUSH2 0x156D JUMPI POP CALLER PUSH20 0xFFFFFFFFFFFFFFFFFFFFFFFFFFFFFFFFFFFFFFFF AND PUSH2 0x1555 DUP4 PUSH2 0x421 JUMP JUMPDEST PUSH20 0xFFFFFFFFFFFFFFFFFFFFFFFFFFFFFFFFFFFFFFFF AND EQ JUMPDEST PUSH2 0x15AC JUMPI PUSH1 0x40 MLOAD PUSH32 0x8C379A000000000000000000000000000000000000000000000000000000000 DUP2 MSTORE PUSH1 0x4 ADD PUSH2 0x15A3 SWAP1 PUSH2 0x2211 JUMP JUMPDEST PUSH1 0x40 MLOAD DUP1 SWAP2 SUB SWAP1 REVERT JUMPDEST PUSH1 0x2 PUSH1 0x0 DUP4 DUP2 MSTORE PUSH1 0x20 ADD SWAP1 DUP2 MSTORE PUSH1 0x20 ADD PUSH1 0x0 KECCAK256 PUSH1 0x0 PUSH2 0x100 EXP DUP2 SLOAD SWAP1 PUSH20 0xFFFFFFFFFFFFFFFFFFFFFFFFFFFFFFFFFFFFFFFF MUL NOT AND SWAP1 SSTORE PUSH1 0x1 PUSH1 0x0 DUP1 DUP7 PUSH20 0xFFFFFFFFFFFFFFFFFFFFFFFFFFFFFFFFFFFFFFFF AND PUSH20 0xFFFFFFFFFFFFFFFFFFFFFFFFFFFFFFFFFFFFFFFF AND DUP2 MSTORE PUSH1 0x20 ADD SWAP1 DUP2 MSTORE PUSH1 0x20 ADD PUSH1 0x0 KECCAK256 PUSH1 0x0 DUP3 DUP3 SLOAD PUSH2 0x1631 SWAP2 SWAP1 PUSH2 0x26E8 JUMP JUMPDEST SWAP3 POP POP DUP2 SWAP1 SSTORE POP PUSH1 0x1 PUSH1 0x0 DUP1 DUP6 PUSH20 0xFFFFFFFFFFFFFFFFFFFFFFFFFFFFFFFFFFFFFFFF AND PUSH20 0xFFFFFFFFFFFFFFFFFFFFFFFFFFFFFFFFFFFFFFFF AND DUP2 MSTORE PUSH1 0x20 ADD SWAP1 DUP2 MSTORE PUSH1 0x20 ADD PUSH1 0x0 KECCAK256 PUSH1 0x0 DUP3 DUP3 SLOAD PUSH2 0x1687 SWAP2 SWAP1 PUSH2 0x2648 JUMP JUMPDEST SWAP3 POP POP DUP2 SWAP1 SSTORE POP DUP3 PUSH1 0x1 PUSH1 0x0 DUP5 DUP2 MSTORE PUSH1 0x20 ADD SWAP1 DUP2 MSTORE PUSH1 0x20 ADD PUSH1 0x0 KECCAK256 PUSH1 0x0 PUSH2 0x100 EXP DUP2 SLOAD DUP2 PUSH20 0xFFFFFFFFFFFFFFFFFFFFFFFFFFFFFFFFFFFFFFFF MUL NOT AND SWAP1 DUP4 PUSH20 0xFFFFFFFFFFFFFFFFFFFFFFFFFFFFFFFFFFFFFFFF AND MUL OR SWAP1 SSTORE POP DUP3 PUSH20 0xFFFFFFFFFFFFFFFFFFFFFFFFFFFFFFFFFFFFFFFF AND DUP5 PUSH20 0xFFFFFFFFFFFFFFFFFFFFFFFFFFFFFFFFFFFFFFFF AND PUSH32 0xDDF252AD1BE2C89B69C2B068FC378DAA952BA7F163C4A11628F55A4DF523B3EF DUP5 PUSH1 0x40 MLOAD PUSH2 0x173D SWAP2 SWAP1 PUSH2 0x1D33 JUMP JUMPDEST PUSH1 0x40 MLOAD DUP1 SWAP2 SUB SWAP1 LOG3 POP POP POP POP JUMP JUMPDEST PUSH2 0x1756 DUP5 DUP5 DUP5 PUSH2 0x136C JUMP JUMPDEST PUSH2 0x1762 DUP5 DUP5 DUP5 DUP5 PUSH2 0x17A7 JUMP JUMPDEST PUSH2 0x17A1 JUMPI PUSH1 0x40 MLOAD PUSH32 0x8C379A000000000000000000000000000000000000000000000000000000000 DUP2 MSTORE PUSH1 0x4 ADD PUSH2 0x1798 SWAP1 PUSH2 0x29D6 JUMP JUMPDEST PUSH1 0x40 MLOAD DUP1 SWAP2 SUB SWAP1 REVERT JUMPDEST POP POP POP POP JUMP JUMPDEST PUSH1 0x0 DUP1 DUP5 PUSH20 0xFFFFFFFFFFFFFFFFFFFFFFFFFFFFFFFFFFFFFFFF AND EXTCODESIZE GT ISZERO PUSH2 0x1915 JUMPI DUP4 PUSH20 0xFFFFFFFFFFFFFFFFFFFFFFFFFFFFFFFFFFFFFFFF AND PUSH4 0x150B7A02 CALLER DUP8 DUP7 DUP7 PUSH1 0x40 MLOAD DUP6 PUSH4 0xFFFFFFFF AND PUSH1 0xE0 SHL DUP2 MSTORE PUSH1 0x4 ADD PUSH2 0x1807 SWAP5 SWAP4 SWAP3 SWAP2 SWAP1 PUSH2 0x2A4B JUMP JUMPDEST PUSH1 0x20 PUSH1 0x40 MLOAD DUP1 DUP4 SUB DUP2 PUSH1 0x0 DUP8 GAS CALL SWAP3 POP POP POP DUP1 ISZERO PUSH2 0x1843 JUMPI POP PUSH1 0x40 MLOAD RETURNDATASIZE PUSH1 0x1F NOT PUSH1 0x1F DUP3 ADD AND DUP3 ADD DUP1 PUSH1 0x40 MSTORE POP DUP2 ADD SWAP1 PUSH2 0x1840 SWAP2 SWAP1 PUSH2 0x2AAC JUMP JUMPDEST PUSH1 0x1 JUMPDEST PUSH2 0x18C5 JUMPI RETURNDATASIZE DUP1 PUSH1 0x0 DUP2 EQ PUSH2 0x1873 JUMPI PUSH1 0x40 MLOAD SWAP2 POP PUSH1 0x1F NOT PUSH1 0x3F RETURNDATASIZE ADD AND DUP3 ADD PUSH1 0x40 MSTORE RETURNDATASIZE DUP3 MSTORE RETURNDATASIZE PUSH1 0x0 PUSH1 0x20 DUP5 ADD RETURNDATACOPY PUSH2 0x1878 JUMP JUMPDEST PUSH1 0x60 SWAP2 POP JUMPDEST POP PUSH1 0x0 DUP2 MLOAD SUB PUSH2 0x18BD JUMPI PUSH1 0x40 MLOAD PUSH32 0x8C379A000000000000000000000000000000000000000000000000000000000 DUP2 MSTORE PUSH1 0x4 ADD PUSH2 0x18B4 SWAP1 PUSH2 0x2B4B JUMP JUMPDEST PUSH1 0x40 MLOAD DUP1 SWAP2 SUB SWAP1 REVERT JUMPDEST DUP1 MLOAD DUP2 PUSH1 0x20 ADD REVERT JUMPDEST PUSH4 0x150B7A02 PUSH1 0xE0 SHL PUSH28 0xFFFFFFFFFFFFFFFFFFFFFFFFFFFFFFFFFFFFFFFFFFFFFFFFFFFFFFFF NOT AND DUP2 PUSH28 0xFFFFFFFFFFFFFFFFFFFFFFFFFFFFFFFFFFFFFFFFFFFFFFFFFFFFFFFF NOT AND EQ SWAP2 POP POP PUSH2 0x191A JUMP JUMPDEST PUSH1 0x1 SWAP1 POP JUMPDEST SWAP5 SWAP4 POP POP POP POP JUMP JUMPDEST PUSH1 0x0 DUP2 MLOAD SWAP1 POP SWAP2 SWAP1 POP JUMP JUMPDEST PUSH1 0x0 DUP3 DUP3 MSTORE PUSH1 0x20 DUP3 ADD SWAP1 POP SWAP3 SWAP2 POP POP JUMP JUMPDEST PUSH1 0x0 JUMPDEST DUP4 DUP2 LT ISZERO PUSH2 0x195C JUMPI DUP1 DUP3 ADD MLOAD DUP2 DUP5 ADD MSTORE PUSH1 0x20 DUP2 ADD SWAP1 POP PUSH2 0x1941 JUMP JUMPDEST PUSH1 0x0 DUP5 DUP5 ADD MSTORE POP POP POP POP JUMP JUMPDEST PUSH1 0x0 PUSH1 0x1F NOT PUSH1 0x1F DUP4 ADD AND SWAP1 POP SWAP2 SWAP1 POP JUMP JUMPDEST PUSH1 0x0 PUSH2 0x1984 DUP3 PUSH2 0x1922 JUMP JUMPDEST PUSH2 0x198E DUP2 DUP6 PUSH2 0x192D JUMP JUMPDEST SWAP4 POP PUSH2 0x199E DUP2 DUP6 PUSH1 0x20 DUP7 ADD PUSH2 0x193E JUMP JUMPDEST PUSH2 0x19A7 DUP2 PUSH2 0x1968 JUMP JUMPDEST DUP5 ADD SWAP2 POP POP SWAP3 SWAP2 POP POP JUMP JUMPDEST PUSH1 0x0 PUSH1 0x20 DUP3 ADD SWAP1 POP DUP2 DUP2 SUB PUSH1 0x0 DUP4 ADD MSTORE PUSH2 0x19CC DUP2 DUP5 PUSH2 0x1979 JUMP JUMPDEST SWAP1 POP SWAP3 SWAP2 POP POP JUMP JUMPDEST PUSH1 0x0 PUSH1 0x40 MLOAD SWAP1 POP SWAP1 JUMP JUMPDEST PUSH1 0x0 DUP1 REVERT JUMPDEST PUSH1 0x0 DUP1 REVERT JUMPDEST PUSH1 0x0 DUP2 SWAP1 POP SWAP2 SWAP1 POP JUMP JUMPDEST PUSH2 0x19FB DUP2 PUSH2 0x19E8 JUMP JUMPDEST DUP2 EQ PUSH2 0x1A06 JUMPI PUSH1 0x0 DUP1 REVERT JUMPDEST POP JUMP JUMPDEST PUSH1 0x0 DUP2 CALLDATALOAD SWAP1 POP PUSH2 0x1A18 DUP2 PUSH2 0x19F2 JUMP JUMPDEST SWAP3 SWAP2 POP POP JUMP JUMPDEST PUSH1 0x0 PUSH1 0x20 DUP3 DUP5 SUB SLT ISZERO PUSH2 0x1A34 JUMPI PUSH2 0x1A33 PUSH2 0x19DE JUMP JUMPDEST JUMPDEST PUSH1 0x0 PUSH2 0x1A42 DUP5 DUP3 DUP6 ADD PUSH2 0x1A09 JUMP JUMPDEST SWAP2 POP POP SWAP3 SWAP2 POP POP JUMP JUMPDEST PUSH1 0x0 PUSH20 0xFFFFFFFFFFFFFFFFFFFFFFFFFFFFFFFFFFFFFFFF DUP3 AND SWAP1 POP SWAP2 SWAP1 POP JUMP JUMPDEST PUSH1 0x0 PUSH2 0x1A76 DUP3 PUSH2 0x1A4B JUMP JUMPDEST SWAP1 POP SWAP2 SWAP1 POP JUMP JUMPDEST PUSH2 0x1A86 DUP2 PUSH2 0x1A6B JUMP JUMPDEST DUP3 MSTORE POP POP JUMP JUMPDEST PUSH1 0x0 PUSH1 0x20 DUP3 ADD SWAP1 POP PUSH2 0x1AA1 PUSH1 0x0 DUP4 ADD DUP5 PUSH2 0x1A7D JUMP JUMPDEST SWAP3 SWAP2 POP POP JUMP JUMPDEST PUSH2 0x1AB0 DUP2 PUSH2 0x1A6B JUMP JUMPDEST DUP2 EQ PUSH2 0x1ABB JUMPI PUSH1 0x0 DUP1 REVERT JUMPDEST POP JUMP JUMPDEST PUSH1 0x0 DUP2 CALLDATALOAD SWAP1 POP PUSH2 0x1ACD DUP2 PUSH2 0x1AA7 JUMP JUMPDEST SWAP3 SWAP2 POP POP JUMP JUMPDEST PUSH1 0x0 DUP1 PUSH1 0x40 DUP4 DUP6 SUB SLT ISZERO PUSH2 0x1AEA JUMPI PUSH2 0x1AE9 PUSH2 0x19DE JUMP JUMPDEST JUMPDEST PUSH1 0x0 PUSH2 0x1AF8 DUP6 DUP3 DUP7 ADD PUSH2 0x1ABE JUMP JUMPDEST SWAP3 POP POP PUSH1 0x20 PUSH2 0x1B09 DUP6 DUP3 DUP7 ADD PUSH2 0x1A09 JUMP JUMPDEST SWAP2 POP POP SWAP3 POP SWAP3 SWAP1 POP JUMP JUMPDEST PUSH1 0x0 DUP1 REVERT JUMPDEST PUSH1 0x0 DUP1 REVERT JUMPDEST PUSH32 0x4E487B7100000000000000000000000000000000000000000000000000000000 PUSH1 0x0 MSTORE PUSH1 0x41 PUSH1 0x4 MSTORE PUSH1 0x24 PUSH1 0x0 REVERT JUMPDEST PUSH2 0x1B55 DUP3 PUSH2 0x1968 JUMP JUMPDEST DUP2 ADD DUP2 DUP2 LT PUSH8 0xFFFFFFFFFFFFFFFF DUP3 GT OR ISZERO PUSH2 0x1B74 JUMPI PUSH2 0x1B73 PUSH2 0x1B1D JUMP JUMPDEST JUMPDEST DUP1 PUSH1 0x40 MSTORE POP POP POP JUMP JUMPDEST PUSH1 0x0 PUSH2 0x1B87 PUSH2 0x19D4 JUMP JUMPDEST SWAP1 POP PUSH2 0x1B93 DUP3 DUP3 PUSH2 0x1B4C JUMP JUMPDEST SWAP2 SWAP1 POP JUMP JUMPDEST PUSH1 0x0 PUSH8 0xFFFFFFFFFFFFFFFF DUP3 GT ISZERO PUSH2 0x1BB3 JUMPI PUSH2 0x1BB2 PUSH2 0x1B1D JUMP JUMPDEST JUMPDEST PUSH2 0x1BBC DUP3 PUSH2 0x1968 JUMP JUMPDEST SWAP1 POP PUSH1 0x20 DUP2 ADD SWAP1 POP SWAP2 SWAP1 POP JUMP JUMPDEST DUP3 DUP2 DUP4 CALLDATACOPY PUSH1 0x0 DUP4 DUP4 ADD MSTORE POP POP POP JUMP JUMPDEST PUSH1 0x0 PUSH2 0x1BEB PUSH2 0x1BE6 DUP5 PUSH2 0x1B98 JUMP JUMPDEST PUSH2 0x1B7D JUMP JUMPDEST SWAP1 POP DUP3 DUP2 MSTORE PUSH1 0x20 DUP2 ADD DUP5 DUP5 DUP5 ADD GT ISZERO PUSH2 0x1C07 JUMPI PUSH2 0x1C06 PUSH2 0x1B18 JUMP JUMPDEST JUMPDEST PUSH2 0x1C12 DUP5 DUP3 DUP6 PUSH2 0x1BC9 JUMP JUMPDEST POP SWAP4 SWAP3 POP POP POP JUMP JUMPDEST PUSH1 0x0 DUP3 PUSH1 0x1F DUP4 ADD SLT PUSH2 0x1C2F JUMPI PUSH2 0x1C2E PUSH2 0x1B13 JUMP JUMPDEST JUMPDEST DUP2 CALLDATALOAD PUSH2 0x1C3F DUP5 DUP3 PUSH1 0x20 DUP7 ADD PUSH2 0x1BD8 JUMP JUMPDEST SWAP2 POP POP SWAP3 SWAP2 POP POP JUMP JUMPDEST PUSH1 0x0 DUP1 PUSH1 0x40 DUP4 DUP6 SUB SLT ISZERO PUSH2 0x1C5F JUMPI PUSH2 0x1C5E PUSH2 0x19DE JUMP JUMPDEST JUMPDEST PUSH1 0x0 PUSH2 0x1C6D DUP6 DUP3 DUP7 ADD PUSH2 0x1A09 JUMP JUMPDEST SWAP3 POP POP PUSH1 0x20 DUP4 ADD CALLDATALOAD PUSH8 0xFFFFFFFFFFFFFFFF DUP2 GT ISZERO PUSH2 0x1C8E JUMPI PUSH2 0x1C8D PUSH2 0x19E3 JUMP JUMPDEST JUMPDEST PUSH2 0x1C9A DUP6 DUP3 DUP7 ADD PUSH2 0x1C1A JUMP JUMPDEST SWAP2 POP POP SWAP3 POP SWAP3 SWAP1 POP JUMP JUMPDEST PUSH1 0x0 DUP1 PUSH1 0x0 PUSH1 0x60 DUP5 DUP7 SUB SLT ISZERO PUSH2 0x1CBD JUMPI PUSH2 0x1CBC PUSH2 0x19DE JUMP JUMPDEST JUMPDEST PUSH1 0x0 PUSH2 0x1CCB DUP7 DUP3 DUP8 ADD PUSH2 0x1ABE JUMP JUMPDEST SWAP4 POP POP PUSH1 0x20 PUSH2 0x1CDC DUP7 DUP3 DUP8 ADD PUSH2 0x1ABE JUMP JUMPDEST SWAP3 POP POP PUSH1 0x40 PUSH2 0x1CED DUP7 DUP3 DUP8 ADD PUSH2 0x1A09 JUMP JUMPDEST SWAP2 POP POP SWAP3 POP SWAP3 POP SWAP3 JUMP JUMPDEST PUSH1 0x0 PUSH1 0x20 DUP3 DUP5 SUB SLT ISZERO PUSH2 0x1D0D JUMPI PUSH2 0x1D0C PUSH2 0x19DE JUMP JUMPDEST JUMPDEST PUSH1 0x0 PUSH2 0x1D1B DUP5 DUP3 DUP6 ADD PUSH2 0x1ABE JUMP JUMPDEST SWAP2 POP POP SWAP3 SWAP2 POP POP JUMP JUMPDEST PUSH2 0x1D2D DUP2 PUSH2 0x19E8 JUMP JUMPDEST DUP3 MSTORE POP POP JUMP JUMPDEST PUSH1 0x0 PUSH1 0x20 DUP3 ADD SWAP1 POP PUSH2 0x1D48 PUSH1 0x0 DUP4 ADD DUP5 PUSH2 0x1D24 JUMP JUMPDEST SWAP3 SWAP2 POP POP JUMP JUMPDEST PUSH1 0x0 PUSH32 0xFFFFFFFF00000000000000000000000000000000000000000000000000000000 DUP3 AND SWAP1 POP SWAP2 SWAP1 POP JUMP JUMPDEST PUSH2 0x1D83 DUP2 PUSH2 0x1D4E JUMP JUMPDEST DUP2 EQ PUSH2 0x1D8E JUMPI PUSH1 0x0 DUP1 REVERT JUMPDEST POP JUMP JUMPDEST PUSH1 0x0 DUP2 CALLDATALOAD SWAP1 POP PUSH2 0x1DA0 DUP2 PUSH2 0x1D7A JUMP JUMPDEST SWAP3 SWAP2 POP POP JUMP JUMPDEST PUSH1 0x0 PUSH1 0x20 DUP3 DUP5 SUB SLT ISZERO PUSH2 0x1DBC JUMPI PUSH2 0x1DBB PUSH2 0x19DE JUMP JUMPDEST JUMPDEST PUSH1 0x0 PUSH2 0x1DCA DUP5 DUP3 DUP6 ADD PUSH2 0x1D91 JUMP JUMPDEST SWAP2 POP POP SWAP3 SWAP2 POP POP JUMP JUMPDEST PUSH1 0x0 DUP2 ISZERO ISZERO SWAP1 POP SWAP2 SWAP1 POP JUMP JUMPDEST PUSH2 0x1DE8 DUP2 PUSH2 0x1DD3 JUMP JUMPDEST DUP3 MSTORE POP POP JUMP JUMPDEST PUSH1 0x0 PUSH1 0x20 DUP3 ADD SWAP1 POP PUSH2 0x1E03 PUSH1 0x0 DUP4 ADD DUP5 PUSH2 0x1DDF JUMP JUMPDEST SWAP3 SWAP2 POP POP JUMP JUMPDEST PUSH1 0x0 PUSH8 0xFFFFFFFFFFFFFFFF DUP3 GT ISZERO PUSH2 0x1E24 JUMPI PUSH2 0x1E23 PUSH2 0x1B1D JUMP JUMPDEST JUMPDEST PUSH2 0x1E2D DUP3 PUSH2 0x1968 JUMP JUMPDEST SWAP1 POP PUSH1 0x20 DUP2 ADD SWAP1 POP SWAP2 SWAP1 POP JUMP JUMPDEST PUSH1 0x0 PUSH2 0x1E4D PUSH2 0x1E48 DUP5 PUSH2 0x1E09 JUMP JUMPDEST PUSH2 0x1B7D JUMP JUMPDEST SWAP1 POP DUP3 DUP2 MSTORE PUSH1 0x20 DUP2 ADD DUP5 DUP5 DUP5 ADD GT ISZERO PUSH2 0x1E69 JUMPI PUSH2 0x1E68 PUSH2 0x1B18 JUMP JUMPDEST JUMPDEST PUSH2 0x1E74 DUP5 DUP3 DUP6 PUSH2 0x1BC9 JUMP JUMPDEST POP SWAP4 SWAP3 POP POP POP JUMP JUMPDEST PUSH1 0x0 DUP3 PUSH1 0x1F DUP4 ADD SLT PUSH2 0x1E91 JUMPI PUSH2 0x1E90 PUSH2 0x1B13 JUMP JUMPDEST JUMPDEST DUP2 CALLDATALOAD PUSH2 0x1EA1 DUP5 DUP3 PUSH1 0x20 DUP7 ADD PUSH2 0x1E3A JUMP JUMPDEST SWAP2 POP POP SWAP3 SWAP2 POP POP JUMP JUMPDEST PUSH1 0x0 DUP1 PUSH1 0x0 PUSH1 0x60 DUP5 DUP7 SUB SLT ISZERO PUSH2 0x1EC3 JUMPI PUSH2 0x1EC2 PUSH2 0x19DE JUMP JUMPDEST JUMPDEST PUSH1 0x0 PUSH2 0x1ED1 DUP7 DUP3 DUP8 ADD PUSH2 0x1ABE JUMP JUMPDEST SWAP4 POP POP PUSH1 0x20 PUSH2 0x1EE2 DUP7 DUP3 DUP8 ADD PUSH2 0x1A09 JUMP JUMPDEST SWAP3 POP POP PUSH1 0x40 DUP5 ADD CALLDATALOAD PUSH8 0xFFFFFFFFFFFFFFFF DUP2 GT ISZERO PUSH2 0x1F03 JUMPI PUSH2 0x1F02 PUSH2 0x19E3 JUMP JUMPDEST JUMPDEST PUSH2 0x1F0F DUP7 DUP3 DUP8 ADD PUSH2 0x1E7C JUMP JUMPDEST SWAP2 POP POP SWAP3 POP SWAP3 POP SWAP3 JUMP JUMPDEST PUSH2 0x1F22 DUP2 PUSH2 0x1DD3 JUMP JUMPDEST DUP2 EQ PUSH2 0x1F2D JUMPI PUSH1 0x0 DUP1 REVERT JUMPDEST POP JUMP JUMPDEST PUSH1 0x0 DUP2 CALLDATALOAD SWAP1 POP PUSH2 0x1F3F DUP2 PUSH2 0x1F19 JUMP JUMPDEST SWAP3 SWAP2 POP POP JUMP JUMPDEST PUSH1 0x0 DUP1 PUSH1 0x40 DUP4 DUP6 SUB SLT ISZERO PUSH2 0x1F5C JUMPI PUSH2 0x1F5B PUSH2 0x19DE JUMP JUMPDEST JUMPDEST PUSH1 0x0 PUSH2 0x1F6A DUP6 DUP3 DUP7 ADD PUSH2 0x1ABE JUMP JUMPDEST SWAP3 POP POP PUSH1 0x20 PUSH2 0x1F7B DUP6 DUP3 DUP7 ADD PUSH2 0x1F30 JUMP JUMPDEST SWAP2 POP POP SWAP3 POP SWAP3 SWAP1 POP JUMP JUMPDEST PUSH1 0x0 DUP1 REVERT JUMPDEST PUSH1 0x0 DUP1 REVERT JUMPDEST PUSH1 0x0 DUP1 DUP4 PUSH1 0x1F DUP5 ADD SLT PUSH2 0x1FA5 JUMPI PUSH2 0x1FA4 PUSH2 0x1B13 JUMP JUMPDEST JUMPDEST DUP3 CALLDATALOAD SWAP1 POP PUSH8 0xFFFFFFFFFFFFFFFF DUP2 GT ISZERO PUSH2 0x1FC2 JUMPI PUSH2 0x1FC1 PUSH2 0x1F85 JUMP JUMPDEST JUMPDEST PUSH1 0x20 DUP4 ADD SWAP2 POP DUP4 PUSH1 0x1 DUP3 MUL DUP4 ADD GT ISZERO PUSH2 0x1FDE JUMPI PUSH2 0x1FDD PUSH2 0x1F8A JUMP JUMPDEST JUMPDEST SWAP3 POP SWAP3 SWAP1 POP JUMP JUMPDEST PUSH1 0x0 DUP1 PUSH1 0x0 DUP1 PUSH1 0x0 PUSH1 0x80 DUP7 DUP9 SUB SLT ISZERO PUSH2 0x2001 JUMPI PUSH2 0x2000 PUSH2 0x19DE JUMP JUMPDEST JUMPDEST PUSH1 0x0 PUSH2 0x200F DUP9 DUP3 DUP10 ADD PUSH2 0x1ABE JUMP JUMPDEST SWAP6 POP POP PUSH1 0x20 PUSH2 0x2020 DUP9 DUP3 DUP10 ADD PUSH2 0x1ABE JUMP JUMPDEST SWAP5 POP POP PUSH1 0x40 PUSH2 0x2031 DUP9 DUP3 DUP10 ADD PUSH2 0x1A09 JUMP JUMPDEST SWAP4 POP POP PUSH1 0x60 DUP7 ADD CALLDATALOAD PUSH8 0xFFFFFFFFFFFFFFFF DUP2 GT ISZERO PUSH2 0x2052 JUMPI PUSH2 0x2051 PUSH2 0x19E3 JUMP JUMPDEST JUMPDEST PUSH2 0x205E DUP9 DUP3 DUP10 ADD PUSH2 0x1F8F JUMP JUMPDEST SWAP3 POP SWAP3 POP POP SWAP3 SWAP6 POP SWAP3 SWAP6 SWAP1 SWAP4 POP JUMP JUMPDEST PUSH1 0x0 DUP1 PUSH1 0x40 DUP4 DUP6 SUB SLT ISZERO PUSH2 0x2084 JUMPI PUSH2 0x2083 PUSH2 0x19DE JUMP JUMPDEST JUMPDEST PUSH1 0x0 PUSH2 0x2092 DUP6 DUP3 DUP7 ADD PUSH2 0x1ABE JUMP JUMPDEST SWAP3 POP POP PUSH1 0x20 PUSH2 0x20A3 DUP6 DUP3 DUP7 ADD PUSH2 0x1ABE JUMP JUMPDEST SWAP2 POP POP SWAP3 POP SWAP3 SWAP1 POP JUMP JUMPDEST PUSH32 0x4E487B7100000000000000000000000000000000000000000000000000000000 PUSH1 0x0 MSTORE PUSH1 0x22 PUSH1 0x4 MSTORE PUSH1 0x24 PUSH1 0x0 REVERT JUMPDEST PUSH1 0x0 PUSH1 0x2 DUP3 DIV SWAP1 POP PUSH1 0x1 DUP3 AND DUP1 PUSH2 0x20F4 JUMPI PUSH1 0x7F DUP3 AND SWAP2 POP JUMPDEST PUSH1 0x20 DUP3 LT DUP2 SUB PUSH2 0x2107 JUMPI PUSH2 0x2106 PUSH2 0x20AD JUMP JUMPDEST JUMPDEST POP SWAP2 SWAP1 POP JUMP JUMPDEST PUSH32 0x4552524F523A20746F6B656E20686173206E6F74206265656E206D696E74206F PUSH1 0x0 DUP3 ADD MSTORE PUSH32 0x7220686173206265656E206275726E2E00000000000000000000000000000000 PUSH1 0x20 DUP3 ADD MSTORE POP JUMP JUMPDEST PUSH1 0x0 PUSH2 0x2169 PUSH1 0x30 DUP4 PUSH2 0x192D JUMP JUMPDEST SWAP2 POP PUSH2 0x2174 DUP3 PUSH2 0x210D JUMP JUMPDEST PUSH1 0x40 DUP3 ADD SWAP1 POP SWAP2 SWAP1 POP JUMP JUMPDEST PUSH1 0x0 PUSH1 0x20 DUP3 ADD SWAP1 POP DUP2 DUP2 SUB PUSH1 0x0 DUP4 ADD MSTORE PUSH2 0x2198 DUP2 PUSH2 0x215C JUMP JUMPDEST SWAP1 POP SWAP2 SWAP1 POP JUMP JUMPDEST PUSH32 0x4552524F523A204D73672E73656E646572206973206E6F74206F776E6572206F PUSH1 0x0 DUP3 ADD MSTORE PUSH32 0x72206265696E6720617574686F72697A65642E00000000000000000000000000 PUSH1 0x20 DUP3 ADD MSTORE POP JUMP JUMPDEST PUSH1 0x0 PUSH2 0x21FB PUSH1 0x33 DUP4 PUSH2 0x192D JUMP JUMPDEST SWAP2 POP PUSH2 0x2206 DUP3 PUSH2 0x219F JUMP JUMPDEST PUSH1 0x40 DUP3 ADD SWAP1 POP SWAP2 SWAP1 POP JUMP JUMPDEST PUSH1 0x0 PUSH1 0x20 DUP3 ADD SWAP1 POP DUP2 DUP2 SUB PUSH1 0x0 DUP4 ADD MSTORE PUSH2 0x222A DUP2 PUSH2 0x21EE JUMP JUMPDEST SWAP1 POP SWAP2 SWAP1 POP JUMP JUMPDEST PUSH32 0x4552524F523A20546F6B656E204964206973206E6F742076616C696400000000 PUSH1 0x0 DUP3 ADD MSTORE POP JUMP JUMPDEST PUSH1 0x0 PUSH2 0x2267 PUSH1 0x1C DUP4 PUSH2 0x192D JUMP JUMPDEST SWAP2 POP PUSH2 0x2272 DUP3 PUSH2 0x2231 JUMP JUMPDEST PUSH1 0x20 DUP3 ADD SWAP1 POP SWAP2 SWAP1 POP JUMP JUMPDEST PUSH1 0x0 PUSH1 0x20 DUP3 ADD SWAP1 POP DUP2 DUP2 SUB PUSH1 0x0 DUP4 ADD MSTORE PUSH2 0x2296 DUP2 PUSH2 0x225A JUMP JUMPDEST SWAP1 POP SWAP2 SWAP1 POP JUMP JUMPDEST PUSH1 0x0 DUP2 SWAP1 POP DUP2 PUSH1 0x0 MSTORE PUSH1 0x20 PUSH1 0x0 KECCAK256 SWAP1 POP SWAP2 SWAP1 POP JUMP JUMPDEST PUSH1 0x0 PUSH1 0x20 PUSH1 0x1F DUP4 ADD DIV SWAP1 POP SWAP2 SWAP1 POP JUMP JUMPDEST PUSH1 0x0 DUP3 DUP3 SHL SWAP1 POP SWAP3 SWAP2 POP POP JUMP JUMPDEST PUSH1 0x0 PUSH1 0x8 DUP4 MUL PUSH2 0x22FF PUSH32 0xFFFFFFFFFFFFFFFFFFFFFFFFFFFFFFFFFFFFFFFFFFFFFFFFFFFFFFFFFFFFFFFF DUP3 PUSH2 0x22C2 JUMP JUMPDEST PUSH2 0x2309 DUP7 DUP4 PUSH2 0x22C2 JUMP JUMPDEST SWAP6 POP DUP1 NOT DUP5 AND SWAP4 POP DUP1 DUP7 AND DUP5 OR SWAP3 POP POP POP SWAP4 SWAP3 POP POP POP JUMP JUMPDEST PUSH1 0x0 DUP2 SWAP1 POP SWAP2 SWAP1 POP JUMP JUMPDEST PUSH1 0x0 PUSH2 0x2346 PUSH2 0x2341 PUSH2 0x233C DUP5 PUSH2 0x19E8 JUMP JUMPDEST PUSH2 0x2321 JUMP JUMPDEST PUSH2 0x19E8 JUMP JUMPDEST SWAP1 POP SWAP2 SWAP1 POP JUMP JUMPDEST PUSH1 0x0 DUP2 SWAP1 POP SWAP2 SWAP1 POP JUMP JUMPDEST PUSH2 0x2360 DUP4 PUSH2 0x232B JUMP JUMPDEST PUSH2 0x2374 PUSH2 0x236C DUP3 PUSH2 0x234D JUMP JUMPDEST DUP5 DUP5 SLOAD PUSH2 0x22CF JUMP JUMPDEST DUP3 SSTORE POP POP POP POP JUMP JUMPDEST PUSH1 0x0 SWAP1 JUMP JUMPDEST PUSH2 0x2389 PUSH2 0x237C JUMP JUMPDEST PUSH2 0x2394 DUP2 DUP5 DUP5 PUSH2 0x2357 JUMP JUMPDEST POP POP POP JUMP JUMPDEST JUMPDEST DUP2 DUP2 LT ISZERO PUSH2 0x23B8 JUMPI PUSH2 0x23AD PUSH1 0x0 DUP3 PUSH2 0x2381 JUMP JUMPDEST PUSH1 0x1 DUP2 ADD SWAP1 POP PUSH2 0x239A JUMP JUMPDEST POP POP JUMP JUMPDEST PUSH1 0x1F DUP3 GT ISZERO PUSH2 0x23FD JUMPI PUSH2 0x23CE DUP2 PUSH2 0x229D JUMP JUMPDEST PUSH2 0x23D7 DUP5 PUSH2 0x22B2 JUMP JUMPDEST DUP2 ADD PUSH1 0x20 DUP6 LT ISZERO PUSH2 0x23E6 JUMPI DUP2 SWAP1 POP JUMPDEST PUSH2 0x23FA PUSH2 0x23F2 DUP6 PUSH2 0x22B2 JUMP JUMPDEST DUP4 ADD DUP3 PUSH2 0x2399 JUMP JUMPDEST POP POP JUMPDEST POP POP POP JUMP JUMPDEST PUSH1 0x0 DUP3 DUP3 SHR SWAP1 POP SWAP3 SWAP2 POP POP JUMP JUMPDEST PUSH1 0x0 PUSH2 0x2420 PUSH1 0x0 NOT DUP5 PUSH1 0x8 MUL PUSH2 0x2402 JUMP JUMPDEST NOT DUP1 DUP4 AND SWAP2 POP POP SWAP3 SWAP2 POP POP JUMP JUMPDEST PUSH1 0x0 PUSH2 0x2439 DUP4 DUP4 PUSH2 0x240F JUMP JUMPDEST SWAP2 POP DUP3 PUSH1 0x2 MUL DUP3 OR SWAP1 POP SWAP3 SWAP2 POP POP JUMP JUMPDEST PUSH2 0x2452 DUP3 PUSH2 0x1922 JUMP JUMPDEST PUSH8 0xFFFFFFFFFFFFFFFF DUP2 GT ISZERO PUSH2 0x246B JUMPI PUSH2 0x246A PUSH2 0x1B1D JUMP JUMPDEST JUMPDEST PUSH2 0x2475 DUP3 SLOAD PUSH2 0x20DC JUMP JUMPDEST PUSH2 0x2480 DUP3 DUP3 DUP6 PUSH2 0x23BC JUMP JUMPDEST PUSH1 0x0 PUSH1 0x20 SWAP1 POP PUSH1 0x1F DUP4 GT PUSH1 0x1 DUP2 EQ PUSH2 0x24B3 JUMPI PUSH1 0x0 DUP5 ISZERO PUSH2 0x24A1 JUMPI DUP3 DUP8 ADD MLOAD SWAP1 POP JUMPDEST PUSH2 0x24AB DUP6 DUP3 PUSH2 0x242D JUMP JUMPDEST DUP7 SSTORE POP PUSH2 0x2513 JUMP JUMPDEST PUSH1 0x1F NOT DUP5 AND PUSH2 0x24C1 DUP7 PUSH2 0x229D JUMP JUMPDEST PUSH1 0x0 JUMPDEST DUP3 DUP2 LT ISZERO PUSH2 0x24E9 JUMPI DUP5 DUP10 ADD MLOAD DUP3 SSTORE PUSH1 0x1 DUP3 ADD SWAP2 POP PUSH1 0x20 DUP6 ADD SWAP5 POP PUSH1 0x20 DUP2 ADD SWAP1 POP PUSH2 0x24C4 JUMP JUMPDEST DUP7 DUP4 LT ISZERO PUSH2 0x2506 JUMPI DUP5 DUP10 ADD MLOAD PUSH2 0x2502 PUSH1 0x1F DUP10 AND DUP3 PUSH2 0x240F JUMP JUMPDEST DUP4 SSTORE POP JUMPDEST PUSH1 0x1 PUSH1 0x2 DUP9 MUL ADD DUP9 SSTORE POP POP POP JUMPDEST POP POP POP POP POP POP JUMP JUMPDEST PUSH32 0x4552524F523A204D696E7420746F206164647265737320300000000000000000 PUSH1 0x0 DUP3 ADD MSTORE POP JUMP JUMPDEST PUSH1 0x0 PUSH2 0x2551 PUSH1 0x18 DUP4 PUSH2 0x192D JUMP JUMPDEST SWAP2 POP PUSH2 0x255C DUP3 PUSH2 0x251B JUMP JUMPDEST PUSH1 0x20 DUP3 ADD SWAP1 POP SWAP2 SWAP1 POP JUMP JUMPDEST PUSH1 0x0 PUSH1 0x20 DUP3 ADD SWAP1 POP DUP2 DUP2 SUB PUSH1 0x0 DUP4 ADD MSTORE PUSH2 0x2580 DUP2 PUSH2 0x2544 JUMP JUMPDEST SWAP1 POP SWAP2 SWAP1 POP JUMP JUMPDEST PUSH32 0x4552524F523A20746F6B656E49642068617320616C7265616479206578697374 PUSH1 0x0 DUP3 ADD MSTORE PUSH32 0x65642E0000000000000000000000000000000000000000000000000000000000 PUSH1 0x20 DUP3 ADD MSTORE POP JUMP JUMPDEST PUSH1 0x0 PUSH2 0x25E3 PUSH1 0x23 DUP4 PUSH2 0x192D JUMP JUMPDEST SWAP2 POP PUSH2 0x25EE DUP3 PUSH2 0x2587 JUMP JUMPDEST PUSH1 0x40 DUP3 ADD SWAP1 POP SWAP2 SWAP1 POP JUMP JUMPDEST PUSH1 0x0 PUSH1 0x20 DUP3 ADD SWAP1 POP DUP2 DUP2 SUB PUSH1 0x0 DUP4 ADD MSTORE PUSH2 0x2612 DUP2 PUSH2 0x25D6 JUMP JUMPDEST SWAP1 POP SWAP2 SWAP1 POP JUMP JUMPDEST PUSH32 0x4E487B7100000000000000000000000000000000000000000000000000000000 PUSH1 0x0 MSTORE PUSH1 0x11 PUSH1 0x4 MSTORE PUSH1 0x24 PUSH1 0x0 REVERT JUMPDEST PUSH1 0x0 PUSH2 0x2653 DUP3 PUSH2 0x19E8 JUMP JUMPDEST SWAP2 POP PUSH2 0x265E DUP4 PUSH2 0x19E8 JUMP JUMPDEST SWAP3 POP DUP3 DUP3 ADD SWAP1 POP DUP1 DUP3 GT ISZERO PUSH2 0x2676 JUMPI PUSH2 0x2675 PUSH2 0x2619 JUMP JUMPDEST JUMPDEST SWAP3 SWAP2 POP POP JUMP JUMPDEST PUSH32 0x4F6E6C79204E54462773206F776E65722063616E206275726E00000000000000 PUSH1 0x0 DUP3 ADD MSTORE POP JUMP JUMPDEST PUSH1 0x0 PUSH2 0x26B2 PUSH1 0x19 DUP4 PUSH2 0x192D JUMP JUMPDEST SWAP2 POP PUSH2 0x26BD DUP3 PUSH2 0x267C JUMP JUMPDEST PUSH1 0x20 DUP3 ADD SWAP1 POP SWAP2 SWAP1 POP JUMP JUMPDEST PUSH1 0x0 PUSH1 0x20 DUP3 ADD SWAP1 POP DUP2 DUP2 SUB PUSH1 0x0 DUP4 ADD MSTORE PUSH2 0x26E1 DUP2 PUSH2 0x26A5 JUMP JUMPDEST SWAP1 POP SWAP2 SWAP1 POP JUMP JUMPDEST PUSH1 0x0 PUSH2 0x26F3 DUP3 PUSH2 0x19E8 JUMP JUMPDEST SWAP2 POP PUSH2 0x26FE DUP4 PUSH2 0x19E8 JUMP JUMPDEST SWAP3 POP DUP3 DUP3 SUB SWAP1 POP DUP2 DUP2 GT ISZERO PUSH2 0x2716 JUMPI PUSH2 0x2715 PUSH2 0x2619 JUMP JUMPDEST JUMPDEST SWAP3 SWAP2 POP POP JUMP JUMPDEST PUSH32 0x4552524F523A204552435265636569766572206973206E6F7420696D706C656D PUSH1 0x0 DUP3 ADD MSTORE PUSH32 0x656E746564000000000000000000000000000000000000000000000000000000 PUSH1 0x20 DUP3 ADD MSTORE POP JUMP JUMPDEST PUSH1 0x0 PUSH2 0x2778 PUSH1 0x25 DUP4 PUSH2 0x192D JUMP JUMPDEST SWAP2 POP PUSH2 0x2783 DUP3 PUSH2 0x271C JUMP JUMPDEST PUSH1 0x40 DUP3 ADD SWAP1 POP SWAP2 SWAP1 POP JUMP JUMPDEST PUSH1 0x0 PUSH1 0x20 DUP3 ADD SWAP1 POP DUP2 DUP2 SUB PUSH1 0x0 DUP4 ADD MSTORE PUSH2 0x27A7 DUP2 PUSH2 0x276B JUMP JUMPDEST SWAP1 POP SWAP2 SWAP1 POP JUMP JUMPDEST PUSH32 0x4552524F523A206D73672E73656E6465722073686F756C646E27742062652074 PUSH1 0x0 DUP3 ADD MSTORE PUSH32 0x686520706572736F6E206265696E6720617574686F72697A65642E0000000000 PUSH1 0x20 DUP3 ADD MSTORE POP JUMP JUMPDEST PUSH1 0x0 PUSH2 0x280A PUSH1 0x3B DUP4 PUSH2 0x192D JUMP JUMPDEST SWAP2 POP PUSH2 0x2815 DUP3 PUSH2 0x27AE JUMP JUMPDEST PUSH1 0x40 DUP3 ADD SWAP1 POP SWAP2 SWAP1 POP JUMP JUMPDEST PUSH1 0x0 PUSH1 0x20 DUP3 ADD SWAP1 POP DUP2 DUP2 SUB PUSH1 0x0 DUP4 ADD MSTORE PUSH2 0x2839 DUP2 PUSH2 0x27FD JUMP JUMPDEST SWAP1 POP SWAP2 SWAP1 POP JUMP JUMPDEST PUSH32 0x4552524F523A206D73672E73656E6465722073686F756C646E27742062652074 PUSH1 0x0 DUP3 ADD MSTORE PUSH32 0x686520706572736F6E206265696E67207472616E7366657265642E0000000000 PUSH1 0x20 DUP3 ADD MSTORE POP JUMP JUMPDEST PUSH1 0x0 PUSH2 0x289C PUSH1 0x3B DUP4 PUSH2 0x192D JUMP JUMPDEST SWAP2 POP PUSH2 0x28A7 DUP3 PUSH2 0x2840 JUMP JUMPDEST PUSH1 0x40 DUP3 ADD SWAP1 POP SWAP2 SWAP1 POP JUMP JUMPDEST PUSH1 0x0 PUSH1 0x20 DUP3 ADD SWAP1 POP DUP2 DUP2 SUB PUSH1 0x0 DUP4 ADD MSTORE PUSH2 0x28CB DUP2 PUSH2 0x288F JUMP JUMPDEST SWAP1 POP SWAP2 SWAP1 POP JUMP JUMPDEST PUSH32 0x4552524F523A20596F752068617665206E6F207065726D697373696F6E20746F PUSH1 0x0 DUP3 ADD MSTORE PUSH32 0x207472616E736665722074686973206E66742E00000000000000000000000000 PUSH1 0x20 DUP3 ADD MSTORE POP JUMP JUMPDEST PUSH1 0x0 PUSH2 0x292E PUSH1 0x33 DUP4 PUSH2 0x192D JUMP JUMPDEST SWAP2 POP PUSH2 0x2939 DUP3 PUSH2 0x28D2 JUMP JUMPDEST PUSH1 0x40 DUP3 ADD SWAP1 POP SWAP2 SWAP1 POP JUMP JUMPDEST PUSH1 0x0 PUSH1 0x20 DUP3 ADD SWAP1 POP DUP2 DUP2 SUB PUSH1 0x0 DUP4 ADD MSTORE PUSH2 0x295D DUP2 PUSH2 0x2921 JUMP JUMPDEST SWAP1 POP SWAP2 SWAP1 POP JUMP JUMPDEST PUSH32 0x4552524F523A204552433732315265636569766572206973206E6F7420696D70 PUSH1 0x0 DUP3 ADD MSTORE PUSH32 0x6C656D656E746564000000000000000000000000000000000000000000000000 PUSH1 0x20 DUP3 ADD MSTORE POP JUMP JUMPDEST PUSH1 0x0 PUSH2 0x29C0 PUSH1 0x28 DUP4 PUSH2 0x192D JUMP JUMPDEST SWAP2 POP PUSH2 0x29CB DUP3 PUSH2 0x2964 JUMP JUMPDEST PUSH1 0x40 DUP3 ADD SWAP1 POP SWAP2 SWAP1 POP JUMP JUMPDEST PUSH1 0x0 PUSH1 0x20 DUP3 ADD SWAP1 POP DUP2 DUP2 SUB PUSH1 0x0 DUP4 ADD MSTORE PUSH2 0x29EF DUP2 PUSH2 0x29B3 JUMP JUMPDEST SWAP1 POP SWAP2 SWAP1 POP JUMP JUMPDEST PUSH1 0x0 DUP2 MLOAD SWAP1 POP SWAP2 SWAP1 POP JUMP JUMPDEST PUSH1 0x0 DUP3 DUP3 MSTORE PUSH1 0x20 DUP3 ADD SWAP1 POP SWAP3 SWAP2 POP POP JUMP JUMPDEST PUSH1 0x0 PUSH2 0x2A1D DUP3 PUSH2 0x29F6 JUMP JUMPDEST PUSH2 0x2A27 DUP2 DUP6 PUSH2 0x2A01 JUMP JUMPDEST SWAP4 POP PUSH2 0x2A37 DUP2 DUP6 PUSH1 0x20 DUP7 ADD PUSH2 0x193E JUMP JUMPDEST PUSH2 0x2A40 DUP2 PUSH2 0x1968 JUMP JUMPDEST DUP5 ADD SWAP2 POP POP SWAP3 SWAP2 POP POP JUMP JUMPDEST PUSH1 0x0 PUSH1 0x80 DUP3 ADD SWAP1 POP PUSH2 0x2A60 PUSH1 0x0 DUP4 ADD DUP8 PUSH2 0x1A7D JUMP JUMPDEST PUSH2 0x2A6D PUSH1 0x20 DUP4 ADD DUP7 PUSH2 0x1A7D JUMP JUMPDEST PUSH2 0x2A7A PUSH1 0x40 DUP4 ADD DUP6 PUSH2 0x1D24 JUMP JUMPDEST DUP2 DUP2 SUB PUSH1 0x60 DUP4 ADD MSTORE PUSH2 0x2A8C DUP2 DUP5 PUSH2 0x2A12 JUMP JUMPDEST SWAP1 POP SWAP6 SWAP5 POP POP POP POP POP JUMP JUMPDEST PUSH1 0x0 DUP2 MLOAD SWAP1 POP PUSH2 0x2AA6 DUP2 PUSH2 0x1D7A JUMP JUMPDEST SWAP3 SWAP2 POP POP JUMP JUMPDEST PUSH1 0x0 PUSH1 0x20 DUP3 DUP5 SUB SLT ISZERO PUSH2 0x2AC2 JUMPI PUSH2 0x2AC1 PUSH2 0x19DE JUMP JUMPDEST JUMPDEST PUSH1 0x0 PUSH2 0x2AD0 DUP5 DUP3 DUP6 ADD PUSH2 0x2A97 JUMP JUMPDEST SWAP2 POP POP SWAP3 SWAP2 POP POP JUMP JUMPDEST PUSH32 0x4552433732313A207472616E7366657220746F206E6F6E204552433732315265 PUSH1 0x0 DUP3 ADD MSTORE PUSH32 0x63656976657220696D706C656D656E7465722E00000000000000000000000000 PUSH1 0x20 DUP3 ADD MSTORE POP JUMP JUMPDEST PUSH1 0x0 PUSH2 0x2B35 PUSH1 0x33 DUP4 PUSH2 0x192D JUMP JUMPDEST SWAP2 POP PUSH2 0x2B40 DUP3 PUSH2 0x2AD9 JUMP JUMPDEST PUSH1 0x40 DUP3 ADD SWAP1 POP SWAP2 SWAP1 POP JUMP JUMPDEST PUSH1 0x0 PUSH1 0x20 DUP3 ADD SWAP1 POP DUP2 DUP2 SUB PUSH1 0x0 DUP4 ADD MSTORE PUSH2 0x2B64 DUP2 PUSH2 0x2B28 JUMP JUMPDEST SWAP1 POP SWAP2 SWAP1 POP JUMP INVALID LOG2 PUSH5 0x6970667358 0x22 SLT KECCAK256 0x4A DUP10 0xB2 0xD1 EXP 0x28 REVERT 0x1F 0xC 0xE7 LOG3 SIGNEXTEND PUSH13 0xEE887484D7E796C69C88F432C SWAP15 MLOAD 0xBB RETURN PUSH14 0xEF64736F6C634300081100330000 "
				},
				"gasEstimates": {
					"creation": {
						"codeDepositCost": "2233800",
						"executionCost": "infinite",
						"totalCost": "infinite"
					},
					"external": {
						"approve(address,uint256)": "infinite",
						"balanceOf(address)": "2899",
						"burn(uint256)": "infinite",
						"getApproved(uint256)": "5173",
						"isApprovedForAll(address,address)": "infinite",
						"mint(address,uint256)": "infinite",
						"name()": "infinite",
						"ownerOf(uint256)": "3085",
						"safeMint(address,uint256)": "infinite",
						"safeMint(address,uint256,bytes)": "infinite",
						"safeTransferFrom(address,address,uint256)": "infinite",
						"safeTransferFrom(address,address,uint256,bytes)": "infinite",
						"setApprovalForAll(address,bool)": "infinite",
						"setTokenURI(uint256,string)": "infinite",
						"supportInterface(bytes4)": "775",
						"symbol()": "infinite",
						"tokenURI(uint256)": "infinite",
						"transferFrom(address,address,uint256)": "infinite"
					},
					"internal": {
						"_checkOnERC721Received(address,address,uint256,bytes memory)": "infinite",
						"_safeTransfer(address,address,uint256,bytes memory)": "infinite",
						"_transfer(address,address,uint256)": "infinite"
					}
				},
				"methodIdentifiers": {
					"approve(address,uint256)": "095ea7b3",
					"balanceOf(address)": "70a08231",
					"burn(uint256)": "42966c68",
					"getApproved(uint256)": "081812fc",
					"isApprovedForAll(address,address)": "e985e9c5",
					"mint(address,uint256)": "40c10f19",
					"name()": "06fdde03",
					"ownerOf(uint256)": "6352211e",
					"safeMint(address,uint256)": "a1448194",
					"safeMint(address,uint256,bytes)": "8832e6e3",
					"safeTransferFrom(address,address,uint256)": "42842e0e",
					"safeTransferFrom(address,address,uint256,bytes)": "b88d4fde",
					"setApprovalForAll(address,bool)": "a22cb465",
					"setTokenURI(uint256,string)": "162094c4",
					"supportInterface(bytes4)": "75e79be6",
					"symbol()": "95d89b41",
					"tokenURI(uint256)": "c87b56dd",
					"transferFrom(address,address,uint256)": "23b872dd"
				}
			},
			"storageLayout": {
				"storage": [
					{
						"astId": 168,
						"contract": "ERC721(NFT+ERC165).sol:ERC721",
						"label": "_balances",
						"offset": 0,
						"slot": "0",
						"type": "t_mapping(t_address,t_uint256)"
					},
					{
						"astId": 172,
						"contract": "ERC721(NFT+ERC165).sol:ERC721",
						"label": "_owners",
						"offset": 0,
						"slot": "1",
						"type": "t_mapping(t_uint256,t_address)"
					},
					{
						"astId": 176,
						"contract": "ERC721(NFT+ERC165).sol:ERC721",
						"label": "_tokenApprovals",
						"offset": 0,
						"slot": "2",
						"type": "t_mapping(t_uint256,t_address)"
					},
					{
						"astId": 182,
						"contract": "ERC721(NFT+ERC165).sol:ERC721",
						"label": "_operatorApprovals",
						"offset": 0,
						"slot": "3",
						"type": "t_mapping(t_address,t_mapping(t_address,t_bool))"
					},
					{
						"astId": 184,
						"contract": "ERC721(NFT+ERC165).sol:ERC721",
						"label": "_name",
						"offset": 0,
						"slot": "4",
						"type": "t_string_storage"
					},
					{
						"astId": 186,
						"contract": "ERC721(NFT+ERC165).sol:ERC721",
						"label": "_symbol",
						"offset": 0,
						"slot": "5",
						"type": "t_string_storage"
					},
					{
						"astId": 190,
						"contract": "ERC721(NFT+ERC165).sol:ERC721",
						"label": "_tokenURIs",
						"offset": 0,
						"slot": "6",
						"type": "t_mapping(t_uint256,t_string_storage)"
					}
				],
				"types": {
					"t_address": {
						"encoding": "inplace",
						"label": "address",
						"numberOfBytes": "20"
					},
					"t_bool": {
						"encoding": "inplace",
						"label": "bool",
						"numberOfBytes": "1"
					},
					"t_mapping(t_address,t_bool)": {
						"encoding": "mapping",
						"key": "t_address",
						"label": "mapping(address => bool)",
						"numberOfBytes": "32",
						"value": "t_bool"
					},
					"t_mapping(t_address,t_mapping(t_address,t_bool))": {
						"encoding": "mapping",
						"key": "t_address",
						"label": "mapping(address => mapping(address => bool))",
						"numberOfBytes": "32",
						"value": "t_mapping(t_address,t_bool)"
					},
					"t_mapping(t_address,t_uint256)": {
						"encoding": "mapping",
						"key": "t_address",
						"label": "mapping(address => uint256)",
						"numberOfBytes": "32",
						"value": "t_uint256"
					},
					"t_mapping(t_uint256,t_address)": {
						"encoding": "mapping",
						"key": "t_uint256",
						"label": "mapping(uint256 => address)",
						"numberOfBytes": "32",
						"value": "t_address"
					},
					"t_mapping(t_uint256,t_string_storage)": {
						"encoding": "mapping",
						"key": "t_uint256",
						"label": "mapping(uint256 => string)",
						"numberOfBytes": "32",
						"value": "t_string_storage"
					},
					"t_string_storage": {
						"encoding": "bytes",
						"label": "string",
						"numberOfBytes": "32"
					},
					"t_uint256": {
						"encoding": "inplace",
						"label": "uint256",
						"numberOfBytes": "32"
					}
				}
			},
			"userdoc": {
				"kind": "user",
				"methods": {},
				"version": 1
			}
		}
	}
}